{
  "_format": "hh-sol-artifact-1",
  "contractName": "FarcasterResolverSimpleConsumer",
  "sourceName": "contracts/consumer/simple/FarcasterResolverSimpleConsumer.sol",
  "abi": [
    {
      "inputs": [
        {
          "internalType": "contract IEAS",
          "name": "eas",
          "type": "address"
        },
        {
          "internalType": "contract IFarcasterVerification",
          "name": "_resolver",
          "type": "address"
        }
      ],
      "stateMutability": "nonpayable",
      "type": "constructor"
    },
    {
      "inputs": [],
      "name": "AccessDenied",
      "type": "error"
    },
    {
      "inputs": [],
      "name": "InsufficientValue",
      "type": "error"
    },
    {
      "inputs": [],
      "name": "InvalidEAS",
      "type": "error"
    },
    {
      "inputs": [],
      "name": "InvalidLength",
      "type": "error"
    },
    {
      "inputs": [],
      "name": "NotPayable",
      "type": "error"
    },
    {
      "inputs": [
        {
          "components": [
            {
              "internalType": "bytes32",
              "name": "uid",
              "type": "bytes32"
            },
            {
              "internalType": "bytes32",
              "name": "schema",
              "type": "bytes32"
            },
            {
              "internalType": "uint64",
              "name": "time",
              "type": "uint64"
            },
            {
              "internalType": "uint64",
              "name": "expirationTime",
              "type": "uint64"
            },
            {
              "internalType": "uint64",
              "name": "revocationTime",
              "type": "uint64"
            },
            {
              "internalType": "bytes32",
              "name": "refUID",
              "type": "bytes32"
            },
            {
              "internalType": "address",
              "name": "recipient",
              "type": "address"
            },
            {
              "internalType": "address",
              "name": "attester",
              "type": "address"
            },
            {
              "internalType": "bool",
              "name": "revocable",
              "type": "bool"
            },
            {
              "internalType": "bytes",
              "name": "data",
              "type": "bytes"
            }
          ],
          "internalType": "struct Attestation",
          "name": "attestation",
          "type": "tuple"
        }
      ],
      "name": "attest",
      "outputs": [
        {
          "internalType": "bool",
          "name": "",
          "type": "bool"
        }
      ],
      "stateMutability": "payable",
      "type": "function"
    },
    {
      "inputs": [
        {
          "components": [
            {
              "internalType": "bytes32",
              "name": "uid",
              "type": "bytes32"
            },
            {
              "internalType": "bytes32",
              "name": "schema",
              "type": "bytes32"
            },
            {
              "internalType": "uint64",
              "name": "time",
              "type": "uint64"
            },
            {
              "internalType": "uint64",
              "name": "expirationTime",
              "type": "uint64"
            },
            {
              "internalType": "uint64",
              "name": "revocationTime",
              "type": "uint64"
            },
            {
              "internalType": "bytes32",
              "name": "refUID",
              "type": "bytes32"
            },
            {
              "internalType": "address",
              "name": "recipient",
              "type": "address"
            },
            {
              "internalType": "address",
              "name": "attester",
              "type": "address"
            },
            {
              "internalType": "bool",
              "name": "revocable",
              "type": "bool"
            },
            {
              "internalType": "bytes",
              "name": "data",
              "type": "bytes"
            }
          ],
          "internalType": "struct Attestation",
          "name": "attestation",
          "type": "tuple"
        },
        {
          "internalType": "uint256",
          "name": "",
          "type": "uint256"
        },
        {
          "internalType": "bool",
          "name": "",
          "type": "bool"
        }
      ],
      "name": "decodeFarcasterAttestation",
      "outputs": [
        {
          "internalType": "uint256",
          "name": "fid",
          "type": "uint256"
        },
        {
          "internalType": "address",
          "name": "wallet",
          "type": "address"
        }
      ],
      "stateMutability": "pure",
      "type": "function"
    },
    {
      "inputs": [],
      "name": "isPayable",
      "outputs": [
        {
          "internalType": "bool",
          "name": "",
          "type": "bool"
        }
      ],
      "stateMutability": "pure",
      "type": "function"
    },
    {
      "inputs": [
        {
          "components": [
            {
              "internalType": "bytes32",
              "name": "uid",
              "type": "bytes32"
            },
            {
              "internalType": "bytes32",
              "name": "schema",
              "type": "bytes32"
            },
            {
              "internalType": "uint64",
              "name": "time",
              "type": "uint64"
            },
            {
              "internalType": "uint64",
              "name": "expirationTime",
              "type": "uint64"
            },
            {
              "internalType": "uint64",
              "name": "revocationTime",
              "type": "uint64"
            },
            {
              "internalType": "bytes32",
              "name": "refUID",
              "type": "bytes32"
            },
            {
              "internalType": "address",
              "name": "recipient",
              "type": "address"
            },
            {
              "internalType": "address",
              "name": "attester",
              "type": "address"
            },
            {
              "internalType": "bool",
              "name": "revocable",
              "type": "bool"
            },
            {
              "internalType": "bytes",
              "name": "data",
              "type": "bytes"
            }
          ],
          "internalType": "struct Attestation",
          "name": "attestation",
          "type": "tuple"
        },
        {
          "internalType": "uint256",
          "name": "value",
          "type": "uint256"
        },
        {
          "internalType": "bool",
          "name": "isRevoke",
          "type": "bool"
        }
      ],
      "name": "isValidAttestation",
      "outputs": [
        {
          "internalType": "bool",
          "name": "valid",
          "type": "bool"
        },
        {
          "internalType": "uint256",
          "name": "fid",
          "type": "uint256"
        },
        {
          "internalType": "address",
          "name": "wallet",
          "type": "address"
        }
      ],
      "stateMutability": "nonpayable",
      "type": "function"
    },
    {
      "inputs": [
        {
          "components": [
            {
              "internalType": "bytes32",
              "name": "uid",
              "type": "bytes32"
            },
            {
              "internalType": "bytes32",
              "name": "schema",
              "type": "bytes32"
            },
            {
              "internalType": "uint64",
              "name": "time",
              "type": "uint64"
            },
            {
              "internalType": "uint64",
              "name": "expirationTime",
              "type": "uint64"
            },
            {
              "internalType": "uint64",
              "name": "revocationTime",
              "type": "uint64"
            },
            {
              "internalType": "bytes32",
              "name": "refUID",
              "type": "bytes32"
            },
            {
              "internalType": "address",
              "name": "recipient",
              "type": "address"
            },
            {
              "internalType": "address",
              "name": "attester",
              "type": "address"
            },
            {
              "internalType": "bool",
              "name": "revocable",
              "type": "bool"
            },
            {
              "internalType": "bytes",
              "name": "data",
              "type": "bytes"
            }
          ],
          "internalType": "struct Attestation[]",
          "name": "attestations",
          "type": "tuple[]"
        },
        {
          "internalType": "uint256[]",
          "name": "values",
          "type": "uint256[]"
        }
      ],
      "name": "multiAttest",
      "outputs": [
        {
          "internalType": "bool",
          "name": "",
          "type": "bool"
        }
      ],
      "stateMutability": "payable",
      "type": "function"
    },
    {
      "inputs": [
        {
          "components": [
            {
              "internalType": "bytes32",
              "name": "uid",
              "type": "bytes32"
            },
            {
              "internalType": "bytes32",
              "name": "schema",
              "type": "bytes32"
            },
            {
              "internalType": "uint64",
              "name": "time",
              "type": "uint64"
            },
            {
              "internalType": "uint64",
              "name": "expirationTime",
              "type": "uint64"
            },
            {
              "internalType": "uint64",
              "name": "revocationTime",
              "type": "uint64"
            },
            {
              "internalType": "bytes32",
              "name": "refUID",
              "type": "bytes32"
            },
            {
              "internalType": "address",
              "name": "recipient",
              "type": "address"
            },
            {
              "internalType": "address",
              "name": "attester",
              "type": "address"
            },
            {
              "internalType": "bool",
              "name": "revocable",
              "type": "bool"
            },
            {
              "internalType": "bytes",
              "name": "data",
              "type": "bytes"
            }
          ],
          "internalType": "struct Attestation[]",
          "name": "attestations",
          "type": "tuple[]"
        },
        {
          "internalType": "uint256[]",
          "name": "values",
          "type": "uint256[]"
        }
      ],
      "name": "multiRevoke",
      "outputs": [
        {
          "internalType": "bool",
          "name": "",
          "type": "bool"
        }
      ],
      "stateMutability": "payable",
      "type": "function"
    },
    {
      "inputs": [],
      "name": "resolver",
      "outputs": [
        {
          "internalType": "contract IFarcasterVerification",
          "name": "",
          "type": "address"
        }
      ],
      "stateMutability": "view",
      "type": "function"
    },
    {
      "inputs": [
        {
          "components": [
            {
              "internalType": "bytes32",
              "name": "uid",
              "type": "bytes32"
            },
            {
              "internalType": "bytes32",
              "name": "schema",
              "type": "bytes32"
            },
            {
              "internalType": "uint64",
              "name": "time",
              "type": "uint64"
            },
            {
              "internalType": "uint64",
              "name": "expirationTime",
              "type": "uint64"
            },
            {
              "internalType": "uint64",
              "name": "revocationTime",
              "type": "uint64"
            },
            {
              "internalType": "bytes32",
              "name": "refUID",
              "type": "bytes32"
            },
            {
              "internalType": "address",
              "name": "recipient",
              "type": "address"
            },
            {
              "internalType": "address",
              "name": "attester",
              "type": "address"
            },
            {
              "internalType": "bool",
              "name": "revocable",
              "type": "bool"
            },
            {
              "internalType": "bytes",
              "name": "data",
              "type": "bytes"
            }
          ],
          "internalType": "struct Attestation",
          "name": "attestation",
          "type": "tuple"
        }
      ],
      "name": "revoke",
      "outputs": [
        {
          "internalType": "bool",
          "name": "",
          "type": "bool"
        }
      ],
      "stateMutability": "payable",
      "type": "function"
    },
    {
      "inputs": [
        {
          "internalType": "bytes4",
          "name": "interfaceId",
          "type": "bytes4"
        }
      ],
      "name": "supportsInterface",
      "outputs": [
        {
          "internalType": "bool",
          "name": "",
          "type": "bool"
        }
      ],
      "stateMutability": "view",
      "type": "function"
    },
    {
      "inputs": [],
      "name": "version",
      "outputs": [
        {
          "internalType": "string",
          "name": "",
          "type": "string"
        }
      ],
      "stateMutability": "view",
      "type": "function"
    },
    {
      "stateMutability": "payable",
      "type": "receive"
    }
  ],
  "bytecode": "0x61012060405234801561001157600080fd5b50604051610e80380380610e808339810160408190526100309161009d565b6001608052600360a052600060c0528181816001600160a01b038116610069576040516341bc07ff60e11b815260040160405180910390fd5b6001600160a01b0390811660e0521661010052506100d7915050565b6001600160a01b038116811461009a57600080fd5b50565b600080604083850312156100b057600080fd5b82516100bb81610085565b60208401519092506100cc81610085565b809150509250929050565b60805160a05160c05160e05161010051610d5e6101226000396000818161017a01526105d70152600061078e0152600061033901526000610310015260006102e70152610d5e6000f3fe6080604052600436106100b55760003560e01c8063b91e2f7e11610069578063e49617e11161004e578063e49617e114610270578063e60c350514610283578063fafec1c71461029657600080fd5b8063b91e2f7e14610209578063ce46e0461461025c57600080fd5b806354fd4d501161009a57806354fd4d50146101c157806388e5b2d9146101e357806391db0b7e146101f657600080fd5b806301ffc9a7146100f157806304f3bcec1461016857600080fd5b366100ec576040517f1574f9f300000000000000000000000000000000000000000000000000000000815260040160405180910390fd5b600080fd5b3480156100fd57600080fd5b5061015361010c3660046108ef565b7fffffffff00000000000000000000000000000000000000000000000000000000167ffafec1c7000000000000000000000000000000000000000000000000000000001490565b60405190151581526020015b60405180910390f35b34801561017457600080fd5b5061019c7f000000000000000000000000000000000000000000000000000000000000000081565b60405173ffffffffffffffffffffffffffffffffffffffff909116815260200161015f565b3480156101cd57600080fd5b506101d66102e0565b60405161015f919061095c565b6101536101f13660046109f9565b610383565b6101536102043660046109f9565b610484565b34801561021557600080fd5b50610229610224366004610a94565b610575565b604080519315158452602084019290925273ffffffffffffffffffffffffffffffffffffffff169082015260600161015f565b34801561026857600080fd5b506000610153565b61015361027e366004610aef565b61064f565b610153610291366004610aef565b610669565b3480156102a257600080fd5b506102b66102b1366004610a94565b61067d565b6040805192835273ffffffffffffffffffffffffffffffffffffffff90911660208301520161015f565b606061030b7f00000000000000000000000000000000000000000000000000000000000000006106b8565b6103347f00000000000000000000000000000000000000000000000000000000000000006106b8565b61035d7f00000000000000000000000000000000000000000000000000000000000000006106b8565b60405160200161036f93929190610b24565b604051602081830303815290604052905090565b600061038d610776565b838281146103c7576040517f947d5a8400000000000000000000000000000000000000000000000000000000815260040160405180910390fd5b3460005b828110156104745760008686838181106103e7576103e7610bbb565b9050602002013590508281111561042a576040517f1101129400000000000000000000000000000000000000000000000000000000815260040160405180910390fd5b61045789898481811061043f5761043f610bbb565b90506020028101906104519190610bea565b826107e7565b61046857600094505050505061047c565b909103906001016103cb565b506001925050505b949350505050565b600061048e610776565b838281146104c8576040517f947d5a8400000000000000000000000000000000000000000000000000000000815260040160405180910390fd5b3460005b828110156104745760008686838181106104e8576104e8610bbb565b9050602002013590508281111561052b576040517f1101129400000000000000000000000000000000000000000000000000000000815260040160405180910390fd5b61055889898481811061054057610540610bbb565b90506020028101906105529190610bea565b826107ff565b61056957600094505050505061047c565b909103906001016104cc565b600080600061058586868661067d565b6040517f5659c8380000000000000000000000000000000000000000000000000000000081526004810183905273ffffffffffffffffffffffffffffffffffffffff80831660248301529294509092507f000000000000000000000000000000000000000000000000000000000000000090911690635659c83890604401602060405180830381865afa158015610620573d6000803e3d6000fd5b505050506040513d601f19601f820116820180604052508101906106449190610c28565b925093509350939050565b6000610659610776565b61066382346107e7565b92915050565b6000610673610776565b61066382346107ff565b60008061068e610120860186610c45565b81019061069b9190610caa565b91506106ae610100860160e08701610cc3565b9050935093915050565b606060006106c58361080d565b600101905060008167ffffffffffffffff8111156106e5576106e5610cf9565b6040519080825280601f01601f19166020018201604052801561070f576020820181803683370190505b5090508181016020015b7fffffffffffffffffffffffffffffffffffffffffffffffffffffffffffffffff017f3031323334353637383961626364656600000000000000000000000000000000600a86061a8153600a850494508461071957509392505050565b3373ffffffffffffffffffffffffffffffffffffffff7f000000000000000000000000000000000000000000000000000000000000000016146107e5576040517f4ca8886700000000000000000000000000000000000000000000000000000000815260040160405180910390fd5b565b60006107f583836001610575565b5090949350505050565b60006107f583836000610575565b6000807a184f03e93ff9f4daa797ed6e38ed64bf6a1f0100000000000000008310610856577a184f03e93ff9f4daa797ed6e38ed64bf6a1f010000000000000000830492506040015b6d04ee2d6d415b85acef81000000008310610882576d04ee2d6d415b85acef8100000000830492506020015b662386f26fc1000083106108a057662386f26fc10000830492506010015b6305f5e10083106108b8576305f5e100830492506008015b61271083106108cc57612710830492506004015b606483106108de576064830492506002015b600a83106106635760010192915050565b60006020828403121561090157600080fd5b81357fffffffff000000000000000000000000000000000000000000000000000000008116811461093157600080fd5b9392505050565b60005b8381101561095357818101518382015260200161093b565b50506000910152565b602081526000825180602084015261097b816040850160208701610938565b601f017fffffffffffffffffffffffffffffffffffffffffffffffffffffffffffffffe0169190910160400192915050565b60008083601f8401126109bf57600080fd5b50813567ffffffffffffffff8111156109d757600080fd5b6020830191508360208260051b85010111156109f257600080fd5b9250929050565b60008060008060408587031215610a0f57600080fd5b843567ffffffffffffffff811115610a2657600080fd5b610a32878288016109ad565b909550935050602085013567ffffffffffffffff811115610a5257600080fd5b610a5e878288016109ad565b95989497509550505050565b60006101408284031215610a7d57600080fd5b50919050565b8015158114610a9157600080fd5b50565b600080600060608486031215610aa957600080fd5b833567ffffffffffffffff811115610ac057600080fd5b610acc86828701610a6a565b935050602084013591506040840135610ae481610a83565b809150509250925092565b600060208284031215610b0157600080fd5b813567ffffffffffffffff811115610b1857600080fd5b61047c84828501610a6a565b60008451610b36818460208901610938565b7f2e000000000000000000000000000000000000000000000000000000000000009083019081528451610b70816001840160208901610938565b7f2e00000000000000000000000000000000000000000000000000000000000000600192909101918201528351610bae816002840160208801610938565b0160020195945050505050565b7f4e487b7100000000000000000000000000000000000000000000000000000000600052603260045260246000fd5b600082357ffffffffffffffffffffffffffffffffffffffffffffffffffffffffffffffec1833603018112610c1e57600080fd5b9190910192915050565b600060208284031215610c3a57600080fd5b815161093181610a83565b60008083357fffffffffffffffffffffffffffffffffffffffffffffffffffffffffffffffe1843603018112610c7a57600080fd5b83018035915067ffffffffffffffff821115610c9557600080fd5b6020019150368190038213156109f257600080fd5b600060208284031215610cbc57600080fd5b5035919050565b600060208284031215610cd557600080fd5b813573ffffffffffffffffffffffffffffffffffffffff8116811461093157600080fd5b7f4e487b7100000000000000000000000000000000000000000000000000000000600052604160045260246000fdfea2646970667358221220bfe08faf010cb1cd587c7a894f7359f102c4efd31b8fd66c482f3bfac913f71a64736f6c634300081a0033",
  "linkReferences": {},
  "deployedLinkReferences": {}
}