{
  "_format": "hh-sol-artifact-1",
  "contractName": "FcMessageVerification",
  "sourceName": "@farcaster-attestation/farcaster-solidity/contracts/farcaster/FcMessageVerification.sol",
  "abi": [
    {
      "inputs": [],
      "name": "InvalidSignature",
      "type": "error"
    },
    {
      "inputs": [
        {
          "internalType": "uint256",
          "name": "chainId",
          "type": "uint256"
        }
      ],
      "name": "InvalidVerificationChain",
      "type": "error"
    },
    {
      "inputs": [
        {
          "internalType": "enum Protocol",
          "name": "protocol",
          "type": "uint8"
        }
      ],
      "name": "InvalidVerificationProtocol",
      "type": "error"
    },
    {
      "inputs": [
        {
          "components": [
            {
              "internalType": "enum MessageType",
              "name": "type_",
              "type": "MessageType"
            },
            {
              "internalType": "uint64",
              "name": "fid",
              "type": "uint64"
            },
            {
              "internalType": "uint32",
              "name": "timestamp",
              "type": "uint32"
            },
            {
              "internalType": "enum FarcasterNetwork",
              "name": "network",
              "type": "FarcasterNetwork"
            },
            {
              "internalType": "bool",
              "name": "cast_add_body",
              "type": "bool"
            },
            {
              "internalType": "bool",
              "name": "cast_remove_body",
              "type": "bool"
            },
            {
              "internalType": "bool",
              "name": "reaction_body",
              "type": "bool"
            },
            {
              "internalType": "bool",
              "name": "empty",
              "type": "bool"
            },
            {
              "components": [
                {
                  "internalType": "bytes",
                  "name": "address_",
                  "type": "bytes"
                },
                {
                  "internalType": "bytes",
                  "name": "claim_signature",
                  "type": "bytes"
                },
                {
                  "internalType": "bytes",
                  "name": "block_hash",
                  "type": "bytes"
                },
                {
                  "internalType": "uint32",
                  "name": "verification_type",
                  "type": "uint32"
                },
                {
                  "internalType": "uint32",
                  "name": "chain_id",
                  "type": "uint32"
                },
                {
                  "internalType": "bool",
                  "name": "unknown_6",
                  "type": "bool"
                },
                {
                  "internalType": "enum Protocol",
                  "name": "protocol",
                  "type": "Protocol"
                }
              ],
              "internalType": "struct VerificationAddAddressBody",
              "name": "verification_add_address_body",
              "type": "tuple"
            },
            {
              "internalType": "bool",
              "name": "verification_remove_body",
              "type": "bool"
            },
            {
              "internalType": "bool",
              "name": "deprecated_signer_add_body",
              "type": "bool"
            },
            {
              "internalType": "bool",
              "name": "user_data_body",
              "type": "bool"
            },
            {
              "internalType": "bool",
              "name": "deprecated_signer_remove_body",
              "type": "bool"
            },
            {
              "internalType": "bool",
              "name": "link_body",
              "type": "bool"
            },
            {
              "internalType": "bool",
              "name": "username_proof_body",
              "type": "bool"
            },
            {
              "internalType": "bool",
              "name": "frame_action_body",
              "type": "bool"
            }
          ],
          "internalType": "struct MessageDataVerificationAddAddress",
          "name": "claim",
          "type": "tuple"
        }
      ],
      "name": "verifyEthAddressClaim",
      "outputs": [
        {
          "internalType": "bool",
          "name": "",
          "type": "bool"
        }
      ],
      "stateMutability": "view",
      "type": "function"
    },
    {
      "inputs": [
        {
          "components": [
            {
              "internalType": "enum MessageType",
              "name": "type_",
              "type": "MessageType"
            },
            {
              "internalType": "uint64",
              "name": "fid",
              "type": "uint64"
            },
            {
              "internalType": "uint32",
              "name": "timestamp",
              "type": "uint32"
            },
            {
              "internalType": "enum FarcasterNetwork",
              "name": "network",
              "type": "FarcasterNetwork"
            },
            {
              "internalType": "bool",
              "name": "cast_add_body",
              "type": "bool"
            },
            {
              "internalType": "bool",
              "name": "cast_remove_body",
              "type": "bool"
            },
            {
              "internalType": "bool",
              "name": "reaction_body",
              "type": "bool"
            },
            {
              "internalType": "bool",
              "name": "empty",
              "type": "bool"
            },
            {
              "components": [
                {
                  "internalType": "bytes",
                  "name": "address_",
                  "type": "bytes"
                },
                {
                  "internalType": "bytes",
                  "name": "claim_signature",
                  "type": "bytes"
                },
                {
                  "internalType": "bytes",
                  "name": "block_hash",
                  "type": "bytes"
                },
                {
                  "internalType": "uint32",
                  "name": "verification_type",
                  "type": "uint32"
                },
                {
                  "internalType": "uint32",
                  "name": "chain_id",
                  "type": "uint32"
                },
                {
                  "internalType": "bool",
                  "name": "unknown_6",
                  "type": "bool"
                },
                {
                  "internalType": "enum Protocol",
                  "name": "protocol",
                  "type": "Protocol"
                }
              ],
              "internalType": "struct VerificationAddAddressBody",
              "name": "verification_add_address_body",
              "type": "tuple"
            },
            {
              "internalType": "bool",
              "name": "verification_remove_body",
              "type": "bool"
            },
            {
              "internalType": "bool",
              "name": "deprecated_signer_add_body",
              "type": "bool"
            },
            {
              "internalType": "bool",
              "name": "user_data_body",
              "type": "bool"
            },
            {
              "internalType": "bool",
              "name": "deprecated_signer_remove_body",
              "type": "bool"
            },
            {
              "internalType": "bool",
              "name": "link_body",
              "type": "bool"
            },
            {
              "internalType": "bool",
              "name": "username_proof_body",
              "type": "bool"
            },
            {
              "internalType": "bool",
              "name": "frame_action_body",
              "type": "bool"
            }
          ],
          "internalType": "struct MessageDataVerificationAddAddress",
          "name": "claim",
          "type": "tuple"
        }
      ],
      "name": "verifyEthAddressClaimAndRevert",
      "outputs": [],
      "stateMutability": "view",
      "type": "function"
    },
    {
      "inputs": [
        {
          "internalType": "bytes32",
          "name": "public_key",
          "type": "bytes32"
        },
        {
          "internalType": "bytes32",
          "name": "signature_r",
          "type": "bytes32"
        },
        {
          "internalType": "bytes32",
          "name": "signature_s",
          "type": "bytes32"
        },
        {
          "internalType": "bytes",
          "name": "message",
          "type": "bytes"
        }
      ],
      "name": "verifyMessage",
      "outputs": [
        {
          "internalType": "bool",
          "name": "",
          "type": "bool"
        }
      ],
      "stateMutability": "pure",
      "type": "function"
    },
    {
      "inputs": [
        {
          "internalType": "bytes32",
          "name": "public_key",
          "type": "bytes32"
        },
        {
          "internalType": "bytes32",
          "name": "signature_r",
          "type": "bytes32"
        },
        {
          "internalType": "bytes32",
          "name": "signature_s",
          "type": "bytes32"
        },
        {
          "internalType": "bytes",
          "name": "message",
          "type": "bytes"
        }
      ],
      "name": "verifyMessageAndRevert",
      "outputs": [],
      "stateMutability": "pure",
      "type": "function"
    }
  ],
  "bytecode": "0x611134610039600b82828239805160001a607314602c57634e487b7160e01b600052600060045260246000fd5b30600052607381538281f3fe73000000000000000000000000000000000000000030146080604052600436106100565760003560e01c8063263511161461005b57806369cc64b614610070578063ac0dad6114610097578063cde41a0d146100aa575b600080fd5b61006e610069366004610b82565b6100bd565b005b61008361007e366004610b82565b610105565b604051901515815260200160405180910390f35b61006e6100a5366004610d37565b610249565b6100836100b8366004610d37565b61028b565b6100c984848484610105565b6100ff576040517f8baa579f00000000000000000000000000000000000000000000000000000000815260040160405180910390fd5b50505050565b60008073__$064a39dbf005345f8f9fb8b64ba8bbf23f$__63227bb04d8460146040518363ffffffff1660e01b8152600401610142929190610f26565b600060405180830381865af415801561015f573d6000803e3d6000fd5b505050506040513d6000823e601f3d9081017fffffffffffffffffffffffffffffffffffffffffffffffffffffffffffffffe01682016040526101a59190810190610f4e565b6040517f2bf6eda800000000000000000000000000000000000000000000000000000000815290915073__$321d55fee73437e06217f51a9e98f49e37$__90632bf6eda8906101fe908990899089908790600401610fbc565b602060405180830381865af415801561021b573d6000803e3d6000fd5b505050506040513d601f19601f8201168201806040525081019061023f9190610fe1565b9695505050505050565b6102528161028b565b610288576040517f8baa579f00000000000000000000000000000000000000000000000000000000815260040160405180910390fd5b50565b60008082610100015160c0015160018111156102a9576102a9611005565b146102f45781610100015160c001516040517f88bac2cd0000000000000000000000000000000000000000000000000000000081526004016102eb9190611034565b60405180910390fd5b6101008201516080015163ffffffff16158015906103215750468261010001516080015163ffffffff1614155b1561036b57610100820151608001516040517ff5b59f3700000000000000000000000000000000000000000000000000000000815263ffffffff90911660048201526024016102eb565b8161010001516060015163ffffffff1660011480156103995750468261010001516080015163ffffffff1614155b156103e357610100820151608001516040517ff5b59f3700000000000000000000000000000000000000000000000000000000815263ffffffff90911660048201526024016102eb565b60006103f7836101000151600001516104dc565b905060007f37a124457570b0237075d0c477282eaf88b1bb865fe66b41aacfa0259556af0884602001518361043487610100015160400151610504565b876060015160405160200161044d95949392919061104e565b60405160208183030381529060405280519060200120905060006104bd6104828661010001516080015163ffffffff1661059f565b836040517f19010000000000000000000000000000000000000000000000000000000000008152600281019290925260228201526042902090565b90506104d3838287610100015160200151610715565b95945050505050565b600081516014146104ec57600080fd5b50602001516c01000000000000000000000000900490565b60008151602014610597576040517f08c379a000000000000000000000000000000000000000000000000000000000815260206004820152602a60248201527f536f75726365206279746573206d7573742062652065786163746c792033322060448201527f6279746573206c6f6e670000000000000000000000000000000000000000000060648201526084016102eb565b506020015190565b60008160000361066857604080517f599a80fcaa47b95e2323ab4d34d34e0cc9feda4b843edafcc30c7bdf60ea15bf60208201527f0bc86d716919df6b1f5f289daab8682d331d406b1eb2cbb21a55f09766c83369918101919091527fb4bcb154e38601c389396fa918314da42d4626f13ef6d0ceb07e5f5d26b2fbc360608201527ff2d857f4a3edcb9b78b4d503bfe733db1e3f6cdc2b7971ee739626c97e86a558608082015260a0015b604051602081830303815290604052805190602001209050919050565b604080517fa604fff5a27d5951f334ccda7abff3286a8af29caeeb196a6f2b40a1dce7612b60208201527f0bc86d716919df6b1f5f289daab8682d331d406b1eb2cbb21a55f09766c83369918101919091527fb4bcb154e38601c389396fa918314da42d4626f13ef6d0ceb07e5f5d26b2fbc36060820152608081018390527ff2d857f4a3edcb9b78b4d503bfe733db1e3f6cdc2b7971ee739626c97e86a55860a082015260c00161064b565b60008060006107248585610787565b509092509050600081600381111561073e5761073e611005565b14801561077657508573ffffffffffffffffffffffffffffffffffffffff168273ffffffffffffffffffffffffffffffffffffffff16145b8061023f575061023f8686866107d4565b600080600083516041036107c15760208401516040850151606086015160001a6107b388828585610921565b9550955095505050506107cd565b50508151600091506002905b9250925092565b60008060008573ffffffffffffffffffffffffffffffffffffffff1685856040516024016108039291906110a8565b604080517fffffffffffffffffffffffffffffffffffffffffffffffffffffffffffffffe08184030181529181526020820180517bffffffffffffffffffffffffffffffffffffffffffffffffffffffff167f1626ba7e000000000000000000000000000000000000000000000000000000001790525161088491906110c9565b600060405180830381855afa9150503d80600081146108bf576040519150601f19603f3d011682016040523d82523d6000602084013e6108c4565b606091505b50915091508180156108d857506020815110155b801561023f575080517f1626ba7e000000000000000000000000000000000000000000000000000000009061091690830160209081019084016110e5565b149695505050505050565b600080807f7fffffffffffffffffffffffffffffff5d576e7357a4501ddfe92f46681b20a084111561095c5750600091506003905082610a11565b604080516000808252602082018084528a905260ff891692820192909252606081018790526080810186905260019060a0016020604051602081039080840390855afa1580156109b0573d6000803e3d6000fd5b50506040517fffffffffffffffffffffffffffffffffffffffffffffffffffffffffffffffe0015191505073ffffffffffffffffffffffffffffffffffffffff8116610a0757506000925060019150829050610a11565b9250600091508190505b9450945094915050565b7f4e487b7100000000000000000000000000000000000000000000000000000000600052604160045260246000fd5b60405160e0810167ffffffffffffffff81118282101715610a6d57610a6d610a1b565b60405290565b604051610200810167ffffffffffffffff81118282101715610a6d57610a6d610a1b565b604051601f82017fffffffffffffffffffffffffffffffffffffffffffffffffffffffffffffffe016810167ffffffffffffffff81118282101715610ade57610ade610a1b565b604052919050565b600067ffffffffffffffff821115610b0057610b00610a1b565b50601f017fffffffffffffffffffffffffffffffffffffffffffffffffffffffffffffffe01660200190565b600082601f830112610b3d57600080fd5b8135610b50610b4b82610ae6565b610a97565b818152846020838601011115610b6557600080fd5b816020850160208301376000918101602001919091529392505050565b60008060008060808587031215610b9857600080fd5b843593506020850135925060408501359150606085013567ffffffffffffffff811115610bc457600080fd5b610bd087828801610b2c565b91505092959194509250565b8035600f8110610beb57600080fd5b919050565b803567ffffffffffffffff81168114610beb57600080fd5b803563ffffffff81168114610beb57600080fd5b803560048110610beb57600080fd5b801515811461028857600080fd5b8035610beb81610c2b565b803560028110610beb57600080fd5b600060e08284031215610c6557600080fd5b610c6d610a4a565b9050813567ffffffffffffffff811115610c8657600080fd5b610c9284828501610b2c565b825250602082013567ffffffffffffffff811115610caf57600080fd5b610cbb84828501610b2c565b602083015250604082013567ffffffffffffffff811115610cdb57600080fd5b610ce784828501610b2c565b604083015250610cf960608301610c08565b6060820152610d0a60808301610c08565b6080820152610d1b60a08301610c39565b60a0820152610d2c60c08301610c44565b60c082015292915050565b600060208284031215610d4957600080fd5b813567ffffffffffffffff811115610d6057600080fd5b82016102008185031215610d7357600080fd5b610d7b610a73565b610d8482610bdc565b8152610d9260208301610bf0565b6020820152610da360408301610c08565b6040820152610db460608301610c1c565b6060820152610dc560808301610c39565b6080820152610dd660a08301610c39565b60a0820152610de760c08301610c39565b60c0820152610df860e08301610c39565b60e082015261010082013567ffffffffffffffff811115610e1857600080fd5b610e2486828501610c53565b61010083015250610e386101208301610c39565b610120820152610e4b6101408301610c39565b610140820152610e5e6101608301610c39565b610160820152610e716101808301610c39565b610180820152610e846101a08301610c39565b6101a0820152610e976101c08301610c39565b6101c0820152610eaa6101e08301610c39565b6101e0820152949350505050565b60005b83811015610ed3578181015183820152602001610ebb565b50506000910152565b60008151808452610ef4816020860160208601610eb8565b601f017fffffffffffffffffffffffffffffffffffffffffffffffffffffffffffffffe0169290920160200192915050565b604081526000610f396040830185610edc565b905063ffffffff831660208301529392505050565b600060208284031215610f6057600080fd5b815167ffffffffffffffff811115610f7757600080fd5b8201601f81018413610f8857600080fd5b8051610f96610b4b82610ae6565b818152856020838501011115610fab57600080fd5b6104d3826020830160208601610eb8565b84815283602082015282604082015260806060820152600061023f6080830184610edc565b600060208284031215610ff357600080fd5b8151610ffe81610c2b565b9392505050565b7f4e487b7100000000000000000000000000000000000000000000000000000000600052602160045260246000fd5b602081016002831061104857611048611005565b91905290565b85815267ffffffffffffffff8516602082015273ffffffffffffffffffffffffffffffffffffffff841660408201526060810183905260a081016004831061109857611098611005565b8260808301529695505050505050565b8281526040602082015260006110c16040830184610edc565b949350505050565b600082516110db818460208701610eb8565b9190910192915050565b6000602082840312156110f757600080fd5b505191905056fea2646970667358221220e8972b59c64a82ddbfa9664c3c846065647789a2e71ba97390f5d548bc73e26664736f6c634300081a0033",
  "linkReferences": {
    "@farcaster-attestation/farcaster-solidity/contracts/libraries/Blake3.sol": {
      "Blake3": [
        {
          "length": 20,
          "start": 323
        }
      ]
    },
    "@farcaster-attestation/farcaster-solidity/contracts/libraries/Ed25519.sol": {
      "Ed25519": [
        {
          "length": 20,
          "start": 521
        }
      ]
    }
  },
  "deployedLinkReferences": {
    "@farcaster-attestation/farcaster-solidity/contracts/libraries/Blake3.sol": {
      "Blake3": [
        {
          "length": 20,
          "start": 266
        }
      ]
    },
    "@farcaster-attestation/farcaster-solidity/contracts/libraries/Ed25519.sol": {
      "Ed25519": [
        {
          "length": 20,
          "start": 464
        }
      ]
    }
  }
}