{
  "_format": "hh-sol-artifact-1",
  "contractName": "Ed25519_pow",
  "sourceName": "@farcaster-attestation/farcaster-decoder/contracts/libraries/Ed25519_pow.sol",
  "abi": [
    {
      "inputs": [
        {
          "internalType": "uint256",
          "name": "v",
          "type": "uint256"
        }
      ],
      "name": "pow22501",
      "outputs": [
        {
          "internalType": "uint256",
          "name": "p22501",
          "type": "uint256"
        },
        {
          "internalType": "uint256",
          "name": "p11",
          "type": "uint256"
        }
      ],
      "stateMutability": "pure",
      "type": "function"
    }
  ],
  "bytecode": "0x610de4610039600b82828239805160001a607314602c57634e487b7160e01b600052600060045260246000fd5b30600052607381538281f3fe73000000000000000000000000000000000000000030146080604052600436106100355760003560e01c80631d9b5e6f1461003a575b600080fd5b61004d610048366004610d95565b610066565b6040805192835260208301919091520160405180910390f35b6000806013600160ff1b0383840990506013600160ff1b0381820991506013600160ff1b03836013600160ff1b038485090991506013600160ff1b0381830990506013600160ff1b03826013600160ff1b0383840909915060006013600160ff1b0383840990506013600160ff1b0381820990506013600160ff1b0381820990506013600160ff1b0381820990506013600160ff1b0381820990506013600160ff1b0381840992506013600160ff1b0383840990506013600160ff1b0381820990506013600160ff1b0381820990506013600160ff1b0381820990506013600160ff1b0381820990506013600160ff1b0381820990506013600160ff1b0381820990506013600160ff1b0381820990506013600160ff1b0381820990506013600160ff1b0381820990506013600160ff1b03818409905060006013600160ff1b0382830990506013600160ff1b0381820990506013600160ff1b0381820990506013600160ff1b0381820990506013600160ff1b0381820990506013600160ff1b0381820990506013600160ff1b0381820990506013600160ff1b0381820990506013600160ff1b0381820990506013600160ff1b0381820990506013600160ff1b0381820990506013600160ff1b0381820990506013600160ff1b0381820990506013600160ff1b0381820990506013600160ff1b0381820990506013600160ff1b0381820990506013600160ff1b0381820990506013600160ff1b0381820990506013600160ff1b0381820990506013600160ff1b0381820990506013600160ff1b0381830991506013600160ff1b0382830991506013600160ff1b0382830991506013600160ff1b0382830991506013600160ff1b0382830991506013600160ff1b0382830991506013600160ff1b0382830991506013600160ff1b0382830991506013600160ff1b0382830991506013600160ff1b0382830991506013600160ff1b0382830991506013600160ff1b0382850993506013600160ff1b0384850991506013600160ff1b0382830991506013600160ff1b0382830991506013600160ff1b0382830991506013600160ff1b0382830991506013600160ff1b0382830991506013600160ff1b0382830991506013600160ff1b0382830991506013600160ff1b0382830991506013600160ff1b0382830991506013600160ff1b0382830991506013600160ff1b0382830991506013600160ff1b0382830991506013600160ff1b0382830991506013600160ff1b0382830991506013600160ff1b0382830991506013600160ff1b0382830991506013600160ff1b0382830991506013600160ff1b0382830991506013600160ff1b0382830991506013600160ff1b0382830991506013600160ff1b0382830991506013600160ff1b0382830991506013600160ff1b0382830991506013600160ff1b0382830991506013600160ff1b0382830991506013600160ff1b0382830991506013600160ff1b0382830991506013600160ff1b0382830991506013600160ff1b0382830991506013600160ff1b0382830991506013600160ff1b0382830991506013600160ff1b0382830991506013600160ff1b0382830991506013600160ff1b0382830991506013600160ff1b0382830991506013600160ff1b0382830991506013600160ff1b0382830991506013600160ff1b0382830991506013600160ff1b0382830991506013600160ff1b0382830991506013600160ff1b0382830991506013600160ff1b0382830991506013600160ff1b0382830991506013600160ff1b0382830991506013600160ff1b0382830991506013600160ff1b0382830991506013600160ff1b0382830991506013600160ff1b0382830991506013600160ff1b0382830991506013600160ff1b0382850991506013600160ff1b0382830990506013600160ff1b0381820990506013600160ff1b0381820990506013600160ff1b0381820990506013600160ff1b0381820990506013600160ff1b0381820990506013600160ff1b0381820990506013600160ff1b0381820990506013600160ff1b0381820990506013600160ff1b0381820990506013600160ff1b0381820990506013600160ff1b0381820990506013600160ff1b0381820990506013600160ff1b0381820990506013600160ff1b0381820990506013600160ff1b0381820990506013600160ff1b0381820990506013600160ff1b0381820990506013600160ff1b0381820990506013600160ff1b0381820990506013600160ff1b0381820990506013600160ff1b0381820990506013600160ff1b0381820990506013600160ff1b0381820990506013600160ff1b0381820990506013600160ff1b0381820990506013600160ff1b0381820990506013600160ff1b0381820990506013600160ff1b0381820990506013600160ff1b0381820990506013600160ff1b0381820990506013600160ff1b0381820990506013600160ff1b0381820990506013600160ff1b0381820990506013600160ff1b0381820990506013600160ff1b0381820990506013600160ff1b0381820990506013600160ff1b0381820990506013600160ff1b0381820990506013600160ff1b0381820990506013600160ff1b0381820990506013600160ff1b0381820990506013600160ff1b0381820990506013600160ff1b0381820990506013600160ff1b0381820990506013600160ff1b0381820990506013600160ff1b0381820990506013600160ff1b0381820990506013600160ff1b0381820990506013600160ff1b0381820990506013600160ff1b0381820990506013600160ff1b0381820990506013600160ff1b0381820990506013600160ff1b0381820990506013600160ff1b0381820990506013600160ff1b0381820990506013600160ff1b0381820990506013600160ff1b0381820990506013600160ff1b0381820990506013600160ff1b0381820990506013600160ff1b0381820990506013600160ff1b0381820990506013600160ff1b0381820990506013600160ff1b0381820990506013600160ff1b0381820990506013600160ff1b0381820990506013600160ff1b0381820990506013600160ff1b0381820990506013600160ff1b0381820990506013600160ff1b0381820990506013600160ff1b0381820990506013600160ff1b0381820990506013600160ff1b0381820990506013600160ff1b0381820990506013600160ff1b0381820990506013600160ff1b0381820990506013600160ff1b0381820990506013600160ff1b0381820990506013600160ff1b0381820990506013600160ff1b0381820990506013600160ff1b0381820990506013600160ff1b0381820990506013600160ff1b0381820990506013600160ff1b0381820990506013600160ff1b0381820990506013600160ff1b0381820990506013600160ff1b0381820990506013600160ff1b0381820990506013600160ff1b0381820990506013600160ff1b0381820990506013600160ff1b0381820990506013600160ff1b0381820990506013600160ff1b0381820990506013600160ff1b0381820990506013600160ff1b0381820990506013600160ff1b0381820990506013600160ff1b0381820990506013600160ff1b0381820990506013600160ff1b0381820990506013600160ff1b0381820990506013600160ff1b0381830991506013600160ff1b0382830991506013600160ff1b0382830991506013600160ff1b0382830991506013600160ff1b0382830991506013600160ff1b0382830991506013600160ff1b0382830991506013600160ff1b0382830991506013600160ff1b0382830991506013600160ff1b0382830991506013600160ff1b0382830991506013600160ff1b0382830991506013600160ff1b0382830991506013600160ff1b0382830991506013600160ff1b0382830991506013600160ff1b0382830991506013600160ff1b0382830991506013600160ff1b0382830991506013600160ff1b0382830991506013600160ff1b0382830991506013600160ff1b0382830991506013600160ff1b0382830991506013600160ff1b0382830991506013600160ff1b0382830991506013600160ff1b0382830991506013600160ff1b0382830991506013600160ff1b0382830991506013600160ff1b0382830991506013600160ff1b0382830991506013600160ff1b0382830991506013600160ff1b0382830991506013600160ff1b0382830991506013600160ff1b0382830991506013600160ff1b0382830991506013600160ff1b0382830991506013600160ff1b0382830991506013600160ff1b0382830991506013600160ff1b0382830991506013600160ff1b0382830991506013600160ff1b0382830991506013600160ff1b0382830991506013600160ff1b0382830991506013600160ff1b0382830991506013600160ff1b0382830991506013600160ff1b0382830991506013600160ff1b0382830991506013600160ff1b0382830991506013600160ff1b0382830991506013600160ff1b0382830991506013600160ff1b0382830991506013600160ff1b0382830991506013600160ff1b0382850993505050915091565b600060208284031215610da757600080fd5b503591905056fea2646970667358221220d612febcdb8c62d59cffa8682f1b965b012e2fe8d606e7adbffa296fe671f40164736f6c634300081a0033",
  "linkReferences": {},
  "deployedLinkReferences": {}
}