{
  "_format": "hh-sol-artifact-1",
  "contractName": "FarcasterResolverStandardConsumer",
  "sourceName": "contracts/consumer/standard/FarcasterResolverStandardConsumer.sol",
  "abi": [
    {
      "inputs": [
        {
          "internalType": "contract IEAS",
          "name": "_eas",
          "type": "address"
        },
        {
          "internalType": "contract IFarcasterVerification",
          "name": "_resolver",
          "type": "address"
        },
        {
          "internalType": "contract IFarcasterMembership",
          "name": "_membership",
          "type": "address"
        },
        {
          "internalType": "bool",
          "name": "_useRecipient",
          "type": "bool"
        },
        {
          "internalType": "bool",
          "name": "_useRefFid",
          "type": "bool"
        },
        {
          "internalType": "bool",
          "name": "_useRefCheck",
          "type": "bool"
        },
        {
          "internalType": "bool",
          "name": "_useRefBody",
          "type": "bool"
        },
        {
          "internalType": "uint256",
          "name": "_fidOffset",
          "type": "uint256"
        },
        {
          "internalType": "uint256",
          "name": "_refOffset",
          "type": "uint256"
        }
      ],
      "stateMutability": "nonpayable",
      "type": "constructor"
    },
    {
      "inputs": [],
      "name": "AccessDenied",
      "type": "error"
    },
    {
      "inputs": [
        {
          "internalType": "bytes32",
          "name": "uid",
          "type": "bytes32"
        }
      ],
      "name": "AttestationRevoked",
      "type": "error"
    },
    {
      "inputs": [],
      "name": "InsufficientValue",
      "type": "error"
    },
    {
      "inputs": [],
      "name": "InvalidEAS",
      "type": "error"
    },
    {
      "inputs": [],
      "name": "InvalidLength",
      "type": "error"
    },
    {
      "inputs": [
        {
          "internalType": "bytes32",
          "name": "uid",
          "type": "bytes32"
        }
      ],
      "name": "MissingFarcasterResolverConsumer",
      "type": "error"
    },
    {
      "inputs": [],
      "name": "NotPayable",
      "type": "error"
    },
    {
      "inputs": [],
      "name": "PermissionDenied",
      "type": "error"
    },
    {
      "inputs": [
        {
          "internalType": "bytes32",
          "name": "uid",
          "type": "bytes32"
        }
      ],
      "name": "RefNotFound",
      "type": "error"
    },
    {
      "inputs": [
        {
          "components": [
            {
              "internalType": "bytes32",
              "name": "uid",
              "type": "bytes32"
            },
            {
              "internalType": "bytes32",
              "name": "schema",
              "type": "bytes32"
            },
            {
              "internalType": "uint64",
              "name": "time",
              "type": "uint64"
            },
            {
              "internalType": "uint64",
              "name": "expirationTime",
              "type": "uint64"
            },
            {
              "internalType": "uint64",
              "name": "revocationTime",
              "type": "uint64"
            },
            {
              "internalType": "bytes32",
              "name": "refUID",
              "type": "bytes32"
            },
            {
              "internalType": "address",
              "name": "recipient",
              "type": "address"
            },
            {
              "internalType": "address",
              "name": "attester",
              "type": "address"
            },
            {
              "internalType": "bool",
              "name": "revocable",
              "type": "bool"
            },
            {
              "internalType": "bytes",
              "name": "data",
              "type": "bytes"
            }
          ],
          "internalType": "struct Attestation",
          "name": "attestation",
          "type": "tuple"
        }
      ],
      "name": "attest",
      "outputs": [
        {
          "internalType": "bool",
          "name": "",
          "type": "bool"
        }
      ],
      "stateMutability": "payable",
      "type": "function"
    },
    {
      "inputs": [
        {
          "components": [
            {
              "internalType": "bytes32",
              "name": "uid",
              "type": "bytes32"
            },
            {
              "internalType": "bytes32",
              "name": "schema",
              "type": "bytes32"
            },
            {
              "internalType": "uint64",
              "name": "time",
              "type": "uint64"
            },
            {
              "internalType": "uint64",
              "name": "expirationTime",
              "type": "uint64"
            },
            {
              "internalType": "uint64",
              "name": "revocationTime",
              "type": "uint64"
            },
            {
              "internalType": "bytes32",
              "name": "refUID",
              "type": "bytes32"
            },
            {
              "internalType": "address",
              "name": "recipient",
              "type": "address"
            },
            {
              "internalType": "address",
              "name": "attester",
              "type": "address"
            },
            {
              "internalType": "bool",
              "name": "revocable",
              "type": "bool"
            },
            {
              "internalType": "bytes",
              "name": "data",
              "type": "bytes"
            }
          ],
          "internalType": "struct Attestation",
          "name": "attestation",
          "type": "tuple"
        },
        {
          "internalType": "uint256",
          "name": "value",
          "type": "uint256"
        },
        {
          "internalType": "bool",
          "name": "isRevoke",
          "type": "bool"
        }
      ],
      "name": "decodeFarcasterAttestation",
      "outputs": [
        {
          "internalType": "uint256",
          "name": "fid",
          "type": "uint256"
        },
        {
          "internalType": "address",
          "name": "wallet",
          "type": "address"
        }
      ],
      "stateMutability": "nonpayable",
      "type": "function"
    },
    {
      "inputs": [
        {
          "components": [
            {
              "internalType": "bytes32",
              "name": "uid",
              "type": "bytes32"
            },
            {
              "internalType": "bytes32",
              "name": "schema",
              "type": "bytes32"
            },
            {
              "internalType": "uint64",
              "name": "time",
              "type": "uint64"
            },
            {
              "internalType": "uint64",
              "name": "expirationTime",
              "type": "uint64"
            },
            {
              "internalType": "uint64",
              "name": "revocationTime",
              "type": "uint64"
            },
            {
              "internalType": "bytes32",
              "name": "refUID",
              "type": "bytes32"
            },
            {
              "internalType": "address",
              "name": "recipient",
              "type": "address"
            },
            {
              "internalType": "address",
              "name": "attester",
              "type": "address"
            },
            {
              "internalType": "bool",
              "name": "revocable",
              "type": "bool"
            },
            {
              "internalType": "bytes",
              "name": "data",
              "type": "bytes"
            }
          ],
          "internalType": "struct Attestation",
          "name": "attestation",
          "type": "tuple"
        },
        {
          "internalType": "uint256",
          "name": "",
          "type": "uint256"
        },
        {
          "internalType": "bool",
          "name": "",
          "type": "bool"
        }
      ],
      "name": "decodeRefUid",
      "outputs": [
        {
          "internalType": "bytes32",
          "name": "uid",
          "type": "bytes32"
        }
      ],
      "stateMutability": "nonpayable",
      "type": "function"
    },
    {
      "inputs": [],
      "name": "isPayable",
      "outputs": [
        {
          "internalType": "bool",
          "name": "",
          "type": "bool"
        }
      ],
      "stateMutability": "pure",
      "type": "function"
    },
    {
      "inputs": [
        {
          "components": [
            {
              "internalType": "bytes32",
              "name": "uid",
              "type": "bytes32"
            },
            {
              "internalType": "bytes32",
              "name": "schema",
              "type": "bytes32"
            },
            {
              "internalType": "uint64",
              "name": "time",
              "type": "uint64"
            },
            {
              "internalType": "uint64",
              "name": "expirationTime",
              "type": "uint64"
            },
            {
              "internalType": "uint64",
              "name": "revocationTime",
              "type": "uint64"
            },
            {
              "internalType": "bytes32",
              "name": "refUID",
              "type": "bytes32"
            },
            {
              "internalType": "address",
              "name": "recipient",
              "type": "address"
            },
            {
              "internalType": "address",
              "name": "attester",
              "type": "address"
            },
            {
              "internalType": "bool",
              "name": "revocable",
              "type": "bool"
            },
            {
              "internalType": "bytes",
              "name": "data",
              "type": "bytes"
            }
          ],
          "internalType": "struct Attestation",
          "name": "attestation",
          "type": "tuple"
        },
        {
          "internalType": "uint256",
          "name": "value",
          "type": "uint256"
        },
        {
          "internalType": "bool",
          "name": "isRevoke",
          "type": "bool"
        }
      ],
      "name": "isValidAttestation",
      "outputs": [
        {
          "internalType": "bool",
          "name": "valid",
          "type": "bool"
        },
        {
          "internalType": "uint256",
          "name": "fid",
          "type": "uint256"
        },
        {
          "internalType": "address",
          "name": "wallet",
          "type": "address"
        }
      ],
      "stateMutability": "nonpayable",
      "type": "function"
    },
    {
      "inputs": [],
      "name": "membership",
      "outputs": [
        {
          "internalType": "contract IFarcasterMembership",
          "name": "",
          "type": "address"
        }
      ],
      "stateMutability": "view",
      "type": "function"
    },
    {
      "inputs": [
        {
          "components": [
            {
              "internalType": "bytes32",
              "name": "uid",
              "type": "bytes32"
            },
            {
              "internalType": "bytes32",
              "name": "schema",
              "type": "bytes32"
            },
            {
              "internalType": "uint64",
              "name": "time",
              "type": "uint64"
            },
            {
              "internalType": "uint64",
              "name": "expirationTime",
              "type": "uint64"
            },
            {
              "internalType": "uint64",
              "name": "revocationTime",
              "type": "uint64"
            },
            {
              "internalType": "bytes32",
              "name": "refUID",
              "type": "bytes32"
            },
            {
              "internalType": "address",
              "name": "recipient",
              "type": "address"
            },
            {
              "internalType": "address",
              "name": "attester",
              "type": "address"
            },
            {
              "internalType": "bool",
              "name": "revocable",
              "type": "bool"
            },
            {
              "internalType": "bytes",
              "name": "data",
              "type": "bytes"
            }
          ],
          "internalType": "struct Attestation[]",
          "name": "attestations",
          "type": "tuple[]"
        },
        {
          "internalType": "uint256[]",
          "name": "values",
          "type": "uint256[]"
        }
      ],
      "name": "multiAttest",
      "outputs": [
        {
          "internalType": "bool",
          "name": "",
          "type": "bool"
        }
      ],
      "stateMutability": "payable",
      "type": "function"
    },
    {
      "inputs": [
        {
          "components": [
            {
              "internalType": "bytes32",
              "name": "uid",
              "type": "bytes32"
            },
            {
              "internalType": "bytes32",
              "name": "schema",
              "type": "bytes32"
            },
            {
              "internalType": "uint64",
              "name": "time",
              "type": "uint64"
            },
            {
              "internalType": "uint64",
              "name": "expirationTime",
              "type": "uint64"
            },
            {
              "internalType": "uint64",
              "name": "revocationTime",
              "type": "uint64"
            },
            {
              "internalType": "bytes32",
              "name": "refUID",
              "type": "bytes32"
            },
            {
              "internalType": "address",
              "name": "recipient",
              "type": "address"
            },
            {
              "internalType": "address",
              "name": "attester",
              "type": "address"
            },
            {
              "internalType": "bool",
              "name": "revocable",
              "type": "bool"
            },
            {
              "internalType": "bytes",
              "name": "data",
              "type": "bytes"
            }
          ],
          "internalType": "struct Attestation[]",
          "name": "attestations",
          "type": "tuple[]"
        },
        {
          "internalType": "uint256[]",
          "name": "values",
          "type": "uint256[]"
        }
      ],
      "name": "multiRevoke",
      "outputs": [
        {
          "internalType": "bool",
          "name": "",
          "type": "bool"
        }
      ],
      "stateMutability": "payable",
      "type": "function"
    },
    {
      "inputs": [],
      "name": "resolver",
      "outputs": [
        {
          "internalType": "contract IFarcasterVerification",
          "name": "",
          "type": "address"
        }
      ],
      "stateMutability": "view",
      "type": "function"
    },
    {
      "inputs": [
        {
          "components": [
            {
              "internalType": "bytes32",
              "name": "uid",
              "type": "bytes32"
            },
            {
              "internalType": "bytes32",
              "name": "schema",
              "type": "bytes32"
            },
            {
              "internalType": "uint64",
              "name": "time",
              "type": "uint64"
            },
            {
              "internalType": "uint64",
              "name": "expirationTime",
              "type": "uint64"
            },
            {
              "internalType": "uint64",
              "name": "revocationTime",
              "type": "uint64"
            },
            {
              "internalType": "bytes32",
              "name": "refUID",
              "type": "bytes32"
            },
            {
              "internalType": "address",
              "name": "recipient",
              "type": "address"
            },
            {
              "internalType": "address",
              "name": "attester",
              "type": "address"
            },
            {
              "internalType": "bool",
              "name": "revocable",
              "type": "bool"
            },
            {
              "internalType": "bytes",
              "name": "data",
              "type": "bytes"
            }
          ],
          "internalType": "struct Attestation",
          "name": "attestation",
          "type": "tuple"
        }
      ],
      "name": "revoke",
      "outputs": [
        {
          "internalType": "bool",
          "name": "",
          "type": "bool"
        }
      ],
      "stateMutability": "payable",
      "type": "function"
    },
    {
      "inputs": [
        {
          "internalType": "bytes4",
          "name": "interfaceId",
          "type": "bytes4"
        }
      ],
      "name": "supportsInterface",
      "outputs": [
        {
          "internalType": "bool",
          "name": "",
          "type": "bool"
        }
      ],
      "stateMutability": "view",
      "type": "function"
    },
    {
      "inputs": [],
      "name": "version",
      "outputs": [
        {
          "internalType": "string",
          "name": "",
          "type": "string"
        }
      ],
      "stateMutability": "view",
      "type": "function"
    },
    {
      "stateMutability": "payable",
      "type": "receive"
    }
  ],
  "bytecode": "0x61020060405234801561001157600080fd5b50604051611ecb380380611ecb833981016040819052610030916100df565b6001608052600360a052600060c0528888816001600160a01b038116610069576040516341bc07ff60e11b815260040160405180910390fd5b6001600160a01b0390811660e05290811661010052979097166101205294151561014052921515610160529015156101805215156101a0526101c0526101e05250610185915050565b6001600160a01b03811681146100c757600080fd5b50565b805180151581146100da57600080fd5b919050565b60008060008060008060008060006101208a8c0312156100fe57600080fd5b8951610109816100b2565b60208b015190995061011a816100b2565b60408b015190985061012b816100b2565b965061013960608b016100ca565b955061014760808b016100ca565b945061015560a08b016100ca565b935061016360c08b016100ca565b60e08b0151610100909b0151999c989b50969995989497939695949392505050565b60805160a05160c05160e05161010051610120516101405161016051610180516101a0516101c0516101e051611c99610232600039600061080f015260006109eb015260006107d701526000610665015260006108cb0152600061087a0152600081816101ef01526106f001526000818161014e0152610bd0015260008181610aef01528181610cc201526110d401526000610408015260006103df015260006103b60152611c996000f3fe6080604052600436106100cb5760003560e01c8063b91e2f7e11610074578063e49617e11161004e578063e49617e1146102a6578063e60c3505146102b9578063fafec1c7146102cc57600080fd5b8063b91e2f7e14610211578063be3efb0814610264578063ce46e0461461029257600080fd5b806388e5b2d9116100a557806388e5b2d9146101b757806391db0b7e146101ca578063a2bf68b9146101dd57600080fd5b806301ffc9a71461010757806304f3bcec1461013c57806354fd4d501461019557600080fd5b36610102576040517f1574f9f300000000000000000000000000000000000000000000000000000000815260040160405180910390fd5b600080fd5b34801561011357600080fd5b5061012761012236600461127a565b610316565b60405190151581526020015b60405180910390f35b34801561014857600080fd5b506101707f000000000000000000000000000000000000000000000000000000000000000081565b60405173ffffffffffffffffffffffffffffffffffffffff9091168152602001610133565b3480156101a157600080fd5b506101aa6103af565b604051610133919061132a565b6101276101c5366004611389565b610452565b6101276101d8366004611389565b610553565b3480156101e957600080fd5b506101707f000000000000000000000000000000000000000000000000000000000000000081565b34801561021d57600080fd5b5061023161022c36600461142f565b610644565b604080519315158452602084019290925273ffffffffffffffffffffffffffffffffffffffff1690820152606001610133565b34801561027057600080fd5b5061028461027f36600461142f565b6107d3565b604051908152602001610133565b34801561029e57600080fd5b506000610127565b6101276102b436600461148a565b610848565b6101276102c736600461148a565b610861565b3480156102d857600080fd5b506102ec6102e736600461142f565b610875565b6040805192835273ffffffffffffffffffffffffffffffffffffffff909116602083015201610133565b60007ffafec1c7000000000000000000000000000000000000000000000000000000007fffffffff00000000000000000000000000000000000000000000000000000000831614806103a957507fffffffff0000000000000000000000000000000000000000000000000000000082167fbe3efb0800000000000000000000000000000000000000000000000000000000145b92915050565b60606103da7f0000000000000000000000000000000000000000000000000000000000000000610a19565b6104037f0000000000000000000000000000000000000000000000000000000000000000610a19565b61042c7f0000000000000000000000000000000000000000000000000000000000000000610a19565b60405160200161043e939291906114bf565b604051602081830303815290604052905090565b600061045c610ad7565b83828114610496576040517f947d5a8400000000000000000000000000000000000000000000000000000000815260040160405180910390fd5b3460005b828110156105435760008686838181106104b6576104b6611556565b905060200201359050828111156104f9576040517f1101129400000000000000000000000000000000000000000000000000000000815260040160405180910390fd5b61052689898481811061050e5761050e611556565b90506020028101906105209190611585565b82610b48565b61053757600094505050505061054b565b9091039060010161049a565b506001925050505b949350505050565b600061055d610ad7565b83828114610597576040517f947d5a8400000000000000000000000000000000000000000000000000000000815260040160405180910390fd5b3460005b828110156105435760008686838181106105b7576105b7611556565b905060200201359050828111156105fa576040517f1101129400000000000000000000000000000000000000000000000000000000815260040160405180910390fd5b61062789898481811061060f5761060f611556565b90506020028101906106219190611585565b82610b60565b61063857600094505050505061054b565b9091039060010161059b565b6000806000610654868686610b6e565b9194509250905082801561068557507f00000000000000000000000000000000000000000000000000000000000000005b156107ca5760006106978787876107d3565b036106d6576040517fe4c2434c000000000000000000000000000000000000000000000000000000008152863560048201526024015b60405180910390fd5b60006106eb6106e488611778565b8787610c48565b5090507f000000000000000000000000000000000000000000000000000000000000000073ffffffffffffffffffffffffffffffffffffffff16637ec24abb8260000151858861073c57600161073f565b60025b6040517fffffffff0000000000000000000000000000000000000000000000000000000060e086901b1681526004810193909352602483019190915260448201526064016020604051808303816000875af11580156107a2573d6000803e3d6000fd5b505050506040513d601f19601f820116820180604052508101906107c69190611852565b9350505b93509350939050565b60007f00000000000000000000000000000000000000000000000000000000000000001561083a5736600061080c61012087018761186f565b507f000000000000000000000000000000000000000000000000000000000000000001359250610841915050565b5060a08301355b9392505050565b6000610852610ad7565b6103a98234610b48565b919050565b600061086b610ad7565b6103a98234610b60565b6000807f0000000000000000000000000000000000000000000000000000000000000000156108b5576108ae60e0860160c087016118d4565b90506108c9565b6108c6610100860160e087016118d4565b90505b7f0000000000000000000000000000000000000000000000000000000000000000156109d75760006108fc8686866107d3565b03610936576040517fe4c2434c000000000000000000000000000000000000000000000000000000008152853560048201526024016106cd565b6000806109456106e488611778565b91509150806020015173ffffffffffffffffffffffffffffffffffffffff1663fafec1c78388886040518463ffffffff1660e01b815260040161098a939291906118f1565b60408051808303816000875af11580156109a8573d6000803e3d6000fd5b505050506040513d601f19601f820116820180604052508101906109cc91906119f0565b509350610a11915050565b3660006109e861012088018861186f565b507f00000000000000000000000000000000000000000000000000000000000000000135935050505b935093915050565b60606000610a2683611198565b600101905060008167ffffffffffffffff811115610a4657610a466115c3565b6040519080825280601f01601f191660200182016040528015610a70576020820181803683370190505b5090508181016020015b7fffffffffffffffffffffffffffffffffffffffffffffffffffffffffffffffff017f3031323334353637383961626364656600000000000000000000000000000000600a86061a8153600a8504945084610a7a57509392505050565b3373ffffffffffffffffffffffffffffffffffffffff7f00000000000000000000000000000000000000000000000000000000000000001614610b46576040517f4ca8886700000000000000000000000000000000000000000000000000000000815260040160405180910390fd5b565b6000610b5683836001610644565b5090949350505050565b6000610b5683836000610644565b6000806000610b7e868686610875565b6040517f5659c8380000000000000000000000000000000000000000000000000000000081526004810183905273ffffffffffffffffffffffffffffffffffffffff80831660248301529294509092507f000000000000000000000000000000000000000000000000000000000000000090911690635659c83890604401602060405180830381865afa158015610c19573d6000803e3d6000fd5b505050506040513d601f19601f82011682018060405250810190610c3d9190611852565b925093509350939050565b604080516101408101825260008082526020820181905291810182905260608082018390526080820183905260a0820183905260c0820183905260e08201839052610100820192909252610120810191909152604080516080810182526000808252602082018190529181019190915260608082015260007f000000000000000000000000000000000000000000000000000000000000000073ffffffffffffffffffffffffffffffffffffffff1663f10b5cc86040518163ffffffff1660e01b8152600401602060405180830381865afa158015610d2b573d6000803e3d6000fd5b505050506040513d601f19601f82011682018060405250810190610d4f9190611a20565b73ffffffffffffffffffffffffffffffffffffffff1663a2ea7c6e87602001516040518263ffffffff1660e01b8152600401610d8d91815260200190565b600060405180830381865afa158015610daa573d6000803e3d6000fd5b505050506040513d6000823e601f3d9081017fffffffffffffffffffffffffffffffffffffffffffffffffffffffffffffffe0168201604052610df09190810190611a6d565b608087015190915067ffffffffffffffff1615610e3f5785516040517f04bed25600000000000000000000000000000000000000000000000000000000815260048101919091526024016106cd565b602081015173ffffffffffffffffffffffffffffffffffffffff161580610f17575060208101516040517f01ffc9a70000000000000000000000000000000000000000000000000000000081527ffafec1c700000000000000000000000000000000000000000000000000000000600482015273ffffffffffffffffffffffffffffffffffffffff909116906301ffc9a790602401602060405180830381865afa158015610ef1573d6000803e3d6000fd5b505050506040513d601f19601f82011682018060405250810190610f159190611852565b155b1561118f5760a0860151610f5d5785516040517f898bc7a300000000000000000000000000000000000000000000000000000000815260048101919091526024016106cd565b60a086015160208201516040517f01ffc9a70000000000000000000000000000000000000000000000000000000081527fbe3efb0800000000000000000000000000000000000000000000000000000000600482015273ffffffffffffffffffffffffffffffffffffffff909116906301ffc9a790602401602060405180830381865afa158015610ff2573d6000803e3d6000fd5b505050506040513d601f19601f820116820180604052508101906110169190611852565b156110a257816020015173ffffffffffffffffffffffffffffffffffffffff1663be3efb088888886040518463ffffffff1660e01b815260040161105c939291906118f1565b6020604051808303816000875af115801561107b573d6000803e3d6000fd5b505050506040513d601f19601f8201168201806040525081019061109f9190611b25565b90505b6040517fa3112a64000000000000000000000000000000000000000000000000000000008152600481018290526000907f000000000000000000000000000000000000000000000000000000000000000073ffffffffffffffffffffffffffffffffffffffff169063a3112a6490602401600060405180830381865afa158015611130573d6000803e3d6000fd5b505050506040513d6000823e601f3d9081017fffffffffffffffffffffffffffffffffffffffffffffffffffffffffffffffe01682016040526111769190810190611b69565b9050611183818888610c48565b94509450505050610a11565b94959350505050565b6000807a184f03e93ff9f4daa797ed6e38ed64bf6a1f01000000000000000083106111e1577a184f03e93ff9f4daa797ed6e38ed64bf6a1f010000000000000000830492506040015b6d04ee2d6d415b85acef8100000000831061120d576d04ee2d6d415b85acef8100000000830492506020015b662386f26fc10000831061122b57662386f26fc10000830492506010015b6305f5e1008310611243576305f5e100830492506008015b612710831061125757612710830492506004015b60648310611269576064830492506002015b600a83106103a95760010192915050565b60006020828403121561128c57600080fd5b81357fffffffff000000000000000000000000000000000000000000000000000000008116811461084157600080fd5b60005b838110156112d75781810151838201526020016112bf565b50506000910152565b600081518084526112f88160208601602086016112bc565b601f017fffffffffffffffffffffffffffffffffffffffffffffffffffffffffffffffe0169290920160200192915050565b60208152600061084160208301846112e0565b60008083601f84011261134f57600080fd5b50813567ffffffffffffffff81111561136757600080fd5b6020830191508360208260051b850101111561138257600080fd5b9250929050565b6000806000806040858703121561139f57600080fd5b843567ffffffffffffffff8111156113b657600080fd5b6113c28782880161133d565b909550935050602085013567ffffffffffffffff8111156113e257600080fd5b6113ee8782880161133d565b95989497509550505050565b6000610140828403121561140d57600080fd5b50919050565b801515811461142157600080fd5b50565b803561085c81611413565b60008060006060848603121561144457600080fd5b833567ffffffffffffffff81111561145b57600080fd5b611467868287016113fa565b93505060208401359150604084013561147f81611413565b809150509250925092565b60006020828403121561149c57600080fd5b813567ffffffffffffffff8111156114b357600080fd5b61054b848285016113fa565b600084516114d18184602089016112bc565b7f2e00000000000000000000000000000000000000000000000000000000000000908301908152845161150b8160018401602089016112bc565b7f2e000000000000000000000000000000000000000000000000000000000000006001929091019182015283516115498160028401602088016112bc565b0160020195945050505050565b7f4e487b7100000000000000000000000000000000000000000000000000000000600052603260045260246000fd5b600082357ffffffffffffffffffffffffffffffffffffffffffffffffffffffffffffffec18336030181126115b957600080fd5b9190910192915050565b7f4e487b7100000000000000000000000000000000000000000000000000000000600052604160045260246000fd5b604051610140810167ffffffffffffffff81118282101715611616576116166115c3565b60405290565b6040516080810167ffffffffffffffff81118282101715611616576116166115c3565b604051601f82017fffffffffffffffffffffffffffffffffffffffffffffffffffffffffffffffe016810167ffffffffffffffff81118282101715611686576116866115c3565b604052919050565b67ffffffffffffffff8116811461142157600080fd5b803561085c8161168e565b73ffffffffffffffffffffffffffffffffffffffff8116811461142157600080fd5b803561085c816116af565b600067ffffffffffffffff8211156116f6576116f66115c3565b50601f017fffffffffffffffffffffffffffffffffffffffffffffffffffffffffffffffe01660200190565b600082601f83011261173357600080fd5b8135611746611741826116dc565b61163f565b81815284602083860101111561175b57600080fd5b816020850160208301376000918101602001919091529392505050565b6000610140823603121561178b57600080fd5b6117936115f2565b82358152602080840135908201526117ad604084016116a4565b60408201526117be606084016116a4565b60608201526117cf608084016116a4565b608082015260a083810135908201526117ea60c084016116d1565b60c08201526117fb60e084016116d1565b60e082015261180d6101008401611424565b61010082015261012083013567ffffffffffffffff81111561182e57600080fd5b61183a36828601611722565b6101208301525092915050565b805161085c81611413565b60006020828403121561186457600080fd5b815161084181611413565b60008083357fffffffffffffffffffffffffffffffffffffffffffffffffffffffffffffffe18436030181126118a457600080fd5b83018035915067ffffffffffffffff8211156118bf57600080fd5b60200191503681900382131561138257600080fd5b6000602082840312156118e657600080fd5b8135610841816116af565b6060815283516060820152602084015160808201526000604085015161192360a084018267ffffffffffffffff169052565b50606085015167ffffffffffffffff811660c084015250608085015167ffffffffffffffff811660e08401525060a085015161010083015260c085015173ffffffffffffffffffffffffffffffffffffffff81166101208401525060e085015173ffffffffffffffffffffffffffffffffffffffff811661014084015250610100850151801515610160840152506101208501516101406101808401526119ce6101a08401826112e0565b91505083602083015261054b604083018415159052565b805161085c816116af565b60008060408385031215611a0357600080fd5b825191506020830151611a15816116af565b809150509250929050565b600060208284031215611a3257600080fd5b8151610841816116af565b6000611a4b611741846116dc565b9050828152838383011115611a5f57600080fd5b6108418360208301846112bc565b600060208284031215611a7f57600080fd5b815167ffffffffffffffff811115611a9657600080fd5b820160808185031215611aa857600080fd5b611ab061161c565b815181526020820151611ac2816116af565b60208201526040820151611ad581611413565b6040820152606082015167ffffffffffffffff811115611af457600080fd5b80830192505084601f830112611b0957600080fd5b611b1885835160208501611a3d565b6060820152949350505050565b600060208284031215611b3757600080fd5b5051919050565b805161085c8161168e565b600082601f830112611b5a57600080fd5b61084183835160208501611a3d565b600060208284031215611b7b57600080fd5b815167ffffffffffffffff811115611b9257600080fd5b82016101408185031215611ba557600080fd5b611bad6115f2565b8151815260208083015190820152611bc760408301611b3e565b6040820152611bd860608301611b3e565b6060820152611be960808301611b3e565b608082015260a08281015190820152611c0460c083016119e5565b60c0820152611c1560e083016119e5565b60e0820152611c276101008301611847565b61010082015261012082015167ffffffffffffffff811115611c4857600080fd5b611c5486828501611b49565b6101208301525094935050505056fea2646970667358221220cea98b39f2ff17011898c57d1a58dfa66f08c3954593aa37d2538dc5930ffddc64736f6c634300081a0033",
  "linkReferences": {},
  "deployedLinkReferences": {}
}