{
  "_format": "hh-sol-artifact-1",
  "contractName": "FarcasterMembership",
  "sourceName": "contracts/FarcasterMembership.sol",
  "abi": [
    {
      "inputs": [
        {
          "internalType": "contract IEAS",
          "name": "eas",
          "type": "address"
        },
        {
          "internalType": "contract IFarcasterVerification",
          "name": "_verifier",
          "type": "address"
        }
      ],
      "stateMutability": "nonpayable",
      "type": "constructor"
    },
    {
      "inputs": [],
      "name": "AccessDenied",
      "type": "error"
    },
    {
      "inputs": [
        {
          "internalType": "address",
          "name": "target",
          "type": "address"
        }
      ],
      "name": "AddressEmptyCode",
      "type": "error"
    },
    {
      "inputs": [
        {
          "internalType": "bytes32",
          "name": "uid",
          "type": "bytes32"
        }
      ],
      "name": "AttestationRevoked",
      "type": "error"
    },
    {
      "inputs": [
        {
          "internalType": "bytes32",
          "name": "key",
          "type": "bytes32"
        }
      ],
      "name": "EnumerableMapNonexistentKey",
      "type": "error"
    },
    {
      "inputs": [],
      "name": "FailedInnerCall",
      "type": "error"
    },
    {
      "inputs": [],
      "name": "InsufficientValue",
      "type": "error"
    },
    {
      "inputs": [],
      "name": "InvalidEAS",
      "type": "error"
    },
    {
      "inputs": [],
      "name": "InvalidLength",
      "type": "error"
    },
    {
      "inputs": [
        {
          "internalType": "bytes32",
          "name": "uid",
          "type": "bytes32"
        }
      ],
      "name": "MissingFarcasterResolverConsumer",
      "type": "error"
    },
    {
      "inputs": [
        {
          "internalType": "bytes32",
          "name": "uid",
          "type": "bytes32"
        }
      ],
      "name": "NoPrimaryFid",
      "type": "error"
    },
    {
      "inputs": [],
      "name": "NotPayable",
      "type": "error"
    },
    {
      "inputs": [],
      "name": "PermissionDenied",
      "type": "error"
    },
    {
      "anonymous": false,
      "inputs": [
        {
          "indexed": true,
          "internalType": "bytes32",
          "name": "attUid",
          "type": "bytes32"
        },
        {
          "indexed": true,
          "internalType": "uint256",
          "name": "adminFid",
          "type": "uint256"
        },
        {
          "indexed": true,
          "internalType": "uint256",
          "name": "memberFid",
          "type": "uint256"
        }
      ],
      "name": "RemoveMember",
      "type": "event"
    },
    {
      "anonymous": false,
      "inputs": [
        {
          "indexed": true,
          "internalType": "bytes32",
          "name": "attUid",
          "type": "bytes32"
        },
        {
          "indexed": true,
          "internalType": "uint256",
          "name": "adminFid",
          "type": "uint256"
        },
        {
          "indexed": true,
          "internalType": "uint256",
          "name": "memberFid",
          "type": "uint256"
        },
        {
          "indexed": false,
          "internalType": "uint256",
          "name": "permissions",
          "type": "uint256"
        }
      ],
      "name": "SetMember",
      "type": "event"
    },
    {
      "inputs": [
        {
          "components": [
            {
              "internalType": "bytes32",
              "name": "uid",
              "type": "bytes32"
            },
            {
              "internalType": "bytes32",
              "name": "schema",
              "type": "bytes32"
            },
            {
              "internalType": "uint64",
              "name": "time",
              "type": "uint64"
            },
            {
              "internalType": "uint64",
              "name": "expirationTime",
              "type": "uint64"
            },
            {
              "internalType": "uint64",
              "name": "revocationTime",
              "type": "uint64"
            },
            {
              "internalType": "bytes32",
              "name": "refUID",
              "type": "bytes32"
            },
            {
              "internalType": "address",
              "name": "recipient",
              "type": "address"
            },
            {
              "internalType": "address",
              "name": "attester",
              "type": "address"
            },
            {
              "internalType": "bool",
              "name": "revocable",
              "type": "bool"
            },
            {
              "internalType": "bytes",
              "name": "data",
              "type": "bytes"
            }
          ],
          "internalType": "struct Attestation",
          "name": "attestation",
          "type": "tuple"
        }
      ],
      "name": "attest",
      "outputs": [
        {
          "internalType": "bool",
          "name": "",
          "type": "bool"
        }
      ],
      "stateMutability": "payable",
      "type": "function"
    },
    {
      "inputs": [
        {
          "internalType": "bytes32",
          "name": "",
          "type": "bytes32"
        },
        {
          "internalType": "uint256",
          "name": "",
          "type": "uint256"
        }
      ],
      "name": "attestations",
      "outputs": [
        {
          "internalType": "bytes32",
          "name": "",
          "type": "bytes32"
        }
      ],
      "stateMutability": "view",
      "type": "function"
    },
    {
      "inputs": [
        {
          "internalType": "bytes32",
          "name": "attUid",
          "type": "bytes32"
        }
      ],
      "name": "countMembers",
      "outputs": [
        {
          "internalType": "uint256",
          "name": "",
          "type": "uint256"
        }
      ],
      "stateMutability": "view",
      "type": "function"
    },
    {
      "inputs": [
        {
          "internalType": "bytes32",
          "name": "attUid",
          "type": "bytes32"
        },
        {
          "internalType": "uint256",
          "name": "farcasterId",
          "type": "uint256"
        }
      ],
      "name": "getMember",
      "outputs": [
        {
          "internalType": "bool",
          "name": "joined",
          "type": "bool"
        },
        {
          "internalType": "uint256",
          "name": "permissions",
          "type": "uint256"
        }
      ],
      "stateMutability": "view",
      "type": "function"
    },
    {
      "inputs": [
        {
          "internalType": "bytes32",
          "name": "attUid",
          "type": "bytes32"
        }
      ],
      "name": "getMembers",
      "outputs": [
        {
          "components": [
            {
              "internalType": "uint256",
              "name": "farcasterId",
              "type": "uint256"
            },
            {
              "internalType": "uint256",
              "name": "permissions",
              "type": "uint256"
            }
          ],
          "internalType": "struct IFarcasterMembership.Membership[]",
          "name": "_members",
          "type": "tuple[]"
        }
      ],
      "stateMutability": "view",
      "type": "function"
    },
    {
      "inputs": [],
      "name": "isPayable",
      "outputs": [
        {
          "internalType": "bool",
          "name": "",
          "type": "bool"
        }
      ],
      "stateMutability": "pure",
      "type": "function"
    },
    {
      "inputs": [
        {
          "components": [
            {
              "internalType": "bytes32",
              "name": "uid",
              "type": "bytes32"
            },
            {
              "internalType": "bytes32",
              "name": "schema",
              "type": "bytes32"
            },
            {
              "internalType": "uint64",
              "name": "time",
              "type": "uint64"
            },
            {
              "internalType": "uint64",
              "name": "expirationTime",
              "type": "uint64"
            },
            {
              "internalType": "uint64",
              "name": "revocationTime",
              "type": "uint64"
            },
            {
              "internalType": "bytes32",
              "name": "refUID",
              "type": "bytes32"
            },
            {
              "internalType": "address",
              "name": "recipient",
              "type": "address"
            },
            {
              "internalType": "address",
              "name": "attester",
              "type": "address"
            },
            {
              "internalType": "bool",
              "name": "revocable",
              "type": "bool"
            },
            {
              "internalType": "bytes",
              "name": "data",
              "type": "bytes"
            }
          ],
          "internalType": "struct Attestation[]",
          "name": "attestations",
          "type": "tuple[]"
        },
        {
          "internalType": "uint256[]",
          "name": "values",
          "type": "uint256[]"
        }
      ],
      "name": "multiAttest",
      "outputs": [
        {
          "internalType": "bool",
          "name": "",
          "type": "bool"
        }
      ],
      "stateMutability": "payable",
      "type": "function"
    },
    {
      "inputs": [
        {
          "components": [
            {
              "internalType": "bytes32",
              "name": "uid",
              "type": "bytes32"
            },
            {
              "internalType": "bytes32",
              "name": "schema",
              "type": "bytes32"
            },
            {
              "internalType": "uint64",
              "name": "time",
              "type": "uint64"
            },
            {
              "internalType": "uint64",
              "name": "expirationTime",
              "type": "uint64"
            },
            {
              "internalType": "uint64",
              "name": "revocationTime",
              "type": "uint64"
            },
            {
              "internalType": "bytes32",
              "name": "refUID",
              "type": "bytes32"
            },
            {
              "internalType": "address",
              "name": "recipient",
              "type": "address"
            },
            {
              "internalType": "address",
              "name": "attester",
              "type": "address"
            },
            {
              "internalType": "bool",
              "name": "revocable",
              "type": "bool"
            },
            {
              "internalType": "bytes",
              "name": "data",
              "type": "bytes"
            }
          ],
          "internalType": "struct Attestation[]",
          "name": "attestations",
          "type": "tuple[]"
        },
        {
          "internalType": "uint256[]",
          "name": "values",
          "type": "uint256[]"
        }
      ],
      "name": "multiRevoke",
      "outputs": [
        {
          "internalType": "bool",
          "name": "",
          "type": "bool"
        }
      ],
      "stateMutability": "payable",
      "type": "function"
    },
    {
      "inputs": [
        {
          "internalType": "bytes[]",
          "name": "data",
          "type": "bytes[]"
        }
      ],
      "name": "multicall",
      "outputs": [
        {
          "internalType": "bytes[]",
          "name": "results",
          "type": "bytes[]"
        }
      ],
      "stateMutability": "nonpayable",
      "type": "function"
    },
    {
      "inputs": [
        {
          "internalType": "bytes32",
          "name": "attUid",
          "type": "bytes32"
        },
        {
          "internalType": "uint256",
          "name": "adminFid",
          "type": "uint256"
        },
        {
          "internalType": "uint256",
          "name": "memberFid",
          "type": "uint256"
        }
      ],
      "name": "removeMember",
      "outputs": [],
      "stateMutability": "nonpayable",
      "type": "function"
    },
    {
      "inputs": [
        {
          "components": [
            {
              "internalType": "bytes32",
              "name": "uid",
              "type": "bytes32"
            },
            {
              "internalType": "bytes32",
              "name": "schema",
              "type": "bytes32"
            },
            {
              "internalType": "uint64",
              "name": "time",
              "type": "uint64"
            },
            {
              "internalType": "uint64",
              "name": "expirationTime",
              "type": "uint64"
            },
            {
              "internalType": "uint64",
              "name": "revocationTime",
              "type": "uint64"
            },
            {
              "internalType": "bytes32",
              "name": "refUID",
              "type": "bytes32"
            },
            {
              "internalType": "address",
              "name": "recipient",
              "type": "address"
            },
            {
              "internalType": "address",
              "name": "attester",
              "type": "address"
            },
            {
              "internalType": "bool",
              "name": "revocable",
              "type": "bool"
            },
            {
              "internalType": "bytes",
              "name": "data",
              "type": "bytes"
            }
          ],
          "internalType": "struct Attestation",
          "name": "attestation",
          "type": "tuple"
        }
      ],
      "name": "revoke",
      "outputs": [
        {
          "internalType": "bool",
          "name": "",
          "type": "bool"
        }
      ],
      "stateMutability": "payable",
      "type": "function"
    },
    {
      "inputs": [],
      "name": "schemaId",
      "outputs": [
        {
          "internalType": "bytes32",
          "name": "",
          "type": "bytes32"
        }
      ],
      "stateMutability": "view",
      "type": "function"
    },
    {
      "inputs": [
        {
          "internalType": "bytes32",
          "name": "attUid",
          "type": "bytes32"
        },
        {
          "internalType": "uint256",
          "name": "adminFid",
          "type": "uint256"
        },
        {
          "internalType": "uint256",
          "name": "memberFid",
          "type": "uint256"
        },
        {
          "internalType": "uint256",
          "name": "permissions",
          "type": "uint256"
        }
      ],
      "name": "setMember",
      "outputs": [],
      "stateMutability": "nonpayable",
      "type": "function"
    },
    {
      "inputs": [],
      "name": "verifier",
      "outputs": [
        {
          "internalType": "contract IFarcasterVerification",
          "name": "",
          "type": "address"
        }
      ],
      "stateMutability": "view",
      "type": "function"
    },
    {
      "inputs": [
        {
          "internalType": "bytes32",
          "name": "attUid",
          "type": "bytes32"
        },
        {
          "internalType": "uint256",
          "name": "fid",
          "type": "uint256"
        },
        {
          "internalType": "uint256",
          "name": "permissions",
          "type": "uint256"
        }
      ],
      "name": "verifyMember",
      "outputs": [
        {
          "internalType": "bool",
          "name": "",
          "type": "bool"
        }
      ],
      "stateMutability": "nonpayable",
      "type": "function"
    },
    {
      "inputs": [],
      "name": "version",
      "outputs": [
        {
          "internalType": "string",
          "name": "",
          "type": "string"
        }
      ],
      "stateMutability": "view",
      "type": "function"
    },
    {
      "stateMutability": "payable",
      "type": "receive"
    }
  ],
  "bytecode": "0x61012060405234801561001157600080fd5b50604051612c85380380612c85833981016040819052610030916101cf565b6001608052600360a052600060c052816001600160a01b038116610067576040516341bc07ff60e11b815260040160405180910390fd5b6001600160a01b0390811660e0528181166101005260408051631e216b9960e31b815290519184169163f10b5cc8916004808201926020929091908290030181865afa1580156100bb573d6000803e3d6000fd5b505050506040513d601f19601f820116820180604052508101906100df9190610209565b604051630c1af44f60e31b815260606004820152603660648201527f75696e743235362061646d696e4669642c75696e74323536206d656d6265724660848201527f69642c75696e74323536207065726d697373696f6e730000000000000000000060a4820152306024820152600160448201526001600160a01b0391909116906360d7a2789060c4016020604051808303816000875af1158015610188573d6000803e3d6000fd5b505050506040513d601f19601f820116820180604052508101906101ac919061022d565b600055506102469050565b6001600160a01b03811681146101cc57600080fd5b50565b600080604083850312156101e257600080fd5b82516101ed816101b7565b60208401519092506101fe816101b7565b809150509250929050565b60006020828403121561021b57600080fd5b8151610226816101b7565b9392505050565b60006020828403121561023f57600080fd5b5051919050565b60805160a05160c05160e051610100516129ca6102bb60003960008181610170015281816103b401526106c101526000818161090a01528181610f2a01528181610fd20152818161140f0152818161163e01526117fd0152600061062a01526000610601015260006105d801526129ca6000f3fe6080604052600436106100f75760003560e01c806388e5b2d91161008a578063c19105fd11610059578063c19105fd14610321578063ce46e04614610358578063e49617e11461036c578063e60c35051461036c57600080fd5b806388e5b2d91461029657806391db0b7e146102a9578063a78c52bb146102bc578063ac9650d8146102f457600080fd5b80635a641fbe116100c65780635a641fbe146101f95780637b641fbc146102195780637ec24abb1461024657806386b569051461027657600080fd5b8063075b1a09146101355780632b7ac3f31461015e57806350f15d15146101b757806354fd4d50146101d757600080fd5b36610130576040517f1574f9f300000000000000000000000000000000000000000000000000000000815260040160405180910390fd5b005b600080fd5b34801561014157600080fd5b5061014b60005481565b6040519081526020015b60405180910390f35b34801561016a57600080fd5b506101927f000000000000000000000000000000000000000000000000000000000000000081565b60405173ffffffffffffffffffffffffffffffffffffffff9091168152602001610155565b3480156101c357600080fd5b5061012e6101d2366004611f17565b61037f565b3480156101e357600080fd5b506101ec6105d1565b6040516101559190611fb1565b34801561020557600080fd5b5061012e610214366004611fc4565b610674565b34801561022557600080fd5b50610239610234366004611ff6565b610aa1565b604051610155919061200f565b34801561025257600080fd5b50610266610261366004611f17565b610b7e565b6040519015158152602001610155565b34801561028257600080fd5b5061014b610291366004611ff6565b610bda565b6102666102a43660046120a3565b610bf7565b6102666102b73660046120a3565b610cf8565b3480156102c857600080fd5b5061014b6102d7366004612114565b600260209081526000928352604080842090915290825290205481565b34801561030057600080fd5b5061031461030f366004612136565b610dd1565b6040516101559190612178565b34801561032d57600080fd5b5061034161033c366004612114565b610eb9565b604080519215158352602083019190915201610155565b34801561036457600080fd5b506000610266565b61026661037a3660046121fb565b610edf565b6040517f5659c838000000000000000000000000000000000000000000000000000000008152600481018390523360248201527f000000000000000000000000000000000000000000000000000000000000000073ffffffffffffffffffffffffffffffffffffffff1690635659c83890604401602060405180830381865afa158015610410573d6000803e3d6000fd5b505050506040513d601f19601f820116820180604052508101906104349190612247565b61046a576040517f1e09210400000000000000000000000000000000000000000000000000000000815260040160405180910390fd5b61047383610ef8565b61047d83826115a4565b60008061048a8585610eb9565b9150915060008061049b8786610eb9565b915091508315806104aa575081155b156104e1576040517f1e09210400000000000000000000000000000000000000000000000000000000815260040160405180910390fd5b848614610580576010808416141580156104fe5750604080841614155b15610535576040517f1e09210400000000000000000000000000000000000000000000000000000000815260040160405180910390fd5b600881101580156105495750604080841614155b15610580576040517f1e09210400000000000000000000000000000000000000000000000000000000815260040160405180910390fd5b600087815260016020526040902061059890866116ce565b508486887f4e10ccc06761294a8f7a0c5ecbd981f3b7c6a622bf122d425c6ec8678fbb6ae660405160405180910390a450505050505050565b60606105fc7f00000000000000000000000000000000000000000000000000000000000000006116da565b6106257f00000000000000000000000000000000000000000000000000000000000000006116da565b61064e7f00000000000000000000000000000000000000000000000000000000000000006116da565b60405160200161066093929190612262565b604051602081830303815290604052905090565b8060000361068c5761068784848461037f565b610a9b565b6040517f5659c838000000000000000000000000000000000000000000000000000000008152600481018490523360248201527f000000000000000000000000000000000000000000000000000000000000000073ffffffffffffffffffffffffffffffffffffffff1690635659c83890604401602060405180830381865afa15801561071d573d6000803e3d6000fd5b505050506040513d601f19601f820116820180604052508101906107419190612247565b610777576040517f1e09210400000000000000000000000000000000000000000000000000000000815260040160405180910390fd5b61078084610ef8565b60008061078d8686610eb9565b91509150600061079d8786610eb9565b9150506107aa87866115a4565b8215806107c857506008808316141580156107c85750602080831614155b156107ff576040517f1e09210400000000000000000000000000000000000000000000000000000000815260040160405180910390fd5b8486146108a15760208083161415801561081a575060088410155b15610851576040517f1e09210400000000000000000000000000000000000000000000000000000000815260040160405180910390fd5b600881101580156108655750602080831614155b1561089c576040517f1e09210400000000000000000000000000000000000000000000000000000000815260040160405180910390fd5b6108ec565b6020808316141580156108b5575060208410155b156108ec576040517f1e09210400000000000000000000000000000000000000000000000000000000815260040160405180910390fd5b6000878152600160205260409020610905908686611799565b5060007f000000000000000000000000000000000000000000000000000000000000000073ffffffffffffffffffffffffffffffffffffffff1663f17325e7604051806040016040528060005481526020016040518060c00160405280600073ffffffffffffffffffffffffffffffffffffffff168152602001600067ffffffffffffffff1681526020016001151581526020018d81526020018c8c8c6040516020016109c5939291909283526020830191909152604082015260600190565b604051602081830303815290604052815260200160008152508152506040518263ffffffff1660e01b81526004016109fd91906122f9565b6020604051808303816000875af1158015610a1c573d6000803e3d6000fd5b505050506040513d601f19601f82011682018060405250810190610a40919061238a565b60008981526002602090815260408083208a84528252918290208390559051878152919250879189918b917f039ed36214cf232fe5c2a2bb2cef7fe02a351a9323d4f7a87729a373ab38d68b910160405180910390a4505050505b50505050565b60606000610aae83610bda565b90508067ffffffffffffffff811115610ac957610ac96123a3565b604051908082528060200260200182016040528015610b0e57816020015b6040805180820190915260008082526020820152815260200190600190039081610ae75790505b5060008481526001602052604081209193505b82811015610b7657600080610b3684846117a6565b91509150604051806040016040528083815260200182815250868481518110610b6157610b616123d2565b60209081029190910101525050600101610b21565b505050919050565b6000610b8984610ef8565b6000848152600160205260409020610ba190846117c2565b610bad57506000610bd3565b6000848152600160205260409020610bd090610bc990856117ce565b8316831490565b90505b9392505050565b6000818152600160205260408120610bf1906117da565b92915050565b6000610c016117e5565b83828114610c3b576040517f947d5a8400000000000000000000000000000000000000000000000000000000815260040160405180910390fd5b3460005b82811015610ce8576000868683818110610c5b57610c5b6123d2565b90506020020135905082811115610c9e576040517f1101129400000000000000000000000000000000000000000000000000000000815260040160405180910390fd5b610ccb898984818110610cb357610cb36123d2565b9050602002810190610cc59190612401565b82611856565b610cdc576000945050505050610cf0565b90910390600101610c3f565b506001925050505b949350505050565b6000610d026117e5565b83828114610d3c576040517f947d5a8400000000000000000000000000000000000000000000000000000000815260040160405180910390fd5b3460005b82811015610ce8576000868683818110610d5c57610d5c6123d2565b90506020020135905082811115610d9f576040517f1101129400000000000000000000000000000000000000000000000000000000815260040160405180910390fd5b610db4898984818110610cb357610cb36123d2565b610dc5576000945050505050610cf0565b90910390600101610d40565b6040805160008152602081019091526060908267ffffffffffffffff811115610dfc57610dfc6123a3565b604051908082528060200260200182016040528015610e2f57816020015b6060815260200190600190039081610e1a5790505b50915060005b83811015610eb157610e8c30868684818110610e5357610e536123d2565b9050602002810190610e659190612479565b85604051602001610e78939291906124de565b604051602081830303815290604052611899565b838281518110610e9e57610e9e6123d2565b6020908102919091010152600101610e35565b505092915050565b60008281526001602052604081208190610ed3908461191c565b915091505b9250929050565b6000610ee96117e5565b610bf18234611856565b919050565b6040517fa3112a64000000000000000000000000000000000000000000000000000000008152600481018290526000907f000000000000000000000000000000000000000000000000000000000000000073ffffffffffffffffffffffffffffffffffffffff169063a3112a6490602401600060405180830381865afa158015610f86573d6000803e3d6000fd5b505050506040513d6000823e601f3d9081017fffffffffffffffffffffffffffffffffffffffffffffffffffffffffffffffe0168201604052610fcc9190810190612645565b905060007f000000000000000000000000000000000000000000000000000000000000000073ffffffffffffffffffffffffffffffffffffffff1663f10b5cc86040518163ffffffff1660e01b8152600401602060405180830381865afa15801561103b573d6000803e3d6000fd5b505050506040513d601f19601f8201168201806040525081019061105f919061273f565b73ffffffffffffffffffffffffffffffffffffffff1663a2ea7c6e83602001516040518263ffffffff1660e01b815260040161109d91815260200190565b600060405180830381865afa1580156110ba573d6000803e3d6000fd5b505050506040513d6000823e601f3d9081017fffffffffffffffffffffffffffffffffffffffffffffffffffffffffffffffe0168201604052611100919081019061275c565b608083015190915067ffffffffffffffff16156111545781516040517f04bed25600000000000000000000000000000000000000000000000000000000815260048101919091526024015b60405180910390fd5b600083815260016020526040902061116b906117da565b60000361159f57602081015173ffffffffffffffffffffffffffffffffffffffff1615806111db575060208101516111d99073ffffffffffffffffffffffffffffffffffffffff167ffafec1c70000000000000000000000000000000000000000000000000000000061192b565b155b15611215576040517f898bc7a30000000000000000000000000000000000000000000000000000000081526004810184905260240161114b565b60208101516040517ffafec1c7000000000000000000000000000000000000000000000000000000008152600091829173ffffffffffffffffffffffffffffffffffffffff9091169063fafec1c79061127690879085908190600401612812565b60408051808303816000875af19250505080156112ce575060408051601f3d9081017fffffffffffffffffffffffffffffffffffffffffffffffffffffffffffffffe01682019092526112cb91810190612906565b60015b156112e65781156112e3579092506029915082905b50505b826020015173ffffffffffffffffffffffffffffffffffffffff1663fafec1c785600060016040518463ffffffff1660e01b815260040161132993929190612812565b60408051808303816000875af1925050508015611381575060408051601f3d9081017fffffffffffffffffffffffffffffffffffffffffffffffffffffffffffffffe016820190925261137e91810190612906565b60015b156113b15760008211801561139d57508184148061139d575083155b156113ae5790925060529091179082905b50505b816000036113f15783516040517feec8a7f2000000000000000000000000000000000000000000000000000000008152600481019190915260240161114b565b600085815260016020526040902061140a908383611799565b5060007f000000000000000000000000000000000000000000000000000000000000000073ffffffffffffffffffffffffffffffffffffffff1663f17325e7604051806040016040528060005481526020016040518060c00160405280600073ffffffffffffffffffffffffffffffffffffffff168152602001600067ffffffffffffffff1681526020016001151581526020018b81526020018889896040516020016114ca939291909283526020830191909152604082015260600190565b604051602081830303815290604052815260200160008152508152506040518263ffffffff1660e01b815260040161150291906122f9565b6020604051808303816000875af1158015611521573d6000803e3d6000fd5b505050506040513d601f19601f82011682018060405250810190611545919061238a565b600087815260026020908152604080832087845282529182902083905590518481529192508491829189917f039ed36214cf232fe5c2a2bb2cef7fe02a351a9323d4f7a87729a373ab38d68b910160405180910390a45050505b505050565b6000828152600260209081526040808320848452909152902054156116ca57604080518082018252600080548252825180840184528582526002602090815284832086845281528483205482528082019290925281830190815292517f46926267000000000000000000000000000000000000000000000000000000008152915160048301529151805160248301529091015160448201527f000000000000000000000000000000000000000000000000000000000000000073ffffffffffffffffffffffffffffffffffffffff1690634692626790606401600060405180830381600087803b15801561169757600080fd5b505af11580156116ab573d6000803e3d6000fd5b5050506000838152600260209081526040808320858452909152812055505b5050565b6000610bd38383611947565b606060006116e783611964565b600101905060008167ffffffffffffffff811115611707576117076123a3565b6040519080825280601f01601f191660200182016040528015611731576020820181803683370190505b5090508181016020015b7fffffffffffffffffffffffffffffffffffffffffffffffffffffffffffffffff017f3031323334353637383961626364656600000000000000000000000000000000600a86061a8153600a850494508461173b575b509392505050565b6000610bd0848484611a46565b60008080806117b58686611a63565b9097909650945050505050565b6000610bd38383611a8e565b6000610bd38383611a9a565b6000610bf182611afa565b3373ffffffffffffffffffffffffffffffffffffffff7f00000000000000000000000000000000000000000000000000000000000000001614611854576040517f4ca8886700000000000000000000000000000000000000000000000000000000815260040160405180910390fd5b565b60003061186a610100850160e08601612936565b73ffffffffffffffffffffffffffffffffffffffff16148015610bd35750600054836020013514905092915050565b60606000808473ffffffffffffffffffffffffffffffffffffffff16846040516118c39190612953565b600060405180830381855af49150503d80600081146118fe576040519150601f19603f3d011682016040523d82523d6000602084013e611903565b606091505b5091509150611913858383611b05565b95945050505050565b60008080806117b58686611b94565b600061193683611bce565b8015610bd35750610bd38383611c32565b60008181526002830160205260408120819055610bd38383611d20565b6000807a184f03e93ff9f4daa797ed6e38ed64bf6a1f01000000000000000083106119ad577a184f03e93ff9f4daa797ed6e38ed64bf6a1f010000000000000000830492506040015b6d04ee2d6d415b85acef810000000083106119d9576d04ee2d6d415b85acef8100000000830492506020015b662386f26fc1000083106119f757662386f26fc10000830492506010015b6305f5e1008310611a0f576305f5e100830492506008015b6127108310611a2357612710830492506004015b60648310611a35576064830492506002015b600a8310610bf15760010192915050565b60008281526002840160205260408120829055610bd08484611d2c565b60008080611a718585611d38565b600081815260029690960160205260409095205494959350505050565b6000610bd38383611d44565b600081815260028301602052604081205480158015611ac05750611abe8484611a8e565b155b15610bd3576040517f02b566860000000000000000000000000000000000000000000000000000000081526004810184905260240161114b565b6000610bf182611d5c565b606082611b1a57611b1582611d66565b610bd3565b8151158015611b3e575073ffffffffffffffffffffffffffffffffffffffff84163b155b15611b8d576040517f9996b31500000000000000000000000000000000000000000000000000000000815273ffffffffffffffffffffffffffffffffffffffff8516600482015260240161114b565b5080610bd3565b6000818152600283016020526040812054819080611bc357611bb68585611a8e565b925060009150610ed89050565b600192509050610ed8565b6000611bfa827f01ffc9a700000000000000000000000000000000000000000000000000000000611c32565b8015610bf15750611c2b827fffffffff00000000000000000000000000000000000000000000000000000000611c32565b1592915050565b6040517fffffffff00000000000000000000000000000000000000000000000000000000821660248201526000908190604401604080517fffffffffffffffffffffffffffffffffffffffffffffffffffffffffffffffe0818403018152919052602080820180517bffffffffffffffffffffffffffffffffffffffffffffffffffffffff167f01ffc9a700000000000000000000000000000000000000000000000000000000178152825192935060009283928392909183918a617530fa92503d91506000519050828015611d09575060208210155b8015611d155750600081115b979650505050505050565b6000610bd38383611dab565b6000610bd38383611e9e565b6000610bd38383611eed565b60008181526001830160205260408120541515610bd3565b6000610bf1825490565b805115611d765780518082602001fd5b6040517f1425ea4200000000000000000000000000000000000000000000000000000000815260040160405180910390fd5b50565b60008181526001830160205260408120548015611e94576000611dcf60018361243f565b8554909150600090611de39060019061243f565b9050808214611e48576000866000018281548110611e0357611e036123d2565b9060005260206000200154905080876000018481548110611e2657611e266123d2565b6000918252602080832090910192909255918252600188019052604090208390555b8554869080611e5957611e59612965565b600190038181906000526020600020016000905590558560010160008681526020019081526020016000206000905560019350505050610bf1565b6000915050610bf1565b6000818152600183016020526040812054611ee557508154600181810184556000848152602080822090930184905584548482528286019093526040902091909155610bf1565b506000610bf1565b6000826000018281548110611f0457611f046123d2565b9060005260206000200154905092915050565b600080600060608486031215611f2c57600080fd5b505081359360208301359350604090920135919050565b60005b83811015611f5e578181015183820152602001611f46565b50506000910152565b60008151808452611f7f816020860160208601611f43565b601f017fffffffffffffffffffffffffffffffffffffffffffffffffffffffffffffffe0169290920160200192915050565b602081526000610bd36020830184611f67565b60008060008060808587031215611fda57600080fd5b5050823594602084013594506040840135936060013592509050565b60006020828403121561200857600080fd5b5035919050565b602080825282518282018190526000918401906040840190835b81811015612053578351805184526020908101518185015290930192604090920191600101612029565b509095945050505050565b60008083601f84011261207057600080fd5b50813567ffffffffffffffff81111561208857600080fd5b6020830191508360208260051b8501011115610ed857600080fd5b600080600080604085870312156120b957600080fd5b843567ffffffffffffffff8111156120d057600080fd5b6120dc8782880161205e565b909550935050602085013567ffffffffffffffff8111156120fc57600080fd5b6121088782880161205e565b95989497509550505050565b6000806040838503121561212757600080fd5b50508035926020909101359150565b6000806020838503121561214957600080fd5b823567ffffffffffffffff81111561216057600080fd5b61216c8582860161205e565b90969095509350505050565b6000602082016020835280845180835260408501915060408160051b86010192506020860160005b828110156121ef577fffffffffffffffffffffffffffffffffffffffffffffffffffffffffffffffc08786030184526121da858351611f67565b945060209384019391909101906001016121a0565b50929695505050505050565b60006020828403121561220d57600080fd5b813567ffffffffffffffff81111561222457600080fd5b82016101408185031215610bd357600080fd5b80518015158114610ef357600080fd5b60006020828403121561225957600080fd5b610bd382612237565b60008451612274818460208901611f43565b7f2e0000000000000000000000000000000000000000000000000000000000000090830190815284516122ae816001840160208901611f43565b7f2e000000000000000000000000000000000000000000000000000000000000006001929091019182015283516122ec816002840160208801611f43565b0160020195945050505050565b60208152815160208201526000602083015160408084015273ffffffffffffffffffffffffffffffffffffffff815116606084015267ffffffffffffffff60208201511660808401526040810151151560a0840152606081015160c0840152608081015160c060e0850152612372610120850182611f67565b905060a0820151610100850152809250505092915050565b60006020828403121561239c57600080fd5b5051919050565b7f4e487b7100000000000000000000000000000000000000000000000000000000600052604160045260246000fd5b7f4e487b7100000000000000000000000000000000000000000000000000000000600052603260045260246000fd5b600082357ffffffffffffffffffffffffffffffffffffffffffffffffffffffffffffffec183360301811261243557600080fd5b9190910192915050565b81810381811115610bf1577f4e487b7100000000000000000000000000000000000000000000000000000000600052601160045260246000fd5b60008083357fffffffffffffffffffffffffffffffffffffffffffffffffffffffffffffffe18436030181126124ae57600080fd5b83018035915067ffffffffffffffff8211156124c957600080fd5b602001915036819003821315610ed857600080fd5b8284823760008382016000815283516124fb818360208801611f43565b0195945050505050565b604051610140810167ffffffffffffffff81118282101715612529576125296123a3565b60405290565b6040516080810167ffffffffffffffff81118282101715612529576125296123a3565b805167ffffffffffffffff81168114610ef357600080fd5b73ffffffffffffffffffffffffffffffffffffffff81168114611da857600080fd5b8051610ef38161256a565b60008067ffffffffffffffff8411156125b2576125b26123a3565b506040517fffffffffffffffffffffffffffffffffffffffffffffffffffffffffffffffe0601f85018116603f0116810181811067ffffffffffffffff821117156125ff576125ff6123a3565b60405283815290508082840185101561261757600080fd5b611791846020830185611f43565b600082601f83011261263657600080fd5b610bd383835160208501612597565b60006020828403121561265757600080fd5b815167ffffffffffffffff81111561266e57600080fd5b8201610140818503121561268157600080fd5b612689612505565b81518152602080830151908201526126a360408301612552565b60408201526126b460608301612552565b60608201526126c560808301612552565b608082015260a082810151908201526126e060c0830161258c565b60c08201526126f160e0830161258c565b60e08201526127036101008301612237565b61010082015261012082015167ffffffffffffffff81111561272457600080fd5b61273086828501612625565b61012083015250949350505050565b60006020828403121561275157600080fd5b8151610bd38161256a565b60006020828403121561276e57600080fd5b815167ffffffffffffffff81111561278557600080fd5b82016080818503121561279757600080fd5b61279f61252f565b8151815260208201516127b18161256a565b60208201526127c260408301612237565b6040820152606082015167ffffffffffffffff8111156127e157600080fd5b80830192505084601f8301126127f657600080fd5b61280585835160208501612597565b6060820152949350505050565b6060815283516060820152602084015160808201526000604085015161284460a084018267ffffffffffffffff169052565b50606085015167ffffffffffffffff811660c084015250608085015167ffffffffffffffff811660e08401525060a085015161010083015260c085015173ffffffffffffffffffffffffffffffffffffffff81166101208401525060e085015173ffffffffffffffffffffffffffffffffffffffff811661014084015250610100850151801515610160840152506101208501516101406101808401526128ef6101a0840182611f67565b915050836020830152610cf0604083018415159052565b6000806040838503121561291957600080fd5b82519150602083015161292b8161256a565b809150509250929050565b60006020828403121561294857600080fd5b8135610bd38161256a565b60008251612435818460208701611f43565b7f4e487b7100000000000000000000000000000000000000000000000000000000600052603160045260246000fdfea264697066735822122004f08588ac30b1083088675b2f80c14a4eab069bbb8e004d8c648a1e34d3767364736f6c634300081a0033",
  "linkReferences": {},
  "deployedLinkReferences": {}
}