{
  "_format": "hh-sol-artifact-1",
  "contractName": "FarcasterMembership",
  "sourceName": "contracts/FarcasterMembership.sol",
  "abi": [
    {
      "inputs": [
        {
          "internalType": "contract IEAS",
          "name": "eas",
          "type": "address"
        },
        {
          "internalType": "contract IFarcasterVerification",
          "name": "_verifier",
          "type": "address"
        }
      ],
      "stateMutability": "nonpayable",
      "type": "constructor"
    },
    {
      "inputs": [],
      "name": "AccessDenied",
      "type": "error"
    },
    {
      "inputs": [
        {
          "internalType": "address",
          "name": "target",
          "type": "address"
        }
      ],
      "name": "AddressEmptyCode",
      "type": "error"
    },
    {
      "inputs": [
        {
          "internalType": "bytes32",
          "name": "uid",
          "type": "bytes32"
        }
      ],
      "name": "AttestationRevoked",
      "type": "error"
    },
    {
      "inputs": [
        {
          "internalType": "bytes32",
          "name": "key",
          "type": "bytes32"
        }
      ],
      "name": "EnumerableMapNonexistentKey",
      "type": "error"
    },
    {
      "inputs": [],
      "name": "FailedInnerCall",
      "type": "error"
    },
    {
      "inputs": [],
      "name": "InsufficientValue",
      "type": "error"
    },
    {
      "inputs": [],
      "name": "InvalidEAS",
      "type": "error"
    },
    {
      "inputs": [],
      "name": "InvalidLength",
      "type": "error"
    },
    {
      "inputs": [
        {
          "internalType": "bytes32",
          "name": "uid",
          "type": "bytes32"
        }
      ],
      "name": "MissingFarcasterResolverConsumer",
      "type": "error"
    },
    {
      "inputs": [
        {
          "internalType": "bytes32",
          "name": "uid",
          "type": "bytes32"
        }
      ],
      "name": "NoPrimaryFid",
      "type": "error"
    },
    {
      "inputs": [],
      "name": "NotPayable",
      "type": "error"
    },
    {
      "inputs": [],
      "name": "PermissionDenied",
      "type": "error"
    },
    {
      "anonymous": false,
      "inputs": [
        {
          "indexed": true,
          "internalType": "bytes32",
          "name": "attUid",
          "type": "bytes32"
        },
        {
          "indexed": true,
          "internalType": "uint256",
          "name": "adminFid",
          "type": "uint256"
        },
        {
          "indexed": true,
          "internalType": "uint256",
          "name": "memberFid",
          "type": "uint256"
        }
      ],
      "name": "RemoveMember",
      "type": "event"
    },
    {
      "anonymous": false,
      "inputs": [
        {
          "indexed": true,
          "internalType": "bytes32",
          "name": "attUid",
          "type": "bytes32"
        },
        {
          "indexed": true,
          "internalType": "uint256",
          "name": "adminFid",
          "type": "uint256"
        },
        {
          "indexed": true,
          "internalType": "uint256",
          "name": "memberFid",
          "type": "uint256"
        },
        {
          "indexed": false,
          "internalType": "uint256",
          "name": "permissions",
          "type": "uint256"
        }
      ],
      "name": "SetMember",
      "type": "event"
    },
    {
      "inputs": [
        {
          "components": [
            {
              "internalType": "bytes32",
              "name": "uid",
              "type": "bytes32"
            },
            {
              "internalType": "bytes32",
              "name": "schema",
              "type": "bytes32"
            },
            {
              "internalType": "uint64",
              "name": "time",
              "type": "uint64"
            },
            {
              "internalType": "uint64",
              "name": "expirationTime",
              "type": "uint64"
            },
            {
              "internalType": "uint64",
              "name": "revocationTime",
              "type": "uint64"
            },
            {
              "internalType": "bytes32",
              "name": "refUID",
              "type": "bytes32"
            },
            {
              "internalType": "address",
              "name": "recipient",
              "type": "address"
            },
            {
              "internalType": "address",
              "name": "attester",
              "type": "address"
            },
            {
              "internalType": "bool",
              "name": "revocable",
              "type": "bool"
            },
            {
              "internalType": "bytes",
              "name": "data",
              "type": "bytes"
            }
          ],
          "internalType": "struct Attestation",
          "name": "attestation",
          "type": "tuple"
        }
      ],
      "name": "attest",
      "outputs": [
        {
          "internalType": "bool",
          "name": "",
          "type": "bool"
        }
      ],
      "stateMutability": "payable",
      "type": "function"
    },
    {
      "inputs": [
        {
          "internalType": "bytes32",
          "name": "attUid",
          "type": "bytes32"
        }
      ],
      "name": "countMembers",
      "outputs": [
        {
          "internalType": "uint256",
          "name": "",
          "type": "uint256"
        }
      ],
      "stateMutability": "view",
      "type": "function"
    },
    {
      "inputs": [
        {
          "internalType": "bytes32",
          "name": "attUid",
          "type": "bytes32"
        },
        {
          "internalType": "uint256",
          "name": "farcasterId",
          "type": "uint256"
        }
      ],
      "name": "getMember",
      "outputs": [
        {
          "internalType": "bool",
          "name": "joined",
          "type": "bool"
        },
        {
          "internalType": "uint256",
          "name": "permissions",
          "type": "uint256"
        }
      ],
      "stateMutability": "view",
      "type": "function"
    },
    {
      "inputs": [
        {
          "internalType": "bytes32",
          "name": "attUid",
          "type": "bytes32"
        }
      ],
      "name": "getMembers",
      "outputs": [
        {
          "components": [
            {
              "internalType": "uint256",
              "name": "farcasterId",
              "type": "uint256"
            },
            {
              "internalType": "uint256",
              "name": "permissions",
              "type": "uint256"
            }
          ],
          "internalType": "struct IFarcasterMembership.Membership[]",
          "name": "_members",
          "type": "tuple[]"
        }
      ],
      "stateMutability": "view",
      "type": "function"
    },
    {
      "inputs": [],
      "name": "isPayable",
      "outputs": [
        {
          "internalType": "bool",
          "name": "",
          "type": "bool"
        }
      ],
      "stateMutability": "pure",
      "type": "function"
    },
    {
      "inputs": [
        {
          "components": [
            {
              "internalType": "bytes32",
              "name": "uid",
              "type": "bytes32"
            },
            {
              "internalType": "bytes32",
              "name": "schema",
              "type": "bytes32"
            },
            {
              "internalType": "uint64",
              "name": "time",
              "type": "uint64"
            },
            {
              "internalType": "uint64",
              "name": "expirationTime",
              "type": "uint64"
            },
            {
              "internalType": "uint64",
              "name": "revocationTime",
              "type": "uint64"
            },
            {
              "internalType": "bytes32",
              "name": "refUID",
              "type": "bytes32"
            },
            {
              "internalType": "address",
              "name": "recipient",
              "type": "address"
            },
            {
              "internalType": "address",
              "name": "attester",
              "type": "address"
            },
            {
              "internalType": "bool",
              "name": "revocable",
              "type": "bool"
            },
            {
              "internalType": "bytes",
              "name": "data",
              "type": "bytes"
            }
          ],
          "internalType": "struct Attestation[]",
          "name": "attestations",
          "type": "tuple[]"
        },
        {
          "internalType": "uint256[]",
          "name": "values",
          "type": "uint256[]"
        }
      ],
      "name": "multiAttest",
      "outputs": [
        {
          "internalType": "bool",
          "name": "",
          "type": "bool"
        }
      ],
      "stateMutability": "payable",
      "type": "function"
    },
    {
      "inputs": [
        {
          "components": [
            {
              "internalType": "bytes32",
              "name": "uid",
              "type": "bytes32"
            },
            {
              "internalType": "bytes32",
              "name": "schema",
              "type": "bytes32"
            },
            {
              "internalType": "uint64",
              "name": "time",
              "type": "uint64"
            },
            {
              "internalType": "uint64",
              "name": "expirationTime",
              "type": "uint64"
            },
            {
              "internalType": "uint64",
              "name": "revocationTime",
              "type": "uint64"
            },
            {
              "internalType": "bytes32",
              "name": "refUID",
              "type": "bytes32"
            },
            {
              "internalType": "address",
              "name": "recipient",
              "type": "address"
            },
            {
              "internalType": "address",
              "name": "attester",
              "type": "address"
            },
            {
              "internalType": "bool",
              "name": "revocable",
              "type": "bool"
            },
            {
              "internalType": "bytes",
              "name": "data",
              "type": "bytes"
            }
          ],
          "internalType": "struct Attestation[]",
          "name": "attestations",
          "type": "tuple[]"
        },
        {
          "internalType": "uint256[]",
          "name": "values",
          "type": "uint256[]"
        }
      ],
      "name": "multiRevoke",
      "outputs": [
        {
          "internalType": "bool",
          "name": "",
          "type": "bool"
        }
      ],
      "stateMutability": "payable",
      "type": "function"
    },
    {
      "inputs": [
        {
          "internalType": "bytes[]",
          "name": "data",
          "type": "bytes[]"
        }
      ],
      "name": "multicall",
      "outputs": [
        {
          "internalType": "bytes[]",
          "name": "results",
          "type": "bytes[]"
        }
      ],
      "stateMutability": "nonpayable",
      "type": "function"
    },
    {
      "inputs": [
        {
          "internalType": "bytes32",
          "name": "attUid",
          "type": "bytes32"
        },
        {
          "internalType": "uint256",
          "name": "adminFid",
          "type": "uint256"
        },
        {
          "internalType": "uint256",
          "name": "memberFid",
          "type": "uint256"
        }
      ],
      "name": "removeMember",
      "outputs": [],
      "stateMutability": "nonpayable",
      "type": "function"
    },
    {
      "inputs": [
        {
          "components": [
            {
              "internalType": "bytes32",
              "name": "uid",
              "type": "bytes32"
            },
            {
              "internalType": "bytes32",
              "name": "schema",
              "type": "bytes32"
            },
            {
              "internalType": "uint64",
              "name": "time",
              "type": "uint64"
            },
            {
              "internalType": "uint64",
              "name": "expirationTime",
              "type": "uint64"
            },
            {
              "internalType": "uint64",
              "name": "revocationTime",
              "type": "uint64"
            },
            {
              "internalType": "bytes32",
              "name": "refUID",
              "type": "bytes32"
            },
            {
              "internalType": "address",
              "name": "recipient",
              "type": "address"
            },
            {
              "internalType": "address",
              "name": "attester",
              "type": "address"
            },
            {
              "internalType": "bool",
              "name": "revocable",
              "type": "bool"
            },
            {
              "internalType": "bytes",
              "name": "data",
              "type": "bytes"
            }
          ],
          "internalType": "struct Attestation",
          "name": "attestation",
          "type": "tuple"
        }
      ],
      "name": "revoke",
      "outputs": [
        {
          "internalType": "bool",
          "name": "",
          "type": "bool"
        }
      ],
      "stateMutability": "payable",
      "type": "function"
    },
    {
      "inputs": [],
      "name": "schemaId",
      "outputs": [
        {
          "internalType": "bytes32",
          "name": "",
          "type": "bytes32"
        }
      ],
      "stateMutability": "view",
      "type": "function"
    },
    {
      "inputs": [
        {
          "internalType": "bytes32",
          "name": "attUid",
          "type": "bytes32"
        },
        {
          "internalType": "uint256",
          "name": "adminFid",
          "type": "uint256"
        },
        {
          "internalType": "uint256",
          "name": "memberFid",
          "type": "uint256"
        },
        {
          "internalType": "uint256",
          "name": "permissions",
          "type": "uint256"
        }
      ],
      "name": "setMember",
      "outputs": [],
      "stateMutability": "nonpayable",
      "type": "function"
    },
    {
      "inputs": [],
      "name": "verifier",
      "outputs": [
        {
          "internalType": "contract IFarcasterVerification",
          "name": "",
          "type": "address"
        }
      ],
      "stateMutability": "view",
      "type": "function"
    },
    {
      "inputs": [
        {
          "internalType": "bytes32",
          "name": "attUid",
          "type": "bytes32"
        },
        {
          "internalType": "uint256",
          "name": "fid",
          "type": "uint256"
        },
        {
          "internalType": "uint256",
          "name": "permissions",
          "type": "uint256"
        }
      ],
      "name": "verifyMember",
      "outputs": [
        {
          "internalType": "bool",
          "name": "",
          "type": "bool"
        }
      ],
      "stateMutability": "nonpayable",
      "type": "function"
    },
    {
      "inputs": [],
      "name": "version",
      "outputs": [
        {
          "internalType": "string",
          "name": "",
          "type": "string"
        }
      ],
      "stateMutability": "view",
      "type": "function"
    },
    {
      "stateMutability": "payable",
      "type": "receive"
    }
  ],
  "bytecode": "0x61012060405234801561001157600080fd5b506040516122ab3803806122ab83398101604081905261003091610098565b6001608052600360a052600060c052816001600160a01b038116610067576040516341bc07ff60e11b815260040160405180910390fd5b6001600160a01b0390811660e0521661010052506100d2565b6001600160a01b038116811461009557600080fd5b50565b600080604083850312156100ab57600080fd5b82516100b681610080565b60208401519092506100c781610080565b809150509250929050565b60805160a05160c05160e051610100516121876101246000396000610165015260008181610b1f01528181610bc701526111e3015260006105340152600061050b015260006104e201526121876000f3fe6080604052600436106100ec5760003560e01c806386b569051161008a578063c19105fd11610059578063c19105fd146102de578063ce46e04614610315578063e49617e114610329578063e60c35051461032957600080fd5b806386b569051461026b57806388e5b2d91461028b57806391db0b7e1461029e578063ac9650d8146102b157600080fd5b806354fd4d50116100c657806354fd4d50146101cc5780635a641fbe146101ee5780637b641fbc1461020e5780637ec24abb1461023b57600080fd5b8063075b1a091461012a5780632b7ac3f31461015357806350f15d15146101ac57600080fd5b36610125576040517f1574f9f300000000000000000000000000000000000000000000000000000000815260040160405180910390fd5b005b600080fd5b34801561013657600080fd5b5061014060005481565b6040519081526020015b60405180910390f35b34801561015f57600080fd5b506101877f000000000000000000000000000000000000000000000000000000000000000081565b60405173ffffffffffffffffffffffffffffffffffffffff909116815260200161014a565b3480156101b857600080fd5b506101236101c736600461177e565b61033c565b3480156101d857600080fd5b506101e16104db565b60405161014a9190611818565b3480156101fa57600080fd5b5061012361020936600461182b565b61057e565b34801561021a57600080fd5b5061022e61022936600461185d565b610696565b60405161014a9190611876565b34801561024757600080fd5b5061025b61025636600461177e565b610773565b604051901515815260200161014a565b34801561027757600080fd5b5061014061028636600461185d565b6107cf565b61025b61029936600461190a565b6107ec565b61025b6102ac36600461190a565b6108ed565b3480156102bd57600080fd5b506102d16102cc36600461197b565b6109c6565b60405161014a91906119bd565b3480156102ea57600080fd5b506102fe6102f9366004611a40565b610aae565b60408051921515835260208301919091520161014a565b34801561032157600080fd5b50600061025b565b61025b610337366004611a62565b610ad4565b61034583610aed565b6000806103528585610aae565b915091506000806103638786610aae565b91509150831580610372575081155b156103a9576040517f1e09210400000000000000000000000000000000000000000000000000000000815260040160405180910390fd5b84861480156103bb5750600480841614155b156103f2576040517f1e09210400000000000000000000000000000000000000000000000000000000815260040160405180910390fd5b6010808416141580156104085750604080841614155b1561043f576040517f1e09210400000000000000000000000000000000000000000000000000000000815260040160405180910390fd5b600481101580156104535750604080841614155b1561048a576040517f1e09210400000000000000000000000000000000000000000000000000000000815260040160405180910390fd5b60008781526001602052604090206104a290866110b4565b508486887f4e10ccc06761294a8f7a0c5ecbd981f3b7c6a622bf122d425c6ec8678fbb6ae660405160405180910390a450505050505050565b60606105067f00000000000000000000000000000000000000000000000000000000000000006110c0565b61052f7f00000000000000000000000000000000000000000000000000000000000000006110c0565b6105587f00000000000000000000000000000000000000000000000000000000000000006110c0565b60405160200161056a93929190611a9e565b604051602081830303815290604052905090565b61058784610aed565b6000806105948686610aae565b915091508115806105b657506008808216141580156105b65750602080821614155b156105ed576040517f1e09210400000000000000000000000000000000000000000000000000000000815260040160405180910390fd5b602080821614158015610601575060048310155b15610638576040517f1e09210400000000000000000000000000000000000000000000000000000000815260040160405180910390fd5b600086815260016020526040902061065190858561117f565b508385877f039ed36214cf232fe5c2a2bb2cef7fe02a351a9323d4f7a87729a373ab38d68b8660405161068691815260200190565b60405180910390a4505050505050565b606060006106a3836107cf565b90508067ffffffffffffffff8111156106be576106be611b35565b60405190808252806020026020018201604052801561070357816020015b60408051808201909152600080825260208201528152602001906001900390816106dc5790505b5060008481526001602052604081209193505b8281101561076b5760008061072b848461118c565b9150915060405180604001604052808381526020018281525086848151811061075657610756611b64565b60209081029190910101525050600101610716565b505050919050565b600061077e84610aed565b600084815260016020526040902061079690846111a8565b6107a2575060006107c8565b60008481526001602052604090206107c5906107be90856111b4565b8316831490565b90505b9392505050565b60008181526001602052604081206107e6906111c0565b92915050565b60006107f66111cb565b83828114610830576040517f947d5a8400000000000000000000000000000000000000000000000000000000815260040160405180910390fd5b3460005b828110156108dd57600086868381811061085057610850611b64565b90506020020135905082811115610893576040517f1101129400000000000000000000000000000000000000000000000000000000815260040160405180910390fd5b6108c08989848181106108a8576108a8611b64565b90506020028101906108ba9190611b93565b8261123c565b6108d15760009450505050506108e5565b90910390600101610834565b506001925050505b949350505050565b60006108f76111cb565b83828114610931576040517f947d5a8400000000000000000000000000000000000000000000000000000000815260040160405180910390fd5b3460005b828110156108dd57600086868381811061095157610951611b64565b90506020020135905082811115610994576040517f1101129400000000000000000000000000000000000000000000000000000000815260040160405180910390fd5b6109a98989848181106108a8576108a8611b64565b6109ba5760009450505050506108e5565b90910390600101610935565b6040805160008152602081019091526060908267ffffffffffffffff8111156109f1576109f1611b35565b604051908082528060200260200182016040528015610a2457816020015b6060815260200190600190039081610a0f5790505b50915060005b83811015610aa657610a8130868684818110610a4857610a48611b64565b9050602002810190610a5a9190611c0b565b85604051602001610a6d93929190611c70565b60405160208183030381529060405261126e565b838281518110610a9357610a93611b64565b6020908102919091010152600101610a2a565b505092915050565b60008281526001602052604081208190610ac890846112f1565b915091505b9250929050565b6000610ade6111cb565b6107e6823461123c565b919050565b6040517fa3112a64000000000000000000000000000000000000000000000000000000008152600481018290526000907f000000000000000000000000000000000000000000000000000000000000000073ffffffffffffffffffffffffffffffffffffffff169063a3112a6490602401600060405180830381865afa158015610b7b573d6000803e3d6000fd5b505050506040513d6000823e601f3d9081017fffffffffffffffffffffffffffffffffffffffffffffffffffffffffffffffe0168201604052610bc19190810190611de7565b905060007f000000000000000000000000000000000000000000000000000000000000000073ffffffffffffffffffffffffffffffffffffffff1663f10b5cc86040518163ffffffff1660e01b8152600401602060405180830381865afa158015610c30573d6000803e3d6000fd5b505050506040513d601f19601f82011682018060405250810190610c549190611ee1565b73ffffffffffffffffffffffffffffffffffffffff1663a2ea7c6e83602001516040518263ffffffff1660e01b8152600401610c9291815260200190565b600060405180830381865afa158015610caf573d6000803e3d6000fd5b505050506040513d6000823e601f3d9081017fffffffffffffffffffffffffffffffffffffffffffffffffffffffffffffffe0168201604052610cf59190810190611efe565b608083015190915067ffffffffffffffff1615610d495781516040517f04bed25600000000000000000000000000000000000000000000000000000000815260048101919091526024015b60405180910390fd5b6000838152600160205260409020610d60906111c0565b6000036110af57602081015173ffffffffffffffffffffffffffffffffffffffff161580610e3f575060208101516040517f01ffc9a70000000000000000000000000000000000000000000000000000000081527ffafec1c700000000000000000000000000000000000000000000000000000000600482015273ffffffffffffffffffffffffffffffffffffffff909116906301ffc9a790602401602060405180830381865afa158015610e19573d6000803e3d6000fd5b505050506040513d601f19601f82011682018060405250810190610e3d9190611fb4565b155b15610e79576040517f898bc7a300000000000000000000000000000000000000000000000000000000815260048101849052602401610d40565b60208101516040517ffafec1c7000000000000000000000000000000000000000000000000000000008152600091829173ffffffffffffffffffffffffffffffffffffffff9091169063fafec1c790610eda90879085908190600401611fcf565b60408051808303816000875af1925050508015610f32575060408051601f3d9081017fffffffffffffffffffffffffffffffffffffffffffffffffffffffffffffffe0168201909252610f2f918101906120c3565b60015b15610f4a578115610f47579092506029915082905b50505b826020015173ffffffffffffffffffffffffffffffffffffffff1663fafec1c785600060016040518463ffffffff1660e01b8152600401610f8d93929190611fcf565b60408051808303816000875af1925050508015610fe5575060408051601f3d9081017fffffffffffffffffffffffffffffffffffffffffffffffffffffffffffffffe0168201909252610fe2918101906120c3565b60015b1561101557600082118015611001575081841480611001575083155b156110125790925060569091179082905b50505b816000036110555783516040517feec8a7f20000000000000000000000000000000000000000000000000000000081526004810191909152602401610d40565b600085815260016020526040902061106e90838361117f565b50816000867f039ed36214cf232fe5c2a2bb2cef7fe02a351a9323d4f7a87729a373ab38d68b846040516110a491815260200190565b60405180910390a450505b505050565b60006107c88383611300565b606060006110cd8361131d565b600101905060008167ffffffffffffffff8111156110ed576110ed611b35565b6040519080825280601f01601f191660200182016040528015611117576020820181803683370190505b5090508181016020015b7fffffffffffffffffffffffffffffffffffffffffffffffffffffffffffffffff017f3031323334353637383961626364656600000000000000000000000000000000600a86061a8153600a8504945084611121575b509392505050565b60006107c58484846113ff565b600080808061119b868661141c565b9097909650945050505050565b60006107c88383611447565b60006107c88383611453565b60006107e6826114b3565b3373ffffffffffffffffffffffffffffffffffffffff7f0000000000000000000000000000000000000000000000000000000000000000161461123a576040517f4ca8886700000000000000000000000000000000000000000000000000000000815260040160405180910390fd5b565b600030611250610100850160e086016120f3565b73ffffffffffffffffffffffffffffffffffffffff16149392505050565b60606000808473ffffffffffffffffffffffffffffffffffffffff16846040516112989190612110565b600060405180830381855af49150503d80600081146112d3576040519150601f19603f3d011682016040523d82523d6000602084013e6112d8565b606091505b50915091506112e88583836114be565b95945050505050565b600080808061119b868661154d565b600081815260028301602052604081208190556107c88383611587565b6000807a184f03e93ff9f4daa797ed6e38ed64bf6a1f0100000000000000008310611366577a184f03e93ff9f4daa797ed6e38ed64bf6a1f010000000000000000830492506040015b6d04ee2d6d415b85acef81000000008310611392576d04ee2d6d415b85acef8100000000830492506020015b662386f26fc1000083106113b057662386f26fc10000830492506010015b6305f5e10083106113c8576305f5e100830492506008015b61271083106113dc57612710830492506004015b606483106113ee576064830492506002015b600a83106107e65760010192915050565b600082815260028401602052604081208290556107c58484611593565b6000808061142a858561159f565b600081815260029690960160205260409095205494959350505050565b60006107c883836115ab565b60008181526002830160205260408120548015801561147957506114778484611447565b155b156107c8576040517f02b5668600000000000000000000000000000000000000000000000000000000815260048101849052602401610d40565b60006107e6826115c3565b6060826114d3576114ce826115cd565b6107c8565b81511580156114f7575073ffffffffffffffffffffffffffffffffffffffff84163b155b15611546576040517f9996b31500000000000000000000000000000000000000000000000000000000815273ffffffffffffffffffffffffffffffffffffffff85166004820152602401610d40565b50806107c8565b600081815260028301602052604081205481908061157c5761156f8585611447565b925060009150610acd9050565b600192509050610acd565b60006107c88383611612565b60006107c88383611705565b60006107c88383611754565b600081815260018301602052604081205415156107c8565b60006107e6825490565b8051156115dd5780518082602001fd5b6040517f1425ea4200000000000000000000000000000000000000000000000000000000815260040160405180910390fd5b50565b600081815260018301602052604081205480156116fb576000611636600183611bd1565b855490915060009061164a90600190611bd1565b90508082146116af57600086600001828154811061166a5761166a611b64565b906000526020600020015490508087600001848154811061168d5761168d611b64565b6000918252602080832090910192909255918252600188019052604090208390555b85548690806116c0576116c0612122565b6001900381819060005260206000200160009055905585600101600086815260200190815260200160002060009055600193505050506107e6565b60009150506107e6565b600081815260018301602052604081205461174c575081546001818101845560008481526020808220909301849055845484825282860190935260409020919091556107e6565b5060006107e6565b600082600001828154811061176b5761176b611b64565b9060005260206000200154905092915050565b60008060006060848603121561179357600080fd5b505081359360208301359350604090920135919050565b60005b838110156117c55781810151838201526020016117ad565b50506000910152565b600081518084526117e68160208601602086016117aa565b601f017fffffffffffffffffffffffffffffffffffffffffffffffffffffffffffffffe0169290920160200192915050565b6020815260006107c860208301846117ce565b6000806000806080858703121561184157600080fd5b5050823594602084013594506040840135936060013592509050565b60006020828403121561186f57600080fd5b5035919050565b602080825282518282018190526000918401906040840190835b818110156118ba578351805184526020908101518185015290930192604090920191600101611890565b509095945050505050565b60008083601f8401126118d757600080fd5b50813567ffffffffffffffff8111156118ef57600080fd5b6020830191508360208260051b8501011115610acd57600080fd5b6000806000806040858703121561192057600080fd5b843567ffffffffffffffff81111561193757600080fd5b611943878288016118c5565b909550935050602085013567ffffffffffffffff81111561196357600080fd5b61196f878288016118c5565b95989497509550505050565b6000806020838503121561198e57600080fd5b823567ffffffffffffffff8111156119a557600080fd5b6119b1858286016118c5565b90969095509350505050565b6000602082016020835280845180835260408501915060408160051b86010192506020860160005b82811015611a34577fffffffffffffffffffffffffffffffffffffffffffffffffffffffffffffffc0878603018452611a1f8583516117ce565b945060209384019391909101906001016119e5565b50929695505050505050565b60008060408385031215611a5357600080fd5b50508035926020909101359150565b600060208284031215611a7457600080fd5b813567ffffffffffffffff811115611a8b57600080fd5b820161014081850312156107c857600080fd5b60008451611ab08184602089016117aa565b7f2e000000000000000000000000000000000000000000000000000000000000009083019081528451611aea8160018401602089016117aa565b7f2e00000000000000000000000000000000000000000000000000000000000000600192909101918201528351611b288160028401602088016117aa565b0160020195945050505050565b7f4e487b7100000000000000000000000000000000000000000000000000000000600052604160045260246000fd5b7f4e487b7100000000000000000000000000000000000000000000000000000000600052603260045260246000fd5b600082357ffffffffffffffffffffffffffffffffffffffffffffffffffffffffffffffec1833603018112611bc757600080fd5b9190910192915050565b818103818111156107e6577f4e487b7100000000000000000000000000000000000000000000000000000000600052601160045260246000fd5b60008083357fffffffffffffffffffffffffffffffffffffffffffffffffffffffffffffffe1843603018112611c4057600080fd5b83018035915067ffffffffffffffff821115611c5b57600080fd5b602001915036819003821315610acd57600080fd5b828482376000838201600081528351611c8d8183602088016117aa565b0195945050505050565b604051610140810167ffffffffffffffff81118282101715611cbb57611cbb611b35565b60405290565b6040516080810167ffffffffffffffff81118282101715611cbb57611cbb611b35565b805167ffffffffffffffff81168114610ae857600080fd5b73ffffffffffffffffffffffffffffffffffffffff8116811461160f57600080fd5b8051610ae881611cfc565b80518015158114610ae857600080fd5b60008067ffffffffffffffff841115611d5457611d54611b35565b506040517fffffffffffffffffffffffffffffffffffffffffffffffffffffffffffffffe0601f85018116603f0116810181811067ffffffffffffffff82111715611da157611da1611b35565b604052838152905080828401851015611db957600080fd5b6111778460208301856117aa565b600082601f830112611dd857600080fd5b6107c883835160208501611d39565b600060208284031215611df957600080fd5b815167ffffffffffffffff811115611e1057600080fd5b82016101408185031215611e2357600080fd5b611e2b611c97565b8151815260208083015190820152611e4560408301611ce4565b6040820152611e5660608301611ce4565b6060820152611e6760808301611ce4565b608082015260a08281015190820152611e8260c08301611d1e565b60c0820152611e9360e08301611d1e565b60e0820152611ea56101008301611d29565b61010082015261012082015167ffffffffffffffff811115611ec657600080fd5b611ed286828501611dc7565b61012083015250949350505050565b600060208284031215611ef357600080fd5b81516107c881611cfc565b600060208284031215611f1057600080fd5b815167ffffffffffffffff811115611f2757600080fd5b820160808185031215611f3957600080fd5b611f41611cc1565b815181526020820151611f5381611cfc565b6020820152611f6460408301611d29565b6040820152606082015167ffffffffffffffff811115611f8357600080fd5b80830192505084601f830112611f9857600080fd5b611fa785835160208501611d39565b6060820152949350505050565b600060208284031215611fc657600080fd5b6107c882611d29565b6060815283516060820152602084015160808201526000604085015161200160a084018267ffffffffffffffff169052565b50606085015167ffffffffffffffff811660c084015250608085015167ffffffffffffffff811660e08401525060a085015161010083015260c085015173ffffffffffffffffffffffffffffffffffffffff81166101208401525060e085015173ffffffffffffffffffffffffffffffffffffffff811661014084015250610100850151801515610160840152506101208501516101406101808401526120ac6101a08401826117ce565b9150508360208301526108e5604083018415159052565b600080604083850312156120d657600080fd5b8251915060208301516120e881611cfc565b809150509250929050565b60006020828403121561210557600080fd5b81356107c881611cfc565b60008251611bc78184602087016117aa565b7f4e487b7100000000000000000000000000000000000000000000000000000000600052603160045260246000fdfea26469706673582212209ec62f1caaeb1e7c4fff71d76ba09ff11ae0bf62f581ffc881d502b273e94ae764736f6c634300081a0033",
  "linkReferences": {},
  "deployedLinkReferences": {}
}