{
  "_format": "hh-sol-artifact-1",
  "contractName": "FcVerificationDecoder",
  "sourceName": "@farcaster-attestation/farcaster-solidity/contracts/farcaster/FcMessageDecoder.sol",
  "abi": [
    {
      "inputs": [],
      "name": "InvalidEncoding",
      "type": "error"
    },
    {
      "inputs": [
        {
          "internalType": "enum MessageType",
          "name": "messageType",
          "type": "uint8"
        }
      ],
      "name": "InvalidMessageType",
      "type": "error"
    },
    {
      "inputs": [
        {
          "internalType": "bytes",
          "name": "message",
          "type": "bytes"
        }
      ],
      "name": "decodeVerificationAddAddress",
      "outputs": [
        {
          "components": [
            {
              "internalType": "enum MessageType",
              "name": "type_",
              "type": "MessageType"
            },
            {
              "internalType": "uint64",
              "name": "fid",
              "type": "uint64"
            },
            {
              "internalType": "uint32",
              "name": "timestamp",
              "type": "uint32"
            },
            {
              "internalType": "enum FarcasterNetwork",
              "name": "network",
              "type": "FarcasterNetwork"
            },
            {
              "internalType": "bool",
              "name": "cast_add_body",
              "type": "bool"
            },
            {
              "internalType": "bool",
              "name": "cast_remove_body",
              "type": "bool"
            },
            {
              "internalType": "bool",
              "name": "reaction_body",
              "type": "bool"
            },
            {
              "internalType": "bool",
              "name": "empty",
              "type": "bool"
            },
            {
              "components": [
                {
                  "internalType": "bytes",
                  "name": "address_",
                  "type": "bytes"
                },
                {
                  "internalType": "bytes",
                  "name": "claim_signature",
                  "type": "bytes"
                },
                {
                  "internalType": "bytes",
                  "name": "block_hash",
                  "type": "bytes"
                },
                {
                  "internalType": "uint32",
                  "name": "verification_type",
                  "type": "uint32"
                },
                {
                  "internalType": "uint32",
                  "name": "chain_id",
                  "type": "uint32"
                },
                {
                  "internalType": "bool",
                  "name": "unknown_6",
                  "type": "bool"
                },
                {
                  "internalType": "enum Protocol",
                  "name": "protocol",
                  "type": "Protocol"
                }
              ],
              "internalType": "struct VerificationAddAddressBody",
              "name": "verification_add_address_body",
              "type": "tuple"
            },
            {
              "internalType": "bool",
              "name": "verification_remove_body",
              "type": "bool"
            },
            {
              "internalType": "bool",
              "name": "deprecated_signer_add_body",
              "type": "bool"
            },
            {
              "internalType": "bool",
              "name": "user_data_body",
              "type": "bool"
            },
            {
              "internalType": "bool",
              "name": "deprecated_signer_remove_body",
              "type": "bool"
            },
            {
              "internalType": "bool",
              "name": "link_body",
              "type": "bool"
            },
            {
              "internalType": "bool",
              "name": "username_proof_body",
              "type": "bool"
            },
            {
              "internalType": "bool",
              "name": "frame_action_body",
              "type": "bool"
            }
          ],
          "internalType": "struct MessageDataVerificationAddAddress",
          "name": "messageData",
          "type": "tuple"
        }
      ],
      "stateMutability": "pure",
      "type": "function"
    },
    {
      "inputs": [
        {
          "internalType": "bytes",
          "name": "message",
          "type": "bytes"
        }
      ],
      "name": "decodeVerificationRemove",
      "outputs": [
        {
          "components": [
            {
              "internalType": "enum MessageType",
              "name": "type_",
              "type": "MessageType"
            },
            {
              "internalType": "uint64",
              "name": "fid",
              "type": "uint64"
            },
            {
              "internalType": "uint32",
              "name": "timestamp",
              "type": "uint32"
            },
            {
              "internalType": "enum FarcasterNetwork",
              "name": "network",
              "type": "FarcasterNetwork"
            },
            {
              "internalType": "bool",
              "name": "cast_add_body",
              "type": "bool"
            },
            {
              "internalType": "bool",
              "name": "cast_remove_body",
              "type": "bool"
            },
            {
              "internalType": "bool",
              "name": "reaction_body",
              "type": "bool"
            },
            {
              "internalType": "bool",
              "name": "empty",
              "type": "bool"
            },
            {
              "internalType": "bool",
              "name": "verification_add_address_body",
              "type": "bool"
            },
            {
              "components": [
                {
                  "internalType": "bytes",
                  "name": "address_",
                  "type": "bytes"
                },
                {
                  "internalType": "enum Protocol",
                  "name": "protocol",
                  "type": "Protocol"
                }
              ],
              "internalType": "struct VerificationRemoveBody",
              "name": "verification_remove_body",
              "type": "tuple"
            },
            {
              "internalType": "bool",
              "name": "deprecated_signer_add_body",
              "type": "bool"
            },
            {
              "internalType": "bool",
              "name": "user_data_body",
              "type": "bool"
            },
            {
              "internalType": "bool",
              "name": "deprecated_signer_remove_body",
              "type": "bool"
            },
            {
              "internalType": "bool",
              "name": "link_body",
              "type": "bool"
            },
            {
              "internalType": "bool",
              "name": "username_proof_body",
              "type": "bool"
            },
            {
              "internalType": "bool",
              "name": "frame_action_body",
              "type": "bool"
            }
          ],
          "internalType": "struct MessageDataVerificationRemove",
          "name": "messageData",
          "type": "tuple"
        }
      ],
      "stateMutability": "pure",
      "type": "function"
    }
  ],
  "bytecode": "0x612ad1610039600b82828239805160001a607314602c57634e487b7160e01b600052600060045260246000fd5b30600052607381538281f3fe73000000000000000000000000000000000000000030146080604052600436106100405760003560e01c8063613d24dc14610045578063fee6de3a1461006e575b600080fd5b61005861005336600461254c565b61008e565b60405161006591906127a2565b60405180910390f35b61008161007c36600461254c565b610142565b60405161006591906128f3565b610096612460565b60006100a56000848551610227565b93509091508190506100e3576040517fad4d102a00000000000000000000000000000000000000000000000000000000815260040160405180910390fd5b60075b8251600e8111156100f9576100f9612642565b1461013c5781516040517fb7ef4b2000000000000000000000000000000000000000000000000000000000815261013391906004016129c5565b60405180910390fd5b50919050565b6101d360408051610200810182526000808252602080830182905282840182905260608084018390526080840183905260a0840183905260c0840183905260e0840183905261010084018390528451808601909552845283015290610120820190815260006020820181905260408201819052606082018190526080820181905260a0820181905260c09091015290565b60006101e26000848551610392565b9350909150819050610220576040517fad4d102a00000000000000000000000000000000000000000000000000000000815260040160405180910390fd5b60086100e6565b600080610232612460565b61023a612460565b60008767ffffffffffffffff81166102528883612a02565b67ffffffffffffffff161015610272576000955093509091506103899050565b67ffffffffffffffff87166102878a83612a22565b67ffffffffffffffff16101561034a5760008060006102a6848c6105c7565b9196509194509092509050826102ca57506000975091955092935061038992505050565b60108267ffffffffffffffff1611156102f157506000975091955092935061038992505050565b6102fb82826106ba565b92508261031657506000975091955092935061038992505050565b610323848c8c858a61086c565b945092508261034057506000975091955092935061038992505050565b5092506102729050565b610354878a612a02565b67ffffffffffffffff168167ffffffffffffffff161461037e576000955093509091506103899050565b600195509350909150505b93509350939050565b60008061042660408051610200810182526000808252602080830182905282840182905260608084018390526080840183905260a0840183905260c0840183905260e0840183905261010084018390528451808601909552845283015290610120820190815260006020820181905260408201819052606082018190526080820181905260a0820181905260c09091015290565b6104b760408051610200810182526000808252602080830182905282840182905260608084018390526080840183905260a0840183905260c0840183905260e0840183905261010084018390528451808601909552845283015290610120820190815260006020820181905260408201819052606082018190526080820181905260a0820181905260c09091015290565b60008767ffffffffffffffff81166104cf8883612a02565b67ffffffffffffffff1610156104ef576000955093509091506103899050565b67ffffffffffffffff87166105048a83612a22565b67ffffffffffffffff16101561034a576000806000610523848c6105c7565b91965091945090925090508261054757506000975091955092935061038992505050565b60108267ffffffffffffffff16111561056e57506000975091955092935061038992505050565b6105788282610a92565b92508261059357506000975091955092935061038992505050565b6105a0848c8c858a610b8e565b94509250826105bd57506000975091955092935061038992505050565b5092506104ef9050565b60008060008060008060006105dc8989610cc8565b925092509250826105fc5750600095509350849250600691506106b19050565b600381901c671fffffffffffffff1660078216600681106106305760008460006006985098509850985050505050506106b1565b60008167ffffffffffffffff16600681111561064e5761064e612642565b9050600381600681111561066457610664612642565b14806106815750600481600681111561067f5761067f612642565b145b156106a0576000856000600699509950995099505050505050506106b1565b600199509397509095509193505050505b92959194509250565b60008267ffffffffffffffff166001036106eb5760005b8260068111156106e3576106e3612642565b149050610866565b8267ffffffffffffffff166002036107045760006106d1565b8267ffffffffffffffff1660030361071d5760006106d1565b8267ffffffffffffffff166004036107365760006106d1565b8267ffffffffffffffff1660050361074f5760006106d1565b8267ffffffffffffffff166006036107685760006106d1565b8267ffffffffffffffff166007036107815760006106d1565b8267ffffffffffffffff1660080361079a5760006106d1565b8267ffffffffffffffff166009036107b35760026106d1565b8267ffffffffffffffff16600a036107cc5760006106d1565b8267ffffffffffffffff16600b036107e55760006106d1565b8267ffffffffffffffff16600c036107fe5760006106d1565b8267ffffffffffffffff16600d036108175760006106d1565b8267ffffffffffffffff16600e036108305760006106d1565b8267ffffffffffffffff16600f036108495760006106d1565b8267ffffffffffffffff166010036108625760006106d1565b5060005b92915050565b6000808667ffffffffffffffff85166001036108b057600061088f828987610e71565b92509050806108a45750600092509050610a88565b50600192509050610a88565b8467ffffffffffffffff166002036108cf57600061088f828987610f2d565b8467ffffffffffffffff166003036108ee57600061088f828987610f96565b8467ffffffffffffffff1660040361090d57600061088f828987610ff7565b8467ffffffffffffffff1660050361092c57600061088f8289876110a1565b8467ffffffffffffffff1660060361094b57600061088f8289876110fa565b8467ffffffffffffffff1660070361096a57600061088f828987611153565b8467ffffffffffffffff1660080361098957600061088f8289876111ac565b8467ffffffffffffffff166009036109a857600061088f828987611205565b8467ffffffffffffffff16600a036109c757600061088f8289876112cb565b8467ffffffffffffffff16600b036109e657600061088f828987611325565b8467ffffffffffffffff16600c03610a0557600061088f82898761137f565b8467ffffffffffffffff16600d03610a2457600061088f8289876113d9565b8467ffffffffffffffff16600e03610a4357600061088f828987611433565b8467ffffffffffffffff16600f03610a6257600061088f82898761148d565b8467ffffffffffffffff16601003610a8157600061088f8289876114e7565b6000925090505b9550959350505050565b60008267ffffffffffffffff16600103610aad5760006106d1565b8267ffffffffffffffff16600203610ac65760006106d1565b8267ffffffffffffffff16600303610adf5760006106d1565b8267ffffffffffffffff16600403610af85760006106d1565b8267ffffffffffffffff16600503610b115760006106d1565b8267ffffffffffffffff16600603610b2a5760006106d1565b8267ffffffffffffffff16600703610b435760006106d1565b8267ffffffffffffffff16600803610b5c5760006106d1565b8267ffffffffffffffff16600903610b755760006106d1565b8267ffffffffffffffff16600a036107cc5760026106d1565b6000808667ffffffffffffffff8516600103610bb157600061088f828987610e71565b8467ffffffffffffffff16600203610bd057600061088f828987610f2d565b8467ffffffffffffffff16600303610bef57600061088f828987610f96565b8467ffffffffffffffff16600403610c0e57600061088f828987610ff7565b8467ffffffffffffffff16600503610c2d57600061088f8289876110a1565b8467ffffffffffffffff16600603610c4c57600061088f8289876110fa565b8467ffffffffffffffff16600703610c6b57600061088f828987611153565b8467ffffffffffffffff16600803610c8a57600061088f8289876111ac565b8467ffffffffffffffff16600903610ca957600061088f828987611541565b8467ffffffffffffffff16600a036109c757600061088f82898761159b565b60008060008060005b600a67ffffffffffffffff82161015610db8578551610cf08883612a02565b67ffffffffffffffff1610610d115760008760009450945094505050610e6a565b600086610d1e838a612a02565b67ffffffffffffffff1681518110610d3857610d38612a42565b016020015160f81c9050607f8116610d51836007612a71565b60ff821667ffffffffffffffff919091161b939093179260808216600003610dae5760008367ffffffffffffffff16118015610d8e575060ff8116155b15610da757600089600096509650965050505050610e6a565b5050610db8565b5050600101610cd1565b600a67ffffffffffffffff821610610ddc5760008760009450945094505050610e6a565b610de86001600a612a22565b67ffffffffffffffff168167ffffffffffffffff1603610e4957600186610e0f838a612a02565b67ffffffffffffffff1681518110610e2957610e29612a42565b016020015160f81c1115610e495760008760009450945094505050610e6a565b6001610e558289612a02565b610e60906001612a02565b8394509450945050505b9250925092565b600080600080610e818787611638565b909850909250905081610e9c57600087935093505050610f25565b8060030b600003610eb557600087935093505050610f25565b60008160030b1280610eca5750600e8160030b135b15610edd57600087935093505050610f25565b8060030b600e811115610ef257610ef2612642565b8590600e811115610f0557610f05612642565b9081600e811115610f1857610f18612642565b9052506001935086925050505b935093915050565b600080600080610f3d8787611654565b909850909250905081610f5857600087935093505050610f25565b8067ffffffffffffffff16600003610f7857600087935093505050610f25565b67ffffffffffffffff16602094909401939093525060019492505050565b600080600080610fa68787611692565b909850909250905081610fc157600087935093505050610f25565b8063ffffffff16600003610fdd57600087935093505050610f25565b63ffffffff16604094909401939093525060019492505050565b6000806000806110078787611638565b90985090925090508161102257600087935093505050610f25565b8060030b60000361103b57600087935093505050610f25565b60008160030b1280611050575060038160030b135b1561106357600087935093505050610f25565b8060030b600381111561107857611078612642565b8560600190600381111561108e5761108e612642565b90816003811115610f1857610f18612642565b6000806000806110b187876116e2565b9098509092509050816110cc57600087935093505050610f25565b8015156000036110e457600087935093505050610f25565b1515608094909401939093525060019492505050565b60008060008061110a87876116e2565b90985090925090508161112557600087935093505050610f25565b80151560000361113d57600087935093505050610f25565b151560a094909401939093525060019492505050565b60008060008061116387876116e2565b90985090925090508161117e57600087935093505050610f25565b80151560000361119657600087935093505050610f25565b151560c094909401939093525060019492505050565b6000806000806111bc87876116e2565b9098509092509050816111d757600087935093505050610f25565b8015156000036111ef57600087935093505050610f25565b151560e094909401939093525060019492505050565b600080600080611215878761176a565b90985090925090508161123057600087935093505050610f25565b8067ffffffffffffffff1660000361125057600087935093505050610f25565b61128e6040805160e08101825260608082526020820181905291810182905260009181018290526080810182905260a081018290529060c082015290565b611299888884611779565b9099509093509050826112b55760008894509450505050610f25565b6101009590950194909452506001959350505050565b6000806000806112db87876116e2565b9098509092509050816112f657600087935093505050610f25565b80151560000361130e57600087935093505050610f25565b151561012094909401939093525060019492505050565b60008060008061133587876116e2565b90985090925090508161135057600087935093505050610f25565b80151560000361136857600087935093505050610f25565b151561014094909401939093525060019492505050565b60008060008061138f87876116e2565b9098509092509050816113aa57600087935093505050610f25565b8015156000036113c257600087935093505050610f25565b151561016094909401939093525060019492505050565b6000806000806113e987876116e2565b90985090925090508161140457600087935093505050610f25565b80151560000361141c57600087935093505050610f25565b151561018094909401939093525060019492505050565b60008060008061144387876116e2565b90985090925090508161145e57600087935093505050610f25565b80151560000361147657600087935093505050610f25565b15156101a094909401939093525060019492505050565b60008060008061149d87876116e2565b9098509092509050816114b857600087935093505050610f25565b8015156000036114d057600087935093505050610f25565b15156101c094909401939093525060019492505050565b6000806000806114f787876116e2565b90985090925090508161151257600087935093505050610f25565b80151560000361152a57600087935093505050610f25565b15156101e094909401939093525060019492505050565b60008060008061155187876116e2565b90985090925090508161156c57600087935093505050610f25565b80151560000361158457600087935093505050610f25565b151561010094909401939093525060019492505050565b6000806000806115ab878761176a565b9098509092509050816115c657600087935093505050610f25565b8067ffffffffffffffff166000036115e657600087935093505050610f25565b604080518082019091526060815260006020820152611606888884611908565b9099509093509050826116225760008894509450505050610f25565b6101209590950194909452506001959350505050565b60008060006116478585611a4b565b9250925092509250925092565b6000806000806000806116678888610cc8565b925092509250826116835750600094509250839150610e6a9050565b60019891975095509350505050565b6000806000806000806116a58888610cc8565b925092509250826116c15750600094509250839150610e6a9050565b67ffffffff000000008116156116835750600094509250839150610e6a9050565b6000806000806000806116f58888610cc8565b925092509250826117115750600094509250839150610e6a9050565b60018167ffffffffffffffff1611156117355750600094509250839150610e6a9050565b8067ffffffffffffffff16600003611759575060019450925060009150610e6a9050565b506001979096508795509350505050565b60008060006116478585611aaa565b6000806117ba6040805160e08101825260608082526020820181905291810182905260009181018290526080810182905260a081018290529060c082015290565b6117f86040805160e08101825260608082526020820181905291810182905260009181018290526080810182905260a081018290529060c082015290565b60008767ffffffffffffffff81166118108883612a02565b67ffffffffffffffff161015611830576000955093509091506103899050565b67ffffffffffffffff87166118458a83612a22565b67ffffffffffffffff16101561034a576000806000611864848c6105c7565b91965091945090925090508261188857506000975091955092935061038992505050565b60078267ffffffffffffffff1611156118af57506000975091955092935061038992505050565b6118b98282611b35565b9250826118d457506000975091955092935061038992505050565b6118e1848c8c858a611be6565b94509250826118fe57506000975091955092935061038992505050565b5092506118309050565b60008061192660408051808201909152606081526000602082015290565b60408051808201909152606081526000602082015260008767ffffffffffffffff81166119538883612a02565b67ffffffffffffffff161015611973576000955093509091506103899050565b67ffffffffffffffff87166119888a83612a22565b67ffffffffffffffff16101561034a5760008060006119a7848c6105c7565b9196509194509092509050826119cb57506000975091955092935061038992505050565b60028267ffffffffffffffff1611156119f257506000975091955092935061038992505050565b6119fc8282611cc3565b925082611a1757506000975091955092935061038992505050565b611a24848c8c858a611cf7565b9450925082611a4157506000975091955092935061038992505050565b5092506119739050565b600080600080600080611a5e8888610cc8565b92509250925082611a7a5750600094509250839150610e6a9050565b6001603f82901c166000036116835767ffffffff000000008116156116835750600094509250839150610e6a9050565b600080600080600080611abd8888610cc8565b92509250925082611ad95750600094509250839150610e6a9050565b8167ffffffffffffffff1681830167ffffffffffffffff161015611b085750600094509250839150610e6a9050565b8651611b148383612a02565b67ffffffffffffffff1611156116835750600094509250839150610e6a9050565b60008267ffffffffffffffff16600103611b505760026106d1565b8267ffffffffffffffff16600203611b695760026106d1565b8267ffffffffffffffff16600303611b825760026106d1565b8267ffffffffffffffff16600403611b9b5760006106d1565b8267ffffffffffffffff16600503611bb45760006106d1565b8267ffffffffffffffff16600603611bcd5760006106d1565b8267ffffffffffffffff166007036108625760006106d1565b6000808667ffffffffffffffff8516600103611c0957600061088f828987611d39565b8467ffffffffffffffff16600203611c2857600061088f828987611e94565b8467ffffffffffffffff16600303611c4757600061088f828987611fd8565b8467ffffffffffffffff16600403611c6657600061088f82898761211c565b8467ffffffffffffffff16600503611c8557600061088f82898761217d565b8467ffffffffffffffff16600603611ca457600061088f8289876110fa565b8467ffffffffffffffff16600703610a8157600061088f8289876121de565b60008267ffffffffffffffff16600103611cde5760026106d1565b8267ffffffffffffffff166002036108625760006106d1565b6000808667ffffffffffffffff8516600103611d1a57600061088f828987612288565b8467ffffffffffffffff16600203610a8157600061088f8289876123c9565b600080600080611d49878761176a565b909850909250905081611d6457600087935093505050610f25565b8067ffffffffffffffff16600003611d8457600087935093505050610f25565b8067ffffffffffffffff1667ffffffffffffffff811115611da757611da761251d565b6040519080825280601f01601f191660200182016040528015611dd1576020820181803683370190505b50855260005b8167ffffffffffffffff168167ffffffffffffffff161015611e7a5786611dfe828a612a02565b67ffffffffffffffff1681518110611e1857611e18612a42565b602001015160f81c60f81b86600001518267ffffffffffffffff1681518110611e4357611e43612a42565b60200101907effffffffffffffffffffffffffffffffffffffffffffffffffffffffffffff1916908160001a905350600101611dd7565b50611e858188612a02565b60019890975095505050505050565b600080600080611ea4878761176a565b909850909250905081611ebf57600087935093505050610f25565b8067ffffffffffffffff16600003611edf57600087935093505050610f25565b8067ffffffffffffffff1667ffffffffffffffff811115611f0257611f0261251d565b6040519080825280601f01601f191660200182016040528015611f2c576020820181803683370190505b50602086015260005b8167ffffffffffffffff168167ffffffffffffffff161015611e7a5786611f5c828a612a02565b67ffffffffffffffff1681518110611f7657611f76612a42565b602001015160f81c60f81b86602001518267ffffffffffffffff1681518110611fa157611fa1612a42565b60200101907effffffffffffffffffffffffffffffffffffffffffffffffffffffffffffff1916908160001a905350600101611f35565b600080600080611fe8878761176a565b90985090925090508161200357600087935093505050610f25565b8067ffffffffffffffff1660000361202357600087935093505050610f25565b8067ffffffffffffffff1667ffffffffffffffff8111156120465761204661251d565b6040519080825280601f01601f191660200182016040528015612070576020820181803683370190505b50604086015260005b8167ffffffffffffffff168167ffffffffffffffff161015611e7a57866120a0828a612a02565b67ffffffffffffffff16815181106120ba576120ba612a42565b602001015160f81c60f81b86604001518267ffffffffffffffff16815181106120e5576120e5612a42565b60200101907effffffffffffffffffffffffffffffffffffffffffffffffffffffffffffff1916908160001a905350600101612079565b60008060008061212c8787611692565b90985090925090508161214757600087935093505050610f25565b8063ffffffff1660000361216357600087935093505050610f25565b63ffffffff16606094909401939093525060019492505050565b60008060008061218d8787611692565b9098509092509050816121a857600087935093505050610f25565b8063ffffffff166000036121c457600087935093505050610f25565b63ffffffff16608094909401939093525060019492505050565b6000806000806121ee8787611638565b90985090925090508161220957600087935093505050610f25565b8060030b60000361222257600087935093505050610f25565b60008160030b1280612237575060018160030b135b1561224a57600087935093505050610f25565b8060030b600181111561225f5761225f612642565b8560c00190600181111561227557612275612642565b90816001811115610f1857610f18612642565b600080600080612298878761176a565b9098509092509050816122b357600087935093505050610f25565b8067ffffffffffffffff166000036122d357600087935093505050610f25565b8067ffffffffffffffff1667ffffffffffffffff8111156122f6576122f661251d565b6040519080825280601f01601f191660200182016040528015612320576020820181803683370190505b50855260005b8167ffffffffffffffff168167ffffffffffffffff161015611e7a578661234d828a612a02565b67ffffffffffffffff168151811061236757612367612a42565b602001015160f81c60f81b86600001518267ffffffffffffffff168151811061239257612392612a42565b60200101907effffffffffffffffffffffffffffffffffffffffffffffffffffffffffffff1916908160001a905350600101612326565b6000806000806123d98787611638565b9098509092509050816123f457600087935093505050610f25565b8060030b60000361240d57600087935093505050610f25565b60008160030b1280612422575060018160030b135b1561243557600087935093505050610f25565b8060030b600181111561244a5761244a612642565b8560200190600181111561227557612275612642565b60408051610200810190915280600081526000602082018190526040820181905260609091019081526000602082018190526040820181905260608201819052608082015260a0016124e66040805160e08101825260608082526020820181905291810182905260009181018290526080810182905260a081018290529060c082015290565b815260006020820181905260408201819052606082018190526080820181905260a0820181905260c0820181905260e09091015290565b7f4e487b7100000000000000000000000000000000000000000000000000000000600052604160045260246000fd5b60006020828403121561255e57600080fd5b813567ffffffffffffffff81111561257557600080fd5b8201601f8101841361258657600080fd5b803567ffffffffffffffff8111156125a0576125a061251d565b6040517fffffffffffffffffffffffffffffffffffffffffffffffffffffffffffffffe0603f7fffffffffffffffffffffffffffffffffffffffffffffffffffffffffffffffe0601f8501160116810181811067ffffffffffffffff8211171561260c5761260c61251d565b60405281815282820160200186101561262457600080fd5b81602084016020830137600091810160200191909152949350505050565b7f4e487b7100000000000000000000000000000000000000000000000000000000600052602160045260246000fd5b600f811061268157612681612642565b9052565b6004811061268157612681612642565b6000815180845260005b818110156126bb5760208185018101518683018201520161269f565b5060006020828601015260207fffffffffffffffffffffffffffffffffffffffffffffffffffffffffffffffe0601f83011685010191505092915050565b6002811061268157612681612642565b6000815160e0845261271e60e0850182612695565b9050602083015184820360208601526127378282612695565b915050604083015184820360408601526127518282612695565b91505063ffffffff606084015116606085015263ffffffff608084015116608085015260a083015161278760a086018215159052565b5060c083015161279a60c08601826126f9565b509392505050565b602081526127b4602082018351612671565b600060208301516127d1604084018267ffffffffffffffff169052565b50604083015163ffffffff811660608401525060608301516127f66080840182612685565b50608083015180151560a08401525060a083015180151560c08401525060c083015180151560e08401525060e08301518015156101008401525061010083015161020061012084015261284d610220840182612709565b905061012084015161286461014085018215159052565b506101408401518015156101608501525b50610160840151801515610180850152506101808401518015156101a0850152506101a08401518015156101c0850152506101c08401518015156101e0850152506101e084015180151561020085015261279a565b60008151604084526128df6040850182612695565b9050602083015161279a60208601826126f9565b60208152612905602082018351612671565b60006020830151612922604084018267ffffffffffffffff169052565b50604083015163ffffffff811660608401525060608301516129476080840182612685565b50608083015180151560a08401525060a083015180151560c08401525060c083015180151560e08401525060e083015180151561010084015250610100830151801515610120840152506101208301516102006101408401526129ae6102208401826128ca565b905061014084015161287561016085018215159052565b602081016108668284612671565b7f4e487b7100000000000000000000000000000000000000000000000000000000600052601160045260246000fd5b67ffffffffffffffff8181168382160190811115610866576108666129d3565b67ffffffffffffffff8281168282160390811115610866576108666129d3565b7f4e487b7100000000000000000000000000000000000000000000000000000000600052603260045260246000fd5b67ffffffffffffffff8181168382160290811690818114612a9457612a946129d3565b509291505056fea264697066735822122089d429323535b7dcbfbce837fecdba1071b7e78ef5d9bd9364fae250316f929c64736f6c634300081a0033",
  "linkReferences": {},
  "deployedLinkReferences": {}
}