{
  "_format": "hh-sol-artifact-1",
  "contractName": "FarcasterWalletOptimisticVerifier",
  "sourceName": "contracts/wallet-verifier/FarcasterWalletOptimisticVerifier.sol",
  "abi": [
    {
      "inputs": [
        {
          "internalType": "contract IFarcasterWalletVerifier",
          "name": "verifier",
          "type": "address"
        },
        {
          "internalType": "address",
          "name": "admin",
          "type": "address"
        }
      ],
      "stateMutability": "nonpayable",
      "type": "constructor"
    },
    {
      "inputs": [],
      "name": "AccessControlBadConfirmation",
      "type": "error"
    },
    {
      "inputs": [
        {
          "internalType": "address",
          "name": "account",
          "type": "address"
        },
        {
          "internalType": "bytes32",
          "name": "neededRole",
          "type": "bytes32"
        }
      ],
      "name": "AccessControlUnauthorizedAccount",
      "type": "error"
    },
    {
      "inputs": [],
      "name": "ChallengeFailed",
      "type": "error"
    },
    {
      "inputs": [
        {
          "internalType": "enum MessageType",
          "name": "messageType",
          "type": "uint8"
        }
      ],
      "name": "InvalidMessageType",
      "type": "error"
    },
    {
      "anonymous": false,
      "inputs": [
        {
          "indexed": true,
          "internalType": "enum MessageType",
          "name": "messageType",
          "type": "uint8"
        },
        {
          "indexed": true,
          "internalType": "uint256",
          "name": "fid",
          "type": "uint256"
        },
        {
          "indexed": true,
          "internalType": "address",
          "name": "verifyAddress",
          "type": "address"
        },
        {
          "indexed": false,
          "internalType": "bytes32",
          "name": "publicKey",
          "type": "bytes32"
        },
        {
          "indexed": false,
          "internalType": "bytes32",
          "name": "hash",
          "type": "bytes32"
        },
        {
          "indexed": false,
          "internalType": "bytes",
          "name": "signature",
          "type": "bytes"
        }
      ],
      "name": "Challenged",
      "type": "event"
    },
    {
      "anonymous": false,
      "inputs": [
        {
          "indexed": true,
          "internalType": "bytes32",
          "name": "role",
          "type": "bytes32"
        },
        {
          "indexed": true,
          "internalType": "bytes32",
          "name": "previousAdminRole",
          "type": "bytes32"
        },
        {
          "indexed": true,
          "internalType": "bytes32",
          "name": "newAdminRole",
          "type": "bytes32"
        }
      ],
      "name": "RoleAdminChanged",
      "type": "event"
    },
    {
      "anonymous": false,
      "inputs": [
        {
          "indexed": true,
          "internalType": "bytes32",
          "name": "role",
          "type": "bytes32"
        },
        {
          "indexed": true,
          "internalType": "address",
          "name": "account",
          "type": "address"
        },
        {
          "indexed": true,
          "internalType": "address",
          "name": "sender",
          "type": "address"
        }
      ],
      "name": "RoleGranted",
      "type": "event"
    },
    {
      "anonymous": false,
      "inputs": [
        {
          "indexed": true,
          "internalType": "bytes32",
          "name": "role",
          "type": "bytes32"
        },
        {
          "indexed": true,
          "internalType": "address",
          "name": "account",
          "type": "address"
        },
        {
          "indexed": true,
          "internalType": "address",
          "name": "sender",
          "type": "address"
        }
      ],
      "name": "RoleRevoked",
      "type": "event"
    },
    {
      "anonymous": false,
      "inputs": [
        {
          "indexed": true,
          "internalType": "enum MessageType",
          "name": "messageType",
          "type": "uint8"
        },
        {
          "indexed": true,
          "internalType": "uint256",
          "name": "fid",
          "type": "uint256"
        },
        {
          "indexed": true,
          "internalType": "address",
          "name": "verifyAddress",
          "type": "address"
        },
        {
          "indexed": false,
          "internalType": "bytes32",
          "name": "publicKey",
          "type": "bytes32"
        },
        {
          "indexed": false,
          "internalType": "bytes32",
          "name": "hash",
          "type": "bytes32"
        },
        {
          "indexed": false,
          "internalType": "bytes",
          "name": "signature",
          "type": "bytes"
        }
      ],
      "name": "SubmitVerification",
      "type": "event"
    },
    {
      "inputs": [],
      "name": "DEFAULT_ADMIN_ROLE",
      "outputs": [
        {
          "internalType": "bytes32",
          "name": "",
          "type": "bytes32"
        }
      ],
      "stateMutability": "view",
      "type": "function"
    },
    {
      "inputs": [],
      "name": "RELAYER_ROLE",
      "outputs": [
        {
          "internalType": "bytes32",
          "name": "",
          "type": "bytes32"
        }
      ],
      "stateMutability": "view",
      "type": "function"
    },
    {
      "inputs": [],
      "name": "SECURITY_ROLE",
      "outputs": [
        {
          "internalType": "bytes32",
          "name": "",
          "type": "bytes32"
        }
      ],
      "stateMutability": "view",
      "type": "function"
    },
    {
      "inputs": [
        {
          "internalType": "uint256",
          "name": "fid",
          "type": "uint256"
        },
        {
          "internalType": "address",
          "name": "verifyAddress",
          "type": "address"
        },
        {
          "internalType": "bytes32",
          "name": "publicKey",
          "type": "bytes32"
        },
        {
          "internalType": "bytes",
          "name": "signature",
          "type": "bytes"
        }
      ],
      "name": "challengeAdd",
      "outputs": [],
      "stateMutability": "nonpayable",
      "type": "function"
    },
    {
      "inputs": [
        {
          "internalType": "uint256",
          "name": "fid",
          "type": "uint256"
        },
        {
          "internalType": "address",
          "name": "verifyAddress",
          "type": "address"
        },
        {
          "internalType": "bytes32",
          "name": "publicKey",
          "type": "bytes32"
        },
        {
          "internalType": "bytes",
          "name": "signature",
          "type": "bytes"
        }
      ],
      "name": "challengeRemove",
      "outputs": [],
      "stateMutability": "nonpayable",
      "type": "function"
    },
    {
      "inputs": [],
      "name": "challengingPeriod",
      "outputs": [
        {
          "internalType": "uint256",
          "name": "",
          "type": "uint256"
        }
      ],
      "stateMutability": "view",
      "type": "function"
    },
    {
      "inputs": [
        {
          "internalType": "address",
          "name": "relayer",
          "type": "address"
        }
      ],
      "name": "disableRelayer",
      "outputs": [],
      "stateMutability": "nonpayable",
      "type": "function"
    },
    {
      "inputs": [
        {
          "internalType": "bytes32",
          "name": "role",
          "type": "bytes32"
        }
      ],
      "name": "getRoleAdmin",
      "outputs": [
        {
          "internalType": "bytes32",
          "name": "",
          "type": "bytes32"
        }
      ],
      "stateMutability": "view",
      "type": "function"
    },
    {
      "inputs": [
        {
          "internalType": "bytes32",
          "name": "role",
          "type": "bytes32"
        },
        {
          "internalType": "address",
          "name": "account",
          "type": "address"
        }
      ],
      "name": "grantRole",
      "outputs": [],
      "stateMutability": "nonpayable",
      "type": "function"
    },
    {
      "inputs": [
        {
          "internalType": "bytes32",
          "name": "role",
          "type": "bytes32"
        },
        {
          "internalType": "address",
          "name": "account",
          "type": "address"
        }
      ],
      "name": "hasRole",
      "outputs": [
        {
          "internalType": "bool",
          "name": "",
          "type": "bool"
        }
      ],
      "stateMutability": "view",
      "type": "function"
    },
    {
      "inputs": [
        {
          "internalType": "enum MessageType",
          "name": "messageType",
          "type": "uint8"
        },
        {
          "internalType": "uint256",
          "name": "fid",
          "type": "uint256"
        },
        {
          "internalType": "address",
          "name": "verifyAddress",
          "type": "address"
        },
        {
          "internalType": "bytes32",
          "name": "publicKey",
          "type": "bytes32"
        },
        {
          "internalType": "bytes",
          "name": "signature",
          "type": "bytes"
        }
      ],
      "name": "hash",
      "outputs": [
        {
          "internalType": "bytes32",
          "name": "",
          "type": "bytes32"
        }
      ],
      "stateMutability": "pure",
      "type": "function"
    },
    {
      "inputs": [],
      "name": "onchainVerifier",
      "outputs": [
        {
          "internalType": "contract IFarcasterWalletVerifier",
          "name": "",
          "type": "address"
        }
      ],
      "stateMutability": "view",
      "type": "function"
    },
    {
      "inputs": [
        {
          "internalType": "bytes32",
          "name": "role",
          "type": "bytes32"
        },
        {
          "internalType": "address",
          "name": "callerConfirmation",
          "type": "address"
        }
      ],
      "name": "renounceRole",
      "outputs": [],
      "stateMutability": "nonpayable",
      "type": "function"
    },
    {
      "inputs": [
        {
          "internalType": "bytes32",
          "name": "role",
          "type": "bytes32"
        },
        {
          "internalType": "address",
          "name": "account",
          "type": "address"
        }
      ],
      "name": "revokeRole",
      "outputs": [],
      "stateMutability": "nonpayable",
      "type": "function"
    },
    {
      "inputs": [
        {
          "internalType": "enum MessageType",
          "name": "messageType",
          "type": "uint8"
        },
        {
          "internalType": "uint256",
          "name": "fid",
          "type": "uint256"
        },
        {
          "internalType": "address",
          "name": "verifyAddress",
          "type": "address"
        },
        {
          "internalType": "bytes32",
          "name": "publicKey",
          "type": "bytes32"
        },
        {
          "internalType": "bytes",
          "name": "signature",
          "type": "bytes"
        }
      ],
      "name": "submitVerification",
      "outputs": [],
      "stateMutability": "nonpayable",
      "type": "function"
    },
    {
      "inputs": [
        {
          "internalType": "bytes4",
          "name": "interfaceId",
          "type": "bytes4"
        }
      ],
      "name": "supportsInterface",
      "outputs": [
        {
          "internalType": "bool",
          "name": "",
          "type": "bool"
        }
      ],
      "stateMutability": "view",
      "type": "function"
    },
    {
      "inputs": [
        {
          "internalType": "bytes32",
          "name": "",
          "type": "bytes32"
        }
      ],
      "name": "verificationTimestamp",
      "outputs": [
        {
          "internalType": "uint256",
          "name": "",
          "type": "uint256"
        }
      ],
      "stateMutability": "view",
      "type": "function"
    },
    {
      "inputs": [
        {
          "internalType": "uint256",
          "name": "fid",
          "type": "uint256"
        },
        {
          "internalType": "address",
          "name": "verifyAddress",
          "type": "address"
        },
        {
          "internalType": "bytes32",
          "name": "publicKey",
          "type": "bytes32"
        },
        {
          "internalType": "bytes",
          "name": "signature",
          "type": "bytes"
        }
      ],
      "name": "verifyAdd",
      "outputs": [
        {
          "internalType": "bool",
          "name": "",
          "type": "bool"
        }
      ],
      "stateMutability": "view",
      "type": "function"
    },
    {
      "inputs": [
        {
          "internalType": "uint256",
          "name": "fid",
          "type": "uint256"
        },
        {
          "internalType": "address",
          "name": "verifyAddress",
          "type": "address"
        },
        {
          "internalType": "bytes32",
          "name": "publicKey",
          "type": "bytes32"
        },
        {
          "internalType": "bytes",
          "name": "signature",
          "type": "bytes"
        }
      ],
      "name": "verifyRemove",
      "outputs": [
        {
          "internalType": "bool",
          "name": "",
          "type": "bool"
        }
      ],
      "stateMutability": "view",
      "type": "function"
    }
  ],
  "bytecode": "0x60a06040526201518060015534801561001757600080fd5b506040516112b13803806112b183398101604081905261003691610145565b6001600160a01b03821660805261004e600082610081565b506100797fe2b7fb3b832174769106daebcfd6d1970523240dda11281102db9363b83b0dc482610081565b50505061017f565b6000828152602081815260408083206001600160a01b038516845290915281205460ff16610123576000838152602081815260408083206001600160a01b03861684529091529020805460ff191660011790556100db3390565b6001600160a01b0316826001600160a01b0316847f2f8788117e7eff1d82e926ec794901d17c78024a50270940304540a733656f0d60405160405180910390a4506001610127565b5060005b92915050565b6001600160a01b038116811461014257600080fd5b50565b6000806040838503121561015857600080fd5b82516101638161012d565b60208401519092506101748161012d565b809150509250929050565b6080516111096101a8600039600081816101b10152818161055a01526108f201526111096000f3fe608060405234801561001057600080fd5b50600436106101515760003560e01c806391ae3650116100cd578063c6f52a6411610081578063dbe1065511610066578063dbe1065514610331578063f4c24ea914610358578063feadff141461036b57600080fd5b8063c6f52a641461030b578063d547741f1461031e57600080fd5b8063926d7d7f116100b2578063926d7d7f146102c957806396027c4e146102f0578063a217fddf1461030357600080fd5b806391ae36501461027257806391d148541461028557600080fd5b80632355cf6f116101245780632f2ff15d116101095780632f2ff15d1461023757806336568abe1461024c578063617695ef1461025f57600080fd5b80632355cf6f1461020b578063248a9ca31461021457600080fd5b806301ffc9a714610156578063077ae98d1461017e5780630d655ce1146101ac5780630e3b0ceb146101f8575b600080fd5b610169610164366004610c3f565b61037e565b60405190151581526020015b60405180910390f35b61019e61018c366004610c88565b60026020526000908152604090205481565b604051908152602001610175565b6101d37f000000000000000000000000000000000000000000000000000000000000000081565b60405173ffffffffffffffffffffffffffffffffffffffff9091168152602001610175565b610169610206366004610dc5565b610417565b61019e60015481565b61019e610222366004610c88565b60009081526020819052604090206001015490565b61024a610245366004610e26565b61046d565b005b61024a61025a366004610e26565b610498565b61024a61026d366004610dc5565b6104f6565b61024a610280366004610e52565b610698565b610169610293366004610e26565b60009182526020828152604080842073ffffffffffffffffffffffffffffffffffffffff93909316845291905290205460ff1690565b61019e7fe2b7fb3b832174769106daebcfd6d1970523240dda11281102db9363b83b0dc481565b61019e6102fe366004610e6d565b6106ec565b61019e600081565b61024a610319366004610e6d565b61079e565b61024a61032c366004610e26565b610858565b61019e7f4698baa05b306e3e5e3fa66d29891e203a1418ef5bee962e2c9b109f129e892081565b610169610366366004610dc5565b61087d565b61024a610379366004610dc5565b61088e565b60007fffffffff0000000000000000000000000000000000000000000000000000000082167f7965db0b00000000000000000000000000000000000000000000000000000000148061041157507f01ffc9a7000000000000000000000000000000000000000000000000000000007fffffffff000000000000000000000000000000000000000000000000000000008316145b92915050565b6000806104286007878787876106ec565b60008181526002602052604090205490915015801590610463575060015460008281526002602052604090205461045f9190610ee5565b4210155b9695505050505050565b600082815260208190526040902060010154610488816109f1565b61049283836109fe565b50505050565b73ffffffffffffffffffffffffffffffffffffffff811633146104e7576040517f6697b23200000000000000000000000000000000000000000000000000000000815260040160405180910390fd5b6104f18282610afa565b505050565b60006105066007868686866106ec565b60008181526002602052604090205490915015610691576040517f0e3b0ceb00000000000000000000000000000000000000000000000000000000815273ffffffffffffffffffffffffffffffffffffffff7f00000000000000000000000000000000000000000000000000000000000000001690630e3b0ceb90610595908890889088908890600401610f83565b602060405180830381865afa9250505080156105ec575060408051601f3d9081017fffffffffffffffffffffffffffffffffffffffffffffffffffffffffffffffe01682019092526105e991810190610fbe565b60015b1561062b578015610629576040517f85637c1400000000000000000000000000000000000000000000000000000000815260040160405180910390fd5b505b60008181526002602052604081205573ffffffffffffffffffffffffffffffffffffffff84168560075b7f77c5dcb3bf7cd7f7cd656fe18039dd6096a97b782169f220bb4b4271ca468b278685876040516106889392919061100f565b60405180910390a45b5050505050565b7f4698baa05b306e3e5e3fa66d29891e203a1418ef5bee962e2c9b109f129e89206106c2816109f1565b6104f17fe2b7fb3b832174769106daebcfd6d1970523240dda11281102db9363b83b0dc483610afa565b6000600786600e81111561070257610702610fe0565b141580156107225750600886600e81111561071f5761071f610fe0565b14155b1561076457856040517fb7ef4b2000000000000000000000000000000000000000000000000000000000815260040161075b9190611072565b60405180910390fd5b858585858560405160200161077d959493929190611080565b60405160208183030381529060405280519060200120905095945050505050565b7fe2b7fb3b832174769106daebcfd6d1970523240dda11281102db9363b83b0dc46107c8816109f1565b60006107d787878787876106ec565b6000818152600260205260409020429055905073ffffffffffffffffffffffffffffffffffffffff85168688600e81111561081457610814610fe0565b7f0156567f9bf6ac87e975a83c16a0f538a200e5b51e46384928a92689b7144def8785886040516108479392919061100f565b60405180910390a450505050505050565b600082815260208190526040902060010154610873816109f1565b6104928383610afa565b6000806104286008878787876106ec565b600061089e6008868686866106ec565b60008181526002602052604090205490915015610691576040517ff4c24ea900000000000000000000000000000000000000000000000000000000815273ffffffffffffffffffffffffffffffffffffffff7f0000000000000000000000000000000000000000000000000000000000000000169063f4c24ea99061092d908890889088908890600401610f83565b602060405180830381865afa925050508015610984575060408051601f3d9081017fffffffffffffffffffffffffffffffffffffffffffffffffffffffffffffffe016820190925261098191810190610fbe565b60015b156109c35780156109c1576040517f85637c1400000000000000000000000000000000000000000000000000000000815260040160405180910390fd5b505b60008181526002602052604081205573ffffffffffffffffffffffffffffffffffffffff8416856008610655565b6109fb8133610bb5565b50565b60008281526020818152604080832073ffffffffffffffffffffffffffffffffffffffff8516845290915281205460ff16610af25760008381526020818152604080832073ffffffffffffffffffffffffffffffffffffffff86168452909152902080547fffffffffffffffffffffffffffffffffffffffffffffffffffffffffffffff00166001179055610a903390565b73ffffffffffffffffffffffffffffffffffffffff168273ffffffffffffffffffffffffffffffffffffffff16847f2f8788117e7eff1d82e926ec794901d17c78024a50270940304540a733656f0d60405160405180910390a4506001610411565b506000610411565b60008281526020818152604080832073ffffffffffffffffffffffffffffffffffffffff8516845290915281205460ff1615610af25760008381526020818152604080832073ffffffffffffffffffffffffffffffffffffffff8616808552925280832080547fffffffffffffffffffffffffffffffffffffffffffffffffffffffffffffff0016905551339286917ff6391f5c32d9c69d2a47ea670b442974b53935d1edc7fd64eb21e047a839171b9190a4506001610411565b60008281526020818152604080832073ffffffffffffffffffffffffffffffffffffffff8516845290915290205460ff16610c3b576040517fe2517d3f00000000000000000000000000000000000000000000000000000000815273ffffffffffffffffffffffffffffffffffffffff821660048201526024810183905260440161075b565b5050565b600060208284031215610c5157600080fd5b81357fffffffff0000000000000000000000000000000000000000000000000000000081168114610c8157600080fd5b9392505050565b600060208284031215610c9a57600080fd5b5035919050565b803573ffffffffffffffffffffffffffffffffffffffff81168114610cc557600080fd5b919050565b7f4e487b7100000000000000000000000000000000000000000000000000000000600052604160045260246000fd5b600082601f830112610d0a57600080fd5b813567ffffffffffffffff811115610d2457610d24610cca565b6040517fffffffffffffffffffffffffffffffffffffffffffffffffffffffffffffffe0603f7fffffffffffffffffffffffffffffffffffffffffffffffffffffffffffffffe0601f8501160116810181811067ffffffffffffffff82111715610d9057610d90610cca565b604052818152838201602001851015610da857600080fd5b816020850160208301376000918101602001919091529392505050565b60008060008060808587031215610ddb57600080fd5b84359350610deb60208601610ca1565b925060408501359150606085013567ffffffffffffffff811115610e0e57600080fd5b610e1a87828801610cf9565b91505092959194509250565b60008060408385031215610e3957600080fd5b82359150610e4960208401610ca1565b90509250929050565b600060208284031215610e6457600080fd5b610c8182610ca1565b600080600080600060a08688031215610e8557600080fd5b8535600f8110610e9457600080fd5b945060208601359350610ea960408701610ca1565b925060608601359150608086013567ffffffffffffffff811115610ecc57600080fd5b610ed888828901610cf9565b9150509295509295909350565b80820180821115610411577f4e487b7100000000000000000000000000000000000000000000000000000000600052601160045260246000fd5b6000815180845260005b81811015610f4557602081850181015186830182015201610f29565b5060006020828601015260207fffffffffffffffffffffffffffffffffffffffffffffffffffffffffffffffe0601f83011685010191505092915050565b84815273ffffffffffffffffffffffffffffffffffffffff841660208201528260408201526080606082015260006104636080830184610f1f565b600060208284031215610fd057600080fd5b81518015158114610c8157600080fd5b7f4e487b7100000000000000000000000000000000000000000000000000000000600052602160045260246000fd5b83815282602082015260606040820152600061102e6060830184610f1f565b95945050505050565b600f811061106e577f4e487b7100000000000000000000000000000000000000000000000000000000600052602160045260246000fd5b9052565b602081016104118284611037565b61108a8187611037565b84602082015273ffffffffffffffffffffffffffffffffffffffff8416604082015282606082015260a0608082015260006110c860a0830184610f1f565b97965050505050505056fea2646970667358221220bb1c2625426798b9acc4662aa07d5fb66f972060264e9c76b21c2359acfa98db64736f6c634300081a0033",
  "linkReferences": {},
  "deployedLinkReferences": {}
}