{
  "_format": "hh-sol-artifact-1",
  "contractName": "FcMessageVerification",
  "sourceName": "@farcaster-attestation/farcaster-decoder/contracts/farcaster/FcMessageVerification.sol",
  "abi": [
    {
      "inputs": [
        {
          "internalType": "enum FarcasterNetwork",
          "name": "network",
          "type": "uint8"
        }
      ],
      "name": "InvalidFarcasterNetwork",
      "type": "error"
    },
    {
      "inputs": [],
      "name": "InvalidSignature",
      "type": "error"
    },
    {
      "inputs": [
        {
          "internalType": "uint256",
          "name": "chainId",
          "type": "uint256"
        }
      ],
      "name": "InvalidVerificationChain",
      "type": "error"
    },
    {
      "inputs": [
        {
          "internalType": "enum Protocol",
          "name": "protocol",
          "type": "uint8"
        }
      ],
      "name": "InvalidVerificationProtocol",
      "type": "error"
    },
    {
      "inputs": [
        {
          "internalType": "uint32",
          "name": "timestamp",
          "type": "uint32"
        }
      ],
      "name": "InvalidVerificationTimestamp",
      "type": "error"
    },
    {
      "inputs": [
        {
          "internalType": "uint32",
          "name": "verificationType",
          "type": "uint32"
        }
      ],
      "name": "InvalidVerificationType",
      "type": "error"
    },
    {
      "inputs": [
        {
          "components": [
            {
              "internalType": "enum MessageType",
              "name": "type_",
              "type": "MessageType"
            },
            {
              "internalType": "uint64",
              "name": "fid",
              "type": "uint64"
            },
            {
              "internalType": "uint32",
              "name": "timestamp",
              "type": "uint32"
            },
            {
              "internalType": "enum FarcasterNetwork",
              "name": "network",
              "type": "FarcasterNetwork"
            },
            {
              "internalType": "bool",
              "name": "cast_add_body",
              "type": "bool"
            },
            {
              "internalType": "bool",
              "name": "cast_remove_body",
              "type": "bool"
            },
            {
              "internalType": "bool",
              "name": "reaction_body",
              "type": "bool"
            },
            {
              "internalType": "bool",
              "name": "empty",
              "type": "bool"
            },
            {
              "components": [
                {
                  "internalType": "bytes",
                  "name": "address_",
                  "type": "bytes"
                },
                {
                  "internalType": "bytes",
                  "name": "claim_signature",
                  "type": "bytes"
                },
                {
                  "internalType": "bytes",
                  "name": "block_hash",
                  "type": "bytes"
                },
                {
                  "internalType": "uint32",
                  "name": "verification_type",
                  "type": "uint32"
                },
                {
                  "internalType": "uint32",
                  "name": "chain_id",
                  "type": "uint32"
                },
                {
                  "internalType": "bool",
                  "name": "unknown_6",
                  "type": "bool"
                },
                {
                  "internalType": "enum Protocol",
                  "name": "protocol",
                  "type": "Protocol"
                }
              ],
              "internalType": "struct VerificationAddAddressBody",
              "name": "verification_add_address_body",
              "type": "tuple"
            },
            {
              "internalType": "bool",
              "name": "verification_remove_body",
              "type": "bool"
            },
            {
              "internalType": "bool",
              "name": "deprecated_signer_add_body",
              "type": "bool"
            },
            {
              "internalType": "bool",
              "name": "user_data_body",
              "type": "bool"
            },
            {
              "internalType": "bool",
              "name": "deprecated_signer_remove_body",
              "type": "bool"
            },
            {
              "internalType": "bool",
              "name": "link_body",
              "type": "bool"
            },
            {
              "internalType": "bool",
              "name": "username_proof_body",
              "type": "bool"
            },
            {
              "internalType": "bool",
              "name": "frame_action_body",
              "type": "bool"
            }
          ],
          "internalType": "struct MessageDataVerificationAddAddress",
          "name": "claim",
          "type": "tuple"
        }
      ],
      "name": "verifyEthAddressClaim",
      "outputs": [
        {
          "internalType": "bool",
          "name": "",
          "type": "bool"
        }
      ],
      "stateMutability": "view",
      "type": "function"
    },
    {
      "inputs": [
        {
          "internalType": "bytes32",
          "name": "public_key",
          "type": "bytes32"
        },
        {
          "internalType": "bytes32",
          "name": "signature_r",
          "type": "bytes32"
        },
        {
          "internalType": "bytes32",
          "name": "signature_s",
          "type": "bytes32"
        },
        {
          "internalType": "bytes",
          "name": "message",
          "type": "bytes"
        }
      ],
      "name": "verifyMessage",
      "outputs": [
        {
          "internalType": "bool",
          "name": "",
          "type": "bool"
        }
      ],
      "stateMutability": "pure",
      "type": "function"
    },
    {
      "inputs": [
        {
          "internalType": "bytes32",
          "name": "public_key",
          "type": "bytes32"
        },
        {
          "internalType": "bytes32",
          "name": "signature_r",
          "type": "bytes32"
        },
        {
          "internalType": "bytes32",
          "name": "signature_s",
          "type": "bytes32"
        },
        {
          "internalType": "bytes",
          "name": "message",
          "type": "bytes"
        }
      ],
      "name": "verifyMessageAndRevert",
      "outputs": [],
      "stateMutability": "pure",
      "type": "function"
    },
    {
      "inputs": [
        {
          "components": [
            {
              "internalType": "enum MessageType",
              "name": "type_",
              "type": "MessageType"
            },
            {
              "internalType": "uint64",
              "name": "fid",
              "type": "uint64"
            },
            {
              "internalType": "uint32",
              "name": "timestamp",
              "type": "uint32"
            },
            {
              "internalType": "enum FarcasterNetwork",
              "name": "network",
              "type": "FarcasterNetwork"
            },
            {
              "internalType": "bool",
              "name": "cast_add_body",
              "type": "bool"
            },
            {
              "internalType": "bool",
              "name": "cast_remove_body",
              "type": "bool"
            },
            {
              "internalType": "bool",
              "name": "reaction_body",
              "type": "bool"
            },
            {
              "internalType": "bool",
              "name": "empty",
              "type": "bool"
            },
            {
              "internalType": "bool",
              "name": "verification_add_address_body",
              "type": "bool"
            },
            {
              "components": [
                {
                  "internalType": "bytes",
                  "name": "address_",
                  "type": "bytes"
                },
                {
                  "internalType": "enum Protocol",
                  "name": "protocol",
                  "type": "Protocol"
                }
              ],
              "internalType": "struct VerificationRemoveBody",
              "name": "verification_remove_body",
              "type": "tuple"
            },
            {
              "internalType": "bool",
              "name": "deprecated_signer_add_body",
              "type": "bool"
            },
            {
              "internalType": "bool",
              "name": "user_data_body",
              "type": "bool"
            },
            {
              "internalType": "bool",
              "name": "deprecated_signer_remove_body",
              "type": "bool"
            },
            {
              "internalType": "bool",
              "name": "link_body",
              "type": "bool"
            },
            {
              "internalType": "bool",
              "name": "username_proof_body",
              "type": "bool"
            },
            {
              "internalType": "bool",
              "name": "frame_action_body",
              "type": "bool"
            }
          ],
          "internalType": "struct MessageDataVerificationRemove",
          "name": "claim",
          "type": "tuple"
        },
        {
          "internalType": "address",
          "name": "verifyAddress",
          "type": "address"
        },
        {
          "internalType": "uint256",
          "name": "fid",
          "type": "uint256"
        }
      ],
      "name": "verifyRemove",
      "outputs": [
        {
          "internalType": "bool",
          "name": "",
          "type": "bool"
        }
      ],
      "stateMutability": "view",
      "type": "function"
    }
  ],
  "bytecode": "0x611668610039600b82828239805160001a607314602c57634e487b7160e01b600052600060045260246000fd5b30600052607381538281f3fe73000000000000000000000000000000000000000030146080604052600436106100565760003560e01c80630e5951d41461005b578063263511161461008257806369cc64b614610097578063cde41a0d146100aa575b600080fd5b61006e610069366004610f2d565b6100bd565b604051901515815260200160405180910390f35b6100956100903660046110ca565b610263565b005b61006e6100a53660046110ca565b6102ab565b61006e6100b8366004611208565b6103ef565b60006001846060015160038111156100d7576100d7611389565b1461011d5783606001516040517f4ffab5ea00000000000000000000000000000000000000000000000000000000815260040161011491906113cc565b60405180910390fd5b600084610120015160200151600181111561013a5761013a611389565b1461017c57836101200151602001516040517f88bac2cd00000000000000000000000000000000000000000000000000000000815260040161011491906113e0565b61038461018d635fee660042611429565b610197919061143c565b846040015163ffffffff1611156101e85760408085015190517fbf071f7f00000000000000000000000000000000000000000000000000000000815263ffffffff9091166004820152602401610114565b60006101fc85610120015160000151610770565b90508373ffffffffffffffffffffffffffffffffffffffff168173ffffffffffffffffffffffffffffffffffffffff16141580610247575082856020015167ffffffffffffffff1614155b1561025657600091505061025c565b60019150505b9392505050565b61026f848484846102ab565b6102a5576040517f8baa579f00000000000000000000000000000000000000000000000000000000815260040160405180910390fd5b50505050565b60008073__$4b27c5c3cb8bdec5ba2c8b3ac96256058c$__63227bb04d8460146040518363ffffffff1660e01b81526004016102e89291906114bd565b600060405180830381865af4158015610305573d6000803e3d6000fd5b505050506040513d6000823e601f3d9081017fffffffffffffffffffffffffffffffffffffffffffffffffffffffffffffffe016820160405261034b91908101906114e5565b6040517f2bf6eda800000000000000000000000000000000000000000000000000000000815290915073__$166d64149a848651c0b457a5deaa1fe720$__90632bf6eda8906103a4908990899089908790600401611553565b602060405180830381865af41580156103c1573d6000803e3d6000fd5b505050506040513d601f19601f820116820180604052508101906103e59190611578565b9695505050505050565b60008082610100015160c00151600181111561040d5761040d611389565b1461044f5781610100015160c001516040517f88bac2cd00000000000000000000000000000000000000000000000000000000815260040161011491906113e0565b6101008201516080015163ffffffff161580159061047c5750468261010001516080015163ffffffff1614155b156104c657610100820151608001516040517ff5b59f3700000000000000000000000000000000000000000000000000000000815263ffffffff9091166004820152602401610114565b8161010001516060015163ffffffff1660011480156104f45750468261010001516080015163ffffffff1614155b1561053e57610100820151608001516040517ff5b59f3700000000000000000000000000000000000000000000000000000000815263ffffffff9091166004820152602401610114565b60018260600151600381111561055657610556611389565b146105935781606001516040517f4ffab5ea00000000000000000000000000000000000000000000000000000000815260040161011491906113cc565b6101008201516060015163ffffffff16158015906105c157508161010001516060015163ffffffff16600114155b1561060b57610100820151606001516040517fa84b5e0500000000000000000000000000000000000000000000000000000000815263ffffffff9091166004820152602401610114565b61038461061c635fee660042611429565b610626919061143c565b826040015163ffffffff1611156106775760408083015190517fbf071f7f00000000000000000000000000000000000000000000000000000000815263ffffffff9091166004820152602401610114565b600061068b83610100015160000151610770565b905060007f37a124457570b0237075d0c477282eaf88b1bb865fe66b41aacfa0259556af088460200151836106c887610100015160400151610798565b87606001516040516020016106e1959493929190611595565b60405160208183030381529060405280519060200120905060006107516107168661010001516080015163ffffffff16610833565b836040517f19010000000000000000000000000000000000000000000000000000000000008152600281019290925260228201526042902090565b90506107678382876101000151602001516109a9565b95945050505050565b6000815160141461078057600080fd5b50602001516c01000000000000000000000000900490565b6000815160201461082b576040517f08c379a000000000000000000000000000000000000000000000000000000000815260206004820152602a60248201527f536f75726365206279746573206d7573742062652065786163746c792033322060448201527f6279746573206c6f6e67000000000000000000000000000000000000000000006064820152608401610114565b506020015190565b6000816000036108fc57604080517f599a80fcaa47b95e2323ab4d34d34e0cc9feda4b843edafcc30c7bdf60ea15bf60208201527f0bc86d716919df6b1f5f289daab8682d331d406b1eb2cbb21a55f09766c83369918101919091527fb4bcb154e38601c389396fa918314da42d4626f13ef6d0ceb07e5f5d26b2fbc360608201527ff2d857f4a3edcb9b78b4d503bfe733db1e3f6cdc2b7971ee739626c97e86a558608082015260a0015b604051602081830303815290604052805190602001209050919050565b604080517fa604fff5a27d5951f334ccda7abff3286a8af29caeeb196a6f2b40a1dce7612b60208201527f0bc86d716919df6b1f5f289daab8682d331d406b1eb2cbb21a55f09766c83369918101919091527fb4bcb154e38601c389396fa918314da42d4626f13ef6d0ceb07e5f5d26b2fbc36060820152608081018390527ff2d857f4a3edcb9b78b4d503bfe733db1e3f6cdc2b7971ee739626c97e86a55860a082015260c0016108df565b60008060006109b88585610a1b565b50909250905060008160038111156109d2576109d2611389565b148015610a0a57508573ffffffffffffffffffffffffffffffffffffffff168273ffffffffffffffffffffffffffffffffffffffff16145b806103e557506103e5868686610a68565b60008060008351604103610a555760208401516040850151606086015160001a610a4788828585610bb5565b955095509550505050610a61565b50508151600091506002905b9250925092565b60008060008573ffffffffffffffffffffffffffffffffffffffff168585604051602401610a979291906115dc565b604080517fffffffffffffffffffffffffffffffffffffffffffffffffffffffffffffffe08184030181529181526020820180517bffffffffffffffffffffffffffffffffffffffffffffffffffffffff167f1626ba7e0000000000000000000000000000000000000000000000000000000017905251610b1891906115fd565b600060405180830381855afa9150503d8060008114610b53576040519150601f19603f3d011682016040523d82523d6000602084013e610b58565b606091505b5091509150818015610b6c57506020815110155b80156103e5575080517f1626ba7e0000000000000000000000000000000000000000000000000000000090610baa9083016020908101908401611619565b149695505050505050565b600080807f7fffffffffffffffffffffffffffffff5d576e7357a4501ddfe92f46681b20a0841115610bf05750600091506003905082610ca5565b604080516000808252602082018084528a905260ff891692820192909252606081018790526080810186905260019060a0016020604051602081039080840390855afa158015610c44573d6000803e3d6000fd5b50506040517fffffffffffffffffffffffffffffffffffffffffffffffffffffffffffffffe0015191505073ffffffffffffffffffffffffffffffffffffffff8116610c9b57506000925060019150829050610ca5565b9250600091508190505b9450945094915050565b7f4e487b7100000000000000000000000000000000000000000000000000000000600052604160045260246000fd5b604051610200810167ffffffffffffffff81118282101715610d0257610d02610caf565b60405290565b60405160e0810167ffffffffffffffff81118282101715610d0257610d02610caf565b604051601f82017fffffffffffffffffffffffffffffffffffffffffffffffffffffffffffffffe016810167ffffffffffffffff81118282101715610d7257610d72610caf565b604052919050565b8035600f8110610d8957600080fd5b919050565b803567ffffffffffffffff81168114610d8957600080fd5b803563ffffffff81168114610d8957600080fd5b803560048110610d8957600080fd5b8015158114610dd757600080fd5b50565b8035610d8981610dc9565b600067ffffffffffffffff821115610dff57610dff610caf565b50601f017fffffffffffffffffffffffffffffffffffffffffffffffffffffffffffffffe01660200190565b600082601f830112610e3c57600080fd5b8135610e4f610e4a82610de5565b610d2b565b818152846020838601011115610e6457600080fd5b816020850160208301376000918101602001919091529392505050565b803560028110610d8957600080fd5b600060408284031215610ea257600080fd5b6040805190810167ffffffffffffffff81118282101715610ec557610ec5610caf565b604052905080823567ffffffffffffffff811115610ee257600080fd5b610eee85828601610e2b565b825250610efd60208401610e81565b60208201525092915050565b803573ffffffffffffffffffffffffffffffffffffffff81168114610d8957600080fd5b600080600060608486031215610f4257600080fd5b833567ffffffffffffffff811115610f5957600080fd5b84016102008187031215610f6c57600080fd5b610f74610cde565b610f7d82610d7a565b8152610f8b60208301610d8e565b6020820152610f9c60408301610da6565b6040820152610fad60608301610dba565b6060820152610fbe60808301610dda565b6080820152610fcf60a08301610dda565b60a0820152610fe060c08301610dda565b60c0820152610ff160e08301610dda565b60e08201526110036101008301610dda565b61010082015261012082013567ffffffffffffffff81111561102457600080fd5b61103088828501610e90565b610120830152506110446101408301610dda565b6101408201526110576101608301610dda565b61016082015261106a6101808301610dda565b61018082015261107d6101a08301610dda565b6101a08201526110906101c08301610dda565b6101c08201526110a36101e08301610dda565b6101e082015293506110b9905060208501610f09565b929592945050506040919091013590565b600080600080608085870312156110e057600080fd5b843593506020850135925060408501359150606085013567ffffffffffffffff81111561110c57600080fd5b61111887828801610e2b565b91505092959194509250565b600060e0828403121561113657600080fd5b61113e610d08565b9050813567ffffffffffffffff81111561115757600080fd5b61116384828501610e2b565b825250602082013567ffffffffffffffff81111561118057600080fd5b61118c84828501610e2b565b602083015250604082013567ffffffffffffffff8111156111ac57600080fd5b6111b884828501610e2b565b6040830152506111ca60608301610da6565b60608201526111db60808301610da6565b60808201526111ec60a08301610dda565b60a08201526111fd60c08301610e81565b60c082015292915050565b60006020828403121561121a57600080fd5b813567ffffffffffffffff81111561123157600080fd5b8201610200818503121561124457600080fd5b61124c610cde565b61125582610d7a565b815261126360208301610d8e565b602082015261127460408301610da6565b604082015261128560608301610dba565b606082015261129660808301610dda565b60808201526112a760a08301610dda565b60a08201526112b860c08301610dda565b60c08201526112c960e08301610dda565b60e082015261010082013567ffffffffffffffff8111156112e957600080fd5b6112f586828501611124565b610100830152506113096101208301610dda565b61012082015261131c6101408301610dda565b61014082015261132f6101608301610dda565b6101608201526113426101808301610dda565b6101808201526113556101a08301610dda565b6101a08201526113686101c08301610dda565b6101c082015261137b6101e08301610dda565b6101e0820152949350505050565b7f4e487b7100000000000000000000000000000000000000000000000000000000600052602160045260246000fd5b600481106113c8576113c8611389565b9052565b602081016113da82846113b8565b92915050565b60208101600283106113f4576113f4611389565b91905290565b7f4e487b7100000000000000000000000000000000000000000000000000000000600052601160045260246000fd5b818103818111156113da576113da6113fa565b808201808211156113da576113da6113fa565b60005b8381101561146a578181015183820152602001611452565b50506000910152565b6000815180845261148b81602086016020860161144f565b601f017fffffffffffffffffffffffffffffffffffffffffffffffffffffffffffffffe0169290920160200192915050565b6040815260006114d06040830185611473565b905063ffffffff831660208301529392505050565b6000602082840312156114f757600080fd5b815167ffffffffffffffff81111561150e57600080fd5b8201601f8101841361151f57600080fd5b805161152d610e4a82610de5565b81815285602083850101111561154257600080fd5b61076782602083016020860161144f565b8481528360208201528260408201526080606082015260006103e56080830184611473565b60006020828403121561158a57600080fd5b815161025c81610dc9565b85815267ffffffffffffffff8516602082015273ffffffffffffffffffffffffffffffffffffffff841660408201526060810183905260a081016103e560808301846113b8565b8281526040602082015260006115f56040830184611473565b949350505050565b6000825161160f81846020870161144f565b9190910192915050565b60006020828403121561162b57600080fd5b505191905056fea2646970667358221220047d3389a575c120c08984c89428b46f9dbd939e679b0e116ed85ee29ab1218164736f6c634300081a0033",
  "linkReferences": {
    "@farcaster-attestation/farcaster-decoder/contracts/libraries/Blake3.sol": {
      "Blake3": [
        {
          "length": 20,
          "start": 745
        }
      ]
    },
    "@farcaster-attestation/farcaster-decoder/contracts/libraries/Ed25519.sol": {
      "Ed25519": [
        {
          "length": 20,
          "start": 943
        }
      ]
    }
  },
  "deployedLinkReferences": {
    "@farcaster-attestation/farcaster-decoder/contracts/libraries/Blake3.sol": {
      "Blake3": [
        {
          "length": 20,
          "start": 688
        }
      ]
    },
    "@farcaster-attestation/farcaster-decoder/contracts/libraries/Ed25519.sol": {
      "Ed25519": [
        {
          "length": 20,
          "start": 886
        }
      ]
    }
  }
}