{
  "_format": "hh-sol-artifact-1",
  "contractName": "FarcasterPublicKeyVerifier",
  "sourceName": "contracts/public-key-verifier/FarcasterPublicKeyVerifier.sol",
  "abi": [
    {
      "inputs": [
        {
          "internalType": "contract IKeyRegistry",
          "name": "registry",
          "type": "address"
        },
        {
          "internalType": "address",
          "name": "admin",
          "type": "address"
        }
      ],
      "stateMutability": "nonpayable",
      "type": "constructor"
    },
    {
      "inputs": [],
      "name": "AccessControlBadConfirmation",
      "type": "error"
    },
    {
      "inputs": [
        {
          "internalType": "address",
          "name": "account",
          "type": "address"
        },
        {
          "internalType": "bytes32",
          "name": "neededRole",
          "type": "bytes32"
        }
      ],
      "name": "AccessControlUnauthorizedAccount",
      "type": "error"
    },
    {
      "inputs": [
        {
          "internalType": "address",
          "name": "target",
          "type": "address"
        }
      ],
      "name": "AddressEmptyCode",
      "type": "error"
    },
    {
      "inputs": [],
      "name": "BlacklistedOperator",
      "type": "error"
    },
    {
      "inputs": [],
      "name": "FailedInnerCall",
      "type": "error"
    },
    {
      "anonymous": false,
      "inputs": [
        {
          "indexed": true,
          "internalType": "uint256",
          "name": "fid",
          "type": "uint256"
        },
        {
          "indexed": true,
          "internalType": "bytes32",
          "name": "publicKey",
          "type": "bytes32"
        }
      ],
      "name": "AddKey",
      "type": "event"
    },
    {
      "anonymous": false,
      "inputs": [
        {
          "indexed": true,
          "internalType": "address",
          "name": "operator",
          "type": "address"
        }
      ],
      "name": "BlacklistOperator",
      "type": "event"
    },
    {
      "anonymous": false,
      "inputs": [
        {
          "indexed": true,
          "internalType": "uint256",
          "name": "fid",
          "type": "uint256"
        },
        {
          "indexed": true,
          "internalType": "bytes32",
          "name": "publicKey",
          "type": "bytes32"
        }
      ],
      "name": "RemoveKey",
      "type": "event"
    },
    {
      "anonymous": false,
      "inputs": [
        {
          "indexed": true,
          "internalType": "bytes32",
          "name": "role",
          "type": "bytes32"
        },
        {
          "indexed": true,
          "internalType": "bytes32",
          "name": "previousAdminRole",
          "type": "bytes32"
        },
        {
          "indexed": true,
          "internalType": "bytes32",
          "name": "newAdminRole",
          "type": "bytes32"
        }
      ],
      "name": "RoleAdminChanged",
      "type": "event"
    },
    {
      "anonymous": false,
      "inputs": [
        {
          "indexed": true,
          "internalType": "bytes32",
          "name": "role",
          "type": "bytes32"
        },
        {
          "indexed": true,
          "internalType": "address",
          "name": "account",
          "type": "address"
        },
        {
          "indexed": true,
          "internalType": "address",
          "name": "sender",
          "type": "address"
        }
      ],
      "name": "RoleGranted",
      "type": "event"
    },
    {
      "anonymous": false,
      "inputs": [
        {
          "indexed": true,
          "internalType": "bytes32",
          "name": "role",
          "type": "bytes32"
        },
        {
          "indexed": true,
          "internalType": "address",
          "name": "account",
          "type": "address"
        },
        {
          "indexed": true,
          "internalType": "address",
          "name": "sender",
          "type": "address"
        }
      ],
      "name": "RoleRevoked",
      "type": "event"
    },
    {
      "inputs": [],
      "name": "DEFAULT_ADMIN_ROLE",
      "outputs": [
        {
          "internalType": "bytes32",
          "name": "",
          "type": "bytes32"
        }
      ],
      "stateMutability": "view",
      "type": "function"
    },
    {
      "inputs": [],
      "name": "OPERATOR_ROLE",
      "outputs": [
        {
          "internalType": "bytes32",
          "name": "",
          "type": "bytes32"
        }
      ],
      "stateMutability": "view",
      "type": "function"
    },
    {
      "inputs": [],
      "name": "SECURITY_ROLE",
      "outputs": [
        {
          "internalType": "bytes32",
          "name": "",
          "type": "bytes32"
        }
      ],
      "stateMutability": "view",
      "type": "function"
    },
    {
      "inputs": [
        {
          "internalType": "uint256",
          "name": "fid",
          "type": "uint256"
        },
        {
          "internalType": "bytes32",
          "name": "publicKey",
          "type": "bytes32"
        }
      ],
      "name": "addKey",
      "outputs": [],
      "stateMutability": "nonpayable",
      "type": "function"
    },
    {
      "inputs": [
        {
          "internalType": "address",
          "name": "operator",
          "type": "address"
        }
      ],
      "name": "blacklistOperator",
      "outputs": [],
      "stateMutability": "nonpayable",
      "type": "function"
    },
    {
      "inputs": [
        {
          "internalType": "bytes32",
          "name": "role",
          "type": "bytes32"
        }
      ],
      "name": "getRoleAdmin",
      "outputs": [
        {
          "internalType": "bytes32",
          "name": "",
          "type": "bytes32"
        }
      ],
      "stateMutability": "view",
      "type": "function"
    },
    {
      "inputs": [
        {
          "internalType": "bytes32",
          "name": "role",
          "type": "bytes32"
        },
        {
          "internalType": "address",
          "name": "account",
          "type": "address"
        }
      ],
      "name": "grantRole",
      "outputs": [],
      "stateMutability": "nonpayable",
      "type": "function"
    },
    {
      "inputs": [
        {
          "internalType": "bytes32",
          "name": "role",
          "type": "bytes32"
        },
        {
          "internalType": "address",
          "name": "account",
          "type": "address"
        }
      ],
      "name": "hasRole",
      "outputs": [
        {
          "internalType": "bool",
          "name": "",
          "type": "bool"
        }
      ],
      "stateMutability": "view",
      "type": "function"
    },
    {
      "inputs": [
        {
          "internalType": "uint256",
          "name": "",
          "type": "uint256"
        },
        {
          "internalType": "bytes32",
          "name": "",
          "type": "bytes32"
        }
      ],
      "name": "keyExternal",
      "outputs": [
        {
          "internalType": "bool",
          "name": "",
          "type": "bool"
        }
      ],
      "stateMutability": "view",
      "type": "function"
    },
    {
      "inputs": [],
      "name": "keyRegistry",
      "outputs": [
        {
          "internalType": "contract IKeyRegistry",
          "name": "",
          "type": "address"
        }
      ],
      "stateMutability": "view",
      "type": "function"
    },
    {
      "inputs": [
        {
          "internalType": "bytes[]",
          "name": "data",
          "type": "bytes[]"
        }
      ],
      "name": "multicall",
      "outputs": [
        {
          "internalType": "bytes[]",
          "name": "results",
          "type": "bytes[]"
        }
      ],
      "stateMutability": "nonpayable",
      "type": "function"
    },
    {
      "inputs": [
        {
          "internalType": "uint256",
          "name": "fid",
          "type": "uint256"
        },
        {
          "internalType": "bytes32",
          "name": "publicKey",
          "type": "bytes32"
        }
      ],
      "name": "removeKey",
      "outputs": [],
      "stateMutability": "nonpayable",
      "type": "function"
    },
    {
      "inputs": [
        {
          "internalType": "bytes32",
          "name": "role",
          "type": "bytes32"
        },
        {
          "internalType": "address",
          "name": "callerConfirmation",
          "type": "address"
        }
      ],
      "name": "renounceRole",
      "outputs": [],
      "stateMutability": "nonpayable",
      "type": "function"
    },
    {
      "inputs": [
        {
          "internalType": "bytes32",
          "name": "role",
          "type": "bytes32"
        },
        {
          "internalType": "address",
          "name": "account",
          "type": "address"
        }
      ],
      "name": "revokeRole",
      "outputs": [],
      "stateMutability": "nonpayable",
      "type": "function"
    },
    {
      "inputs": [
        {
          "internalType": "bytes4",
          "name": "interfaceId",
          "type": "bytes4"
        }
      ],
      "name": "supportsInterface",
      "outputs": [
        {
          "internalType": "bool",
          "name": "",
          "type": "bool"
        }
      ],
      "stateMutability": "view",
      "type": "function"
    },
    {
      "inputs": [
        {
          "internalType": "uint256",
          "name": "fid",
          "type": "uint256"
        },
        {
          "internalType": "bytes32",
          "name": "publicKey",
          "type": "bytes32"
        }
      ],
      "name": "verifyPublicKey",
      "outputs": [
        {
          "internalType": "bool",
          "name": "",
          "type": "bool"
        }
      ],
      "stateMutability": "view",
      "type": "function"
    }
  ],
  "bytecode": "0x60a060405234801561001057600080fd5b506040516111ed3803806111ed83398101604081905261002f9161013e565b6001600160a01b03821660805261004760008261007a565b506100727f97667070c54ef182b0f5858b034beac1b6f3089aa2d3188bb1e8929f4fa9b9298261007a565b505050610178565b6000828152602081815260408083206001600160a01b038516845290915281205460ff1661011c576000838152602081815260408083206001600160a01b03861684529091529020805460ff191660011790556100d43390565b6001600160a01b0316826001600160a01b0316847f2f8788117e7eff1d82e926ec794901d17c78024a50270940304540a733656f0d60405160405180910390a4506001610120565b5060005b92915050565b6001600160a01b038116811461013b57600080fd5b50565b6000806040838503121561015157600080fd5b825161015c81610126565b602084015190925061016d81610126565b809150509250929050565b60805161105361019a60003960008181610132015261068301526110536000f3fe608060405234801561001057600080fd5b50600436106101005760003560e01c8063a217fddf11610097578063d547741f11610066578063d547741f146102a5578063dbe10655146102b8578063f5b541a6146102df578063f6c6a2411461030657600080fd5b8063a217fddf14610257578063ac9650d81461025f578063b4492ecc1461027f578063ce6560df1461029257600080fd5b80632f2ff15d116100d35780632f2ff15d146101d857806336568abe146101ed578063407047731461020057806391d148541461021357600080fd5b806301ffc9a714610105578063086b51981461012d5780631c15f8a414610179578063248a9ca3146101a7575b600080fd5b610118610113366004610bde565b610319565b60405190151581526020015b60405180910390f35b6101547f000000000000000000000000000000000000000000000000000000000000000081565b60405173ffffffffffffffffffffffffffffffffffffffff9091168152602001610124565b610118610187366004610c20565b600160209081526000928352604080842090915290825290205460ff1681565b6101ca6101b5366004610c42565b60009081526020819052604090206001015490565b604051908152602001610124565b6101eb6101e6366004610c84565b6103b2565b005b6101eb6101fb366004610c84565b6103dd565b6101eb61020e366004610c20565b61043b565b610118610221366004610c84565b60009182526020828152604080842073ffffffffffffffffffffffffffffffffffffffff93909316845291905290205460ff1690565b6101ca600081565b61027261026d366004610cb0565b6104d3565b6040516101249190610d95565b6101eb61028d366004610e18565b6105bb565b6101186102a0366004610c20565b610655565b6101eb6102b3366004610c84565b610773565b6101ca7f4698baa05b306e3e5e3fa66d29891e203a1418ef5bee962e2c9b109f129e892081565b6101ca7f97667070c54ef182b0f5858b034beac1b6f3089aa2d3188bb1e8929f4fa9b92981565b6101eb610314366004610c20565b610798565b60007fffffffff0000000000000000000000000000000000000000000000000000000082167f7965db0b0000000000000000000000000000000000000000000000000000000014806103ac57507f01ffc9a7000000000000000000000000000000000000000000000000000000007fffffffff000000000000000000000000000000000000000000000000000000008316145b92915050565b6000828152602081905260409020600101546103cd81610834565b6103d78383610841565b50505050565b73ffffffffffffffffffffffffffffffffffffffff8116331461042c576040517f6697b23200000000000000000000000000000000000000000000000000000000815260040160405180910390fd5b610436828261093d565b505050565b7f97667070c54ef182b0f5858b034beac1b6f3089aa2d3188bb1e8929f4fa9b92961046581610834565b600083815260016020908152604080832085845290915280822080547fffffffffffffffffffffffffffffffffffffffffffffffffffffffffffffff0016905551839185917f9dfccc6d3cf4d5e81579e8edff0daeeaccd2e61f00ad7759ed6a99be1e1c008b9190a3505050565b6040805160008152602081019091526060908267ffffffffffffffff8111156104fe576104fe610e33565b60405190808252806020026020018201604052801561053157816020015b606081526020019060019003908161051c5790505b50915060005b838110156105b35761058e3086868481811061055557610555610e62565b90506020028101906105679190610e91565b8560405160200161057a93929190610efd565b6040516020818303038152906040526109f8565b8382815181106105a0576105a0610e62565b6020908102919091010152600101610537565b505092915050565b7f4698baa05b306e3e5e3fa66d29891e203a1418ef5bee962e2c9b109f129e89206105e581610834565b61060f7f97667070c54ef182b0f5858b034beac1b6f3089aa2d3188bb1e8929f4fa9b9298361093d565b5060405173ffffffffffffffffffffffffffffffffffffffff8316907fa2f2b21af6bc9ffdbeee793f463ab6dae1e9834763f7367ed29345077732383990600090a25050565b600082815260016020908152604080832084845290915281205460ff161561067f575060016103ac565b60007f000000000000000000000000000000000000000000000000000000000000000073ffffffffffffffffffffffffffffffffffffffff1663ac34cc5a85856040516020016106d191815260200190565b6040516020818303038152906040526040518363ffffffff1660e01b81526004016106fd929190610f24565b6040805180830381865afa158015610719573d6000803e3d6000fd5b505050506040513d601f19601f8201168201806040525081019061073d9190610f3d565b905060018151600281111561075457610754610fd2565b14801561076b5750806020015163ffffffff166001145b949350505050565b60008281526020819052604090206001015461078e81610834565b6103d7838361093d565b7f97667070c54ef182b0f5858b034beac1b6f3089aa2d3188bb1e8929f4fa9b9296107c281610834565b600083815260016020818152604080842086855290915280832080547fffffffffffffffffffffffffffffffffffffffffffffffffffffffffffffff001690921790915551839185917fd209d34e8e202b8c03e4279b4ae91068dd0700340da8714c8285bc01b5e99f5b9190a3505050565b61083e8133610a7b565b50565b60008281526020818152604080832073ffffffffffffffffffffffffffffffffffffffff8516845290915281205460ff166109355760008381526020818152604080832073ffffffffffffffffffffffffffffffffffffffff86168452909152902080547fffffffffffffffffffffffffffffffffffffffffffffffffffffffffffffff001660011790556108d33390565b73ffffffffffffffffffffffffffffffffffffffff168273ffffffffffffffffffffffffffffffffffffffff16847f2f8788117e7eff1d82e926ec794901d17c78024a50270940304540a733656f0d60405160405180910390a45060016103ac565b5060006103ac565b60008281526020818152604080832073ffffffffffffffffffffffffffffffffffffffff8516845290915281205460ff16156109355760008381526020818152604080832073ffffffffffffffffffffffffffffffffffffffff8616808552925280832080547fffffffffffffffffffffffffffffffffffffffffffffffffffffffffffffff0016905551339286917ff6391f5c32d9c69d2a47ea670b442974b53935d1edc7fd64eb21e047a839171b9190a45060016103ac565b60606000808473ffffffffffffffffffffffffffffffffffffffff1684604051610a229190611001565b600060405180830381855af49150503d8060008114610a5d576040519150601f19603f3d011682016040523d82523d6000602084013e610a62565b606091505b5091509150610a72858383610b0a565b95945050505050565b60008281526020818152604080832073ffffffffffffffffffffffffffffffffffffffff8516845290915290205460ff16610b06576040517fe2517d3f00000000000000000000000000000000000000000000000000000000815273ffffffffffffffffffffffffffffffffffffffff82166004820152602481018390526044015b60405180910390fd5b5050565b606082610b1f57610b1a82610b9c565b610b95565b8151158015610b43575073ffffffffffffffffffffffffffffffffffffffff84163b155b15610b92576040517f9996b31500000000000000000000000000000000000000000000000000000000815273ffffffffffffffffffffffffffffffffffffffff85166004820152602401610afd565b50805b9392505050565b805115610bac5780518082602001fd5b6040517f1425ea4200000000000000000000000000000000000000000000000000000000815260040160405180910390fd5b600060208284031215610bf057600080fd5b81357fffffffff0000000000000000000000000000000000000000000000000000000081168114610b9557600080fd5b60008060408385031215610c3357600080fd5b50508035926020909101359150565b600060208284031215610c5457600080fd5b5035919050565b803573ffffffffffffffffffffffffffffffffffffffff81168114610c7f57600080fd5b919050565b60008060408385031215610c9757600080fd5b82359150610ca760208401610c5b565b90509250929050565b60008060208385031215610cc357600080fd5b823567ffffffffffffffff811115610cda57600080fd5b8301601f81018513610ceb57600080fd5b803567ffffffffffffffff811115610d0257600080fd5b8560208260051b8401011115610d1757600080fd5b6020919091019590945092505050565b60005b83811015610d42578181015183820152602001610d2a565b50506000910152565b60008151808452610d63816020860160208601610d27565b601f017fffffffffffffffffffffffffffffffffffffffffffffffffffffffffffffffe0169290920160200192915050565b6000602082016020835280845180835260408501915060408160051b86010192506020860160005b82811015610e0c577fffffffffffffffffffffffffffffffffffffffffffffffffffffffffffffffc0878603018452610df7858351610d4b565b94506020938401939190910190600101610dbd565b50929695505050505050565b600060208284031215610e2a57600080fd5b610b9582610c5b565b7f4e487b7100000000000000000000000000000000000000000000000000000000600052604160045260246000fd5b7f4e487b7100000000000000000000000000000000000000000000000000000000600052603260045260246000fd5b60008083357fffffffffffffffffffffffffffffffffffffffffffffffffffffffffffffffe1843603018112610ec657600080fd5b83018035915067ffffffffffffffff821115610ee157600080fd5b602001915036819003821315610ef657600080fd5b9250929050565b828482376000838201600081528351610f1a818360208801610d27565b0195945050505050565b82815260406020820152600061076b6040830184610d4b565b60006040828403128015610f5057600080fd5b600090506040516040810181811067ffffffffffffffff82111715610f9c577f4e487b710000000000000000000000000000000000000000000000000000000083526041600452602483fd5b604052835160038110610fad578283fd5b8152602084015163ffffffff81168114610fc5578283fd5b6020820152949350505050565b7f4e487b7100000000000000000000000000000000000000000000000000000000600052602160045260246000fd5b60008251611013818460208701610d27565b919091019291505056fea264697066735822122050cfacae6e46e097ff1d83d60e659a0ee28e8ade2407788c24a7bc33c24bab5164736f6c634300081a0033",
  "linkReferences": {},
  "deployedLinkReferences": {}
}