{
  "_format": "hh-sol-artifact-1",
  "contractName": "FarcasterResolverInterop",
  "sourceName": "contracts/interop/FarcasterResolverInterop.sol",
  "abi": [
    {
      "inputs": [
        {
          "internalType": "address",
          "name": "_sourceResolverAddr",
          "type": "address"
        },
        {
          "internalType": "uint256",
          "name": "_sourceChainId",
          "type": "uint256"
        }
      ],
      "stateMutability": "nonpayable",
      "type": "constructor"
    },
    {
      "inputs": [
        {
          "internalType": "address",
          "name": "target",
          "type": "address"
        }
      ],
      "name": "AddressEmptyCode",
      "type": "error"
    },
    {
      "inputs": [],
      "name": "CallerNotL2ToL2CrossDomainMessenger",
      "type": "error"
    },
    {
      "inputs": [],
      "name": "FailedInnerCall",
      "type": "error"
    },
    {
      "inputs": [],
      "name": "InvalidCrossDomainSender",
      "type": "error"
    },
    {
      "inputs": [],
      "name": "InvalidDestination",
      "type": "error"
    },
    {
      "inputs": [],
      "name": "NotAllowedOnSourceChain",
      "type": "error"
    },
    {
      "inputs": [],
      "name": "NotSourceChain",
      "type": "error"
    },
    {
      "inputs": [],
      "name": "SmartContractWalletNotAllowed",
      "type": "error"
    },
    {
      "anonymous": false,
      "inputs": [
        {
          "indexed": true,
          "internalType": "uint256",
          "name": "toChainId",
          "type": "uint256"
        },
        {
          "indexed": true,
          "internalType": "address",
          "name": "recipient",
          "type": "address"
        },
        {
          "indexed": true,
          "internalType": "uint256",
          "name": "fid",
          "type": "uint256"
        },
        {
          "indexed": false,
          "internalType": "bytes32",
          "name": "uid",
          "type": "bytes32"
        },
        {
          "indexed": false,
          "internalType": "bool",
          "name": "isVerified",
          "type": "bool"
        }
      ],
      "name": "CrossChainSyncInitiated",
      "type": "event"
    },
    {
      "anonymous": false,
      "inputs": [
        {
          "indexed": true,
          "internalType": "address",
          "name": "wallet",
          "type": "address"
        },
        {
          "indexed": true,
          "internalType": "uint256",
          "name": "chainId",
          "type": "uint256"
        }
      ],
      "name": "InteropEnabled",
      "type": "event"
    },
    {
      "anonymous": false,
      "inputs": [
        {
          "indexed": true,
          "internalType": "uint256",
          "name": "fid",
          "type": "uint256"
        },
        {
          "indexed": true,
          "internalType": "address",
          "name": "verifyAddress",
          "type": "address"
        },
        {
          "indexed": true,
          "internalType": "uint256",
          "name": "verificationMethod",
          "type": "uint256"
        },
        {
          "indexed": false,
          "internalType": "bytes32",
          "name": "publicKey",
          "type": "bytes32"
        },
        {
          "indexed": false,
          "internalType": "bytes",
          "name": "signature",
          "type": "bytes"
        }
      ],
      "name": "VerificationAttested",
      "type": "event"
    },
    {
      "anonymous": false,
      "inputs": [
        {
          "indexed": true,
          "internalType": "uint256",
          "name": "fid",
          "type": "uint256"
        },
        {
          "indexed": true,
          "internalType": "address",
          "name": "verifyAddress",
          "type": "address"
        },
        {
          "indexed": true,
          "internalType": "uint256",
          "name": "verificationMethod",
          "type": "uint256"
        },
        {
          "indexed": false,
          "internalType": "bytes32",
          "name": "publicKey",
          "type": "bytes32"
        },
        {
          "indexed": false,
          "internalType": "bytes",
          "name": "signature",
          "type": "bytes"
        }
      ],
      "name": "VerificationRevoked",
      "type": "event"
    },
    {
      "inputs": [
        {
          "internalType": "uint256",
          "name": "_fid",
          "type": "uint256"
        },
        {
          "internalType": "address",
          "name": "_verifyAddr",
          "type": "address"
        }
      ],
      "name": "computeKey",
      "outputs": [
        {
          "internalType": "bytes32",
          "name": "",
          "type": "bytes32"
        }
      ],
      "stateMutability": "pure",
      "type": "function"
    },
    {
      "inputs": [
        {
          "internalType": "uint256",
          "name": "_toChainId",
          "type": "uint256"
        },
        {
          "internalType": "address",
          "name": "_recipient",
          "type": "address"
        },
        {
          "internalType": "uint256",
          "name": "_fid",
          "type": "uint256"
        }
      ],
      "name": "crossChainSync",
      "outputs": [],
      "stateMutability": "nonpayable",
      "type": "function"
    },
    {
      "inputs": [
        {
          "internalType": "uint256",
          "name": "chainId",
          "type": "uint256"
        }
      ],
      "name": "enableInterop",
      "outputs": [],
      "stateMutability": "nonpayable",
      "type": "function"
    },
    {
      "inputs": [
        {
          "internalType": "uint256",
          "name": "fid",
          "type": "uint256"
        }
      ],
      "name": "fidAttestationsLength",
      "outputs": [
        {
          "internalType": "uint256",
          "name": "",
          "type": "uint256"
        }
      ],
      "stateMutability": "view",
      "type": "function"
    },
    {
      "inputs": [
        {
          "internalType": "uint256",
          "name": "fid",
          "type": "uint256"
        },
        {
          "internalType": "address",
          "name": "wallet",
          "type": "address"
        }
      ],
      "name": "getAttestationUid",
      "outputs": [
        {
          "internalType": "bytes32",
          "name": "",
          "type": "bytes32"
        }
      ],
      "stateMutability": "view",
      "type": "function"
    },
    {
      "inputs": [
        {
          "internalType": "uint256",
          "name": "fid",
          "type": "uint256"
        }
      ],
      "name": "getFidAttestations",
      "outputs": [
        {
          "internalType": "address[]",
          "name": "wallets",
          "type": "address[]"
        },
        {
          "internalType": "bytes32[]",
          "name": "uids",
          "type": "bytes32[]"
        }
      ],
      "stateMutability": "view",
      "type": "function"
    },
    {
      "inputs": [
        {
          "internalType": "uint256",
          "name": "fid",
          "type": "uint256"
        },
        {
          "internalType": "uint256",
          "name": "start",
          "type": "uint256"
        },
        {
          "internalType": "uint256",
          "name": "len",
          "type": "uint256"
        }
      ],
      "name": "getFidAttestations",
      "outputs": [
        {
          "internalType": "address[]",
          "name": "wallets",
          "type": "address[]"
        },
        {
          "internalType": "bytes32[]",
          "name": "uids",
          "type": "bytes32[]"
        }
      ],
      "stateMutability": "view",
      "type": "function"
    },
    {
      "inputs": [
        {
          "internalType": "address",
          "name": "wallet",
          "type": "address"
        }
      ],
      "name": "getWalletAttestations",
      "outputs": [
        {
          "internalType": "uint256[]",
          "name": "fids",
          "type": "uint256[]"
        },
        {
          "internalType": "bytes32[]",
          "name": "uids",
          "type": "bytes32[]"
        }
      ],
      "stateMutability": "view",
      "type": "function"
    },
    {
      "inputs": [
        {
          "internalType": "address",
          "name": "wallet",
          "type": "address"
        },
        {
          "internalType": "uint256",
          "name": "start",
          "type": "uint256"
        },
        {
          "internalType": "uint256",
          "name": "len",
          "type": "uint256"
        }
      ],
      "name": "getWalletAttestations",
      "outputs": [
        {
          "internalType": "uint256[]",
          "name": "fids",
          "type": "uint256[]"
        },
        {
          "internalType": "bytes32[]",
          "name": "uids",
          "type": "bytes32[]"
        }
      ],
      "stateMutability": "view",
      "type": "function"
    },
    {
      "inputs": [],
      "name": "isSourceChain",
      "outputs": [
        {
          "internalType": "bool",
          "name": "",
          "type": "bool"
        }
      ],
      "stateMutability": "view",
      "type": "function"
    },
    {
      "inputs": [
        {
          "internalType": "uint256",
          "name": "fid",
          "type": "uint256"
        },
        {
          "internalType": "address",
          "name": "wallet",
          "type": "address"
        }
      ],
      "name": "isVerified",
      "outputs": [
        {
          "internalType": "bool",
          "name": "",
          "type": "bool"
        }
      ],
      "stateMutability": "view",
      "type": "function"
    },
    {
      "inputs": [
        {
          "internalType": "bytes[]",
          "name": "data",
          "type": "bytes[]"
        }
      ],
      "name": "multicall",
      "outputs": [
        {
          "internalType": "bytes[]",
          "name": "results",
          "type": "bytes[]"
        }
      ],
      "stateMutability": "nonpayable",
      "type": "function"
    },
    {
      "inputs": [
        {
          "internalType": "address",
          "name": "_recipient",
          "type": "address"
        },
        {
          "internalType": "uint256",
          "name": "_fid",
          "type": "uint256"
        },
        {
          "internalType": "bytes32",
          "name": "_uid",
          "type": "bytes32"
        }
      ],
      "name": "receiveSync",
      "outputs": [],
      "stateMutability": "nonpayable",
      "type": "function"
    },
    {
      "inputs": [],
      "name": "sourceResolver",
      "outputs": [
        {
          "internalType": "contract IFarcasterResolver",
          "name": "",
          "type": "address"
        }
      ],
      "stateMutability": "view",
      "type": "function"
    },
    {
      "inputs": [
        {
          "internalType": "address",
          "name": "wallet",
          "type": "address"
        }
      ],
      "name": "walletAttestationsLength",
      "outputs": [
        {
          "internalType": "uint256",
          "name": "",
          "type": "uint256"
        }
      ],
      "stateMutability": "view",
      "type": "function"
    }
  ],
  "bytecode": "0x60c0604052600480546001600160a01b03191673420000000000000000000000000000000000002317905534801561003657600080fd5b50604051611f5f380380611f5f8339810160408190526100559161006b565b46146080526001600160a01b031660a0526100a5565b6000806040838503121561007e57600080fd5b82516001600160a01b038116811461009557600080fd5b6020939093015192949293505050565b60805160a051611e3a610125600039600081816101ef015281816104240152818161076b015281816109df01528181610ae201528181610e8b015261108d01526000818161026e015281816102b80152818161070a0152818161096f01528181610a7901528181610d9801528181610e14015261103a0152611e3a6000f3fe608060405234801561001057600080fd5b50600436106100f55760003560e01c80635cc9f35311610097578063b36d960011610066578063b36d960014610256578063e3c374b814610269578063e6c2e9d514610290578063f3013da5146102a357600080fd5b80635cc9f353146101c4578063694d16ba146101d757806386918455146101ea578063ac9650d81461023657600080fd5b80633a25e696116100d35780633a25e6961461014c5780633a8d9d2a1461016d57806353d57b321461018e5780635659c838146101a157600080fd5b80630ab04e09146100fa5780632253a5021461010f57806334c2766c14610122575b600080fd5b61010d61010836600461168a565b6102b6565b005b61010d61011d3660046116c2565b610608565b6101356101303660046116c2565b610676565b604051610143929190611717565b60405180910390f35b61015f61015a366004611785565b610691565b604051908152602001610143565b61018061017b3660046117b5565b6106f3565b6040516101439291906117d2565b61013561019c36600461180c565b610705565b6101b46101af366004611785565b610955565b6040519015158152602001610143565b61015f6101d2366004611785565b61096b565b61015f6101e53660046117b5565b610a75565b6102117f000000000000000000000000000000000000000000000000000000000000000081565b60405173ffffffffffffffffffffffffffffffffffffffff9091168152602001610143565b610249610244366004611838565b610b7c565b604051610143919061191d565b61010d6102643660046119a0565b610c64565b6101b47f000000000000000000000000000000000000000000000000000000000000000081565b61018061029e3660046119a0565b610e0f565b61015f6102b13660046116c2565b611036565b7f000000000000000000000000000000000000000000000000000000000000000061030d576040517fde0fbf7900000000000000000000000000000000000000000000000000000000815260040160405180910390fd5b468303610346576040517fac6b05f500000000000000000000000000000000000000000000000000000000815260040160405180910390fd5b60008273ffffffffffffffffffffffffffffffffffffffff163b11801561039e575073ffffffffffffffffffffffffffffffffffffffff8216600090815260036020908152604080832086845290915290205460ff16155b156103d5576040517fdb560bfd00000000000000000000000000000000000000000000000000000000815260040160405180910390fd5b6040517f5cc9f3530000000000000000000000000000000000000000000000000000000081526004810182905273ffffffffffffffffffffffffffffffffffffffff83811660248301526000917f000000000000000000000000000000000000000000000000000000000000000090911690635cc9f35390604401602060405180830381865afa15801561046d573d6000803e3d6000fd5b505050506040513d601f19601f8201168201806040525081019061049191906119d5565b6040805173ffffffffffffffffffffffffffffffffffffffff868116602483015260448201869052606480830185905283518084039091018152608490920183526020820180517bffffffffffffffffffffffffffffffffffffffffffffffffffffffff167fb36d9600000000000000000000000000000000000000000000000000000000001790526004805493517f7056f41f00000000000000000000000000000000000000000000000000000000815294955085151594929390911691637056f41f91610566918a9130918791016119ee565b6020604051808303816000875af1158015610585573d6000803e3d6000fd5b505050506040513d601f19601f820116820180604052508101906105a991906119d5565b50604080518481528315156020820152859173ffffffffffffffffffffffffffffffffffffffff88169189917fa0cd31a4ba974909f3957f1cd4c08602f77fd53d3971c588ede0ad631cd26b19910160405180910390a4505050505050565b33600081815260036020908152604080832085845290915280822080547fffffffffffffffffffffffffffffffffffffffffffffffffffffffffffffff00166001179055518392917f8c7fa98a6b489a866a0931ea3e6e167d028d73831932133a88e6ca9104f1afd191a350565b60608061068883600061019c86611036565b91509150915091565b600082826040516020016106d492919091825260601b7fffffffffffffffffffffffffffffffffffffffff00000000000000000000000016602082015260340190565b6040516020818303038152906040528051906020012090505b92915050565b60608061068883600061029e86610a75565b6060807f000000000000000000000000000000000000000000000000000000000000000015610816576040517f53d57b320000000000000000000000000000000000000000000000000000000081526004810186905260248101859052604481018490527f000000000000000000000000000000000000000000000000000000000000000073ffffffffffffffffffffffffffffffffffffffff16906353d57b3290606401600060405180830381865afa1580156107c7573d6000803e3d6000fd5b505050506040513d6000823e601f3d9081017fffffffffffffffffffffffffffffffffffffffffffffffffffffffffffffffe016820160405261080d9190810190611b32565b9150915061094d565b8267ffffffffffffffff81111561082f5761082f611a23565b604051908082528060200260200182016040528015610858578160200160208202803683370190505b5091508267ffffffffffffffff81111561087457610874611a23565b60405190808252806020026020018201604052801561089d578160200160208202803683370190505b50905060005b8381101561094b576000806108cf6108bb8489611c2e565b60008a8152600160205260409020906110e8565b91509150808584815181106108e6576108e6611c41565b602002602001019073ffffffffffffffffffffffffffffffffffffffff16908173ffffffffffffffffffffffffffffffffffffffff16815250508160001b84848151811061093657610936611c41565b602090810291909101015250506001016108a3565b505b935093915050565b600080610962848461096b565b14159392505050565b60007f000000000000000000000000000000000000000000000000000000000000000015610a51576040517f5cc9f3530000000000000000000000000000000000000000000000000000000081526004810184905273ffffffffffffffffffffffffffffffffffffffff83811660248301527f00000000000000000000000000000000000000000000000000000000000000001690635cc9f35390604401602060405180830381865afa158015610a26573d6000803e3d6000fd5b505050506040513d601f19601f82011682018060405250810190610a4a91906119d5565b90506106ed565b6000610a5d8484610691565b60009081526002602052604090205491506106ed9050565b60007f000000000000000000000000000000000000000000000000000000000000000015610b4e576040517f694d16ba00000000000000000000000000000000000000000000000000000000815273ffffffffffffffffffffffffffffffffffffffff83811660048301527f0000000000000000000000000000000000000000000000000000000000000000169063694d16ba906024015b602060405180830381865afa158015610b2a573d6000803e3d6000fd5b505050506040513d601f19601f820116820180604052508101906106ed91906119d5565b73ffffffffffffffffffffffffffffffffffffffff821660009081526020819052604090206106ed90611106565b6040805160008152602081019091526060908267ffffffffffffffff811115610ba757610ba7611a23565b604051908082528060200260200182016040528015610bda57816020015b6060815260200190600190039081610bc55790505b50915060005b83811015610c5c57610c3730868684818110610bfe57610bfe611c41565b9050602002810190610c109190611c83565b85604051602001610c2393929190611ce8565b604051602081830303815290604052611111565b838281518110610c4957610c49611c41565b6020908102919091010152600101610be0565b505092915050565b60045473ffffffffffffffffffffffffffffffffffffffff163314610cb5576040517f065d515000000000000000000000000000000000000000000000000000000000815260040160405180910390fd5b60048054604080517f38ffde180000000000000000000000000000000000000000000000000000000081529051309373ffffffffffffffffffffffffffffffffffffffff909316926338ffde18928082019260209290918290030181865afa158015610d25573d6000803e3d6000fd5b505050506040513d601f19601f82011682018060405250810190610d499190611d0f565b73ffffffffffffffffffffffffffffffffffffffff1614610d96576040517fbc22e2aa00000000000000000000000000000000000000000000000000000000815260040160405180910390fd5b7f000000000000000000000000000000000000000000000000000000000000000015610dee576040517f335dd03400000000000000000000000000000000000000000000000000000000815260040160405180910390fd5b8015610e0557610dff838383611194565b50505050565b610dff838361126c565b6060807f000000000000000000000000000000000000000000000000000000000000000015610f18576040517fe6c2e9d500000000000000000000000000000000000000000000000000000000815273ffffffffffffffffffffffffffffffffffffffff868116600483015260248201869052604482018590527f0000000000000000000000000000000000000000000000000000000000000000169063e6c2e9d590606401600060405180830381865afa158015610ed2573d6000803e3d6000fd5b505050506040513d6000823e601f3d9081017fffffffffffffffffffffffffffffffffffffffffffffffffffffffffffffffe016820160405261080d9190810190611d2c565b8267ffffffffffffffff811115610f3157610f31611a23565b604051908082528060200260200182016040528015610f5a578160200160208202803683370190505b5091508267ffffffffffffffff811115610f7657610f76611a23565b604051908082528060200260200182016040528015610f9f578160200160208202803683370190505b50905060005b8381101561094b57600080610fe8610fbd8489611c2e565b73ffffffffffffffffffffffffffffffffffffffff8a166000908152602081905260409020906110e8565b9150915080858481518110610fff57610fff611c41565b6020026020010181815250508160001b84848151811061102157611021611c41565b60209081029190910101525050600101610fa5565b60007f0000000000000000000000000000000000000000000000000000000000000000156110d1576040517ff3013da5000000000000000000000000000000000000000000000000000000008152600481018390527f000000000000000000000000000000000000000000000000000000000000000073ffffffffffffffffffffffffffffffffffffffff169063f3013da590602401610b0d565b60008281526001602052604090206106ed90611106565b60008080806110f78686611342565b909450925050505b9250929050565b60006106ed8261136d565b60606000808473ffffffffffffffffffffffffffffffffffffffff168460405161113b9190611db9565b600060405180830381855af49150503d8060008114611176576040519150601f19603f3d011682016040523d82523d6000602084013e61117b565b606091505b509150915061118b858383611378565b95945050505050565b6000806111a18486610691565b73ffffffffffffffffffffffffffffffffffffffff861660009081526020819052604090209091506111d490828661140b565b5060008481526001602052604090206111ee908287611420565b506000818152600260205260408082208590555173ffffffffffffffffffffffffffffffffffffffff87169086907f6f244791d595e87020e634f8122c61378ed25a90143fb6fecfcd87aff2e6f37f9061125a9085815260406020820181905260009082015260600190565b60405180910390a490505b9392505050565b6000806112798385610691565b73ffffffffffffffffffffffffffffffffffffffff851660009081526020819052604090209091506112ab9082611443565b5060008381526001602052604090206112c49082611443565b506000818152600260205260408082208290555173ffffffffffffffffffffffffffffffffffffffff86169085907f33f8ee7dc5fee7659e90eca057cdb88584252dc59b95a120410077318121213d906113309085815260406020820181905260009082015260600190565b60405180910390a45060019392505050565b60008080611350858561144f565b600081815260029690960160205260409095205494959350505050565b60006106ed8261145b565b60608261138d5761138882611465565b611265565b81511580156113b1575073ffffffffffffffffffffffffffffffffffffffff84163b155b15611404576040517f9996b31500000000000000000000000000000000000000000000000000000000815273ffffffffffffffffffffffffffffffffffffffff8516600482015260240160405180910390fd5b5080611265565b60006114188484846114aa565b949350505050565b6000611418848473ffffffffffffffffffffffffffffffffffffffff85166114aa565b600061126583836114c7565b600061126583836114e4565b60006106ed825490565b8051156114755780518082602001fd5b6040517f1425ea4200000000000000000000000000000000000000000000000000000000815260040160405180910390fd5b50565b60008281526002840160205260408120829055611418848461150e565b60008181526002830160205260408120819055611265838361151a565b60008260000182815481106114fb576114fb611c41565b9060005260206000200154905092915050565b60006112658383611526565b60006112658383611575565b600081815260018301602052604081205461156d575081546001818101845560008481526020808220909301849055845484825282860190935260409020919091556106ed565b5060006106ed565b6000818152600183016020526040812054801561165e576000611599600183611c70565b85549091506000906115ad90600190611c70565b90508082146116125760008660000182815481106115cd576115cd611c41565b90600052602060002001549050808760000184815481106115f0576115f0611c41565b6000918252602080832090910192909255918252600188019052604090208390555b855486908061162357611623611dd5565b6001900381819060005260206000200160009055905585600101600086815260200190815260200160002060009055600193505050506106ed565b60009150506106ed565b73ffffffffffffffffffffffffffffffffffffffff811681146114a757600080fd5b60008060006060848603121561169f57600080fd5b8335925060208401356116b181611668565b929592945050506040919091013590565b6000602082840312156116d457600080fd5b5035919050565b600081518084526020840193506020830160005b8281101561170d5781518652602095860195909101906001016116ef565b5093949350505050565b6040808252835190820181905260009060208501906060840190835b8181101561176757835173ffffffffffffffffffffffffffffffffffffffff16835260209384019390920191600101611733565b5050838103602085015261177b81866116db565b9695505050505050565b6000806040838503121561179857600080fd5b8235915060208301356117aa81611668565b809150509250929050565b6000602082840312156117c757600080fd5b813561126581611668565b6040808252835190820181905260009060208501906060840190835b818110156117675783518352602093840193909201916001016117ee565b60008060006060848603121561182157600080fd5b505081359360208301359350604090920135919050565b6000806020838503121561184b57600080fd5b823567ffffffffffffffff81111561186257600080fd5b8301601f8101851361187357600080fd5b803567ffffffffffffffff81111561188a57600080fd5b8560208260051b840101111561189f57600080fd5b6020919091019590945092505050565b60005b838110156118ca5781810151838201526020016118b2565b50506000910152565b600081518084526118eb8160208601602086016118af565b601f017fffffffffffffffffffffffffffffffffffffffffffffffffffffffffffffffe0169290920160200192915050565b6000602082016020835280845180835260408501915060408160051b86010192506020860160005b82811015611994577fffffffffffffffffffffffffffffffffffffffffffffffffffffffffffffffc087860301845261197f8583516118d3565b94506020938401939190910190600101611945565b50929695505050505050565b6000806000606084860312156119b557600080fd5b83356119c081611668565b95602085013595506040909401359392505050565b6000602082840312156119e757600080fd5b5051919050565b83815273ffffffffffffffffffffffffffffffffffffffff8316602082015260606040820152600061118b60608301846118d3565b7f4e487b7100000000000000000000000000000000000000000000000000000000600052604160045260246000fd5b604051601f82017fffffffffffffffffffffffffffffffffffffffffffffffffffffffffffffffe016810167ffffffffffffffff81118282101715611a9957611a99611a23565b604052919050565b600067ffffffffffffffff821115611abb57611abb611a23565b5060051b60200190565b600082601f830112611ad657600080fd5b8151611ae9611ae482611aa1565b611a52565b8082825260208201915060208360051b860101925085831115611b0b57600080fd5b602085015b83811015611b28578051835260209283019201611b10565b5095945050505050565b60008060408385031215611b4557600080fd5b825167ffffffffffffffff811115611b5c57600080fd5b8301601f81018513611b6d57600080fd5b8051611b7b611ae482611aa1565b8082825260208201915060208360051b850101925087831115611b9d57600080fd5b6020840193505b82841015611bc8578351611bb781611668565b825260209384019390910190611ba4565b80955050505050602083015167ffffffffffffffff811115611be957600080fd5b611bf585828601611ac5565b9150509250929050565b7f4e487b7100000000000000000000000000000000000000000000000000000000600052601160045260246000fd5b808201808211156106ed576106ed611bff565b7f4e487b7100000000000000000000000000000000000000000000000000000000600052603260045260246000fd5b818103818111156106ed576106ed611bff565b60008083357fffffffffffffffffffffffffffffffffffffffffffffffffffffffffffffffe1843603018112611cb857600080fd5b83018035915067ffffffffffffffff821115611cd357600080fd5b6020019150368190038213156110ff57600080fd5b828482376000838201600081528351611d058183602088016118af565b0195945050505050565b600060208284031215611d2157600080fd5b815161126581611668565b60008060408385031215611d3f57600080fd5b825167ffffffffffffffff811115611d5657600080fd5b8301601f81018513611d6757600080fd5b8051611d75611ae482611aa1565b8082825260208201915060208360051b850101925087831115611d9757600080fd5b6020840193505b82841015611bc8578351825260209384019390910190611d9e565b60008251611dcb8184602087016118af565b9190910192915050565b7f4e487b7100000000000000000000000000000000000000000000000000000000600052603160045260246000fdfea264697066735822122019d7b6a71b0896ccce185735a70a1b756a502e773505b0cda01cfacdea82cc2364736f6c634300081a0033",
  "linkReferences": {},
  "deployedLinkReferences": {}
}