{
  "_format": "hh-sol-artifact-1",
  "contractName": "FarcasterMembership",
  "sourceName": "contracts/FarcasterMembership.sol",
  "abi": [
    {
      "inputs": [
        {
          "internalType": "contract IEAS",
          "name": "eas",
          "type": "address"
        },
        {
          "internalType": "contract IFarcasterVerification",
          "name": "_verifier",
          "type": "address"
        }
      ],
      "stateMutability": "nonpayable",
      "type": "constructor"
    },
    {
      "inputs": [],
      "name": "AccessDenied",
      "type": "error"
    },
    {
      "inputs": [
        {
          "internalType": "address",
          "name": "target",
          "type": "address"
        }
      ],
      "name": "AddressEmptyCode",
      "type": "error"
    },
    {
      "inputs": [
        {
          "internalType": "bytes32",
          "name": "uid",
          "type": "bytes32"
        }
      ],
      "name": "AttestationRevoked",
      "type": "error"
    },
    {
      "inputs": [
        {
          "internalType": "bytes32",
          "name": "key",
          "type": "bytes32"
        }
      ],
      "name": "EnumerableMapNonexistentKey",
      "type": "error"
    },
    {
      "inputs": [],
      "name": "FailedInnerCall",
      "type": "error"
    },
    {
      "inputs": [],
      "name": "InsufficientValue",
      "type": "error"
    },
    {
      "inputs": [],
      "name": "InvalidEAS",
      "type": "error"
    },
    {
      "inputs": [],
      "name": "InvalidLength",
      "type": "error"
    },
    {
      "inputs": [
        {
          "internalType": "bytes32",
          "name": "uid",
          "type": "bytes32"
        }
      ],
      "name": "MissingFarcasterResolverConsumer",
      "type": "error"
    },
    {
      "inputs": [
        {
          "internalType": "bytes32",
          "name": "uid",
          "type": "bytes32"
        }
      ],
      "name": "NoPrimaryFid",
      "type": "error"
    },
    {
      "inputs": [],
      "name": "NotPayable",
      "type": "error"
    },
    {
      "inputs": [],
      "name": "PermissionDenied",
      "type": "error"
    },
    {
      "anonymous": false,
      "inputs": [
        {
          "indexed": true,
          "internalType": "bytes32",
          "name": "attUid",
          "type": "bytes32"
        },
        {
          "indexed": true,
          "internalType": "uint256",
          "name": "adminFid",
          "type": "uint256"
        },
        {
          "indexed": true,
          "internalType": "uint256",
          "name": "memberFid",
          "type": "uint256"
        }
      ],
      "name": "RemoveMember",
      "type": "event"
    },
    {
      "anonymous": false,
      "inputs": [
        {
          "indexed": true,
          "internalType": "bytes32",
          "name": "attUid",
          "type": "bytes32"
        },
        {
          "indexed": true,
          "internalType": "uint256",
          "name": "adminFid",
          "type": "uint256"
        },
        {
          "indexed": true,
          "internalType": "uint256",
          "name": "memberFid",
          "type": "uint256"
        },
        {
          "indexed": false,
          "internalType": "uint256",
          "name": "permissions",
          "type": "uint256"
        }
      ],
      "name": "SetMember",
      "type": "event"
    },
    {
      "inputs": [
        {
          "components": [
            {
              "internalType": "bytes32",
              "name": "uid",
              "type": "bytes32"
            },
            {
              "internalType": "bytes32",
              "name": "schema",
              "type": "bytes32"
            },
            {
              "internalType": "uint64",
              "name": "time",
              "type": "uint64"
            },
            {
              "internalType": "uint64",
              "name": "expirationTime",
              "type": "uint64"
            },
            {
              "internalType": "uint64",
              "name": "revocationTime",
              "type": "uint64"
            },
            {
              "internalType": "bytes32",
              "name": "refUID",
              "type": "bytes32"
            },
            {
              "internalType": "address",
              "name": "recipient",
              "type": "address"
            },
            {
              "internalType": "address",
              "name": "attester",
              "type": "address"
            },
            {
              "internalType": "bool",
              "name": "revocable",
              "type": "bool"
            },
            {
              "internalType": "bytes",
              "name": "data",
              "type": "bytes"
            }
          ],
          "internalType": "struct Attestation",
          "name": "attestation",
          "type": "tuple"
        }
      ],
      "name": "attest",
      "outputs": [
        {
          "internalType": "bool",
          "name": "",
          "type": "bool"
        }
      ],
      "stateMutability": "payable",
      "type": "function"
    },
    {
      "inputs": [
        {
          "internalType": "bytes32",
          "name": "",
          "type": "bytes32"
        },
        {
          "internalType": "uint256",
          "name": "",
          "type": "uint256"
        }
      ],
      "name": "attestations",
      "outputs": [
        {
          "internalType": "bytes32",
          "name": "",
          "type": "bytes32"
        }
      ],
      "stateMutability": "view",
      "type": "function"
    },
    {
      "inputs": [
        {
          "internalType": "bytes32",
          "name": "attUid",
          "type": "bytes32"
        }
      ],
      "name": "countMembers",
      "outputs": [
        {
          "internalType": "uint256",
          "name": "",
          "type": "uint256"
        }
      ],
      "stateMutability": "view",
      "type": "function"
    },
    {
      "inputs": [
        {
          "internalType": "bytes32",
          "name": "attUid",
          "type": "bytes32"
        },
        {
          "internalType": "uint256",
          "name": "farcasterId",
          "type": "uint256"
        }
      ],
      "name": "getMember",
      "outputs": [
        {
          "internalType": "bool",
          "name": "joined",
          "type": "bool"
        },
        {
          "internalType": "uint256",
          "name": "permissions",
          "type": "uint256"
        }
      ],
      "stateMutability": "view",
      "type": "function"
    },
    {
      "inputs": [
        {
          "internalType": "bytes32",
          "name": "attUid",
          "type": "bytes32"
        }
      ],
      "name": "getMembers",
      "outputs": [
        {
          "components": [
            {
              "internalType": "uint256",
              "name": "farcasterId",
              "type": "uint256"
            },
            {
              "internalType": "uint256",
              "name": "permissions",
              "type": "uint256"
            }
          ],
          "internalType": "struct IFarcasterMembership.Membership[]",
          "name": "_members",
          "type": "tuple[]"
        }
      ],
      "stateMutability": "view",
      "type": "function"
    },
    {
      "inputs": [],
      "name": "isPayable",
      "outputs": [
        {
          "internalType": "bool",
          "name": "",
          "type": "bool"
        }
      ],
      "stateMutability": "pure",
      "type": "function"
    },
    {
      "inputs": [
        {
          "components": [
            {
              "internalType": "bytes32",
              "name": "uid",
              "type": "bytes32"
            },
            {
              "internalType": "bytes32",
              "name": "schema",
              "type": "bytes32"
            },
            {
              "internalType": "uint64",
              "name": "time",
              "type": "uint64"
            },
            {
              "internalType": "uint64",
              "name": "expirationTime",
              "type": "uint64"
            },
            {
              "internalType": "uint64",
              "name": "revocationTime",
              "type": "uint64"
            },
            {
              "internalType": "bytes32",
              "name": "refUID",
              "type": "bytes32"
            },
            {
              "internalType": "address",
              "name": "recipient",
              "type": "address"
            },
            {
              "internalType": "address",
              "name": "attester",
              "type": "address"
            },
            {
              "internalType": "bool",
              "name": "revocable",
              "type": "bool"
            },
            {
              "internalType": "bytes",
              "name": "data",
              "type": "bytes"
            }
          ],
          "internalType": "struct Attestation[]",
          "name": "attestations",
          "type": "tuple[]"
        },
        {
          "internalType": "uint256[]",
          "name": "values",
          "type": "uint256[]"
        }
      ],
      "name": "multiAttest",
      "outputs": [
        {
          "internalType": "bool",
          "name": "",
          "type": "bool"
        }
      ],
      "stateMutability": "payable",
      "type": "function"
    },
    {
      "inputs": [
        {
          "components": [
            {
              "internalType": "bytes32",
              "name": "uid",
              "type": "bytes32"
            },
            {
              "internalType": "bytes32",
              "name": "schema",
              "type": "bytes32"
            },
            {
              "internalType": "uint64",
              "name": "time",
              "type": "uint64"
            },
            {
              "internalType": "uint64",
              "name": "expirationTime",
              "type": "uint64"
            },
            {
              "internalType": "uint64",
              "name": "revocationTime",
              "type": "uint64"
            },
            {
              "internalType": "bytes32",
              "name": "refUID",
              "type": "bytes32"
            },
            {
              "internalType": "address",
              "name": "recipient",
              "type": "address"
            },
            {
              "internalType": "address",
              "name": "attester",
              "type": "address"
            },
            {
              "internalType": "bool",
              "name": "revocable",
              "type": "bool"
            },
            {
              "internalType": "bytes",
              "name": "data",
              "type": "bytes"
            }
          ],
          "internalType": "struct Attestation[]",
          "name": "attestations",
          "type": "tuple[]"
        },
        {
          "internalType": "uint256[]",
          "name": "values",
          "type": "uint256[]"
        }
      ],
      "name": "multiRevoke",
      "outputs": [
        {
          "internalType": "bool",
          "name": "",
          "type": "bool"
        }
      ],
      "stateMutability": "payable",
      "type": "function"
    },
    {
      "inputs": [
        {
          "internalType": "bytes[]",
          "name": "data",
          "type": "bytes[]"
        }
      ],
      "name": "multicall",
      "outputs": [
        {
          "internalType": "bytes[]",
          "name": "results",
          "type": "bytes[]"
        }
      ],
      "stateMutability": "nonpayable",
      "type": "function"
    },
    {
      "inputs": [
        {
          "internalType": "bytes32",
          "name": "attUid",
          "type": "bytes32"
        },
        {
          "internalType": "uint256",
          "name": "adminFid",
          "type": "uint256"
        },
        {
          "internalType": "uint256",
          "name": "memberFid",
          "type": "uint256"
        }
      ],
      "name": "removeMember",
      "outputs": [],
      "stateMutability": "nonpayable",
      "type": "function"
    },
    {
      "inputs": [
        {
          "components": [
            {
              "internalType": "bytes32",
              "name": "uid",
              "type": "bytes32"
            },
            {
              "internalType": "bytes32",
              "name": "schema",
              "type": "bytes32"
            },
            {
              "internalType": "uint64",
              "name": "time",
              "type": "uint64"
            },
            {
              "internalType": "uint64",
              "name": "expirationTime",
              "type": "uint64"
            },
            {
              "internalType": "uint64",
              "name": "revocationTime",
              "type": "uint64"
            },
            {
              "internalType": "bytes32",
              "name": "refUID",
              "type": "bytes32"
            },
            {
              "internalType": "address",
              "name": "recipient",
              "type": "address"
            },
            {
              "internalType": "address",
              "name": "attester",
              "type": "address"
            },
            {
              "internalType": "bool",
              "name": "revocable",
              "type": "bool"
            },
            {
              "internalType": "bytes",
              "name": "data",
              "type": "bytes"
            }
          ],
          "internalType": "struct Attestation",
          "name": "attestation",
          "type": "tuple"
        }
      ],
      "name": "revoke",
      "outputs": [
        {
          "internalType": "bool",
          "name": "",
          "type": "bool"
        }
      ],
      "stateMutability": "payable",
      "type": "function"
    },
    {
      "inputs": [],
      "name": "schemaId",
      "outputs": [
        {
          "internalType": "bytes32",
          "name": "",
          "type": "bytes32"
        }
      ],
      "stateMutability": "view",
      "type": "function"
    },
    {
      "inputs": [
        {
          "internalType": "bytes32",
          "name": "attUid",
          "type": "bytes32"
        },
        {
          "internalType": "uint256",
          "name": "adminFid",
          "type": "uint256"
        },
        {
          "internalType": "uint256",
          "name": "memberFid",
          "type": "uint256"
        },
        {
          "internalType": "uint256",
          "name": "permissions",
          "type": "uint256"
        }
      ],
      "name": "setMember",
      "outputs": [],
      "stateMutability": "nonpayable",
      "type": "function"
    },
    {
      "inputs": [],
      "name": "verifier",
      "outputs": [
        {
          "internalType": "contract IFarcasterVerification",
          "name": "",
          "type": "address"
        }
      ],
      "stateMutability": "view",
      "type": "function"
    },
    {
      "inputs": [
        {
          "internalType": "bytes32",
          "name": "attUid",
          "type": "bytes32"
        },
        {
          "internalType": "uint256",
          "name": "fid",
          "type": "uint256"
        },
        {
          "internalType": "uint256",
          "name": "permissions",
          "type": "uint256"
        }
      ],
      "name": "verifyMember",
      "outputs": [
        {
          "internalType": "bool",
          "name": "",
          "type": "bool"
        }
      ],
      "stateMutability": "nonpayable",
      "type": "function"
    },
    {
      "inputs": [],
      "name": "version",
      "outputs": [
        {
          "internalType": "string",
          "name": "",
          "type": "string"
        }
      ],
      "stateMutability": "view",
      "type": "function"
    },
    {
      "stateMutability": "payable",
      "type": "receive"
    }
  ],
  "bytecode": "0x61012060405234801561001157600080fd5b50604051612b86380380612b86833981016040819052610030916101cf565b6001608052600360a052600060c052816001600160a01b038116610067576040516341bc07ff60e11b815260040160405180910390fd5b6001600160a01b0390811660e0528181166101005260408051631e216b9960e31b815290519184169163f10b5cc8916004808201926020929091908290030181865afa1580156100bb573d6000803e3d6000fd5b505050506040513d601f19601f820116820180604052508101906100df9190610209565b604051630c1af44f60e31b815260606004820152603660648201527f75696e743235362061646d696e4669642c75696e74323536206d656d6265724660848201527f69642c75696e74323536207065726d697373696f6e730000000000000000000060a4820152306024820152600160448201526001600160a01b0391909116906360d7a2789060c4016020604051808303816000875af1158015610188573d6000803e3d6000fd5b505050506040513d601f19601f820116820180604052508101906101ac919061022d565b600055506102469050565b6001600160a01b03811681146101cc57600080fd5b50565b600080604083850312156101e257600080fd5b82516101ed816101b7565b60208401519092506101fe816101b7565b809150509250929050565b60006020828403121561021b57600080fd5b8151610226816101b7565b9392505050565b60006020828403121561023f57600080fd5b5051919050565b60805160a05160c05160e051610100516128cb6102bb60003960008181610170015281816103b401526106c101526000818161090a01528181610f2a01528181610fd20152818161147e015281816116ad015261186c0152600061062a01526000610601015260006105d801526128cb6000f3fe6080604052600436106100f75760003560e01c806388e5b2d91161008a578063c19105fd11610059578063c19105fd14610321578063ce46e04614610358578063e49617e11461036c578063e60c35051461036c57600080fd5b806388e5b2d91461029657806391db0b7e146102a9578063a78c52bb146102bc578063ac9650d8146102f457600080fd5b80635a641fbe116100c65780635a641fbe146101f95780637b641fbc146102195780637ec24abb1461024657806386b569051461027657600080fd5b8063075b1a09146101355780632b7ac3f31461015e57806350f15d15146101b757806354fd4d50146101d757600080fd5b36610130576040517f1574f9f300000000000000000000000000000000000000000000000000000000815260040160405180910390fd5b005b600080fd5b34801561014157600080fd5b5061014b60005481565b6040519081526020015b60405180910390f35b34801561016a57600080fd5b506101927f000000000000000000000000000000000000000000000000000000000000000081565b60405173ffffffffffffffffffffffffffffffffffffffff9091168152602001610155565b3480156101c357600080fd5b5061012e6101d2366004611e18565b61037f565b3480156101e357600080fd5b506101ec6105d1565b6040516101559190611eb2565b34801561020557600080fd5b5061012e610214366004611ec5565b610674565b34801561022557600080fd5b50610239610234366004611ef7565b610aa1565b6040516101559190611f10565b34801561025257600080fd5b50610266610261366004611e18565b610b7e565b6040519015158152602001610155565b34801561028257600080fd5b5061014b610291366004611ef7565b610bda565b6102666102a4366004611fa4565b610bf7565b6102666102b7366004611fa4565b610cf8565b3480156102c857600080fd5b5061014b6102d7366004612015565b600260209081526000928352604080842090915290825290205481565b34801561030057600080fd5b5061031461030f366004612037565b610dd1565b6040516101559190612079565b34801561032d57600080fd5b5061034161033c366004612015565b610eb9565b604080519215158352602083019190915201610155565b34801561036457600080fd5b506000610266565b61026661037a3660046120fc565b610edf565b6040517f5659c838000000000000000000000000000000000000000000000000000000008152600481018390523360248201527f000000000000000000000000000000000000000000000000000000000000000073ffffffffffffffffffffffffffffffffffffffff1690635659c83890604401602060405180830381865afa158015610410573d6000803e3d6000fd5b505050506040513d601f19601f820116820180604052508101906104349190612148565b61046a576040517f1e09210400000000000000000000000000000000000000000000000000000000815260040160405180910390fd5b61047383610ef8565b61047d8382611613565b60008061048a8585610eb9565b9150915060008061049b8786610eb9565b915091508315806104aa575081155b156104e1576040517f1e09210400000000000000000000000000000000000000000000000000000000815260040160405180910390fd5b848614610580576010808416141580156104fe5750604080841614155b15610535576040517f1e09210400000000000000000000000000000000000000000000000000000000815260040160405180910390fd5b600881101580156105495750604080841614155b15610580576040517f1e09210400000000000000000000000000000000000000000000000000000000815260040160405180910390fd5b6000878152600160205260409020610598908661173d565b508486887f4e10ccc06761294a8f7a0c5ecbd981f3b7c6a622bf122d425c6ec8678fbb6ae660405160405180910390a450505050505050565b60606105fc7f0000000000000000000000000000000000000000000000000000000000000000611749565b6106257f0000000000000000000000000000000000000000000000000000000000000000611749565b61064e7f0000000000000000000000000000000000000000000000000000000000000000611749565b60405160200161066093929190612163565b604051602081830303815290604052905090565b8060000361068c5761068784848461037f565b610a9b565b6040517f5659c838000000000000000000000000000000000000000000000000000000008152600481018490523360248201527f000000000000000000000000000000000000000000000000000000000000000073ffffffffffffffffffffffffffffffffffffffff1690635659c83890604401602060405180830381865afa15801561071d573d6000803e3d6000fd5b505050506040513d601f19601f820116820180604052508101906107419190612148565b610777576040517f1e09210400000000000000000000000000000000000000000000000000000000815260040160405180910390fd5b61078084610ef8565b60008061078d8686610eb9565b91509150600061079d8786610eb9565b9150506107aa8786611613565b8215806107c857506008808316141580156107c85750602080831614155b156107ff576040517f1e09210400000000000000000000000000000000000000000000000000000000815260040160405180910390fd5b8486146108a15760208083161415801561081a575060088410155b15610851576040517f1e09210400000000000000000000000000000000000000000000000000000000815260040160405180910390fd5b600881101580156108655750602080831614155b1561089c576040517f1e09210400000000000000000000000000000000000000000000000000000000815260040160405180910390fd5b6108ec565b6020808316141580156108b5575060208410155b156108ec576040517f1e09210400000000000000000000000000000000000000000000000000000000815260040160405180910390fd5b6000878152600160205260409020610905908686611808565b5060007f000000000000000000000000000000000000000000000000000000000000000073ffffffffffffffffffffffffffffffffffffffff1663f17325e7604051806040016040528060005481526020016040518060c00160405280600073ffffffffffffffffffffffffffffffffffffffff168152602001600067ffffffffffffffff1681526020016001151581526020018d81526020018c8c8c6040516020016109c5939291909283526020830191909152604082015260600190565b604051602081830303815290604052815260200160008152508152506040518263ffffffff1660e01b81526004016109fd91906121fa565b6020604051808303816000875af1158015610a1c573d6000803e3d6000fd5b505050506040513d601f19601f82011682018060405250810190610a40919061228b565b60008981526002602090815260408083208a84528252918290208390559051878152919250879189918b917f039ed36214cf232fe5c2a2bb2cef7fe02a351a9323d4f7a87729a373ab38d68b910160405180910390a4505050505b50505050565b60606000610aae83610bda565b90508067ffffffffffffffff811115610ac957610ac96122a4565b604051908082528060200260200182016040528015610b0e57816020015b6040805180820190915260008082526020820152815260200190600190039081610ae75790505b5060008481526001602052604081209193505b82811015610b7657600080610b368484611815565b91509150604051806040016040528083815260200182815250868481518110610b6157610b616122d3565b60209081029190910101525050600101610b21565b505050919050565b6000610b8984610ef8565b6000848152600160205260409020610ba19084611831565b610bad57506000610bd3565b6000848152600160205260409020610bd090610bc9908561183d565b8316831490565b90505b9392505050565b6000818152600160205260408120610bf190611849565b92915050565b6000610c01611854565b83828114610c3b576040517f947d5a8400000000000000000000000000000000000000000000000000000000815260040160405180910390fd5b3460005b82811015610ce8576000868683818110610c5b57610c5b6122d3565b90506020020135905082811115610c9e576040517f1101129400000000000000000000000000000000000000000000000000000000815260040160405180910390fd5b610ccb898984818110610cb357610cb36122d3565b9050602002810190610cc59190612302565b826118c5565b610cdc576000945050505050610cf0565b90910390600101610c3f565b506001925050505b949350505050565b6000610d02611854565b83828114610d3c576040517f947d5a8400000000000000000000000000000000000000000000000000000000815260040160405180910390fd5b3460005b82811015610ce8576000868683818110610d5c57610d5c6122d3565b90506020020135905082811115610d9f576040517f1101129400000000000000000000000000000000000000000000000000000000815260040160405180910390fd5b610db4898984818110610cb357610cb36122d3565b610dc5576000945050505050610cf0565b90910390600101610d40565b6040805160008152602081019091526060908267ffffffffffffffff811115610dfc57610dfc6122a4565b604051908082528060200260200182016040528015610e2f57816020015b6060815260200190600190039081610e1a5790505b50915060005b83811015610eb157610e8c30868684818110610e5357610e536122d3565b9050602002810190610e65919061237a565b85604051602001610e78939291906123df565b604051602081830303815290604052611908565b838281518110610e9e57610e9e6122d3565b6020908102919091010152600101610e35565b505092915050565b60008281526001602052604081208190610ed3908461198b565b915091505b9250929050565b6000610ee9611854565b610bf182346118c5565b919050565b6040517fa3112a64000000000000000000000000000000000000000000000000000000008152600481018290526000907f000000000000000000000000000000000000000000000000000000000000000073ffffffffffffffffffffffffffffffffffffffff169063a3112a6490602401600060405180830381865afa158015610f86573d6000803e3d6000fd5b505050506040513d6000823e601f3d9081017fffffffffffffffffffffffffffffffffffffffffffffffffffffffffffffffe0168201604052610fcc9190810190612546565b905060007f000000000000000000000000000000000000000000000000000000000000000073ffffffffffffffffffffffffffffffffffffffff1663f10b5cc86040518163ffffffff1660e01b8152600401602060405180830381865afa15801561103b573d6000803e3d6000fd5b505050506040513d601f19601f8201168201806040525081019061105f9190612640565b73ffffffffffffffffffffffffffffffffffffffff1663a2ea7c6e83602001516040518263ffffffff1660e01b815260040161109d91815260200190565b600060405180830381865afa1580156110ba573d6000803e3d6000fd5b505050506040513d6000823e601f3d9081017fffffffffffffffffffffffffffffffffffffffffffffffffffffffffffffffe0168201604052611100919081019061265d565b608083015190915067ffffffffffffffff16156111545781516040517f04bed25600000000000000000000000000000000000000000000000000000000815260048101919091526024015b60405180910390fd5b600083815260016020526040902061116b90611849565b60000361160e57602081015173ffffffffffffffffffffffffffffffffffffffff16158061124a575060208101516040517f01ffc9a70000000000000000000000000000000000000000000000000000000081527ffafec1c700000000000000000000000000000000000000000000000000000000600482015273ffffffffffffffffffffffffffffffffffffffff909116906301ffc9a790602401602060405180830381865afa158015611224573d6000803e3d6000fd5b505050506040513d601f19601f820116820180604052508101906112489190612148565b155b15611284576040517f898bc7a30000000000000000000000000000000000000000000000000000000081526004810184905260240161114b565b60208101516040517ffafec1c7000000000000000000000000000000000000000000000000000000008152600091829173ffffffffffffffffffffffffffffffffffffffff9091169063fafec1c7906112e590879085908190600401612713565b60408051808303816000875af192505050801561133d575060408051601f3d9081017fffffffffffffffffffffffffffffffffffffffffffffffffffffffffffffffe016820190925261133a91810190612807565b60015b15611355578115611352579092506029915082905b50505b826020015173ffffffffffffffffffffffffffffffffffffffff1663fafec1c785600060016040518463ffffffff1660e01b815260040161139893929190612713565b60408051808303816000875af19250505080156113f0575060408051601f3d9081017fffffffffffffffffffffffffffffffffffffffffffffffffffffffffffffffe01682019092526113ed91810190612807565b60015b156114205760008211801561140c57508184148061140c575083155b1561141d5790925060529091179082905b50505b816000036114605783516040517feec8a7f2000000000000000000000000000000000000000000000000000000008152600481019190915260240161114b565b6000858152600160205260409020611479908383611808565b5060007f000000000000000000000000000000000000000000000000000000000000000073ffffffffffffffffffffffffffffffffffffffff1663f17325e7604051806040016040528060005481526020016040518060c00160405280600073ffffffffffffffffffffffffffffffffffffffff168152602001600067ffffffffffffffff1681526020016001151581526020018b8152602001888989604051602001611539939291909283526020830191909152604082015260600190565b604051602081830303815290604052815260200160008152508152506040518263ffffffff1660e01b815260040161157191906121fa565b6020604051808303816000875af1158015611590573d6000803e3d6000fd5b505050506040513d601f19601f820116820180604052508101906115b4919061228b565b600087815260026020908152604080832087845282529182902083905590518481529192508491829189917f039ed36214cf232fe5c2a2bb2cef7fe02a351a9323d4f7a87729a373ab38d68b910160405180910390a45050505b505050565b60008281526002602090815260408083208484529091529020541561173957604080518082018252600080548252825180840184528582526002602090815284832086845281528483205482528082019290925281830190815292517f46926267000000000000000000000000000000000000000000000000000000008152915160048301529151805160248301529091015160448201527f000000000000000000000000000000000000000000000000000000000000000073ffffffffffffffffffffffffffffffffffffffff1690634692626790606401600060405180830381600087803b15801561170657600080fd5b505af115801561171a573d6000803e3d6000fd5b5050506000838152600260209081526040808320858452909152812055505b5050565b6000610bd3838361199a565b60606000611756836119b7565b600101905060008167ffffffffffffffff811115611776576117766122a4565b6040519080825280601f01601f1916602001820160405280156117a0576020820181803683370190505b5090508181016020015b7fffffffffffffffffffffffffffffffffffffffffffffffffffffffffffffffff017f3031323334353637383961626364656600000000000000000000000000000000600a86061a8153600a85049450846117aa575b509392505050565b6000610bd0848484611a99565b60008080806118248686611ab6565b9097909650945050505050565b6000610bd38383611ae1565b6000610bd38383611aed565b6000610bf182611b4d565b3373ffffffffffffffffffffffffffffffffffffffff7f000000000000000000000000000000000000000000000000000000000000000016146118c3576040517f4ca8886700000000000000000000000000000000000000000000000000000000815260040160405180910390fd5b565b6000306118d9610100850160e08601612837565b73ffffffffffffffffffffffffffffffffffffffff16148015610bd35750600054836020013514905092915050565b60606000808473ffffffffffffffffffffffffffffffffffffffff16846040516119329190612854565b600060405180830381855af49150503d806000811461196d576040519150601f19603f3d011682016040523d82523d6000602084013e611972565b606091505b5091509150611982858383611b58565b95945050505050565b60008080806118248686611be7565b60008181526002830160205260408120819055610bd38383611c21565b6000807a184f03e93ff9f4daa797ed6e38ed64bf6a1f0100000000000000008310611a00577a184f03e93ff9f4daa797ed6e38ed64bf6a1f010000000000000000830492506040015b6d04ee2d6d415b85acef81000000008310611a2c576d04ee2d6d415b85acef8100000000830492506020015b662386f26fc100008310611a4a57662386f26fc10000830492506010015b6305f5e1008310611a62576305f5e100830492506008015b6127108310611a7657612710830492506004015b60648310611a88576064830492506002015b600a8310610bf15760010192915050565b60008281526002840160205260408120829055610bd08484611c2d565b60008080611ac48585611c39565b600081815260029690960160205260409095205494959350505050565b6000610bd38383611c45565b600081815260028301602052604081205480158015611b135750611b118484611ae1565b155b15610bd3576040517f02b566860000000000000000000000000000000000000000000000000000000081526004810184905260240161114b565b6000610bf182611c5d565b606082611b6d57611b6882611c67565b610bd3565b8151158015611b91575073ffffffffffffffffffffffffffffffffffffffff84163b155b15611be0576040517f9996b31500000000000000000000000000000000000000000000000000000000815273ffffffffffffffffffffffffffffffffffffffff8516600482015260240161114b565b5080610bd3565b6000818152600283016020526040812054819080611c1657611c098585611ae1565b925060009150610ed89050565b600192509050610ed8565b6000610bd38383611cac565b6000610bd38383611d9f565b6000610bd38383611dee565b60008181526001830160205260408120541515610bd3565b6000610bf1825490565b805115611c775780518082602001fd5b6040517f1425ea4200000000000000000000000000000000000000000000000000000000815260040160405180910390fd5b50565b60008181526001830160205260408120548015611d95576000611cd0600183612340565b8554909150600090611ce490600190612340565b9050808214611d49576000866000018281548110611d0457611d046122d3565b9060005260206000200154905080876000018481548110611d2757611d276122d3565b6000918252602080832090910192909255918252600188019052604090208390555b8554869080611d5a57611d5a612866565b600190038181906000526020600020016000905590558560010160008681526020019081526020016000206000905560019350505050610bf1565b6000915050610bf1565b6000818152600183016020526040812054611de657508154600181810184556000848152602080822090930184905584548482528286019093526040902091909155610bf1565b506000610bf1565b6000826000018281548110611e0557611e056122d3565b9060005260206000200154905092915050565b600080600060608486031215611e2d57600080fd5b505081359360208301359350604090920135919050565b60005b83811015611e5f578181015183820152602001611e47565b50506000910152565b60008151808452611e80816020860160208601611e44565b601f017fffffffffffffffffffffffffffffffffffffffffffffffffffffffffffffffe0169290920160200192915050565b602081526000610bd36020830184611e68565b60008060008060808587031215611edb57600080fd5b5050823594602084013594506040840135936060013592509050565b600060208284031215611f0957600080fd5b5035919050565b602080825282518282018190526000918401906040840190835b81811015611f54578351805184526020908101518185015290930192604090920191600101611f2a565b509095945050505050565b60008083601f840112611f7157600080fd5b50813567ffffffffffffffff811115611f8957600080fd5b6020830191508360208260051b8501011115610ed857600080fd5b60008060008060408587031215611fba57600080fd5b843567ffffffffffffffff811115611fd157600080fd5b611fdd87828801611f5f565b909550935050602085013567ffffffffffffffff811115611ffd57600080fd5b61200987828801611f5f565b95989497509550505050565b6000806040838503121561202857600080fd5b50508035926020909101359150565b6000806020838503121561204a57600080fd5b823567ffffffffffffffff81111561206157600080fd5b61206d85828601611f5f565b90969095509350505050565b6000602082016020835280845180835260408501915060408160051b86010192506020860160005b828110156120f0577fffffffffffffffffffffffffffffffffffffffffffffffffffffffffffffffc08786030184526120db858351611e68565b945060209384019391909101906001016120a1565b50929695505050505050565b60006020828403121561210e57600080fd5b813567ffffffffffffffff81111561212557600080fd5b82016101408185031215610bd357600080fd5b80518015158114610ef357600080fd5b60006020828403121561215a57600080fd5b610bd382612138565b60008451612175818460208901611e44565b7f2e0000000000000000000000000000000000000000000000000000000000000090830190815284516121af816001840160208901611e44565b7f2e000000000000000000000000000000000000000000000000000000000000006001929091019182015283516121ed816002840160208801611e44565b0160020195945050505050565b60208152815160208201526000602083015160408084015273ffffffffffffffffffffffffffffffffffffffff815116606084015267ffffffffffffffff60208201511660808401526040810151151560a0840152606081015160c0840152608081015160c060e0850152612273610120850182611e68565b905060a0820151610100850152809250505092915050565b60006020828403121561229d57600080fd5b5051919050565b7f4e487b7100000000000000000000000000000000000000000000000000000000600052604160045260246000fd5b7f4e487b7100000000000000000000000000000000000000000000000000000000600052603260045260246000fd5b600082357ffffffffffffffffffffffffffffffffffffffffffffffffffffffffffffffec183360301811261233657600080fd5b9190910192915050565b81810381811115610bf1577f4e487b7100000000000000000000000000000000000000000000000000000000600052601160045260246000fd5b60008083357fffffffffffffffffffffffffffffffffffffffffffffffffffffffffffffffe18436030181126123af57600080fd5b83018035915067ffffffffffffffff8211156123ca57600080fd5b602001915036819003821315610ed857600080fd5b8284823760008382016000815283516123fc818360208801611e44565b0195945050505050565b604051610140810167ffffffffffffffff8111828210171561242a5761242a6122a4565b60405290565b6040516080810167ffffffffffffffff8111828210171561242a5761242a6122a4565b805167ffffffffffffffff81168114610ef357600080fd5b73ffffffffffffffffffffffffffffffffffffffff81168114611ca957600080fd5b8051610ef38161246b565b60008067ffffffffffffffff8411156124b3576124b36122a4565b506040517fffffffffffffffffffffffffffffffffffffffffffffffffffffffffffffffe0601f85018116603f0116810181811067ffffffffffffffff82111715612500576125006122a4565b60405283815290508082840185101561251857600080fd5b611800846020830185611e44565b600082601f83011261253757600080fd5b610bd383835160208501612498565b60006020828403121561255857600080fd5b815167ffffffffffffffff81111561256f57600080fd5b8201610140818503121561258257600080fd5b61258a612406565b81518152602080830151908201526125a460408301612453565b60408201526125b560608301612453565b60608201526125c660808301612453565b608082015260a082810151908201526125e160c0830161248d565b60c08201526125f260e0830161248d565b60e08201526126046101008301612138565b61010082015261012082015167ffffffffffffffff81111561262557600080fd5b61263186828501612526565b61012083015250949350505050565b60006020828403121561265257600080fd5b8151610bd38161246b565b60006020828403121561266f57600080fd5b815167ffffffffffffffff81111561268657600080fd5b82016080818503121561269857600080fd5b6126a0612430565b8151815260208201516126b28161246b565b60208201526126c360408301612138565b6040820152606082015167ffffffffffffffff8111156126e257600080fd5b80830192505084601f8301126126f757600080fd5b61270685835160208501612498565b6060820152949350505050565b6060815283516060820152602084015160808201526000604085015161274560a084018267ffffffffffffffff169052565b50606085015167ffffffffffffffff811660c084015250608085015167ffffffffffffffff811660e08401525060a085015161010083015260c085015173ffffffffffffffffffffffffffffffffffffffff81166101208401525060e085015173ffffffffffffffffffffffffffffffffffffffff811661014084015250610100850151801515610160840152506101208501516101406101808401526127f06101a0840182611e68565b915050836020830152610cf0604083018415159052565b6000806040838503121561281a57600080fd5b82519150602083015161282c8161246b565b809150509250929050565b60006020828403121561284957600080fd5b8135610bd38161246b565b60008251612336818460208701611e44565b7f4e487b7100000000000000000000000000000000000000000000000000000000600052603160045260246000fdfea26469706673582212209026c6dee0ec4485ad415f37135ce28465ee2e05efb81f04d25d310dceeb0b8464736f6c634300081a0033",
  "linkReferences": {},
  "deployedLinkReferences": {}
}