{
  "_format": "hh-sol-artifact-1",
  "contractName": "Ed25519",
  "sourceName": "@farcaster-attestation/farcaster-decoder/contracts/libraries/Ed25519.sol",
  "abi": [
    {
      "inputs": [
        {
          "internalType": "bytes32",
          "name": "k",
          "type": "bytes32"
        },
        {
          "internalType": "bytes32",
          "name": "r",
          "type": "bytes32"
        },
        {
          "internalType": "bytes32",
          "name": "s",
          "type": "bytes32"
        },
        {
          "internalType": "bytes",
          "name": "m",
          "type": "bytes"
        }
      ],
      "name": "verify",
      "outputs": [
        {
          "internalType": "bool",
          "name": "",
          "type": "bool"
        }
      ],
      "stateMutability": "pure",
      "type": "function"
    }
  ],
  "bytecode": "0x612b18610039600b82828239805160001a607314602c57634e487b7160e01b600052600060045260246000fd5b30600052607381538281f3fe73000000000000000000000000000000000000000030146080604052600436106100355760003560e01c80632bf6eda81461003a575b600080fd5b61004d610048366004612888565b610061565b604051901515815260200160405180910390f35b80516000908190819060400167ffffffffffffffff8111156100855761008561280a565b6040519080825280601f01601f1916602001820160405280156100af576020820181803683370190505b50905060005b602081101561011d578681602081106100d0576100d061295d565b1a60f81b8282815181106100e6576100e661295d565b60200101907effffffffffffffffffffffffffffffffffffffffffffffffffffffffffffff1916908160001a9053506001016100b5565b5060005b602081101561018c5787816020811061013c5761013c61295d565b1a60f81b8282602001815181106101555761015561295d565b60200101907effffffffffffffffffffffffffffffffffffffffffffffffffffffffffffff1916908160001a905350600101610121565b5060005b8451811015610202578481815181106101ab576101ab61295d565b602001015160f81c60f81b8282604001815181106101cb576101cb61295d565b60200101907effffffffffffffffffffffffffffffffffffffffffffffffffffffffffffff1916908160001a905350600101610190565b506040517faa1e84de00000000000000000000000000000000000000000000000000000000815260009073__$3dd86e4be714d9ad8c380990863bce8aec$__9063aa1e84de9061025690859060040161298c565b61010060405180830381865af4158015610274573d6000803e3d6000fd5b505050506040513d601f19601f8201168201806040525081019061029891906129f8565b9050600060c0826003602002015167ffffffffffffffff16901b6080836002602002015167ffffffffffffffff16901b6040846001602002015167ffffffffffffffff16901b846000602002015167ffffffffffffffff1617171790506008817fff00ff00ff00ff00ff00ff00ff00ff00ff00ff00ff00ff00ff00ff00ff00ff0016901c6008827eff00ff00ff00ff00ff00ff00ff00ff00ff00ff00ff00ff00ff00ff00ff00ff16901b1790506010817fffff0000ffff0000ffff0000ffff0000ffff0000ffff0000ffff0000ffff000016901c6010827dffff0000ffff0000ffff0000ffff0000ffff0000ffff0000ffff0000ffff16901b1790506020817fffffffff00000000ffffffff00000000ffffffff00000000ffffffff0000000016901c6020827bffffffff00000000ffffffff00000000ffffffff00000000ffffffff16901b179050600060c0836007600881106103f8576103f861295d565b602002015167ffffffffffffffff16901b6080846006602002015167ffffffffffffffff16901b6040856005602002015167ffffffffffffffff16901b856004602002015167ffffffffffffffff1617171790506008817fff00ff00ff00ff00ff00ff00ff00ff00ff00ff00ff00ff00ff00ff00ff00ff0016901c6008827eff00ff00ff00ff00ff00ff00ff00ff00ff00ff00ff00ff00ff00ff00ff00ff16901b1790506010817fffff0000ffff0000ffff0000ffff0000ffff0000ffff0000ffff0000ffff000016901c6010827dffff0000ffff0000ffff0000ffff0000ffff0000ffff0000ffff0000ffff16901b1790506020817fffffffff00000000ffffffff00000000ffffffff00000000ffffffff0000000016901c6020827bffffffff00000000ffffffff00000000ffffffff00000000ffffffff16901b1790507f1000000000000000000000000000000014def9dea2f79cd65812631a5cf5d3ed8061056657610566612a8f565b7f1000000000000000000000000000000014def9dea2f79cd65812631a5cf5d3ed7f0ffffffffffffffffffffffffffffffec6ef5bf4737dcf70d6ec31748d98951d8309830877ffffffff000000000000000000000000ffffffff000000007dff000000ff000000ff000000ff000000ff000000ff000000ff000000ff0060088d811b9182167cff000000ff000000ff000000ff000000ff000000ff000000ff000000ff9e90911c9d8e1617601090811b7fff000000ff000000ff000000ff000000ff000000ff000000ff000000ff0000009092167eff000000ff000000ff000000ff000000ff000000ff000000ff000000ff0000909e169d909d17909c1c9b909b17602081811b9c8d1673ffffffff000000000000000000000000ffffffff9290911c91821617604090811b7fffffffff000000000000000000000000ffffffff000000000000000000000000909d167bffffffff000000000000000000000000ffffffff000000000000000090921691909117901c9a909a17608081811b91901c17999450507f7fffffffffffffffffffffffffffffffffffffffffffffffffffffffffffffff89169250600091508190507f7fffffffffffffffffffffffffffffffffffffffffffffffffffffffffffffed838409905060007f7fffffffffffffffffffffffffffffffffffffffffffffffffffffffffffffed7f7fffffffffffffffffffffffffffffffffffffffffffffffffffffffffffffec8308905060007f7fffffffffffffffffffffffffffffffffffffffffffffffffffffffffffffed7f52036cee2b6ffe738cc740797779e89800700a4d4141d8ab75eb4dca135978a38409600101905060007f7fffffffffffffffffffffffffffffffffffffffffffffffffffffffffffffed8284096040517f1d9b5e6f0000000000000000000000000000000000000000000000000000000081526004810182905290915073__$4dded64d59fd77decdc496e3bdcbcc3b88$__90631d9b5e6f906024016040805180830381865af4158015610864573d6000803e3d6000fd5b505050506040513d601f19601f820116820180604052508101906108889190612abe565b5094507f7fffffffffffffffffffffffffffffffffffffffffffffffffffffffffffffed85860994507f7fffffffffffffffffffffffffffffffffffffffffffffffffffffffffffffed80827f7fffffffffffffffffffffffffffffffffffffffffffffffffffffffffffffed88890909840994507f7fffffffffffffffffffffffffffffffffffffffffffffffffffffffffffffed827f7fffffffffffffffffffffffffffffffffffffffffffffffffffffffffffffed8788090990508281146109cd57827f7fffffffffffffffffffffffffffffffffffffffffffffffffffffffffffffed038114610986576000975050505050505050612789565b7f7fffffffffffffffffffffffffffffffffffffffffffffffffffffffffffffed7f2b8324804fc1df0b2b4d00993dfbd7a72f431806ad2fe478c4ee1b274a0ea0b0860994505b5050505060ff88901c6001821614610a02577f7fffffffffffffffffffffffffffffffffffffffffffffffffffffffffffffed035b77ffffffff000000000000000000000000ffffffff000000007dff000000ff000000ff000000ff000000ff000000ff000000ff000000ff00600888811b9182167cff000000ff000000ff000000ff000000ff000000ff000000ff000000ff9990911c98891617601090811b7fff000000ff000000ff000000ff000000ff000000ff000000ff000000ff0000009092167eff000000ff000000ff000000ff000000ff000000ff000000ff000000ff00009099169890981790971c96909617602081811b97881673ffffffff000000000000000000000000ffffffff9290911c91821617604090811b7fffffffff000000000000000000000000ffffffff0000000000000000000000009098167bffffffff000000000000000000000000ffffffff000000000000000090921691909117901c95909517608081811b91901c17947f1000000000000000000000000000000014def9dea2f79cd65812631a5cf5d3ed8610610b745760009350505050612789565b600080600080610b82612791565b8587017f7fffffffffffffffffffffffffffffffffffffffffffffffffffffffffffffed8789038101906000907f2406d9dc56dffce7198e80f2eef3d13000e0149a8283b156ebd69b9426b2f1597f7fffffffffffffffffffffffffffffffffffffffffffffffffffffffffffffed8c8c09099050898960018060007f7fffffffffffffffffffffffffffffffffffffffffffffffffffffffffffffed828509905060007f7fffffffffffffffffffffffffffffffffffffffffffffffffffffffffffffed848709905060007f7fffffffffffffffffffffffffffffffffffffffffffffffffffffffffffffed848609905060007f7fffffffffffffffffffffffffffffffffffffffffffffffffffffffffffffed848509905060007f7fffffffffffffffffffffffffffffffffffffffffffffffffffffffffffffed848509905060007f7fffffffffffffffffffffffffffffffffffffffffffffffffffffffffffffed858709905060007f7fffffffffffffffffffffffffffffffffffffffffffffffffffffffffffffed858609905081820199508383037f7fffffffffffffffffffffffffffffffffffffffffffffffffffffffffffffed0198508284019a507f7fffffffffffffffffffffffffffffffffffffffffffffffffffffffffffffed80610d7357610d73612a8f565b897fffffffffffffffffffffffffffffffffffffffffffffffffffffffffffffffda038283010897505050505050505060007f7fffffffffffffffffffffffffffffffffffffffffffffffffffffffffffffed80610dd357610dd3612a8f565b828509905060007f7fffffffffffffffffffffffffffffffffffffffffffffffffffffffffffffed848709905060007f7fffffffffffffffffffffffffffffffffffffffffffffffffffffffffffffed848609905060007f7fffffffffffffffffffffffffffffffffffffffffffffffffffffffffffffed848509905060007f7fffffffffffffffffffffffffffffffffffffffffffffffffffffffffffffed848509905060007f7fffffffffffffffffffffffffffffffffffffffffffffffffffffffffffffed858709905060007f7fffffffffffffffffffffffffffffffffffffffffffffffffffffffffffffed858609905081820199508383037f7fffffffffffffffffffffffffffffffffffffffffffffffffffffffffffffed0198508284019a507f7fffffffffffffffffffffffffffffffffffffffffffffffffffffffffffffed80610f2757610f27612a8f565b897fffffffffffffffffffffffffffffffffffffffffffffffffffffffffffffffda038283010897505050505050505060007f7fffffffffffffffffffffffffffffffffffffffffffffffffffffffffffffed80610f8757610f87612a8f565b828509905060007f7fffffffffffffffffffffffffffffffffffffffffffffffffffffffffffffed848709905060007f7fffffffffffffffffffffffffffffffffffffffffffffffffffffffffffffed848609905060007f7fffffffffffffffffffffffffffffffffffffffffffffffffffffffffffffed848509905060007f7fffffffffffffffffffffffffffffffffffffffffffffffffffffffffffffed848509905060007f7fffffffffffffffffffffffffffffffffffffffffffffffffffffffffffffed858709905060007f7fffffffffffffffffffffffffffffffffffffffffffffffffffffffffffffed858609905081820199508383037f7fffffffffffffffffffffffffffffffffffffffffffffffffffffffffffffed0198508284019a507f7fffffffffffffffffffffffffffffffffffffffffffffffffffffffffffffed806110db576110db612a8f565b897fffffffffffffffffffffffffffffffffffffffffffffffffffffffffffffffda03828301089750600196508e955060009450505050505b6000808080807f7fffffffffffffffffffffffffffffffffffffffffffffffffffffffffffffed898c09905060007f7fffffffffffffffffffffffffffffffffffffffffffffffffffffffffffffed8b8e09905060007f7fffffffffffffffffffffffffffffffffffffffffffffffffffffffffffffed8b8d0990507f7fffffffffffffffffffffffffffffffffffffffffffffffffffffffffffffed8e8e0960208a0151518484019850939092037f7fffffffffffffffffffffffffffffffffffffffffffffffffffffffffffffed01955090935080019150849086600881106112015761120161295d565b60200201528286600160200201516001602002015186600881106112275761122761295d565b60200201527f7fffffffffffffffffffffffffffffffffffffffffffffffffffffffffffffed7f2406d9dc56dffce7198e80f2eef3d13000e0149a8283b156ebd69b9426b2f1598309602087015160400151866008811061128a5761128a61295d565b6020020152855151819086600881106112a5576112a561295d565b60200201528686600060200201516001602002015186600881106112cb576112cb61295d565b60200201527f7fffffffffffffffffffffffffffffffffffffffffffffffffffffffffffffed8188099650846007036113075750505050611439565b60007f7fffffffffffffffffffffffffffffffffffffffffffffffffffffffffffffed8f8609905060007f7fffffffffffffffffffffffffffffffffffffffffffffffffffffffffffffed8f8609905060007f7fffffffffffffffffffffffffffffffffffffffffffffffffffffffffffffed8f860990508183037f7fffffffffffffffffffffffffffffffffffffffffffffffffffffffffffffed019c507f7fffffffffffffffffffffffffffffffffffffffffffffffffffffffffffffed806113d4576113d4612a8f565b8185088383019e509b507f7fffffffffffffffffffffffffffffffffffffffffffffffffffffffffffffed817f7fffffffffffffffffffffffffffffffffffffffffffffffffffffffffffffed0385089a505060019096019550611114945050505050565b506040517f1d9b5e6f0000000000000000000000000000000000000000000000000000000081526004810183905260009073__$4dded64d59fd77decdc496e3bdcbcc3b88$__90631d9b5e6f906024016040805180830381865af41580156114a5573d6000803e3d6000fd5b505050506040513d601f19601f820116820180604052508101906114c99190612abe565b90935090507f7fffffffffffffffffffffffffffffffffffffffffffffffffffffffffffffed83840992507f7fffffffffffffffffffffffffffffffffffffffffffffffffffffffffffffed83840992507f7fffffffffffffffffffffffffffffffffffffffffffffffffffffffffffffed83840992507f7fffffffffffffffffffffffffffffffffffffffffffffffffffffffffffffed83840992507f7fffffffffffffffffffffffffffffffffffffffffffffffffffffffffffffed83840992507f7fffffffffffffffffffffffffffffffffffffffffffffffffffffffffffffed818409925060075b8251602001516000907f7fffffffffffffffffffffffffffffffffffffffffffffffffffffffffffffed9083600881106115f1576115f161295d565b602002015186096020850151519091507f7fffffffffffffffffffffffffffffffffffffffffffffffffffffffffffffed90829084600881106116365761163661295d565b60200201510960208501515183600881106116535761165361295d565b60200201527f7fffffffffffffffffffffffffffffffffffffffffffffffffffffffffffffed81856001602002015160016020020151846008811061169a5761169a61295d565b602002015109602080860151015183600881106116b9576116b961295d565b60200201527f7fffffffffffffffffffffffffffffffffffffffffffffffffffffffffffffed8185600160200201516002602002015184600881106117005761170061295d565b60200201510960208501516040015183600881106117205761172061295d565b60200201526000829003611734575061179b565b8351517f7fffffffffffffffffffffffffffffffffffffffffffffffffffffffffffffed90836008811061176a5761176a61295d565b602002015186099450507fffffffffffffffffffffffffffffffffffffffffffffffffffffffffffffffff016115b5565b5060405180606001604052806040518061010001604052807f43e7ce9d19ea5d329385a44c321ea16167c996e37dc6070c97de49e37ac61db981526020017f40cff34425d8ec30a3bb74ba58cd5854fa1e38186ad0d31ebc8ae251ceb2c97e81526020017f459bd27046e8dd45aea7008db87a5a8f7906779253d64523589518599fdfbf4b81526020017f69fdd1e28c23cc3894d0c8ff90e76f6d5b6e4c2e620136d04dd83c4a51581ab981526020017f54dceb3413ce5cfa11196dfc960b6edaf4b380c6d4d2378419cc0279ba49c5f381526020017f4e24184dd71a3d77eef3729f7f8cf7c17224cf40aa7b9548b9942f3c5084ceed81526020017f5a0e5aab20262674ae1175761cbf5e889b52a55fd7ac5027c228cebdc8d2360a81526020017f26239334073e9b38c62859556d451c3dcc8d30e84b361174f488eadde2cf17d981525081526020016040518061010001604052807f227e97c94c7c0933d2e0c21a3447c504fe9ccf82e8a05f59ce881c82eba0489f81526020017f226a3e0ecc4afec6fd0d288413014a9dbddecf06c1a2f0bb702ba77c613d820981526020017f34d7efc851d45c5e71efeb0f235b794691de6228877569b3a8d52bf058b8a4a081526020017f3c1f5fb3ca7166fce1471c9b752b6d28c56301ad7b65e8451b2c8c5526726e1281526020017f6102416cf02f02ff5be75275f55f28db89b2a9d2456b860ce22fc0e5031f7cc581526020017f40adf677f1bfdae057f0fd179c12617918ddaa2891a6530fb1a4294fa866549081526020017f61936f3c415609046187b8baa978cbc9b47893363ae5a3cc7d909f3635ae7f4881526020017f562a9662b6ec47f9e979d473c02b51e4423368238c58ddb52f0e5c6a180e641081525081526020016040518061010001604052807f3788bdb44f8632d42d0dbee5eea1acc6136cf411e655624f55e48902c3bd553481526020017f6190cf2c2a7b5ad769d594a82844f23b4167fa7c8ac30e51aa6cfbebdcd4b94581526020017f65f7787096be9204123a71f3ac88a87be1513217737d6a1e2f3a13a43d7e3a9a81526020017f023af32dbfa67975536479a7a7ce74a02142147fac0480187f1f13349cda1f2d81526020017f64fc44b7fc6841bddb0ced8b8b0fe6759137ef87ee96651215fc1dbcd25c64dc81526020017f1434aa3748b701d5b69df3d7d340c1fe3f6b9c1efc617484caadb47e382f447581526020017f457a6da8c962ef35f2b217423e5844e9d23534527e8ea4290d24e3ddf21720c681526020017f63b9540ceb60ccb51e4d989d956e053cf2511837efb79089d2ff40284202c53d81525081525082600060028110611b7557611b7561295d565b602002018190525050505050505050505050600060038c60001c901b90506000897f80000000000000000000000000000000a6f7cef517bce6b2c09318d2e7ae9f6001905060008060019050600060019050600060019050600060fc90505b6008811b87811615611e10576000808080807f7fffffffffffffffffffffffffffffffffffffffffffffffffffffffffffffed888c09905060007f7fffffffffffffffffffffffffffffffffffffffffffffffffffffffffffffed8b8b09905081810195508181037f7fffffffffffffffffffffffffffffffffffffffffffffffffffffffffffffed0194507f7fffffffffffffffffffffffffffffffffffffffffffffffffffffffffffffed80611c8e57611c8e612a8f565b898c0993507f7fffffffffffffffffffffffffffffffffffffffffffffffffffffffffffffed8a8d09925050506000868d901c6007169050866007901b198d169c5060008e905060007f7fffffffffffffffffffffffffffffffffffffffffffffffffffffffffffffed80611d0557611d05612a8f565b8251602001518460088110611d1c57611d1c61295d565b602002015187098251519091506000907f7fffffffffffffffffffffffffffffffffffffffffffffffffffffffffffffed908560088110611d5f57611d5f61295d565b602002015189098351604001519091506000907f7fffffffffffffffffffffffffffffffffffffffffffffffffffffffffffffed908660088110611da557611da561295d565b6020020151870990508282037f7fffffffffffffffffffffffffffffffffffffffffffffffffffffffffffffed019e508087019d508282019c508087037f7fffffffffffffffffffffffffffffffffffffffffffffffffffffffffffffed019b505050505050505050505b86811615612043576000808080807f7fffffffffffffffffffffffffffffffffffffffffffffffffffffffffffffed888c09905060007f7fffffffffffffffffffffffffffffffffffffffffffffffffffffffffffffed8b8b09905081810195508181037f7fffffffffffffffffffffffffffffffffffffffffffffffffffffffffffffed0194507f7fffffffffffffffffffffffffffffffffffffffffffffffffffffffffffffed80611ec657611ec6612a8f565b898c0993507f7fffffffffffffffffffffffffffffffffffffffffffffffffffffffffffffed8a8d096007808a1b198f169e91945090891c1691508e905060007f7fffffffffffffffffffffffffffffffffffffffffffffffffffffffffffffed8260016020020151600060200201518460088110611f4757611f4761295d565b6020020151870960208084015101519091506000907f7fffffffffffffffffffffffffffffffffffffffffffffffffffffffffffffed908560088110611f8f57611f8f61295d565b602002015189096020840151604001519091506000907f7fffffffffffffffffffffffffffffffffffffffffffffffffffffffffffffed908660088110611fd857611fd861295d565b6020020151870990508282037f7fffffffffffffffffffffffffffffffffffffffffffffffffffffffffffffed019e508087037f7fffffffffffffffffffffffffffffffffffffffffffffffffffffffffffffed019d508282019c508087019b505050505050505050505b8160000361226f576000808080807f7fffffffffffffffffffffffffffffffffffffffffffffffffffffffffffffed888c09905060007f7fffffffffffffffffffffffffffffffffffffffffffffffffffffffffffffed8b8b09905081810195508181037f7fffffffffffffffffffffffffffffffffffffffffffffffffffffffffffffed0194507f7fffffffffffffffffffffffffffffffffffffffffffffffffffffffffffffed806120f9576120f9612a8f565b898c0993507f7fffffffffffffffffffffffffffffffffffffffffffffffffffffffffffffed8a8d099250505060078b168d60007f7fffffffffffffffffffffffffffffffffffffffffffffffffffffffffffffed826001602002015160006020020151846008811061216e5761216e61295d565b6020020151870960208084015101519091506000907f7fffffffffffffffffffffffffffffffffffffffffffffffffffffffffffffed9085600881106121b6576121b661295d565b602002015189096020840151604001519091506000907f7fffffffffffffffffffffffffffffffffffffffffffffffffffffffffffffed9086600881106121ff576121ff61295d565b6020020151870990508282037f7fffffffffffffffffffffffffffffffffffffffffffffffffffffffffffffed019e508087037f7fffffffffffffffffffffffffffffffffffffffffffffffffffffffffffffed019d508282019c508087019b5050505050505050505050612442565b60007f7fffffffffffffffffffffffffffffffffffffffffffffffffffffffffffffed848809905060007f7fffffffffffffffffffffffffffffffffffffffffffffffffffffffffffffed878709905060007f7fffffffffffffffffffffffffffffffffffffffffffffffffffffffffffffed868909905060007f7fffffffffffffffffffffffffffffffffffffffffffffffffffffffffffffed848509905060007f7fffffffffffffffffffffffffffffffffffffffffffffffffffffffffffffed848509905060007f7fffffffffffffffffffffffffffffffffffffffffffffffffffffffffffffed858709905060007f7fffffffffffffffffffffffffffffffffffffffffffffffffffffffffffffed85860990508182019c508383037f7fffffffffffffffffffffffffffffffffffffffffffffffffffffffffffffed019b508284019a507f7fffffffffffffffffffffffffffffffffffffffffffffffffffffffffffffed806123e6576123e6612a8f565b8c7fffffffffffffffffffffffffffffffffffffffffffffffffffffffffffffffda03828301089950507fffffffffffffffffffffffffffffffffffffffffffffffffffffffffffffffff9097019650611bd495505050505050565b50929950909750955093506000915081905073__$4dded64d59fd77decdc496e3bdcbcc3b88$__631d9b5e6f7f7fffffffffffffffffffffffffffffffffffffffffffffffffffffffffffffed8689096040518263ffffffff1660e01b81526004016124b091815260200190565b6040805180830381865af41580156124cc573d6000803e3d6000fd5b505050506040513d601f19601f820116820180604052508101906124f09190612abe565b915091507f7fffffffffffffffffffffffffffffffffffffffffffffffffffffffffffffed8061252257612522612a8f565b82830991507f7fffffffffffffffffffffffffffffffffffffffffffffffffffffffffffffed82830991507f7fffffffffffffffffffffffffffffffffffffffffffffffffffffffffffffed82830991507f7fffffffffffffffffffffffffffffffffffffffffffffffffffffffffffffed82830991507f7fffffffffffffffffffffffffffffffffffffffffffffffffffffffffffffed82830991507f7fffffffffffffffffffffffffffffffffffffffffffffffffffffffffffffed81830991507f7fffffffffffffffffffffffffffffffffffffffffffffffffffffffffffffed80858409880996507f7fffffffffffffffffffffffffffffffffffffffffffffffffffffffffffffed80878409860977ffffffff000000000000000000000000ffffffff000000007dff000000ff000000ff000000ff000000ff000000ff000000ff000000ff0060ff9990991b909117600881811b998a167cff000000ff000000ff000000ff000000ff000000ff000000ff000000ff9290911c91821617601090811b7fff000000ff000000ff000000ff000000ff000000ff000000ff000000ff000000909a167eff000000ff000000ff000000ff000000ff000000ff000000ff000000ff000090921691909117901c97909717602081811b98891673ffffffff000000000000000000000000ffffffff9290911c91821617604090811b7fffffffff000000000000000000000000ffffffff0000000000000000000000009099167bffffffff000000000000000000000000ffffffff000000000000000090921691909117901c96909617608081811b91901c178d1499505050505050505050505b949350505050565b60405180604001604052806002905b6127a86127be565b8152602001906001900390816127a05790505090565b60405180606001604052806003905b6127d56127eb565b8152602001906001900390816127cd5790505090565b6040518061010001604052806008906020820280368337509192915050565b7f4e487b7100000000000000000000000000000000000000000000000000000000600052604160045260246000fd5b604051601f82017fffffffffffffffffffffffffffffffffffffffffffffffffffffffffffffffe016810167ffffffffffffffff811182821017156128805761288061280a565b604052919050565b6000806000806080858703121561289e57600080fd5b843593506020850135925060408501359150606085013567ffffffffffffffff8111156128ca57600080fd5b8501601f810187136128db57600080fd5b803567ffffffffffffffff8111156128f5576128f561280a565b61292660207fffffffffffffffffffffffffffffffffffffffffffffffffffffffffffffffe0601f84011601612839565b81815288602083850101111561293b57600080fd5b8160208401602083013760006020838301015280935050505092959194509250565b7f4e487b7100000000000000000000000000000000000000000000000000000000600052603260045260246000fd5b602081526000825180602084015260005b818110156129ba576020818601810151604086840101520161299d565b5060006040828501015260407fffffffffffffffffffffffffffffffffffffffffffffffffffffffffffffffe0601f83011684010191505092915050565b60006101008284031215612a0b57600080fd5b82601f830112612a1a57600080fd5b604051610100810167ffffffffffffffff81118282101715612a3e57612a3e61280a565b60405280610100840185811115612a5457600080fd5b845b81811015612a8457805167ffffffffffffffff81168114612a7657600080fd5b835260209283019201612a56565b509195945050505050565b7f4e487b7100000000000000000000000000000000000000000000000000000000600052601260045260246000fd5b60008060408385031215612ad157600080fd5b50508051602090910151909290915056fea26469706673582212204b2e3e7e90800ab3409b37c8397baed4e648d186628fc357f68b6be0b7bf82b064736f6c634300081a0033",
  "linkReferences": {
    "@farcaster-attestation/farcaster-decoder/contracts/libraries/Ed25519_pow.sol": {
      "Ed25519_pow": [
        {
          "length": 20,
          "start": 2148
        },
        {
          "length": 20,
          "start": 5285
        },
        {
          "length": 20,
          "start": 9359
        }
      ]
    },
    "@farcaster-attestation/farcaster-decoder/contracts/libraries/Sha512.sol": {
      "Sha512": [
        {
          "length": 20,
          "start": 615
        }
      ]
    }
  },
  "deployedLinkReferences": {
    "@farcaster-attestation/farcaster-decoder/contracts/libraries/Ed25519_pow.sol": {
      "Ed25519_pow": [
        {
          "length": 20,
          "start": 2091
        },
        {
          "length": 20,
          "start": 5228
        },
        {
          "length": 20,
          "start": 9302
        }
      ]
    },
    "@farcaster-attestation/farcaster-decoder/contracts/libraries/Sha512.sol": {
      "Sha512": [
        {
          "length": 20,
          "start": 558
        }
      ]
    }
  }
}