{
  "_format": "hh-sol-artifact-1",
  "contractName": "FarcasterWalletOptimisticVerifier",
  "sourceName": "contracts/wallet-verifier/FarcasterWalletOptimisticVerifier.sol",
  "abi": [
    {
      "inputs": [
        {
          "internalType": "contract IFarcasterWalletVerifier",
          "name": "verifier",
          "type": "address"
        },
        {
          "internalType": "address",
          "name": "relayer",
          "type": "address"
        }
      ],
      "stateMutability": "nonpayable",
      "type": "constructor"
    },
    {
      "inputs": [],
      "name": "ChallengeFailed",
      "type": "error"
    },
    {
      "inputs": [
        {
          "internalType": "enum MessageType",
          "name": "messageType",
          "type": "uint8"
        }
      ],
      "name": "InvalidMessageType",
      "type": "error"
    },
    {
      "inputs": [
        {
          "internalType": "address",
          "name": "owner",
          "type": "address"
        }
      ],
      "name": "OwnableInvalidOwner",
      "type": "error"
    },
    {
      "inputs": [
        {
          "internalType": "address",
          "name": "account",
          "type": "address"
        }
      ],
      "name": "OwnableUnauthorizedAccount",
      "type": "error"
    },
    {
      "anonymous": false,
      "inputs": [
        {
          "indexed": true,
          "internalType": "enum MessageType",
          "name": "messageType",
          "type": "uint8"
        },
        {
          "indexed": true,
          "internalType": "uint256",
          "name": "fid",
          "type": "uint256"
        },
        {
          "indexed": true,
          "internalType": "address",
          "name": "verifyAddress",
          "type": "address"
        },
        {
          "indexed": false,
          "internalType": "bytes32",
          "name": "publicKey",
          "type": "bytes32"
        },
        {
          "indexed": false,
          "internalType": "bytes32",
          "name": "hash",
          "type": "bytes32"
        },
        {
          "indexed": false,
          "internalType": "bytes",
          "name": "signature",
          "type": "bytes"
        }
      ],
      "name": "Challenged",
      "type": "event"
    },
    {
      "anonymous": false,
      "inputs": [
        {
          "indexed": true,
          "internalType": "address",
          "name": "previousOwner",
          "type": "address"
        },
        {
          "indexed": true,
          "internalType": "address",
          "name": "newOwner",
          "type": "address"
        }
      ],
      "name": "OwnershipTransferred",
      "type": "event"
    },
    {
      "anonymous": false,
      "inputs": [
        {
          "indexed": true,
          "internalType": "enum MessageType",
          "name": "messageType",
          "type": "uint8"
        },
        {
          "indexed": true,
          "internalType": "uint256",
          "name": "fid",
          "type": "uint256"
        },
        {
          "indexed": true,
          "internalType": "address",
          "name": "verifyAddress",
          "type": "address"
        },
        {
          "indexed": false,
          "internalType": "bytes32",
          "name": "publicKey",
          "type": "bytes32"
        },
        {
          "indexed": false,
          "internalType": "bytes32",
          "name": "hash",
          "type": "bytes32"
        },
        {
          "indexed": false,
          "internalType": "bytes",
          "name": "signature",
          "type": "bytes"
        }
      ],
      "name": "SubmitVerification",
      "type": "event"
    },
    {
      "inputs": [
        {
          "internalType": "uint256",
          "name": "fid",
          "type": "uint256"
        },
        {
          "internalType": "address",
          "name": "verifyAddress",
          "type": "address"
        },
        {
          "internalType": "bytes32",
          "name": "publicKey",
          "type": "bytes32"
        },
        {
          "internalType": "bytes",
          "name": "signature",
          "type": "bytes"
        }
      ],
      "name": "challengeAdd",
      "outputs": [],
      "stateMutability": "nonpayable",
      "type": "function"
    },
    {
      "inputs": [
        {
          "internalType": "uint256",
          "name": "fid",
          "type": "uint256"
        },
        {
          "internalType": "address",
          "name": "verifyAddress",
          "type": "address"
        },
        {
          "internalType": "bytes32",
          "name": "publicKey",
          "type": "bytes32"
        },
        {
          "internalType": "bytes",
          "name": "signature",
          "type": "bytes"
        }
      ],
      "name": "challengeRemove",
      "outputs": [],
      "stateMutability": "nonpayable",
      "type": "function"
    },
    {
      "inputs": [],
      "name": "challengingPeriod",
      "outputs": [
        {
          "internalType": "uint256",
          "name": "",
          "type": "uint256"
        }
      ],
      "stateMutability": "view",
      "type": "function"
    },
    {
      "inputs": [
        {
          "internalType": "enum MessageType",
          "name": "messageType",
          "type": "uint8"
        },
        {
          "internalType": "uint256",
          "name": "fid",
          "type": "uint256"
        },
        {
          "internalType": "address",
          "name": "verifyAddress",
          "type": "address"
        },
        {
          "internalType": "bytes32",
          "name": "publicKey",
          "type": "bytes32"
        },
        {
          "internalType": "bytes",
          "name": "signature",
          "type": "bytes"
        }
      ],
      "name": "hash",
      "outputs": [
        {
          "internalType": "bytes32",
          "name": "",
          "type": "bytes32"
        }
      ],
      "stateMutability": "pure",
      "type": "function"
    },
    {
      "inputs": [],
      "name": "onchainVerifier",
      "outputs": [
        {
          "internalType": "contract IFarcasterWalletVerifier",
          "name": "",
          "type": "address"
        }
      ],
      "stateMutability": "view",
      "type": "function"
    },
    {
      "inputs": [],
      "name": "owner",
      "outputs": [
        {
          "internalType": "address",
          "name": "",
          "type": "address"
        }
      ],
      "stateMutability": "view",
      "type": "function"
    },
    {
      "inputs": [],
      "name": "renounceOwnership",
      "outputs": [],
      "stateMutability": "nonpayable",
      "type": "function"
    },
    {
      "inputs": [
        {
          "internalType": "enum MessageType",
          "name": "messageType",
          "type": "uint8"
        },
        {
          "internalType": "uint256",
          "name": "fid",
          "type": "uint256"
        },
        {
          "internalType": "address",
          "name": "verifyAddress",
          "type": "address"
        },
        {
          "internalType": "bytes32",
          "name": "publicKey",
          "type": "bytes32"
        },
        {
          "internalType": "bytes",
          "name": "signature",
          "type": "bytes"
        }
      ],
      "name": "submitVerification",
      "outputs": [],
      "stateMutability": "nonpayable",
      "type": "function"
    },
    {
      "inputs": [
        {
          "internalType": "address",
          "name": "newOwner",
          "type": "address"
        }
      ],
      "name": "transferOwnership",
      "outputs": [],
      "stateMutability": "nonpayable",
      "type": "function"
    },
    {
      "inputs": [
        {
          "internalType": "bytes32",
          "name": "",
          "type": "bytes32"
        }
      ],
      "name": "verificationTimestamp",
      "outputs": [
        {
          "internalType": "uint256",
          "name": "",
          "type": "uint256"
        }
      ],
      "stateMutability": "view",
      "type": "function"
    },
    {
      "inputs": [
        {
          "internalType": "uint256",
          "name": "fid",
          "type": "uint256"
        },
        {
          "internalType": "address",
          "name": "verifyAddress",
          "type": "address"
        },
        {
          "internalType": "bytes32",
          "name": "publicKey",
          "type": "bytes32"
        },
        {
          "internalType": "bytes",
          "name": "signature",
          "type": "bytes"
        }
      ],
      "name": "verifyAdd",
      "outputs": [
        {
          "internalType": "bool",
          "name": "",
          "type": "bool"
        }
      ],
      "stateMutability": "view",
      "type": "function"
    },
    {
      "inputs": [
        {
          "internalType": "uint256",
          "name": "fid",
          "type": "uint256"
        },
        {
          "internalType": "address",
          "name": "verifyAddress",
          "type": "address"
        },
        {
          "internalType": "bytes32",
          "name": "publicKey",
          "type": "bytes32"
        },
        {
          "internalType": "bytes",
          "name": "signature",
          "type": "bytes"
        }
      ],
      "name": "verifyRemove",
      "outputs": [
        {
          "internalType": "bool",
          "name": "",
          "type": "bool"
        }
      ],
      "stateMutability": "view",
      "type": "function"
    }
  ],
  "bytecode": "0x60a06040526201518060015534801561001757600080fd5b50604051610dc1380380610dc1833981016040819052610036916100e9565b806001600160a01b03811661006557604051631e4fbdf760e01b81526000600482015260240160405180910390fd5b61006e81610081565b50506001600160a01b0316608052610123565b600080546001600160a01b038381166001600160a01b0319831681178455604051919092169283917f8be0079c531659141344cd1fd0a4f28419497f9722a3daafe3b4186f6b6457e09190a35050565b6001600160a01b03811681146100e657600080fd5b50565b600080604083850312156100fc57600080fd5b8251610107816100d1565b6020840151909250610118816100d1565b809150509250929050565b608051610c7561014c60003960008181610111015281816102d8015261064c0152610c756000f3fe608060405234801561001057600080fd5b50600436106100d45760003560e01c80638da5cb5b11610081578063f2fde38b1161005b578063f2fde38b146101e5578063f4c24ea9146101f8578063feadff141461020b57600080fd5b80638da5cb5b146101a157806396027c4e146101bf578063c6f52a64146101d257600080fd5b80632355cf6f116100b25780632355cf6f1461017b578063617695ef14610184578063715018a61461019957600080fd5b8063077ae98d146100d95780630d655ce11461010c5780630e3b0ceb14610158575b600080fd5b6100f96100e7366004610813565b60026020526000908152604090205481565b6040519081526020015b60405180910390f35b6101337f000000000000000000000000000000000000000000000000000000000000000081565b60405173ffffffffffffffffffffffffffffffffffffffff9091168152602001610103565b61016b610166366004610950565b61021e565b6040519015158152602001610103565b6100f960015481565b610197610192366004610950565b610274565b005b610197610416565b60005473ffffffffffffffffffffffffffffffffffffffff16610133565b6100f96101cd3660046109b1565b61042a565b6101976101e03660046109b1565b6104dc565b6101976101f3366004610a29565b610573565b61016b610206366004610950565b6105d7565b610197610219366004610950565b6105e8565b60008061022f60078787878761042a565b6000818152600260205260409020549091501580159061026a57506001546000828152600260205260409020546102669190610a4b565b4210155b9695505050505050565b600061028460078686868661042a565b6000818152600260205260409020549091501561040f576040517f0e3b0ceb00000000000000000000000000000000000000000000000000000000815273ffffffffffffffffffffffffffffffffffffffff7f00000000000000000000000000000000000000000000000000000000000000001690630e3b0ceb90610313908890889088908890600401610aef565b602060405180830381865afa92505050801561036a575060408051601f3d9081017fffffffffffffffffffffffffffffffffffffffffffffffffffffffffffffffe016820190925261036791810190610b2a565b60015b156103a95780156103a7576040517f85637c1400000000000000000000000000000000000000000000000000000000815260040160405180910390fd5b505b60008181526002602052604081205573ffffffffffffffffffffffffffffffffffffffff84168560075b7f77c5dcb3bf7cd7f7cd656fe18039dd6096a97b782169f220bb4b4271ca468b2786858760405161040693929190610b7b565b60405180910390a45b5050505050565b61041e61074b565b610428600061079e565b565b6000600786600e81111561044057610440610b4c565b141580156104605750600886600e81111561045d5761045d610b4c565b14155b156104a257856040517fb7ef4b200000000000000000000000000000000000000000000000000000000081526004016104999190610bde565b60405180910390fd5b85858585856040516020016104bb959493929190610bec565b60405160208183030381529060405280519060200120905095945050505050565b6104e461074b565b60006104f3868686868661042a565b6000818152600260205260409020429055905073ffffffffffffffffffffffffffffffffffffffff84168587600e81111561053057610530610b4c565b7f0156567f9bf6ac87e975a83c16a0f538a200e5b51e46384928a92689b7144def86858760405161056393929190610b7b565b60405180910390a4505050505050565b61057b61074b565b73ffffffffffffffffffffffffffffffffffffffff81166105cb576040517f1e4fbdf700000000000000000000000000000000000000000000000000000000815260006004820152602401610499565b6105d48161079e565b50565b60008061022f60088787878761042a565b60006105f860088686868661042a565b6000818152600260205260409020549091501561040f576040517ff4c24ea900000000000000000000000000000000000000000000000000000000815273ffffffffffffffffffffffffffffffffffffffff7f0000000000000000000000000000000000000000000000000000000000000000169063f4c24ea990610687908890889088908890600401610aef565b602060405180830381865afa9250505080156106de575060408051601f3d9081017fffffffffffffffffffffffffffffffffffffffffffffffffffffffffffffffe01682019092526106db91810190610b2a565b60015b1561071d57801561071b576040517f85637c1400000000000000000000000000000000000000000000000000000000815260040160405180910390fd5b505b60008181526002602052604081205573ffffffffffffffffffffffffffffffffffffffff84168560086103d3565b60005473ffffffffffffffffffffffffffffffffffffffff163314610428576040517f118cdaa7000000000000000000000000000000000000000000000000000000008152336004820152602401610499565b6000805473ffffffffffffffffffffffffffffffffffffffff8381167fffffffffffffffffffffffff0000000000000000000000000000000000000000831681178455604051919092169283917f8be0079c531659141344cd1fd0a4f28419497f9722a3daafe3b4186f6b6457e09190a35050565b60006020828403121561082557600080fd5b5035919050565b803573ffffffffffffffffffffffffffffffffffffffff8116811461085057600080fd5b919050565b7f4e487b7100000000000000000000000000000000000000000000000000000000600052604160045260246000fd5b600082601f83011261089557600080fd5b813567ffffffffffffffff8111156108af576108af610855565b6040517fffffffffffffffffffffffffffffffffffffffffffffffffffffffffffffffe0603f7fffffffffffffffffffffffffffffffffffffffffffffffffffffffffffffffe0601f8501160116810181811067ffffffffffffffff8211171561091b5761091b610855565b60405281815283820160200185101561093357600080fd5b816020850160208301376000918101602001919091529392505050565b6000806000806080858703121561096657600080fd5b843593506109766020860161082c565b925060408501359150606085013567ffffffffffffffff81111561099957600080fd5b6109a587828801610884565b91505092959194509250565b600080600080600060a086880312156109c957600080fd5b8535600f81106109d857600080fd5b9450602086013593506109ed6040870161082c565b925060608601359150608086013567ffffffffffffffff811115610a1057600080fd5b610a1c88828901610884565b9150509295509295909350565b600060208284031215610a3b57600080fd5b610a448261082c565b9392505050565b80820180821115610a85577f4e487b7100000000000000000000000000000000000000000000000000000000600052601160045260246000fd5b92915050565b6000815180845260005b81811015610ab157602081850181015186830182015201610a95565b5060006020828601015260207fffffffffffffffffffffffffffffffffffffffffffffffffffffffffffffffe0601f83011685010191505092915050565b84815273ffffffffffffffffffffffffffffffffffffffff8416602082015282604082015260806060820152600061026a6080830184610a8b565b600060208284031215610b3c57600080fd5b81518015158114610a4457600080fd5b7f4e487b7100000000000000000000000000000000000000000000000000000000600052602160045260246000fd5b838152826020820152606060408201526000610b9a6060830184610a8b565b95945050505050565b600f8110610bda577f4e487b7100000000000000000000000000000000000000000000000000000000600052602160045260246000fd5b9052565b60208101610a858284610ba3565b610bf68187610ba3565b84602082015273ffffffffffffffffffffffffffffffffffffffff8416604082015282606082015260a060808201526000610c3460a0830184610a8b565b97965050505050505056fea2646970667358221220db5abd68f834a4d86d2e335ae0124098c68cbccc1d36d21ce47eb99395052ebc64736f6c634300081a0033",
  "linkReferences": {},
  "deployedLinkReferences": {}
}