{
  "_format": "hh-sol-artifact-1",
  "contractName": "FarcasterWalletOptimisticVerifier",
  "sourceName": "contracts/wallet-verifier/FarcasterWalletOptimisticVerifier.sol",
  "abi": [
    {
      "inputs": [
        {
          "internalType": "contract IFarcasterWalletVerifier",
          "name": "verifier",
          "type": "address"
        },
        {
          "internalType": "contract IFarcasterPublicKeyVerifier",
          "name": "pubKeyVerifier",
          "type": "address"
        },
        {
          "internalType": "uint256",
          "name": "_challengingPeriod",
          "type": "uint256"
        },
        {
          "internalType": "uint256",
          "name": "_depositAmount",
          "type": "uint256"
        },
        {
          "internalType": "address",
          "name": "admin",
          "type": "address"
        }
      ],
      "stateMutability": "payable",
      "type": "constructor"
    },
    {
      "inputs": [],
      "name": "AccessControlBadConfirmation",
      "type": "error"
    },
    {
      "inputs": [
        {
          "internalType": "address",
          "name": "account",
          "type": "address"
        },
        {
          "internalType": "bytes32",
          "name": "neededRole",
          "type": "bytes32"
        }
      ],
      "name": "AccessControlUnauthorizedAccount",
      "type": "error"
    },
    {
      "inputs": [
        {
          "internalType": "address",
          "name": "target",
          "type": "address"
        }
      ],
      "name": "AddressEmptyCode",
      "type": "error"
    },
    {
      "inputs": [],
      "name": "ChallengeFailed",
      "type": "error"
    },
    {
      "inputs": [],
      "name": "Disabled",
      "type": "error"
    },
    {
      "inputs": [],
      "name": "FailedInnerCall",
      "type": "error"
    },
    {
      "inputs": [],
      "name": "InsufficientGas",
      "type": "error"
    },
    {
      "inputs": [
        {
          "internalType": "enum MessageType",
          "name": "messageType",
          "type": "uint8"
        }
      ],
      "name": "InvalidMessageType",
      "type": "error"
    },
    {
      "inputs": [
        {
          "internalType": "uint256",
          "name": "fid",
          "type": "uint256"
        },
        {
          "internalType": "bytes32",
          "name": "publicKey",
          "type": "bytes32"
        }
      ],
      "name": "InvalidPublicKey",
      "type": "error"
    },
    {
      "inputs": [
        {
          "internalType": "uint256",
          "name": "balance",
          "type": "uint256"
        }
      ],
      "name": "NotEnoughDeposit",
      "type": "error"
    },
    {
      "inputs": [],
      "name": "SmartContractWalletNotAllowed",
      "type": "error"
    },
    {
      "anonymous": false,
      "inputs": [
        {
          "indexed": true,
          "internalType": "enum MessageType",
          "name": "messageType",
          "type": "uint8"
        },
        {
          "indexed": true,
          "internalType": "uint256",
          "name": "fid",
          "type": "uint256"
        },
        {
          "indexed": true,
          "internalType": "address",
          "name": "verifyAddress",
          "type": "address"
        },
        {
          "indexed": false,
          "internalType": "bytes32",
          "name": "publicKey",
          "type": "bytes32"
        },
        {
          "indexed": false,
          "internalType": "bytes32",
          "name": "hash",
          "type": "bytes32"
        },
        {
          "indexed": false,
          "internalType": "bytes",
          "name": "signature",
          "type": "bytes"
        }
      ],
      "name": "Challenged",
      "type": "event"
    },
    {
      "anonymous": false,
      "inputs": [
        {
          "indexed": true,
          "internalType": "bytes32",
          "name": "role",
          "type": "bytes32"
        },
        {
          "indexed": true,
          "internalType": "bytes32",
          "name": "previousAdminRole",
          "type": "bytes32"
        },
        {
          "indexed": true,
          "internalType": "bytes32",
          "name": "newAdminRole",
          "type": "bytes32"
        }
      ],
      "name": "RoleAdminChanged",
      "type": "event"
    },
    {
      "anonymous": false,
      "inputs": [
        {
          "indexed": true,
          "internalType": "bytes32",
          "name": "role",
          "type": "bytes32"
        },
        {
          "indexed": true,
          "internalType": "address",
          "name": "account",
          "type": "address"
        },
        {
          "indexed": true,
          "internalType": "address",
          "name": "sender",
          "type": "address"
        }
      ],
      "name": "RoleGranted",
      "type": "event"
    },
    {
      "anonymous": false,
      "inputs": [
        {
          "indexed": true,
          "internalType": "bytes32",
          "name": "role",
          "type": "bytes32"
        },
        {
          "indexed": true,
          "internalType": "address",
          "name": "account",
          "type": "address"
        },
        {
          "indexed": true,
          "internalType": "address",
          "name": "sender",
          "type": "address"
        }
      ],
      "name": "RoleRevoked",
      "type": "event"
    },
    {
      "anonymous": false,
      "inputs": [
        {
          "indexed": true,
          "internalType": "enum MessageType",
          "name": "messageType",
          "type": "uint8"
        },
        {
          "indexed": true,
          "internalType": "uint256",
          "name": "fid",
          "type": "uint256"
        },
        {
          "indexed": true,
          "internalType": "address",
          "name": "verifyAddress",
          "type": "address"
        },
        {
          "indexed": false,
          "internalType": "bytes32",
          "name": "publicKey",
          "type": "bytes32"
        },
        {
          "indexed": false,
          "internalType": "bytes32",
          "name": "hash",
          "type": "bytes32"
        },
        {
          "indexed": false,
          "internalType": "uint256",
          "name": "timestamp",
          "type": "uint256"
        },
        {
          "indexed": false,
          "internalType": "bytes",
          "name": "signature",
          "type": "bytes"
        }
      ],
      "name": "SubmitVerification",
      "type": "event"
    },
    {
      "inputs": [],
      "name": "DEFAULT_ADMIN_ROLE",
      "outputs": [
        {
          "internalType": "bytes32",
          "name": "",
          "type": "bytes32"
        }
      ],
      "stateMutability": "view",
      "type": "function"
    },
    {
      "inputs": [],
      "name": "RELAYER_ROLE",
      "outputs": [
        {
          "internalType": "bytes32",
          "name": "",
          "type": "bytes32"
        }
      ],
      "stateMutability": "view",
      "type": "function"
    },
    {
      "inputs": [],
      "name": "SECURITY_ROLE",
      "outputs": [
        {
          "internalType": "bytes32",
          "name": "",
          "type": "bytes32"
        }
      ],
      "stateMutability": "view",
      "type": "function"
    },
    {
      "inputs": [
        {
          "internalType": "uint256",
          "name": "fid",
          "type": "uint256"
        },
        {
          "internalType": "address",
          "name": "verifyAddress",
          "type": "address"
        },
        {
          "internalType": "bytes32",
          "name": "publicKey",
          "type": "bytes32"
        },
        {
          "internalType": "bytes",
          "name": "signature",
          "type": "bytes"
        }
      ],
      "name": "challengeAdd",
      "outputs": [],
      "stateMutability": "nonpayable",
      "type": "function"
    },
    {
      "inputs": [
        {
          "internalType": "uint256",
          "name": "fid",
          "type": "uint256"
        },
        {
          "internalType": "address",
          "name": "verifyAddress",
          "type": "address"
        },
        {
          "internalType": "bytes32",
          "name": "publicKey",
          "type": "bytes32"
        },
        {
          "internalType": "bytes",
          "name": "signature",
          "type": "bytes"
        }
      ],
      "name": "challengeRemove",
      "outputs": [],
      "stateMutability": "nonpayable",
      "type": "function"
    },
    {
      "inputs": [],
      "name": "challengingPeriod",
      "outputs": [
        {
          "internalType": "uint256",
          "name": "",
          "type": "uint256"
        }
      ],
      "stateMutability": "view",
      "type": "function"
    },
    {
      "inputs": [],
      "name": "depositAmount",
      "outputs": [
        {
          "internalType": "uint256",
          "name": "",
          "type": "uint256"
        }
      ],
      "stateMutability": "view",
      "type": "function"
    },
    {
      "inputs": [
        {
          "internalType": "address",
          "name": "relayer",
          "type": "address"
        }
      ],
      "name": "disableRelayer",
      "outputs": [],
      "stateMutability": "nonpayable",
      "type": "function"
    },
    {
      "inputs": [],
      "name": "disabled",
      "outputs": [
        {
          "internalType": "bool",
          "name": "",
          "type": "bool"
        }
      ],
      "stateMutability": "view",
      "type": "function"
    },
    {
      "inputs": [
        {
          "internalType": "bytes32",
          "name": "role",
          "type": "bytes32"
        }
      ],
      "name": "getRoleAdmin",
      "outputs": [
        {
          "internalType": "bytes32",
          "name": "",
          "type": "bytes32"
        }
      ],
      "stateMutability": "view",
      "type": "function"
    },
    {
      "inputs": [
        {
          "internalType": "bytes32",
          "name": "role",
          "type": "bytes32"
        },
        {
          "internalType": "address",
          "name": "account",
          "type": "address"
        }
      ],
      "name": "grantRole",
      "outputs": [],
      "stateMutability": "nonpayable",
      "type": "function"
    },
    {
      "inputs": [
        {
          "internalType": "bytes32",
          "name": "role",
          "type": "bytes32"
        },
        {
          "internalType": "address",
          "name": "account",
          "type": "address"
        }
      ],
      "name": "hasRole",
      "outputs": [
        {
          "internalType": "bool",
          "name": "",
          "type": "bool"
        }
      ],
      "stateMutability": "view",
      "type": "function"
    },
    {
      "inputs": [
        {
          "internalType": "enum MessageType",
          "name": "messageType",
          "type": "uint8"
        },
        {
          "internalType": "uint256",
          "name": "fid",
          "type": "uint256"
        },
        {
          "internalType": "address",
          "name": "verifyAddress",
          "type": "address"
        },
        {
          "internalType": "bytes32",
          "name": "publicKey",
          "type": "bytes32"
        },
        {
          "internalType": "bytes",
          "name": "signature",
          "type": "bytes"
        }
      ],
      "name": "hash",
      "outputs": [
        {
          "internalType": "bytes32",
          "name": "",
          "type": "bytes32"
        }
      ],
      "stateMutability": "pure",
      "type": "function"
    },
    {
      "inputs": [
        {
          "internalType": "bytes32",
          "name": "",
          "type": "bytes32"
        }
      ],
      "name": "messageTimestamp",
      "outputs": [
        {
          "internalType": "uint256",
          "name": "",
          "type": "uint256"
        }
      ],
      "stateMutability": "view",
      "type": "function"
    },
    {
      "inputs": [
        {
          "internalType": "bytes[]",
          "name": "data",
          "type": "bytes[]"
        }
      ],
      "name": "multicall",
      "outputs": [
        {
          "internalType": "bytes[]",
          "name": "results",
          "type": "bytes[]"
        }
      ],
      "stateMutability": "nonpayable",
      "type": "function"
    },
    {
      "inputs": [],
      "name": "onchainVerifier",
      "outputs": [
        {
          "internalType": "contract IFarcasterWalletVerifier",
          "name": "",
          "type": "address"
        }
      ],
      "stateMutability": "view",
      "type": "function"
    },
    {
      "inputs": [],
      "name": "publicKeyVerifier",
      "outputs": [
        {
          "internalType": "contract IFarcasterPublicKeyVerifier",
          "name": "",
          "type": "address"
        }
      ],
      "stateMutability": "view",
      "type": "function"
    },
    {
      "inputs": [
        {
          "internalType": "bytes32",
          "name": "role",
          "type": "bytes32"
        },
        {
          "internalType": "address",
          "name": "callerConfirmation",
          "type": "address"
        }
      ],
      "name": "renounceRole",
      "outputs": [],
      "stateMutability": "nonpayable",
      "type": "function"
    },
    {
      "inputs": [
        {
          "internalType": "bytes32",
          "name": "role",
          "type": "bytes32"
        },
        {
          "internalType": "address",
          "name": "account",
          "type": "address"
        }
      ],
      "name": "revokeRole",
      "outputs": [],
      "stateMutability": "nonpayable",
      "type": "function"
    },
    {
      "inputs": [
        {
          "internalType": "enum MessageType",
          "name": "messageType",
          "type": "uint8"
        },
        {
          "internalType": "uint256",
          "name": "fid",
          "type": "uint256"
        },
        {
          "internalType": "address",
          "name": "verifyAddress",
          "type": "address"
        },
        {
          "internalType": "bytes32",
          "name": "publicKey",
          "type": "bytes32"
        },
        {
          "internalType": "uint256",
          "name": "timestamp",
          "type": "uint256"
        },
        {
          "internalType": "bytes",
          "name": "signature",
          "type": "bytes"
        }
      ],
      "name": "submitVerification",
      "outputs": [],
      "stateMutability": "nonpayable",
      "type": "function"
    },
    {
      "inputs": [
        {
          "internalType": "bytes4",
          "name": "interfaceId",
          "type": "bytes4"
        }
      ],
      "name": "supportsInterface",
      "outputs": [
        {
          "internalType": "bool",
          "name": "",
          "type": "bool"
        }
      ],
      "stateMutability": "view",
      "type": "function"
    },
    {
      "inputs": [
        {
          "internalType": "uint256",
          "name": "fid",
          "type": "uint256"
        },
        {
          "internalType": "address",
          "name": "verifyAddress",
          "type": "address"
        },
        {
          "internalType": "bytes32",
          "name": "publicKey",
          "type": "bytes32"
        },
        {
          "internalType": "bytes",
          "name": "signature",
          "type": "bytes"
        }
      ],
      "name": "tryChallengeAdd",
      "outputs": [
        {
          "internalType": "bool",
          "name": "",
          "type": "bool"
        }
      ],
      "stateMutability": "view",
      "type": "function"
    },
    {
      "inputs": [
        {
          "internalType": "uint256",
          "name": "fid",
          "type": "uint256"
        },
        {
          "internalType": "address",
          "name": "verifyAddress",
          "type": "address"
        },
        {
          "internalType": "bytes32",
          "name": "publicKey",
          "type": "bytes32"
        },
        {
          "internalType": "bytes",
          "name": "signature",
          "type": "bytes"
        }
      ],
      "name": "tryChallengeRemove",
      "outputs": [
        {
          "internalType": "bool",
          "name": "",
          "type": "bool"
        }
      ],
      "stateMutability": "view",
      "type": "function"
    },
    {
      "inputs": [
        {
          "internalType": "bytes32",
          "name": "",
          "type": "bytes32"
        }
      ],
      "name": "verificationTimestamp",
      "outputs": [
        {
          "internalType": "uint256",
          "name": "",
          "type": "uint256"
        }
      ],
      "stateMutability": "view",
      "type": "function"
    },
    {
      "inputs": [
        {
          "internalType": "uint256",
          "name": "fid",
          "type": "uint256"
        },
        {
          "internalType": "address",
          "name": "verifyAddress",
          "type": "address"
        },
        {
          "internalType": "bytes32",
          "name": "publicKey",
          "type": "bytes32"
        },
        {
          "internalType": "bytes",
          "name": "signature",
          "type": "bytes"
        }
      ],
      "name": "verifyAdd",
      "outputs": [
        {
          "internalType": "uint256",
          "name": "",
          "type": "uint256"
        }
      ],
      "stateMutability": "view",
      "type": "function"
    },
    {
      "inputs": [
        {
          "internalType": "uint256",
          "name": "fid",
          "type": "uint256"
        },
        {
          "internalType": "address",
          "name": "verifyAddress",
          "type": "address"
        },
        {
          "internalType": "bytes32",
          "name": "publicKey",
          "type": "bytes32"
        },
        {
          "internalType": "bytes",
          "name": "signature",
          "type": "bytes"
        }
      ],
      "name": "verifyRemove",
      "outputs": [
        {
          "internalType": "uint256",
          "name": "",
          "type": "uint256"
        }
      ],
      "stateMutability": "view",
      "type": "function"
    },
    {
      "stateMutability": "payable",
      "type": "receive"
    }
  ],
  "bytecode": "0x61010060405260405161217138038061217183398101604081905261002391610145565b6001600160a01b03808616608052841660a05260c083905260e082905261004b600082610081565b506100767fe2b7fb3b832174769106daebcfd6d1970523240dda11281102db9363b83b0dc482610081565b5050505050506101a7565b6000828152602081815260408083206001600160a01b038516845290915281205460ff16610123576000838152602081815260408083206001600160a01b03861684529091529020805460ff191660011790556100db3390565b6001600160a01b0316826001600160a01b0316847f2f8788117e7eff1d82e926ec794901d17c78024a50270940304540a733656f0d60405160405180910390a4506001610127565b5060005b92915050565b6001600160a01b038116811461014257600080fd5b50565b600080600080600060a0868803121561015d57600080fd5b85516101688161012d565b60208701519095506101798161012d565b60408701516060880151608089015192965090945092506101998161012d565b809150509295509295909350565b60805160a05160c05160e051611f5261021f600039600081816103a60152818161080a01528181610eac01526111990152600081816102cc01526108a90152600081816103720152610fde015260008181610253015281816106f401528181610a2301528181610c4d01526112a40152611f526000f3fe6080604052600436106101a55760003560e01c806391ae3650116100e1578063c34ace5b1161008a578063df0d9cf311610064578063df0d9cf314610583578063ee070805146105b0578063f4c24ea9146105ca578063feadff14146105ea57600080fd5b8063c34ace5b1461050f578063d547741f1461052f578063dbe106551461054f57600080fd5b806396027c4e116100bb57806396027c4e146104ad578063a217fddf146104cd578063ac9650d8146104e257600080fd5b806391ae36501461040857806391d1485414610428578063926d7d7f1461047957600080fd5b8063248a9ca31161014e5780633d7f424c116101285780633d7f424c14610360578063419759f514610394578063617695ef146103c85780637ead772c146103e857600080fd5b8063248a9ca3146102ee5780632f2ff15d1461031e57806336568abe1461034057600080fd5b80630d655ce11161017f5780630d655ce1146102415780630e3b0ceb1461029a5780632355cf6f146102ba57600080fd5b806301ffc9a7146101b15780630459988f146101e6578063077ae98d1461020657600080fd5b366101ac57005b600080fd5b3480156101bd57600080fd5b506101d16101cc3660046117e3565b61060a565b60405190151581526020015b60405180910390f35b3480156101f257600080fd5b506101d1610201366004611949565b6106a3565b34801561021257600080fd5b506102336102213660046119aa565b60016020526000908152604090205481565b6040519081526020016101dd565b34801561024d57600080fd5b506102757f000000000000000000000000000000000000000000000000000000000000000081565b60405173ffffffffffffffffffffffffffffffffffffffff90911681526020016101dd565b3480156102a657600080fd5b506102336102b5366004611949565b6107c8565b3480156102c657600080fd5b506102337f000000000000000000000000000000000000000000000000000000000000000081565b3480156102fa57600080fd5b506102336103093660046119aa565b60009081526020819052604090206001015490565b34801561032a57600080fd5b5061033e6103393660046119c3565b6108f9565b005b34801561034c57600080fd5b5061033e61035b3660046119c3565b610924565b34801561036c57600080fd5b506102757f000000000000000000000000000000000000000000000000000000000000000081565b3480156103a057600080fd5b506102337f000000000000000000000000000000000000000000000000000000000000000081565b3480156103d457600080fd5b5061033e6103e3366004611949565b610982565b3480156103f457600080fd5b506101d1610403366004611949565b610bfc565b34801561041457600080fd5b5061033e6104233660046119ef565b610c88565b34801561043457600080fd5b506101d16104433660046119c3565b60009182526020828152604080842073ffffffffffffffffffffffffffffffffffffffff93909316845291905290205460ff1690565b34801561048557600080fd5b506102337fe2b7fb3b832174769106daebcfd6d1970523240dda11281102db9363b83b0dc481565b3480156104b957600080fd5b506102336104c8366004611a19565b610cdc565b3480156104d957600080fd5b50610233600081565b3480156104ee57600080fd5b506105026104fd366004611a8b565b610d85565b6040516101dd9190611b70565b34801561051b57600080fd5b5061033e61052a366004611bf3565b610e6d565b34801561053b57600080fd5b5061033e61054a3660046119c3565b611132565b34801561055b57600080fd5b506102337f4698baa05b306e3e5e3fa66d29891e203a1418ef5bee962e2c9b109f129e892081565b34801561058f57600080fd5b5061023361059e3660046119aa565b60026020526000908152604090205481565b3480156105bc57600080fd5b506003546101d19060ff1681565b3480156105d657600080fd5b506102336105e5366004611949565b611157565b3480156105f657600080fd5b5061033e610605366004611949565b611203565b60007fffffffff0000000000000000000000000000000000000000000000000000000082167f7965db0b00000000000000000000000000000000000000000000000000000000148061069d57507f01ffc9a7000000000000000000000000000000000000000000000000000000007fffffffff000000000000000000000000000000000000000000000000000000008316145b92915050565b6000806106b4600887878787610cdc565b6040517ff4c24ea900000000000000000000000000000000000000000000000000000000815290915073ffffffffffffffffffffffffffffffffffffffff7f0000000000000000000000000000000000000000000000000000000000000000169063f4c24ea99061072f908990899089908990600401611c6d565b602060405180830381865afa925050508015610786575060408051601f3d9081017fffffffffffffffffffffffffffffffffffffffffffffffffffffffffffffffe016820190925261078391810190611cb2565b60015b156107ba576000811180156107a8575060008281526002602052604090205481145b156107b8576000925050506107c0565b505b60019150505b949350505050565b60035460009060ff1615610808576040517f75884cda00000000000000000000000000000000000000000000000000000000815260040160405180910390fd5b7f0000000000000000000000000000000000000000000000000000000000000000471015610869576040517f568c2ef10000000000000000000000000000000000000000000000000000000081524760048201526024015b60405180910390fd5b6000610879600787878787610cdc565b600081815260016020526040902054909150158015906108d257506000818152600160205260409020546108ce907f000000000000000000000000000000000000000000000000000000000000000090611cfa565b4210155b156108ed5760009081526002602052604090205490506107c0565b50600095945050505050565b6000828152602081905260409020600101546109148161143e565b61091e838361144b565b50505050565b73ffffffffffffffffffffffffffffffffffffffff81163314610973576040517f6697b23200000000000000000000000000000000000000000000000000000000815260040160405180910390fd5b61097d8282611547565b505050565b623b82605a10156109bf576040517f1c26714c00000000000000000000000000000000000000000000000000000000815260040160405180910390fd5b60006109cf600786868686610cdc565b60008181526001602052604090205490915015610bf5576040517f0e3b0ceb00000000000000000000000000000000000000000000000000000000815273ffffffffffffffffffffffffffffffffffffffff7f00000000000000000000000000000000000000000000000000000000000000001690630e3b0ceb90610a5e908890889088908890600401611c6d565b602060405180830381865afa925050508015610ab5575060408051601f3d9081017fffffffffffffffffffffffffffffffffffffffffffffffffffffffffffffffe0168201909252610ab291810190611cb2565b60015b15610b1057600081118015610ad7575060008281526002602052604090205481145b15610b0e576040517f85637c1400000000000000000000000000000000000000000000000000000000815260040160405180910390fd5b505b60008181526001602052604081208190553347604051600081818185875af1925050503d8060008114610b5f576040519150601f19603f3d011682016040523d82523d6000602084013e610b64565b606091505b5050905080610b7257600080fd5b50600380547fffffffffffffffffffffffffffffffffffffffffffffffffffffffffffffff0016600117905573ffffffffffffffffffffffffffffffffffffffff84168560075b7f77c5dcb3bf7cd7f7cd656fe18039dd6096a97b782169f220bb4b4271ca468b27868587604051610bec93929190611d3c565b60405180910390a45b5050505050565b600080610c0d600787878787610cdc565b6040517f0e3b0ceb00000000000000000000000000000000000000000000000000000000815290915073ffffffffffffffffffffffffffffffffffffffff7f00000000000000000000000000000000000000000000000000000000000000001690630e3b0ceb9061072f908990899089908990600401611c6d565b7f4698baa05b306e3e5e3fa66d29891e203a1418ef5bee962e2c9b109f129e8920610cb28161143e565b61097d7fe2b7fb3b832174769106daebcfd6d1970523240dda11281102db9363b83b0dc483611547565b6000600786600e811115610cf257610cf2611d0d565b14158015610d125750600886600e811115610d0f57610d0f611d0d565b14155b15610d4b57856040517fb7ef4b200000000000000000000000000000000000000000000000000000000081526004016108609190611d96565b8585858585604051602001610d64959493929190611da4565b60405160208183030381529060405280519060200120905095945050505050565b6040805160008152602081019091526060908267ffffffffffffffff811115610db057610db061184e565b604051908082528060200260200182016040528015610de357816020015b6060815260200190600190039081610dce5790505b50915060005b83811015610e6557610e4030868684818110610e0757610e07611df7565b9050602002810190610e199190611e26565b85604051602001610e2c93929190611e92565b604051602081830303815290604052611602565b838281518110610e5257610e52611df7565b6020908102919091010152600101610de9565b505092915050565b60035460ff1615610eaa576040517f75884cda00000000000000000000000000000000000000000000000000000000815260040160405180910390fd5b7f0000000000000000000000000000000000000000000000000000000000000000471015610f06576040517f568c2ef1000000000000000000000000000000000000000000000000000000008152476004820152602401610860565b7fe2b7fb3b832174769106daebcfd6d1970523240dda11281102db9363b83b0dc4610f308161143e565b6000610f3f8888888887610cdc565b600081815260016020526040812054919250036111285773ffffffffffffffffffffffffffffffffffffffff86163b15610fa5576040517fdb560bfd00000000000000000000000000000000000000000000000000000000815260040160405180910390fd5b6040517fce6560df00000000000000000000000000000000000000000000000000000000815260048101889052602481018690526000907f000000000000000000000000000000000000000000000000000000000000000073ffffffffffffffffffffffffffffffffffffffff169063ce6560df90604401602060405180830381865afa15801561103a573d6000803e3d6000fd5b505050506040513d601f19601f8201168201806040525081019061105e9190611eb9565b9050806110a1576040517fe0dbbe0b0000000000000000000000000000000000000000000000000000000081526004810189905260248101879052604401610860565b60008281526001602090815260408083204290556002909152902085905573ffffffffffffffffffffffffffffffffffffffff8716888a600e8111156110e9576110e9611d0d565b7fe88f2c9c8e66efe87126596b04f7e6514911b70c27e6ec525e63eae1d7c068cd89868a8a60405161111e9493929190611edb565b60405180910390a4505b5050505050505050565b60008281526020819052604090206001015461114d8161143e565b61091e8383611547565b60035460009060ff1615611197576040517f75884cda00000000000000000000000000000000000000000000000000000000815260040160405180910390fd5b7f00000000000000000000000000000000000000000000000000000000000000004710156111f3576040517f568c2ef1000000000000000000000000000000000000000000000000000000008152476004820152602401610860565b6000610879600887878787610cdc565b623b82605a1015611240576040517f1c26714c00000000000000000000000000000000000000000000000000000000815260040160405180910390fd5b6000611250600886868686610cdc565b60008181526001602052604090205490915015610bf5576040517ff4c24ea900000000000000000000000000000000000000000000000000000000815273ffffffffffffffffffffffffffffffffffffffff7f0000000000000000000000000000000000000000000000000000000000000000169063f4c24ea9906112df908890889088908890600401611c6d565b602060405180830381865afa925050508015611336575060408051601f3d9081017fffffffffffffffffffffffffffffffffffffffffffffffffffffffffffffffe016820190925261133391810190611cb2565b60015b1561139157600081118015611358575060008281526002602052604090205481145b1561138f576040517f85637c1400000000000000000000000000000000000000000000000000000000815260040160405180910390fd5b505b60008181526001602052604081208190553347604051600081818185875af1925050503d80600081146113e0576040519150601f19603f3d011682016040523d82523d6000602084013e6113e5565b606091505b50509050806113f357600080fd5b50600380547fffffffffffffffffffffffffffffffffffffffffffffffffffffffffffffff0016600117905573ffffffffffffffffffffffffffffffffffffffff8416856008610bb9565b6114488133611685565b50565b60008281526020818152604080832073ffffffffffffffffffffffffffffffffffffffff8516845290915281205460ff1661153f5760008381526020818152604080832073ffffffffffffffffffffffffffffffffffffffff86168452909152902080547fffffffffffffffffffffffffffffffffffffffffffffffffffffffffffffff001660011790556114dd3390565b73ffffffffffffffffffffffffffffffffffffffff168273ffffffffffffffffffffffffffffffffffffffff16847f2f8788117e7eff1d82e926ec794901d17c78024a50270940304540a733656f0d60405160405180910390a450600161069d565b50600061069d565b60008281526020818152604080832073ffffffffffffffffffffffffffffffffffffffff8516845290915281205460ff161561153f5760008381526020818152604080832073ffffffffffffffffffffffffffffffffffffffff8616808552925280832080547fffffffffffffffffffffffffffffffffffffffffffffffffffffffffffffff0016905551339286917ff6391f5c32d9c69d2a47ea670b442974b53935d1edc7fd64eb21e047a839171b9190a450600161069d565b60606000808473ffffffffffffffffffffffffffffffffffffffff168460405161162c9190611f00565b600060405180830381855af49150503d8060008114611667576040519150601f19603f3d011682016040523d82523d6000602084013e61166c565b606091505b509150915061167c85838361170f565b95945050505050565b60008281526020818152604080832073ffffffffffffffffffffffffffffffffffffffff8516845290915290205460ff1661170b576040517fe2517d3f00000000000000000000000000000000000000000000000000000000815273ffffffffffffffffffffffffffffffffffffffff8216600482015260248101839052604401610860565b5050565b6060826117245761171f826117a1565b61179a565b8151158015611748575073ffffffffffffffffffffffffffffffffffffffff84163b155b15611797576040517f9996b31500000000000000000000000000000000000000000000000000000000815273ffffffffffffffffffffffffffffffffffffffff85166004820152602401610860565b50805b9392505050565b8051156117b15780518082602001fd5b6040517f1425ea4200000000000000000000000000000000000000000000000000000000815260040160405180910390fd5b6000602082840312156117f557600080fd5b81357fffffffff000000000000000000000000000000000000000000000000000000008116811461179a57600080fd5b803573ffffffffffffffffffffffffffffffffffffffff8116811461184957600080fd5b919050565b7f4e487b7100000000000000000000000000000000000000000000000000000000600052604160045260246000fd5b600082601f83011261188e57600080fd5b813567ffffffffffffffff8111156118a8576118a861184e565b6040517fffffffffffffffffffffffffffffffffffffffffffffffffffffffffffffffe0603f7fffffffffffffffffffffffffffffffffffffffffffffffffffffffffffffffe0601f8501160116810181811067ffffffffffffffff821117156119145761191461184e565b60405281815283820160200185101561192c57600080fd5b816020850160208301376000918101602001919091529392505050565b6000806000806080858703121561195f57600080fd5b8435935061196f60208601611825565b925060408501359150606085013567ffffffffffffffff81111561199257600080fd5b61199e8782880161187d565b91505092959194509250565b6000602082840312156119bc57600080fd5b5035919050565b600080604083850312156119d657600080fd5b823591506119e660208401611825565b90509250929050565b600060208284031215611a0157600080fd5b61179a82611825565b8035600f811061184957600080fd5b600080600080600060a08688031215611a3157600080fd5b611a3a86611a0a565b945060208601359350611a4f60408701611825565b925060608601359150608086013567ffffffffffffffff811115611a7257600080fd5b611a7e8882890161187d565b9150509295509295909350565b60008060208385031215611a9e57600080fd5b823567ffffffffffffffff811115611ab557600080fd5b8301601f81018513611ac657600080fd5b803567ffffffffffffffff811115611add57600080fd5b8560208260051b8401011115611af257600080fd5b6020919091019590945092505050565b60005b83811015611b1d578181015183820152602001611b05565b50506000910152565b60008151808452611b3e816020860160208601611b02565b601f017fffffffffffffffffffffffffffffffffffffffffffffffffffffffffffffffe0169290920160200192915050565b6000602082016020835280845180835260408501915060408160051b86010192506020860160005b82811015611be7577fffffffffffffffffffffffffffffffffffffffffffffffffffffffffffffffc0878603018452611bd2858351611b26565b94506020938401939190910190600101611b98565b50929695505050505050565b60008060008060008060c08789031215611c0c57600080fd5b611c1587611a0a565b955060208701359450611c2a60408801611825565b9350606087013592506080870135915060a087013567ffffffffffffffff811115611c5457600080fd5b611c6089828a0161187d565b9150509295509295509295565b84815273ffffffffffffffffffffffffffffffffffffffff84166020820152826040820152608060608201526000611ca86080830184611b26565b9695505050505050565b600060208284031215611cc457600080fd5b5051919050565b7f4e487b7100000000000000000000000000000000000000000000000000000000600052601160045260246000fd5b8082018082111561069d5761069d611ccb565b7f4e487b7100000000000000000000000000000000000000000000000000000000600052602160045260246000fd5b83815282602082015260606040820152600061167c6060830184611b26565b600f8110611d92577f4e487b7100000000000000000000000000000000000000000000000000000000600052602160045260246000fd5b9052565b6020810161069d8284611d5b565b611dae8187611d5b565b84602082015273ffffffffffffffffffffffffffffffffffffffff8416604082015282606082015260a060808201526000611dec60a0830184611b26565b979650505050505050565b7f4e487b7100000000000000000000000000000000000000000000000000000000600052603260045260246000fd5b60008083357fffffffffffffffffffffffffffffffffffffffffffffffffffffffffffffffe1843603018112611e5b57600080fd5b83018035915067ffffffffffffffff821115611e7657600080fd5b602001915036819003821315611e8b57600080fd5b9250929050565b828482376000838201600081528351611eaf818360208801611b02565b0195945050505050565b600060208284031215611ecb57600080fd5b8151801515811461179a57600080fd5b848152836020820152826040820152608060608201526000611ca86080830184611b26565b60008251611f12818460208701611b02565b919091019291505056fea2646970667358221220f3773d403cccd7c58d749bef32d6a90c07d5dd650c21e9cc833dedfaa986497564736f6c634300081a0033",
  "linkReferences": {},
  "deployedLinkReferences": {}
}