{
  "_format": "hh-sol-artifact-1",
  "contractName": "Ed25519_pow",
  "sourceName": "@farcaster-attestation/farcaster-solidity/contracts/libraries/Ed25519_pow.sol",
  "abi": [
    {
      "inputs": [
        {
          "internalType": "uint256",
          "name": "v",
          "type": "uint256"
        }
      ],
      "name": "pow22501",
      "outputs": [
        {
          "internalType": "uint256",
          "name": "p22501",
          "type": "uint256"
        },
        {
          "internalType": "uint256",
          "name": "p11",
          "type": "uint256"
        }
      ],
      "stateMutability": "pure",
      "type": "function"
    }
  ],
  "bytecode": "0x613614610052600b82828239805160001a6073146045577f4e487b7100000000000000000000000000000000000000000000000000000000600052600060045260246000fd5b30600052607381538281f3fe73000000000000000000000000000000000000000030146080604052600436106100355760003560e01c80631d9b5e6f1461003a575b600080fd5b610054600480360381019061004f919061354a565b61006b565b604051610062929190613586565b60405180910390f35b6000807f7fffffffffffffffffffffffffffffffffffffffffffffffffffffffffffffed8061009d5761009c6135af565b5b83840990507f7fffffffffffffffffffffffffffffffffffffffffffffffffffffffffffffed806100d1576100d06135af565b5b81820991507f7fffffffffffffffffffffffffffffffffffffffffffffffffffffffffffffed80610105576101046135af565b5b837f7fffffffffffffffffffffffffffffffffffffffffffffffffffffffffffffed80610135576101346135af565b5b8485090991507f7fffffffffffffffffffffffffffffffffffffffffffffffffffffffffffffed8061016a576101696135af565b5b81830990507f7fffffffffffffffffffffffffffffffffffffffffffffffffffffffffffffed8061019e5761019d6135af565b5b827f7fffffffffffffffffffffffffffffffffffffffffffffffffffffffffffffed806101ce576101cd6135af565b5b83840909915060007f7fffffffffffffffffffffffffffffffffffffffffffffffffffffffffffffed80610205576102046135af565b5b83840990507f7fffffffffffffffffffffffffffffffffffffffffffffffffffffffffffffed80610239576102386135af565b5b81820990507f7fffffffffffffffffffffffffffffffffffffffffffffffffffffffffffffed8061026d5761026c6135af565b5b81820990507f7fffffffffffffffffffffffffffffffffffffffffffffffffffffffffffffed806102a1576102a06135af565b5b81820990507f7fffffffffffffffffffffffffffffffffffffffffffffffffffffffffffffed806102d5576102d46135af565b5b81820990507f7fffffffffffffffffffffffffffffffffffffffffffffffffffffffffffffed80610309576103086135af565b5b81840992507f7fffffffffffffffffffffffffffffffffffffffffffffffffffffffffffffed8061033d5761033c6135af565b5b83840990507f7fffffffffffffffffffffffffffffffffffffffffffffffffffffffffffffed80610371576103706135af565b5b81820990507f7fffffffffffffffffffffffffffffffffffffffffffffffffffffffffffffed806103a5576103a46135af565b5b81820990507f7fffffffffffffffffffffffffffffffffffffffffffffffffffffffffffffed806103d9576103d86135af565b5b81820990507f7fffffffffffffffffffffffffffffffffffffffffffffffffffffffffffffed8061040d5761040c6135af565b5b81820990507f7fffffffffffffffffffffffffffffffffffffffffffffffffffffffffffffed80610441576104406135af565b5b81820990507f7fffffffffffffffffffffffffffffffffffffffffffffffffffffffffffffed80610475576104746135af565b5b81820990507f7fffffffffffffffffffffffffffffffffffffffffffffffffffffffffffffed806104a9576104a86135af565b5b81820990507f7fffffffffffffffffffffffffffffffffffffffffffffffffffffffffffffed806104dd576104dc6135af565b5b81820990507f7fffffffffffffffffffffffffffffffffffffffffffffffffffffffffffffed80610511576105106135af565b5b81820990507f7fffffffffffffffffffffffffffffffffffffffffffffffffffffffffffffed80610545576105446135af565b5b818409905060007f7fffffffffffffffffffffffffffffffffffffffffffffffffffffffffffffed8061057b5761057a6135af565b5b82830990507f7fffffffffffffffffffffffffffffffffffffffffffffffffffffffffffffed806105af576105ae6135af565b5b81820990507f7fffffffffffffffffffffffffffffffffffffffffffffffffffffffffffffed806105e3576105e26135af565b5b81820990507f7fffffffffffffffffffffffffffffffffffffffffffffffffffffffffffffed80610617576106166135af565b5b81820990507f7fffffffffffffffffffffffffffffffffffffffffffffffffffffffffffffed8061064b5761064a6135af565b5b81820990507f7fffffffffffffffffffffffffffffffffffffffffffffffffffffffffffffed8061067f5761067e6135af565b5b81820990507f7fffffffffffffffffffffffffffffffffffffffffffffffffffffffffffffed806106b3576106b26135af565b5b81820990507f7fffffffffffffffffffffffffffffffffffffffffffffffffffffffffffffed806106e7576106e66135af565b5b81820990507f7fffffffffffffffffffffffffffffffffffffffffffffffffffffffffffffed8061071b5761071a6135af565b5b81820990507f7fffffffffffffffffffffffffffffffffffffffffffffffffffffffffffffed8061074f5761074e6135af565b5b81820990507f7fffffffffffffffffffffffffffffffffffffffffffffffffffffffffffffed80610783576107826135af565b5b81820990507f7fffffffffffffffffffffffffffffffffffffffffffffffffffffffffffffed806107b7576107b66135af565b5b81820990507f7fffffffffffffffffffffffffffffffffffffffffffffffffffffffffffffed806107eb576107ea6135af565b5b81820990507f7fffffffffffffffffffffffffffffffffffffffffffffffffffffffffffffed8061081f5761081e6135af565b5b81820990507f7fffffffffffffffffffffffffffffffffffffffffffffffffffffffffffffed80610853576108526135af565b5b81820990507f7fffffffffffffffffffffffffffffffffffffffffffffffffffffffffffffed80610887576108866135af565b5b81820990507f7fffffffffffffffffffffffffffffffffffffffffffffffffffffffffffffed806108bb576108ba6135af565b5b81820990507f7fffffffffffffffffffffffffffffffffffffffffffffffffffffffffffffed806108ef576108ee6135af565b5b81820990507f7fffffffffffffffffffffffffffffffffffffffffffffffffffffffffffffed80610923576109226135af565b5b81820990507f7fffffffffffffffffffffffffffffffffffffffffffffffffffffffffffffed80610957576109566135af565b5b81820990507f7fffffffffffffffffffffffffffffffffffffffffffffffffffffffffffffed8061098b5761098a6135af565b5b81830991507f7fffffffffffffffffffffffffffffffffffffffffffffffffffffffffffffed806109bf576109be6135af565b5b82830991507f7fffffffffffffffffffffffffffffffffffffffffffffffffffffffffffffed806109f3576109f26135af565b5b82830991507f7fffffffffffffffffffffffffffffffffffffffffffffffffffffffffffffed80610a2757610a266135af565b5b82830991507f7fffffffffffffffffffffffffffffffffffffffffffffffffffffffffffffed80610a5b57610a5a6135af565b5b82830991507f7fffffffffffffffffffffffffffffffffffffffffffffffffffffffffffffed80610a8f57610a8e6135af565b5b82830991507f7fffffffffffffffffffffffffffffffffffffffffffffffffffffffffffffed80610ac357610ac26135af565b5b82830991507f7fffffffffffffffffffffffffffffffffffffffffffffffffffffffffffffed80610af757610af66135af565b5b82830991507f7fffffffffffffffffffffffffffffffffffffffffffffffffffffffffffffed80610b2b57610b2a6135af565b5b82830991507f7fffffffffffffffffffffffffffffffffffffffffffffffffffffffffffffed80610b5f57610b5e6135af565b5b82830991507f7fffffffffffffffffffffffffffffffffffffffffffffffffffffffffffffed80610b9357610b926135af565b5b82830991507f7fffffffffffffffffffffffffffffffffffffffffffffffffffffffffffffed80610bc757610bc66135af565b5b82850993507f7fffffffffffffffffffffffffffffffffffffffffffffffffffffffffffffed80610bfb57610bfa6135af565b5b84850991507f7fffffffffffffffffffffffffffffffffffffffffffffffffffffffffffffed80610c2f57610c2e6135af565b5b82830991507f7fffffffffffffffffffffffffffffffffffffffffffffffffffffffffffffed80610c6357610c626135af565b5b82830991507f7fffffffffffffffffffffffffffffffffffffffffffffffffffffffffffffed80610c9757610c966135af565b5b82830991507f7fffffffffffffffffffffffffffffffffffffffffffffffffffffffffffffed80610ccb57610cca6135af565b5b82830991507f7fffffffffffffffffffffffffffffffffffffffffffffffffffffffffffffed80610cff57610cfe6135af565b5b82830991507f7fffffffffffffffffffffffffffffffffffffffffffffffffffffffffffffed80610d3357610d326135af565b5b82830991507f7fffffffffffffffffffffffffffffffffffffffffffffffffffffffffffffed80610d6757610d666135af565b5b82830991507f7fffffffffffffffffffffffffffffffffffffffffffffffffffffffffffffed80610d9b57610d9a6135af565b5b82830991507f7fffffffffffffffffffffffffffffffffffffffffffffffffffffffffffffed80610dcf57610dce6135af565b5b82830991507f7fffffffffffffffffffffffffffffffffffffffffffffffffffffffffffffed80610e0357610e026135af565b5b82830991507f7fffffffffffffffffffffffffffffffffffffffffffffffffffffffffffffed80610e3757610e366135af565b5b82830991507f7fffffffffffffffffffffffffffffffffffffffffffffffffffffffffffffed80610e6b57610e6a6135af565b5b82830991507f7fffffffffffffffffffffffffffffffffffffffffffffffffffffffffffffed80610e9f57610e9e6135af565b5b82830991507f7fffffffffffffffffffffffffffffffffffffffffffffffffffffffffffffed80610ed357610ed26135af565b5b82830991507f7fffffffffffffffffffffffffffffffffffffffffffffffffffffffffffffed80610f0757610f066135af565b5b82830991507f7fffffffffffffffffffffffffffffffffffffffffffffffffffffffffffffed80610f3b57610f3a6135af565b5b82830991507f7fffffffffffffffffffffffffffffffffffffffffffffffffffffffffffffed80610f6f57610f6e6135af565b5b82830991507f7fffffffffffffffffffffffffffffffffffffffffffffffffffffffffffffed80610fa357610fa26135af565b5b82830991507f7fffffffffffffffffffffffffffffffffffffffffffffffffffffffffffffed80610fd757610fd66135af565b5b82830991507f7fffffffffffffffffffffffffffffffffffffffffffffffffffffffffffffed8061100b5761100a6135af565b5b82830991507f7fffffffffffffffffffffffffffffffffffffffffffffffffffffffffffffed8061103f5761103e6135af565b5b82830991507f7fffffffffffffffffffffffffffffffffffffffffffffffffffffffffffffed80611073576110726135af565b5b82830991507f7fffffffffffffffffffffffffffffffffffffffffffffffffffffffffffffed806110a7576110a66135af565b5b82830991507f7fffffffffffffffffffffffffffffffffffffffffffffffffffffffffffffed806110db576110da6135af565b5b82830991507f7fffffffffffffffffffffffffffffffffffffffffffffffffffffffffffffed8061110f5761110e6135af565b5b82830991507f7fffffffffffffffffffffffffffffffffffffffffffffffffffffffffffffed80611143576111426135af565b5b82830991507f7fffffffffffffffffffffffffffffffffffffffffffffffffffffffffffffed80611177576111766135af565b5b82830991507f7fffffffffffffffffffffffffffffffffffffffffffffffffffffffffffffed806111ab576111aa6135af565b5b82830991507f7fffffffffffffffffffffffffffffffffffffffffffffffffffffffffffffed806111df576111de6135af565b5b82830991507f7fffffffffffffffffffffffffffffffffffffffffffffffffffffffffffffed80611213576112126135af565b5b82830991507f7fffffffffffffffffffffffffffffffffffffffffffffffffffffffffffffed80611247576112466135af565b5b82830991507f7fffffffffffffffffffffffffffffffffffffffffffffffffffffffffffffed8061127b5761127a6135af565b5b82830991507f7fffffffffffffffffffffffffffffffffffffffffffffffffffffffffffffed806112af576112ae6135af565b5b82830991507f7fffffffffffffffffffffffffffffffffffffffffffffffffffffffffffffed806112e3576112e26135af565b5b82830991507f7fffffffffffffffffffffffffffffffffffffffffffffffffffffffffffffed80611317576113166135af565b5b82830991507f7fffffffffffffffffffffffffffffffffffffffffffffffffffffffffffffed8061134b5761134a6135af565b5b82830991507f7fffffffffffffffffffffffffffffffffffffffffffffffffffffffffffffed8061137f5761137e6135af565b5b82830991507f7fffffffffffffffffffffffffffffffffffffffffffffffffffffffffffffed806113b3576113b26135af565b5b82830991507f7fffffffffffffffffffffffffffffffffffffffffffffffffffffffffffffed806113e7576113e66135af565b5b82830991507f7fffffffffffffffffffffffffffffffffffffffffffffffffffffffffffffed8061141b5761141a6135af565b5b82830991507f7fffffffffffffffffffffffffffffffffffffffffffffffffffffffffffffed8061144f5761144e6135af565b5b82830991507f7fffffffffffffffffffffffffffffffffffffffffffffffffffffffffffffed80611483576114826135af565b5b82830991507f7fffffffffffffffffffffffffffffffffffffffffffffffffffffffffffffed806114b7576114b66135af565b5b82830991507f7fffffffffffffffffffffffffffffffffffffffffffffffffffffffffffffed806114eb576114ea6135af565b5b82830991507f7fffffffffffffffffffffffffffffffffffffffffffffffffffffffffffffed8061151f5761151e6135af565b5b82830991507f7fffffffffffffffffffffffffffffffffffffffffffffffffffffffffffffed80611553576115526135af565b5b82830991507f7fffffffffffffffffffffffffffffffffffffffffffffffffffffffffffffed80611587576115866135af565b5b82830991507f7fffffffffffffffffffffffffffffffffffffffffffffffffffffffffffffed806115bb576115ba6135af565b5b82830991507f7fffffffffffffffffffffffffffffffffffffffffffffffffffffffffffffed806115ef576115ee6135af565b5b82830991507f7fffffffffffffffffffffffffffffffffffffffffffffffffffffffffffffed80611623576116226135af565b5b82850991507f7fffffffffffffffffffffffffffffffffffffffffffffffffffffffffffffed80611657576116566135af565b5b82830990507f7fffffffffffffffffffffffffffffffffffffffffffffffffffffffffffffed8061168b5761168a6135af565b5b81820990507f7fffffffffffffffffffffffffffffffffffffffffffffffffffffffffffffed806116bf576116be6135af565b5b81820990507f7fffffffffffffffffffffffffffffffffffffffffffffffffffffffffffffed806116f3576116f26135af565b5b81820990507f7fffffffffffffffffffffffffffffffffffffffffffffffffffffffffffffed80611727576117266135af565b5b81820990507f7fffffffffffffffffffffffffffffffffffffffffffffffffffffffffffffed8061175b5761175a6135af565b5b81820990507f7fffffffffffffffffffffffffffffffffffffffffffffffffffffffffffffed8061178f5761178e6135af565b5b81820990507f7fffffffffffffffffffffffffffffffffffffffffffffffffffffffffffffed806117c3576117c26135af565b5b81820990507f7fffffffffffffffffffffffffffffffffffffffffffffffffffffffffffffed806117f7576117f66135af565b5b81820990507f7fffffffffffffffffffffffffffffffffffffffffffffffffffffffffffffed8061182b5761182a6135af565b5b81820990507f7fffffffffffffffffffffffffffffffffffffffffffffffffffffffffffffed8061185f5761185e6135af565b5b81820990507f7fffffffffffffffffffffffffffffffffffffffffffffffffffffffffffffed80611893576118926135af565b5b81820990507f7fffffffffffffffffffffffffffffffffffffffffffffffffffffffffffffed806118c7576118c66135af565b5b81820990507f7fffffffffffffffffffffffffffffffffffffffffffffffffffffffffffffed806118fb576118fa6135af565b5b81820990507f7fffffffffffffffffffffffffffffffffffffffffffffffffffffffffffffed8061192f5761192e6135af565b5b81820990507f7fffffffffffffffffffffffffffffffffffffffffffffffffffffffffffffed80611963576119626135af565b5b81820990507f7fffffffffffffffffffffffffffffffffffffffffffffffffffffffffffffed80611997576119966135af565b5b81820990507f7fffffffffffffffffffffffffffffffffffffffffffffffffffffffffffffed806119cb576119ca6135af565b5b81820990507f7fffffffffffffffffffffffffffffffffffffffffffffffffffffffffffffed806119ff576119fe6135af565b5b81820990507f7fffffffffffffffffffffffffffffffffffffffffffffffffffffffffffffed80611a3357611a326135af565b5b81820990507f7fffffffffffffffffffffffffffffffffffffffffffffffffffffffffffffed80611a6757611a666135af565b5b81820990507f7fffffffffffffffffffffffffffffffffffffffffffffffffffffffffffffed80611a9b57611a9a6135af565b5b81820990507f7fffffffffffffffffffffffffffffffffffffffffffffffffffffffffffffed80611acf57611ace6135af565b5b81820990507f7fffffffffffffffffffffffffffffffffffffffffffffffffffffffffffffed80611b0357611b026135af565b5b81820990507f7fffffffffffffffffffffffffffffffffffffffffffffffffffffffffffffed80611b3757611b366135af565b5b81820990507f7fffffffffffffffffffffffffffffffffffffffffffffffffffffffffffffed80611b6b57611b6a6135af565b5b81820990507f7fffffffffffffffffffffffffffffffffffffffffffffffffffffffffffffed80611b9f57611b9e6135af565b5b81820990507f7fffffffffffffffffffffffffffffffffffffffffffffffffffffffffffffed80611bd357611bd26135af565b5b81820990507f7fffffffffffffffffffffffffffffffffffffffffffffffffffffffffffffed80611c0757611c066135af565b5b81820990507f7fffffffffffffffffffffffffffffffffffffffffffffffffffffffffffffed80611c3b57611c3a6135af565b5b81820990507f7fffffffffffffffffffffffffffffffffffffffffffffffffffffffffffffed80611c6f57611c6e6135af565b5b81820990507f7fffffffffffffffffffffffffffffffffffffffffffffffffffffffffffffed80611ca357611ca26135af565b5b81820990507f7fffffffffffffffffffffffffffffffffffffffffffffffffffffffffffffed80611cd757611cd66135af565b5b81820990507f7fffffffffffffffffffffffffffffffffffffffffffffffffffffffffffffed80611d0b57611d0a6135af565b5b81820990507f7fffffffffffffffffffffffffffffffffffffffffffffffffffffffffffffed80611d3f57611d3e6135af565b5b81820990507f7fffffffffffffffffffffffffffffffffffffffffffffffffffffffffffffed80611d7357611d726135af565b5b81820990507f7fffffffffffffffffffffffffffffffffffffffffffffffffffffffffffffed80611da757611da66135af565b5b81820990507f7fffffffffffffffffffffffffffffffffffffffffffffffffffffffffffffed80611ddb57611dda6135af565b5b81820990507f7fffffffffffffffffffffffffffffffffffffffffffffffffffffffffffffed80611e0f57611e0e6135af565b5b81820990507f7fffffffffffffffffffffffffffffffffffffffffffffffffffffffffffffed80611e4357611e426135af565b5b81820990507f7fffffffffffffffffffffffffffffffffffffffffffffffffffffffffffffed80611e7757611e766135af565b5b81820990507f7fffffffffffffffffffffffffffffffffffffffffffffffffffffffffffffed80611eab57611eaa6135af565b5b81820990507f7fffffffffffffffffffffffffffffffffffffffffffffffffffffffffffffed80611edf57611ede6135af565b5b81820990507f7fffffffffffffffffffffffffffffffffffffffffffffffffffffffffffffed80611f1357611f126135af565b5b81820990507f7fffffffffffffffffffffffffffffffffffffffffffffffffffffffffffffed80611f4757611f466135af565b5b81820990507f7fffffffffffffffffffffffffffffffffffffffffffffffffffffffffffffed80611f7b57611f7a6135af565b5b81820990507f7fffffffffffffffffffffffffffffffffffffffffffffffffffffffffffffed80611faf57611fae6135af565b5b81820990507f7fffffffffffffffffffffffffffffffffffffffffffffffffffffffffffffed80611fe357611fe26135af565b5b81820990507f7fffffffffffffffffffffffffffffffffffffffffffffffffffffffffffffed80612017576120166135af565b5b81820990507f7fffffffffffffffffffffffffffffffffffffffffffffffffffffffffffffed8061204b5761204a6135af565b5b81820990507f7fffffffffffffffffffffffffffffffffffffffffffffffffffffffffffffed8061207f5761207e6135af565b5b81820990507f7fffffffffffffffffffffffffffffffffffffffffffffffffffffffffffffed806120b3576120b26135af565b5b81820990507f7fffffffffffffffffffffffffffffffffffffffffffffffffffffffffffffed806120e7576120e66135af565b5b81820990507f7fffffffffffffffffffffffffffffffffffffffffffffffffffffffffffffed8061211b5761211a6135af565b5b81820990507f7fffffffffffffffffffffffffffffffffffffffffffffffffffffffffffffed8061214f5761214e6135af565b5b81820990507f7fffffffffffffffffffffffffffffffffffffffffffffffffffffffffffffed80612183576121826135af565b5b81820990507f7fffffffffffffffffffffffffffffffffffffffffffffffffffffffffffffed806121b7576121b66135af565b5b81820990507f7fffffffffffffffffffffffffffffffffffffffffffffffffffffffffffffed806121eb576121ea6135af565b5b81820990507f7fffffffffffffffffffffffffffffffffffffffffffffffffffffffffffffed8061221f5761221e6135af565b5b81820990507f7fffffffffffffffffffffffffffffffffffffffffffffffffffffffffffffed80612253576122526135af565b5b81820990507f7fffffffffffffffffffffffffffffffffffffffffffffffffffffffffffffed80612287576122866135af565b5b81820990507f7fffffffffffffffffffffffffffffffffffffffffffffffffffffffffffffed806122bb576122ba6135af565b5b81820990507f7fffffffffffffffffffffffffffffffffffffffffffffffffffffffffffffed806122ef576122ee6135af565b5b81820990507f7fffffffffffffffffffffffffffffffffffffffffffffffffffffffffffffed80612323576123226135af565b5b81820990507f7fffffffffffffffffffffffffffffffffffffffffffffffffffffffffffffed80612357576123566135af565b5b81820990507f7fffffffffffffffffffffffffffffffffffffffffffffffffffffffffffffed8061238b5761238a6135af565b5b81820990507f7fffffffffffffffffffffffffffffffffffffffffffffffffffffffffffffed806123bf576123be6135af565b5b81820990507f7fffffffffffffffffffffffffffffffffffffffffffffffffffffffffffffed806123f3576123f26135af565b5b81820990507f7fffffffffffffffffffffffffffffffffffffffffffffffffffffffffffffed80612427576124266135af565b5b81820990507f7fffffffffffffffffffffffffffffffffffffffffffffffffffffffffffffed8061245b5761245a6135af565b5b81820990507f7fffffffffffffffffffffffffffffffffffffffffffffffffffffffffffffed8061248f5761248e6135af565b5b81820990507f7fffffffffffffffffffffffffffffffffffffffffffffffffffffffffffffed806124c3576124c26135af565b5b81820990507f7fffffffffffffffffffffffffffffffffffffffffffffffffffffffffffffed806124f7576124f66135af565b5b81820990507f7fffffffffffffffffffffffffffffffffffffffffffffffffffffffffffffed8061252b5761252a6135af565b5b81820990507f7fffffffffffffffffffffffffffffffffffffffffffffffffffffffffffffed8061255f5761255e6135af565b5b81820990507f7fffffffffffffffffffffffffffffffffffffffffffffffffffffffffffffed80612593576125926135af565b5b81820990507f7fffffffffffffffffffffffffffffffffffffffffffffffffffffffffffffed806125c7576125c66135af565b5b81820990507f7fffffffffffffffffffffffffffffffffffffffffffffffffffffffffffffed806125fb576125fa6135af565b5b81820990507f7fffffffffffffffffffffffffffffffffffffffffffffffffffffffffffffed8061262f5761262e6135af565b5b81820990507f7fffffffffffffffffffffffffffffffffffffffffffffffffffffffffffffed80612663576126626135af565b5b81820990507f7fffffffffffffffffffffffffffffffffffffffffffffffffffffffffffffed80612697576126966135af565b5b81820990507f7fffffffffffffffffffffffffffffffffffffffffffffffffffffffffffffed806126cb576126ca6135af565b5b81820990507f7fffffffffffffffffffffffffffffffffffffffffffffffffffffffffffffed806126ff576126fe6135af565b5b81820990507f7fffffffffffffffffffffffffffffffffffffffffffffffffffffffffffffed80612733576127326135af565b5b81820990507f7fffffffffffffffffffffffffffffffffffffffffffffffffffffffffffffed80612767576127666135af565b5b81820990507f7fffffffffffffffffffffffffffffffffffffffffffffffffffffffffffffed8061279b5761279a6135af565b5b81820990507f7fffffffffffffffffffffffffffffffffffffffffffffffffffffffffffffed806127cf576127ce6135af565b5b81820990507f7fffffffffffffffffffffffffffffffffffffffffffffffffffffffffffffed80612803576128026135af565b5b81820990507f7fffffffffffffffffffffffffffffffffffffffffffffffffffffffffffffed80612837576128366135af565b5b81820990507f7fffffffffffffffffffffffffffffffffffffffffffffffffffffffffffffed8061286b5761286a6135af565b5b81820990507f7fffffffffffffffffffffffffffffffffffffffffffffffffffffffffffffed8061289f5761289e6135af565b5b81820990507f7fffffffffffffffffffffffffffffffffffffffffffffffffffffffffffffed806128d3576128d26135af565b5b81820990507f7fffffffffffffffffffffffffffffffffffffffffffffffffffffffffffffed80612907576129066135af565b5b81820990507f7fffffffffffffffffffffffffffffffffffffffffffffffffffffffffffffed8061293b5761293a6135af565b5b81820990507f7fffffffffffffffffffffffffffffffffffffffffffffffffffffffffffffed8061296f5761296e6135af565b5b81820990507f7fffffffffffffffffffffffffffffffffffffffffffffffffffffffffffffed806129a3576129a26135af565b5b81820990507f7fffffffffffffffffffffffffffffffffffffffffffffffffffffffffffffed806129d7576129d66135af565b5b81820990507f7fffffffffffffffffffffffffffffffffffffffffffffffffffffffffffffed80612a0b57612a0a6135af565b5b81820990507f7fffffffffffffffffffffffffffffffffffffffffffffffffffffffffffffed80612a3f57612a3e6135af565b5b81820990507f7fffffffffffffffffffffffffffffffffffffffffffffffffffffffffffffed80612a7357612a726135af565b5b81820990507f7fffffffffffffffffffffffffffffffffffffffffffffffffffffffffffffed80612aa757612aa66135af565b5b81830991507f7fffffffffffffffffffffffffffffffffffffffffffffffffffffffffffffed80612adb57612ada6135af565b5b82830991507f7fffffffffffffffffffffffffffffffffffffffffffffffffffffffffffffed80612b0f57612b0e6135af565b5b82830991507f7fffffffffffffffffffffffffffffffffffffffffffffffffffffffffffffed80612b4357612b426135af565b5b82830991507f7fffffffffffffffffffffffffffffffffffffffffffffffffffffffffffffed80612b7757612b766135af565b5b82830991507f7fffffffffffffffffffffffffffffffffffffffffffffffffffffffffffffed80612bab57612baa6135af565b5b82830991507f7fffffffffffffffffffffffffffffffffffffffffffffffffffffffffffffed80612bdf57612bde6135af565b5b82830991507f7fffffffffffffffffffffffffffffffffffffffffffffffffffffffffffffed80612c1357612c126135af565b5b82830991507f7fffffffffffffffffffffffffffffffffffffffffffffffffffffffffffffed80612c4757612c466135af565b5b82830991507f7fffffffffffffffffffffffffffffffffffffffffffffffffffffffffffffed80612c7b57612c7a6135af565b5b82830991507f7fffffffffffffffffffffffffffffffffffffffffffffffffffffffffffffed80612caf57612cae6135af565b5b82830991507f7fffffffffffffffffffffffffffffffffffffffffffffffffffffffffffffed80612ce357612ce26135af565b5b82830991507f7fffffffffffffffffffffffffffffffffffffffffffffffffffffffffffffed80612d1757612d166135af565b5b82830991507f7fffffffffffffffffffffffffffffffffffffffffffffffffffffffffffffed80612d4b57612d4a6135af565b5b82830991507f7fffffffffffffffffffffffffffffffffffffffffffffffffffffffffffffed80612d7f57612d7e6135af565b5b82830991507f7fffffffffffffffffffffffffffffffffffffffffffffffffffffffffffffed80612db357612db26135af565b5b82830991507f7fffffffffffffffffffffffffffffffffffffffffffffffffffffffffffffed80612de757612de66135af565b5b82830991507f7fffffffffffffffffffffffffffffffffffffffffffffffffffffffffffffed80612e1b57612e1a6135af565b5b82830991507f7fffffffffffffffffffffffffffffffffffffffffffffffffffffffffffffed80612e4f57612e4e6135af565b5b82830991507f7fffffffffffffffffffffffffffffffffffffffffffffffffffffffffffffed80612e8357612e826135af565b5b82830991507f7fffffffffffffffffffffffffffffffffffffffffffffffffffffffffffffed80612eb757612eb66135af565b5b82830991507f7fffffffffffffffffffffffffffffffffffffffffffffffffffffffffffffed80612eeb57612eea6135af565b5b82830991507f7fffffffffffffffffffffffffffffffffffffffffffffffffffffffffffffed80612f1f57612f1e6135af565b5b82830991507f7fffffffffffffffffffffffffffffffffffffffffffffffffffffffffffffed80612f5357612f526135af565b5b82830991507f7fffffffffffffffffffffffffffffffffffffffffffffffffffffffffffffed80612f8757612f866135af565b5b82830991507f7fffffffffffffffffffffffffffffffffffffffffffffffffffffffffffffed80612fbb57612fba6135af565b5b82830991507f7fffffffffffffffffffffffffffffffffffffffffffffffffffffffffffffed80612fef57612fee6135af565b5b82830991507f7fffffffffffffffffffffffffffffffffffffffffffffffffffffffffffffed80613023576130226135af565b5b82830991507f7fffffffffffffffffffffffffffffffffffffffffffffffffffffffffffffed80613057576130566135af565b5b82830991507f7fffffffffffffffffffffffffffffffffffffffffffffffffffffffffffffed8061308b5761308a6135af565b5b82830991507f7fffffffffffffffffffffffffffffffffffffffffffffffffffffffffffffed806130bf576130be6135af565b5b82830991507f7fffffffffffffffffffffffffffffffffffffffffffffffffffffffffffffed806130f3576130f26135af565b5b82830991507f7fffffffffffffffffffffffffffffffffffffffffffffffffffffffffffffed80613127576131266135af565b5b82830991507f7fffffffffffffffffffffffffffffffffffffffffffffffffffffffffffffed8061315b5761315a6135af565b5b82830991507f7fffffffffffffffffffffffffffffffffffffffffffffffffffffffffffffed8061318f5761318e6135af565b5b82830991507f7fffffffffffffffffffffffffffffffffffffffffffffffffffffffffffffed806131c3576131c26135af565b5b82830991507f7fffffffffffffffffffffffffffffffffffffffffffffffffffffffffffffed806131f7576131f66135af565b5b82830991507f7fffffffffffffffffffffffffffffffffffffffffffffffffffffffffffffed8061322b5761322a6135af565b5b82830991507f7fffffffffffffffffffffffffffffffffffffffffffffffffffffffffffffed8061325f5761325e6135af565b5b82830991507f7fffffffffffffffffffffffffffffffffffffffffffffffffffffffffffffed80613293576132926135af565b5b82830991507f7fffffffffffffffffffffffffffffffffffffffffffffffffffffffffffffed806132c7576132c66135af565b5b82830991507f7fffffffffffffffffffffffffffffffffffffffffffffffffffffffffffffed806132fb576132fa6135af565b5b82830991507f7fffffffffffffffffffffffffffffffffffffffffffffffffffffffffffffed8061332f5761332e6135af565b5b82830991507f7fffffffffffffffffffffffffffffffffffffffffffffffffffffffffffffed80613363576133626135af565b5b82830991507f7fffffffffffffffffffffffffffffffffffffffffffffffffffffffffffffed80613397576133966135af565b5b82830991507f7fffffffffffffffffffffffffffffffffffffffffffffffffffffffffffffed806133cb576133ca6135af565b5b82830991507f7fffffffffffffffffffffffffffffffffffffffffffffffffffffffffffffed806133ff576133fe6135af565b5b82830991507f7fffffffffffffffffffffffffffffffffffffffffffffffffffffffffffffed80613433576134326135af565b5b82830991507f7fffffffffffffffffffffffffffffffffffffffffffffffffffffffffffffed80613467576134666135af565b5b82830991507f7fffffffffffffffffffffffffffffffffffffffffffffffffffffffffffffed8061349b5761349a6135af565b5b82830991507f7fffffffffffffffffffffffffffffffffffffffffffffffffffffffffffffed806134cf576134ce6135af565b5b82830991507f7fffffffffffffffffffffffffffffffffffffffffffffffffffffffffffffed80613503576135026135af565b5b82850993505050915091565b600080fd5b6000819050919050565b61352781613514565b811461353257600080fd5b50565b6000813590506135448161351e565b92915050565b6000602082840312156135605761355f61350f565b5b600061356e84828501613535565b91505092915050565b61358081613514565b82525050565b600060408201905061359b6000830185613577565b6135a86020830184613577565b9392505050565b7f4e487b7100000000000000000000000000000000000000000000000000000000600052601260045260246000fdfea26469706673582212202aa3835639b62ea17037ae411d07f7e171c132521ddf0eaa878bf046082ac97064736f6c634300081a0033",
  "linkReferences": {},
  "deployedLinkReferences": {}
}