{
  "_format": "hh-sol-artifact-1",
  "contractName": "Sha512",
  "sourceName": "@farcaster-attestation/farcaster-solidity/contracts/libraries/Sha512.sol",
  "abi": [
    {
      "inputs": [
        {
          "internalType": "bytes",
          "name": "data",
          "type": "bytes"
        }
      ],
      "name": "hash",
      "outputs": [
        {
          "internalType": "uint64[8]",
          "name": "",
          "type": "uint64[8]"
        }
      ],
      "stateMutability": "pure",
      "type": "function"
    }
  ],
  "bytecode": "0x6110b1610039600b82828239805160001a607314602c57634e487b7160e01b600052600060045260246000fd5b30600052607381538281f3fe73000000000000000000000000000000000000000030146080604052600436106100355760003560e01c8063aa1e84de1461003a575b600080fd5b61004d610048366004610de2565b610063565b60405161005a9190610ed8565b60405180910390f35b61006b610d56565b6040805161010081018252676a09e667f3bcc908815267bb67ae8584caa73b6020820152673c6ef372fe94f82b9181019190915267a54ff53a5f1d36f1606082015267510e527fade682d16080820152679b05688c2b3e6c1f60a0820152671f83d9abfb41bd6b60c0820152675be0cd19137e217960e08201526000806100f0610d75565b6040805161010081018252600080825260208201819052918101829052606081018290526080810182905260a0810182905260c0810182905260e081019190915260408051610a008101825267428a2f98d728ae228152677137449123ef65cd602082015267b5c0fbcfec4d3b2f9181019190915267e9b5dba58189dbbc6060820152673956c25bf348b53860808201526759f111f1b605d01960a082015267923f82a4af194f9b60c082015267ab1c5ed5da6d811860e082015267d807aa98a30302426101008201526712835b0145706fbe61012082015267243185be4ee4b28c61014082015267550c7dc3d5ffb4e26101608201526772be5d74f27b896f6101808201526780deb1fe3b1696b16101a0820152679bdc06a725c712356101c082015267c19bf174cf6926946101e082015267e49b69c19ef14ad261020082015267efbe4786384f25e3610220820152670fc19dc68b8cd5b561024082015267240ca1cc77ac9c65610260820152672de92c6f592b0275610280820152674a7484aa6ea6e4836102a0820152675cb0a9dcbd41fbd46102c08201526776f988da831153b56102e082015267983e5152ee66dfab61030082015267a831c66d2db4321061032082015267b00327c898fb213f61034082015267bf597fc7beef0ee461036082015267c6e00bf33da88fc261038082015267d5a79147930aa7256103a08201526706ca6351e003826f6103c082015267142929670a0e6e706103e08201526727b70a8546d22ffc610400820152672e1b21385c26c926610420820152674d2c6dfc5ac42aed6104408201526753380d139d95b3df61046082015267650a73548baf63de61048082015267766a0abb3c77b2a86104a08201526781c2c92e47edaee66104c08201526792722c851482353b6104e082015267a2bfe8a14cf1036461050082015267a81a664bbc42300161052082015267c24b8b70d0f8979161054082015267c76c51a30654be3061056082015267d192e819d6ef521861058082015267d69906245565a9106105a082015267f40e35855771202a6105c082015267106aa07032bbd1b86105e08201526719a4c116b8d2d0c8610600820152671e376c085141ab53610620820152672748774cdf8eeb996106408201526734b0bcb5e19b48a861066082015267391c0cb3c5c95a63610680820152674ed8aa4ae3418acb6106a0820152675b9cca4f7763e3736106c082015267682e6ff3d6b2b8a36106e082015267748f82ee5defb2fc6107008201526778a5636f43172f606107208201526784c87814a1f0ab72610740820152678cc702081a6439ec6107608201526790befffa23631e2861078082015267a4506cebde82bde96107a082015267bef9a3f7b2c679156107c082015267c67178f2e372532b6107e082015267ca273eceea26619c61080082015267d186b8c721c0c20761082082015267eada7dd6cde0eb1e61084082015267f57d4f7fee6ed1786108608201526706f067aa72176fba610880820152670a637dc5a2c898a66108a082015267113f9804bef90dae6108c0820152671b710b35131c471b6108e08201526728db77f523047d846109008201526732caab7b40c72493610920820152673c9ebe0a15c9bebc61094082015267431d67c49c100d4c610960820152674cc5d4becb3e42b661098082015267597f299cfc657e2a6109a0820152675fcb6fab3ad6faec6109c0820152676c44198c4a4758176109e082015260006105ee89610923565b905060005b608082518161060457610604610f14565b048110156109155760006106188383610b84565b895167ffffffffffffffff90811687526020808c01518216908801526040808c01518216908801526060808c01518216908801526080808c015182169088015260a0808c015182169088015260c0808c015182169088015260e0808c015190911690870152905060005b60508110156108795760108110156106d6578181601081106106a6576106a6610f43565b60200201518782605081106106bd576106bd610f43565b67ffffffffffffffff9092166020929092020152610778565b8660108203605081106106eb576106eb610f43565b602002015161071288600f84036050811061070857610708610f43565b6020020151610c17565b88600784036050811061072757610727610f43565b602002015161074e8a600286036050811061074457610744610f43565b6020020151610c46565b01010187826050811061076357610763610f43565b67ffffffffffffffff90921660209290920201525b86816050811061078a5761078a610f43565b60200201518582605081106107a1576107a1610f43565b60200201516107ca88608001518960a001518a60c0015167ffffffffffffffff83181691161890565b6107d78960800151610c6d565b8960e0015101010101985061080386600001518760200151886040015180821690831691909216181890565b865161080e90610c90565b60c08801805167ffffffffffffffff90811660e08b015260a08a018051821690925260808a018051821690925260608a0180518e01821690925260408a018051821690925260208a01805182169092528951811690915291018a810190911687529750600101610682565b50508351885167ffffffffffffffff910181168952602080860151908a01805190910182169052604080860151908a01805190910182169052606080860151908a01805190910182169052608080860151908a0180519091018216905260a080860151908a0180519091018216905260c080860151908a0180519091018216905260e080860151908a01805190910190911690526001016105f3565b509598975050505050505050565b60606000608083516109359190610f72565b610940906080610fdc565b90506070608084516109529190610f72565b1061097457608083516109659190610f72565b61097190610100610fdc565b90505b60008184516109839190610fef565b67ffffffffffffffff81111561099b5761099b610db3565b6040519080825280601f01601f1916602001820160405280156109c5576020820181803683370190505b50905060005b8451811015610a3a578481815181106109e6576109e6610f43565b602001015160f81c60f81b828281518110610a0357610a03610f43565b60200101907effffffffffffffffffffffffffffffffffffffffffffffffffffffffffffff1916908160001a9053506001016109cb565b50608060f81b81855181518110610a5357610a53610f43565b60200101907effffffffffffffffffffffffffffffffffffffffffffffffffffffffffffff1916908160001a905350600084516008610a929190611002565b60408051608083901b7fffffffffffffffffffffffffffffffff0000000000000000000000000000000016602082015281516010818303018152603090910190915290915060005b8151811015610b7957818160018451610af39190610fdc565b610afd9190610fdc565b81518110610b0d57610b0d610f43565b602001015160f81c60f81b848260018751610b289190610fdc565b610b329190610fdc565b81518110610b4257610b42610f43565b60200101907effffffffffffffffffffffffffffffffffffffffffffffffffffffffffffff1916908160001a905350600101610ada565b509195945050505050565b610b8c610d94565b610b94610d94565b60005b60108160ff161015610c0d57610bcf85610bb2836008611019565b60ff16610bc0876080611002565b610bca9190610fef565b610cb3565b60c01c828260ff1660108110610be757610be7610f43565b67ffffffffffffffff909216602092909202015280610c058161103c565b915050610b97565b5090505b92915050565b60006701ffffffffffffff600783901c16610c33836008610d1e565b610c3e846001610d1e565b181892915050565b60006703ffffffffffffff600683901c16610c6283603d610d1e565b610c3e846013610d1e565b6000610c7a826029610d1e565b610c85836012610d1e565b610c3e84600e610d1e565b6000610c9d826027610d1e565b610ca8836022610d1e565b610c3e84601c610d1e565b60008060005b6008811015610c0d57610ccd816008611002565b85610cd88387610fef565b81518110610ce857610ce8610f43565b01602001517fff0000000000000000000000000000000000000000000000000000000000000016901c9190911790600101610cb9565b600067ffffffffffffffff8316821c610d38836040610fdc565b8467ffffffffffffffff16901b610d4f919061105b565b9392505050565b6040518061010001604052806008906020820280368337509192915050565b60405180610a0001604052806050906020820280368337509192915050565b6040518061020001604052806010906020820280368337509192915050565b7f4e487b7100000000000000000000000000000000000000000000000000000000600052604160045260246000fd5b600060208284031215610df457600080fd5b813567ffffffffffffffff811115610e0b57600080fd5b8201601f81018413610e1c57600080fd5b803567ffffffffffffffff811115610e3657610e36610db3565b6040517fffffffffffffffffffffffffffffffffffffffffffffffffffffffffffffffe0603f7fffffffffffffffffffffffffffffffffffffffffffffffffffffffffffffffe0601f8501160116810181811067ffffffffffffffff82111715610ea257610ea2610db3565b604052818152828201602001861015610eba57600080fd5b81602084016020830137600091810160200191909152949350505050565b6101008101818360005b6008811015610f0b57815167ffffffffffffffff16835260209283019290910190600101610ee2565b50505092915050565b7f4e487b7100000000000000000000000000000000000000000000000000000000600052601260045260246000fd5b7f4e487b7100000000000000000000000000000000000000000000000000000000600052603260045260246000fd5b600082610fa8577f4e487b7100000000000000000000000000000000000000000000000000000000600052601260045260246000fd5b500690565b7f4e487b7100000000000000000000000000000000000000000000000000000000600052601160045260246000fd5b81810381811115610c1157610c11610fad565b80820180821115610c1157610c11610fad565b8082028115828204841417610c1157610c11610fad565b60ff818116838216029081169081811461103557611035610fad565b5092915050565b600060ff821660ff810361105257611052610fad565b60010192915050565b67ffffffffffffffff8181168382160190811115610c1157610c11610fad56fea2646970667358221220d8f9dba9db7cee9a868231524fee0e5b37737731a7b4c7c1f0ceca9fd9c912f364736f6c634300081a0033",
  "linkReferences": {},
  "deployedLinkReferences": {}
}