{
  "_format": "hh-sol-artifact-1",
  "contractName": "FarcasterWalletOptimisticVerifier",
  "sourceName": "contracts/wallet-verifier/FarcasterWalletOptimisticVerifier.sol",
  "abi": [
    {
      "inputs": [
        {
          "internalType": "contract IFarcasterWalletVerifier",
          "name": "verifier",
          "type": "address"
        },
        {
          "internalType": "address",
          "name": "relayer",
          "type": "address"
        }
      ],
      "stateMutability": "nonpayable",
      "type": "constructor"
    },
    {
      "inputs": [],
      "name": "ChallengeFailed",
      "type": "error"
    },
    {
      "inputs": [
        {
          "internalType": "enum MessageType",
          "name": "messageType",
          "type": "uint8"
        }
      ],
      "name": "InvalidMessageType",
      "type": "error"
    },
    {
      "inputs": [
        {
          "internalType": "address",
          "name": "owner",
          "type": "address"
        }
      ],
      "name": "OwnableInvalidOwner",
      "type": "error"
    },
    {
      "inputs": [
        {
          "internalType": "address",
          "name": "account",
          "type": "address"
        }
      ],
      "name": "OwnableUnauthorizedAccount",
      "type": "error"
    },
    {
      "anonymous": false,
      "inputs": [
        {
          "indexed": true,
          "internalType": "enum MessageType",
          "name": "messageType",
          "type": "uint8"
        },
        {
          "indexed": true,
          "internalType": "uint256",
          "name": "fid",
          "type": "uint256"
        },
        {
          "indexed": true,
          "internalType": "address",
          "name": "verifyAddress",
          "type": "address"
        },
        {
          "indexed": false,
          "internalType": "bytes32",
          "name": "publicKey",
          "type": "bytes32"
        },
        {
          "indexed": false,
          "internalType": "bytes32",
          "name": "hash",
          "type": "bytes32"
        },
        {
          "indexed": false,
          "internalType": "bytes",
          "name": "signature",
          "type": "bytes"
        }
      ],
      "name": "Challenged",
      "type": "event"
    },
    {
      "anonymous": false,
      "inputs": [
        {
          "indexed": true,
          "internalType": "address",
          "name": "previousOwner",
          "type": "address"
        },
        {
          "indexed": true,
          "internalType": "address",
          "name": "newOwner",
          "type": "address"
        }
      ],
      "name": "OwnershipTransferred",
      "type": "event"
    },
    {
      "anonymous": false,
      "inputs": [
        {
          "indexed": true,
          "internalType": "enum MessageType",
          "name": "messageType",
          "type": "uint8"
        },
        {
          "indexed": true,
          "internalType": "uint256",
          "name": "fid",
          "type": "uint256"
        },
        {
          "indexed": true,
          "internalType": "address",
          "name": "verifyAddress",
          "type": "address"
        },
        {
          "indexed": false,
          "internalType": "bytes32",
          "name": "publicKey",
          "type": "bytes32"
        },
        {
          "indexed": false,
          "internalType": "bytes32",
          "name": "hash",
          "type": "bytes32"
        },
        {
          "indexed": false,
          "internalType": "bytes",
          "name": "signature",
          "type": "bytes"
        }
      ],
      "name": "SubmitVerification",
      "type": "event"
    },
    {
      "inputs": [
        {
          "internalType": "uint256",
          "name": "fid",
          "type": "uint256"
        },
        {
          "internalType": "address",
          "name": "verifyAddress",
          "type": "address"
        },
        {
          "internalType": "bytes32",
          "name": "publicKey",
          "type": "bytes32"
        },
        {
          "internalType": "bytes",
          "name": "signature",
          "type": "bytes"
        }
      ],
      "name": "challengeAdd",
      "outputs": [],
      "stateMutability": "nonpayable",
      "type": "function"
    },
    {
      "inputs": [
        {
          "internalType": "uint256",
          "name": "fid",
          "type": "uint256"
        },
        {
          "internalType": "address",
          "name": "verifyAddress",
          "type": "address"
        },
        {
          "internalType": "bytes32",
          "name": "publicKey",
          "type": "bytes32"
        },
        {
          "internalType": "bytes",
          "name": "signature",
          "type": "bytes"
        }
      ],
      "name": "challengeRemove",
      "outputs": [],
      "stateMutability": "nonpayable",
      "type": "function"
    },
    {
      "inputs": [],
      "name": "challengingPeriod",
      "outputs": [
        {
          "internalType": "uint256",
          "name": "",
          "type": "uint256"
        }
      ],
      "stateMutability": "view",
      "type": "function"
    },
    {
      "inputs": [
        {
          "internalType": "enum MessageType",
          "name": "messageType",
          "type": "uint8"
        },
        {
          "internalType": "uint256",
          "name": "fid",
          "type": "uint256"
        },
        {
          "internalType": "address",
          "name": "verifyAddress",
          "type": "address"
        },
        {
          "internalType": "bytes32",
          "name": "publicKey",
          "type": "bytes32"
        },
        {
          "internalType": "bytes",
          "name": "signature",
          "type": "bytes"
        }
      ],
      "name": "hash",
      "outputs": [
        {
          "internalType": "bytes32",
          "name": "",
          "type": "bytes32"
        }
      ],
      "stateMutability": "pure",
      "type": "function"
    },
    {
      "inputs": [],
      "name": "onchainVerifier",
      "outputs": [
        {
          "internalType": "contract IFarcasterWalletVerifier",
          "name": "",
          "type": "address"
        }
      ],
      "stateMutability": "view",
      "type": "function"
    },
    {
      "inputs": [],
      "name": "owner",
      "outputs": [
        {
          "internalType": "address",
          "name": "",
          "type": "address"
        }
      ],
      "stateMutability": "view",
      "type": "function"
    },
    {
      "inputs": [],
      "name": "renounceOwnership",
      "outputs": [],
      "stateMutability": "nonpayable",
      "type": "function"
    },
    {
      "inputs": [
        {
          "internalType": "enum MessageType",
          "name": "messageType",
          "type": "uint8"
        },
        {
          "internalType": "uint256",
          "name": "fid",
          "type": "uint256"
        },
        {
          "internalType": "address",
          "name": "verifyAddress",
          "type": "address"
        },
        {
          "internalType": "bytes32",
          "name": "publicKey",
          "type": "bytes32"
        },
        {
          "internalType": "bytes",
          "name": "signature",
          "type": "bytes"
        }
      ],
      "name": "submitVerification",
      "outputs": [],
      "stateMutability": "nonpayable",
      "type": "function"
    },
    {
      "inputs": [
        {
          "internalType": "address",
          "name": "newOwner",
          "type": "address"
        }
      ],
      "name": "transferOwnership",
      "outputs": [],
      "stateMutability": "nonpayable",
      "type": "function"
    },
    {
      "inputs": [
        {
          "internalType": "bytes32",
          "name": "",
          "type": "bytes32"
        }
      ],
      "name": "verificationTimestamp",
      "outputs": [
        {
          "internalType": "uint256",
          "name": "",
          "type": "uint256"
        }
      ],
      "stateMutability": "view",
      "type": "function"
    },
    {
      "inputs": [
        {
          "internalType": "uint256",
          "name": "fid",
          "type": "uint256"
        },
        {
          "internalType": "address",
          "name": "verifyAddress",
          "type": "address"
        },
        {
          "internalType": "bytes32",
          "name": "publicKey",
          "type": "bytes32"
        },
        {
          "internalType": "bytes",
          "name": "signature",
          "type": "bytes"
        }
      ],
      "name": "verifyAdd",
      "outputs": [
        {
          "internalType": "bool",
          "name": "",
          "type": "bool"
        }
      ],
      "stateMutability": "view",
      "type": "function"
    },
    {
      "inputs": [
        {
          "internalType": "uint256",
          "name": "fid",
          "type": "uint256"
        },
        {
          "internalType": "address",
          "name": "verifyAddress",
          "type": "address"
        },
        {
          "internalType": "bytes32",
          "name": "publicKey",
          "type": "bytes32"
        },
        {
          "internalType": "bytes",
          "name": "signature",
          "type": "bytes"
        }
      ],
      "name": "verifyRemove",
      "outputs": [
        {
          "internalType": "bool",
          "name": "",
          "type": "bool"
        }
      ],
      "stateMutability": "view",
      "type": "function"
    }
  ],
  "bytecode": "0x60a06040526201518060015534801561001757600080fd5b506040516114813803806114818339818101604052810190610039919061025c565b80600073ffffffffffffffffffffffffffffffffffffffff168173ffffffffffffffffffffffffffffffffffffffff16036100ac5760006040517f1e4fbdf70000000000000000000000000000000000000000000000000000000081526004016100a391906102ab565b60405180910390fd5b6100bb816100f760201b60201c565b508173ffffffffffffffffffffffffffffffffffffffff1660808173ffffffffffffffffffffffffffffffffffffffff168152505050506102c6565b60008060009054906101000a900473ffffffffffffffffffffffffffffffffffffffff169050816000806101000a81548173ffffffffffffffffffffffffffffffffffffffff021916908373ffffffffffffffffffffffffffffffffffffffff1602179055508173ffffffffffffffffffffffffffffffffffffffff168173ffffffffffffffffffffffffffffffffffffffff167f8be0079c531659141344cd1fd0a4f28419497f9722a3daafe3b4186f6b6457e060405160405180910390a35050565b600080fd5b600073ffffffffffffffffffffffffffffffffffffffff82169050919050565b60006101eb826101c0565b9050919050565b60006101fd826101e0565b9050919050565b61020d816101f2565b811461021857600080fd5b50565b60008151905061022a81610204565b92915050565b610239816101e0565b811461024457600080fd5b50565b60008151905061025681610230565b92915050565b60008060408385031215610273576102726101bb565b5b60006102818582860161021b565b925050602061029285828601610247565b9150509250929050565b6102a5816101e0565b82525050565b60006020820190506102c0600083018461029c565b92915050565b6080516111926102ef60003960008181610267015281816102f201526106fe01526111926000f3fe608060405234801561001057600080fd5b50600436106100b45760003560e01c80638da5cb5b116100715780638da5cb5b1461017b57806396027c4e14610199578063c6f52a64146101c9578063f2fde38b146101e5578063f4c24ea914610201578063feadff1414610231576100b4565b8063077ae98d146100b95780630d655ce1146100e95780630e3b0ceb146101075780632355cf6f14610137578063617695ef14610155578063715018a614610171575b600080fd5b6100d360048036038101906100ce9190610a0a565b61024d565b6040516100e09190610a50565b60405180910390f35b6100f1610265565b6040516100fe9190610aea565b60405180910390f35b610121600480360381019061011c9190610cb5565b610289565b60405161012e9190610d53565b60405180910390f35b61013f6102ea565b60405161014c9190610a50565b60405180910390f35b61016f600480360381019061016a9190610cb5565b6102f0565b005b610179610461565b005b610183610475565b6040516101909190610d7d565b60405180910390f35b6101b360048036038101906101ae9190610dbd565b61049e565b6040516101c09190610e63565b60405180910390f35b6101e360048036038101906101de9190610dbd565b610576565b005b6101ff60048036038101906101fa9190610e7e565b610615565b005b61021b60048036038101906102169190610cb5565b61069b565b6040516102289190610d53565b60405180910390f35b61024b60048036038101906102469190610cb5565b6106fc565b005b60026020528060005260406000206000915090505481565b7f000000000000000000000000000000000000000000000000000000000000000081565b60008061029a60078787878761049e565b9050600060026000838152602001908152602001600020541180156102df575060015460026000838152602001908152602001600020546102db9190610eda565b4210155b915050949350505050565b60015481565b7f000000000000000000000000000000000000000000000000000000000000000073ffffffffffffffffffffffffffffffffffffffff16630e3b0ceb858585856040518563ffffffff1660e01b815260040161034f9493929190610f8d565b602060405180830381865afa92505050801561038957506040513d601f19601f820116820180604052508101906103869190611005565b60015b156103c85780156103c6576040517f85637c1400000000000000000000000000000000000000000000000000000000815260040160405180910390fd5b505b60006103d860078686868661049e565b9050600060026000838152602001908152602001600020819055508373ffffffffffffffffffffffffffffffffffffffff16856007600e81111561041f5761041e611032565b5b7f77c5dcb3bf7cd7f7cd656fe18039dd6096a97b782169f220bb4b4271ca468b2786858760405161045293929190611061565b60405180910390a45050505050565b61046961086d565b61047360006108f4565b565b60008060009054906101000a900473ffffffffffffffffffffffffffffffffffffffff16905090565b60006007600e8111156104b4576104b3611032565b5b86600e8111156104c7576104c6611032565b5b141580156104fa57506008600e8111156104e4576104e3611032565b5b86600e8111156104f7576104f6611032565b5b14155b1561053c57856040517fb7ef4b2000000000000000000000000000000000000000000000000000000000815260040161053391906110e7565b60405180910390fd5b8585858585604051602001610555959493929190611102565b60405160208183030381529060405280519060200120905095945050505050565b61057e61086d565b600061058d868686868661049e565b90504260026000838152602001908152602001600020819055508373ffffffffffffffffffffffffffffffffffffffff168587600e8111156105d2576105d1611032565b5b7f0156567f9bf6ac87e975a83c16a0f538a200e5b51e46384928a92689b7144def86858760405161060593929190611061565b60405180910390a4505050505050565b61061d61086d565b600073ffffffffffffffffffffffffffffffffffffffff168173ffffffffffffffffffffffffffffffffffffffff160361068f5760006040517f1e4fbdf70000000000000000000000000000000000000000000000000000000081526004016106869190610d7d565b60405180910390fd5b610698816108f4565b50565b6000806106ac60088787878761049e565b9050600060026000838152602001908152602001600020541180156106f1575060015460026000838152602001908152602001600020546106ed9190610eda565b4210155b915050949350505050565b7f000000000000000000000000000000000000000000000000000000000000000073ffffffffffffffffffffffffffffffffffffffff1663f4c24ea9858585856040518563ffffffff1660e01b815260040161075b9493929190610f8d565b602060405180830381865afa92505050801561079557506040513d601f19601f820116820180604052508101906107929190611005565b60015b156107d45780156107d2576040517f85637c1400000000000000000000000000000000000000000000000000000000815260040160405180910390fd5b505b60006107e460088686868661049e565b9050600060026000838152602001908152602001600020819055508373ffffffffffffffffffffffffffffffffffffffff16856008600e81111561082b5761082a611032565b5b7f77c5dcb3bf7cd7f7cd656fe18039dd6096a97b782169f220bb4b4271ca468b2786858760405161085e93929190611061565b60405180910390a45050505050565b6108756109b8565b73ffffffffffffffffffffffffffffffffffffffff16610893610475565b73ffffffffffffffffffffffffffffffffffffffff16146108f2576108b66109b8565b6040517f118cdaa70000000000000000000000000000000000000000000000000000000081526004016108e99190610d7d565b60405180910390fd5b565b60008060009054906101000a900473ffffffffffffffffffffffffffffffffffffffff169050816000806101000a81548173ffffffffffffffffffffffffffffffffffffffff021916908373ffffffffffffffffffffffffffffffffffffffff1602179055508173ffffffffffffffffffffffffffffffffffffffff168173ffffffffffffffffffffffffffffffffffffffff167f8be0079c531659141344cd1fd0a4f28419497f9722a3daafe3b4186f6b6457e060405160405180910390a35050565b600033905090565b6000604051905090565b600080fd5b600080fd5b6000819050919050565b6109e7816109d4565b81146109f257600080fd5b50565b600081359050610a04816109de565b92915050565b600060208284031215610a2057610a1f6109ca565b5b6000610a2e848285016109f5565b91505092915050565b6000819050919050565b610a4a81610a37565b82525050565b6000602082019050610a656000830184610a41565b92915050565b600073ffffffffffffffffffffffffffffffffffffffff82169050919050565b6000819050919050565b6000610ab0610aab610aa684610a6b565b610a8b565b610a6b565b9050919050565b6000610ac282610a95565b9050919050565b6000610ad482610ab7565b9050919050565b610ae481610ac9565b82525050565b6000602082019050610aff6000830184610adb565b92915050565b610b0e81610a37565b8114610b1957600080fd5b50565b600081359050610b2b81610b05565b92915050565b6000610b3c82610a6b565b9050919050565b610b4c81610b31565b8114610b5757600080fd5b50565b600081359050610b6981610b43565b92915050565b600080fd5b600080fd5b6000601f19601f8301169050919050565b7f4e487b7100000000000000000000000000000000000000000000000000000000600052604160045260246000fd5b610bc282610b79565b810181811067ffffffffffffffff82111715610be157610be0610b8a565b5b80604052505050565b6000610bf46109c0565b9050610c008282610bb9565b919050565b600067ffffffffffffffff821115610c2057610c1f610b8a565b5b610c2982610b79565b9050602081019050919050565b82818337600083830152505050565b6000610c58610c5384610c05565b610bea565b905082815260208101848484011115610c7457610c73610b74565b5b610c7f848285610c36565b509392505050565b600082601f830112610c9c57610c9b610b6f565b5b8135610cac848260208601610c45565b91505092915050565b60008060008060808587031215610ccf57610cce6109ca565b5b6000610cdd87828801610b1c565b9450506020610cee87828801610b5a565b9350506040610cff878288016109f5565b925050606085013567ffffffffffffffff811115610d2057610d1f6109cf565b5b610d2c87828801610c87565b91505092959194509250565b60008115159050919050565b610d4d81610d38565b82525050565b6000602082019050610d686000830184610d44565b92915050565b610d7781610b31565b82525050565b6000602082019050610d926000830184610d6e565b92915050565b600f8110610da557600080fd5b50565b600081359050610db781610d98565b92915050565b600080600080600060a08688031215610dd957610dd86109ca565b5b6000610de788828901610da8565b9550506020610df888828901610b1c565b9450506040610e0988828901610b5a565b9350506060610e1a888289016109f5565b925050608086013567ffffffffffffffff811115610e3b57610e3a6109cf565b5b610e4788828901610c87565b9150509295509295909350565b610e5d816109d4565b82525050565b6000602082019050610e786000830184610e54565b92915050565b600060208284031215610e9457610e936109ca565b5b6000610ea284828501610b5a565b91505092915050565b7f4e487b7100000000000000000000000000000000000000000000000000000000600052601160045260246000fd5b6000610ee582610a37565b9150610ef083610a37565b9250828201905080821115610f0857610f07610eab565b5b92915050565b600081519050919050565b600082825260208201905092915050565b60005b83811015610f48578082015181840152602081019050610f2d565b60008484015250505050565b6000610f5f82610f0e565b610f698185610f19565b9350610f79818560208601610f2a565b610f8281610b79565b840191505092915050565b6000608082019050610fa26000830187610a41565b610faf6020830186610d6e565b610fbc6040830185610e54565b8181036060830152610fce8184610f54565b905095945050505050565b610fe281610d38565b8114610fed57600080fd5b50565b600081519050610fff81610fd9565b92915050565b60006020828403121561101b5761101a6109ca565b5b600061102984828501610ff0565b91505092915050565b7f4e487b7100000000000000000000000000000000000000000000000000000000600052602160045260246000fd5b60006060820190506110766000830186610e54565b6110836020830185610e54565b81810360408301526110958184610f54565b9050949350505050565b600f81106110b0576110af611032565b5b50565b60008190506110c18261109f565b919050565b60006110d1826110b3565b9050919050565b6110e1816110c6565b82525050565b60006020820190506110fc60008301846110d8565b92915050565b600060a08201905061111760008301886110d8565b6111246020830187610a41565b6111316040830186610d6e565b61113e6060830185610e54565b81810360808301526111508184610f54565b9050969550505050505056fea2646970667358221220e63c061079d4ee3b0f68372e13176b8ee94e361ad640db2d942580b7a33693e764736f6c634300081a0033",
  "linkReferences": {},
  "deployedLinkReferences": {}
}