{
  "_format": "hh-sol-artifact-1",
  "contractName": "FarcasterResolver",
  "sourceName": "contracts/FarcasterResolver.sol",
  "abi": [
    {
      "inputs": [
        {
          "internalType": "contract IEAS",
          "name": "eas",
          "type": "address"
        },
        {
          "internalType": "address",
          "name": "admin",
          "type": "address"
        }
      ],
      "stateMutability": "nonpayable",
      "type": "constructor"
    },
    {
      "inputs": [],
      "name": "AccessControlBadConfirmation",
      "type": "error"
    },
    {
      "inputs": [
        {
          "internalType": "address",
          "name": "account",
          "type": "address"
        },
        {
          "internalType": "bytes32",
          "name": "neededRole",
          "type": "bytes32"
        }
      ],
      "name": "AccessControlUnauthorizedAccount",
      "type": "error"
    },
    {
      "inputs": [],
      "name": "AccessDenied",
      "type": "error"
    },
    {
      "inputs": [],
      "name": "InsufficientValue",
      "type": "error"
    },
    {
      "inputs": [],
      "name": "InvalidEAS",
      "type": "error"
    },
    {
      "inputs": [],
      "name": "InvalidLength",
      "type": "error"
    },
    {
      "inputs": [],
      "name": "NotPayable",
      "type": "error"
    },
    {
      "anonymous": false,
      "inputs": [
        {
          "indexed": true,
          "internalType": "bytes32",
          "name": "role",
          "type": "bytes32"
        },
        {
          "indexed": true,
          "internalType": "bytes32",
          "name": "previousAdminRole",
          "type": "bytes32"
        },
        {
          "indexed": true,
          "internalType": "bytes32",
          "name": "newAdminRole",
          "type": "bytes32"
        }
      ],
      "name": "RoleAdminChanged",
      "type": "event"
    },
    {
      "anonymous": false,
      "inputs": [
        {
          "indexed": true,
          "internalType": "bytes32",
          "name": "role",
          "type": "bytes32"
        },
        {
          "indexed": true,
          "internalType": "address",
          "name": "account",
          "type": "address"
        },
        {
          "indexed": true,
          "internalType": "address",
          "name": "sender",
          "type": "address"
        }
      ],
      "name": "RoleGranted",
      "type": "event"
    },
    {
      "anonymous": false,
      "inputs": [
        {
          "indexed": true,
          "internalType": "bytes32",
          "name": "role",
          "type": "bytes32"
        },
        {
          "indexed": true,
          "internalType": "address",
          "name": "account",
          "type": "address"
        },
        {
          "indexed": true,
          "internalType": "address",
          "name": "sender",
          "type": "address"
        }
      ],
      "name": "RoleRevoked",
      "type": "event"
    },
    {
      "anonymous": false,
      "inputs": [
        {
          "indexed": false,
          "internalType": "address",
          "name": "verifier",
          "type": "address"
        }
      ],
      "name": "SetPublicKeyVerifier",
      "type": "event"
    },
    {
      "anonymous": false,
      "inputs": [
        {
          "indexed": true,
          "internalType": "uint256",
          "name": "method",
          "type": "uint256"
        },
        {
          "indexed": false,
          "internalType": "address",
          "name": "verifier",
          "type": "address"
        }
      ],
      "name": "SetVerifier",
      "type": "event"
    },
    {
      "anonymous": false,
      "inputs": [
        {
          "indexed": true,
          "internalType": "uint256",
          "name": "fid",
          "type": "uint256"
        },
        {
          "indexed": true,
          "internalType": "address",
          "name": "verifyAddress",
          "type": "address"
        },
        {
          "indexed": true,
          "internalType": "uint256",
          "name": "verificationMethod",
          "type": "uint256"
        },
        {
          "indexed": false,
          "internalType": "bytes32",
          "name": "publicKey",
          "type": "bytes32"
        },
        {
          "indexed": false,
          "internalType": "bytes",
          "name": "signature",
          "type": "bytes"
        }
      ],
      "name": "VerificationAttested",
      "type": "event"
    },
    {
      "anonymous": false,
      "inputs": [
        {
          "indexed": true,
          "internalType": "uint256",
          "name": "fid",
          "type": "uint256"
        },
        {
          "indexed": true,
          "internalType": "address",
          "name": "verifyAddress",
          "type": "address"
        },
        {
          "indexed": true,
          "internalType": "uint256",
          "name": "verificationMethod",
          "type": "uint256"
        },
        {
          "indexed": false,
          "internalType": "bytes32",
          "name": "publicKey",
          "type": "bytes32"
        },
        {
          "indexed": false,
          "internalType": "bytes",
          "name": "signature",
          "type": "bytes"
        }
      ],
      "name": "VerificationRevoked",
      "type": "event"
    },
    {
      "inputs": [],
      "name": "DEFAULT_ADMIN_ROLE",
      "outputs": [
        {
          "internalType": "bytes32",
          "name": "",
          "type": "bytes32"
        }
      ],
      "stateMutability": "view",
      "type": "function"
    },
    {
      "inputs": [],
      "name": "OPERATOR_ROLE",
      "outputs": [
        {
          "internalType": "bytes32",
          "name": "",
          "type": "bytes32"
        }
      ],
      "stateMutability": "view",
      "type": "function"
    },
    {
      "inputs": [],
      "name": "SECURITY_ROLE",
      "outputs": [
        {
          "internalType": "bytes32",
          "name": "",
          "type": "bytes32"
        }
      ],
      "stateMutability": "view",
      "type": "function"
    },
    {
      "inputs": [
        {
          "components": [
            {
              "internalType": "bytes32",
              "name": "uid",
              "type": "bytes32"
            },
            {
              "internalType": "bytes32",
              "name": "schema",
              "type": "bytes32"
            },
            {
              "internalType": "uint64",
              "name": "time",
              "type": "uint64"
            },
            {
              "internalType": "uint64",
              "name": "expirationTime",
              "type": "uint64"
            },
            {
              "internalType": "uint64",
              "name": "revocationTime",
              "type": "uint64"
            },
            {
              "internalType": "bytes32",
              "name": "refUID",
              "type": "bytes32"
            },
            {
              "internalType": "address",
              "name": "recipient",
              "type": "address"
            },
            {
              "internalType": "address",
              "name": "attester",
              "type": "address"
            },
            {
              "internalType": "bool",
              "name": "revocable",
              "type": "bool"
            },
            {
              "internalType": "bytes",
              "name": "data",
              "type": "bytes"
            }
          ],
          "internalType": "struct Attestation",
          "name": "attestation",
          "type": "tuple"
        }
      ],
      "name": "attest",
      "outputs": [
        {
          "internalType": "bool",
          "name": "",
          "type": "bool"
        }
      ],
      "stateMutability": "payable",
      "type": "function"
    },
    {
      "inputs": [
        {
          "internalType": "uint256",
          "name": "_fid",
          "type": "uint256"
        },
        {
          "internalType": "address",
          "name": "_verifyAddr",
          "type": "address"
        }
      ],
      "name": "computeKey",
      "outputs": [
        {
          "internalType": "bytes32",
          "name": "",
          "type": "bytes32"
        }
      ],
      "stateMutability": "pure",
      "type": "function"
    },
    {
      "inputs": [
        {
          "internalType": "uint256",
          "name": "method",
          "type": "uint256"
        }
      ],
      "name": "emergencyRemoveVerifier",
      "outputs": [],
      "stateMutability": "nonpayable",
      "type": "function"
    },
    {
      "inputs": [
        {
          "internalType": "bytes32",
          "name": "role",
          "type": "bytes32"
        }
      ],
      "name": "getRoleAdmin",
      "outputs": [
        {
          "internalType": "bytes32",
          "name": "",
          "type": "bytes32"
        }
      ],
      "stateMutability": "view",
      "type": "function"
    },
    {
      "inputs": [
        {
          "internalType": "bytes32",
          "name": "role",
          "type": "bytes32"
        },
        {
          "internalType": "address",
          "name": "account",
          "type": "address"
        }
      ],
      "name": "grantRole",
      "outputs": [],
      "stateMutability": "nonpayable",
      "type": "function"
    },
    {
      "inputs": [
        {
          "internalType": "bytes32",
          "name": "role",
          "type": "bytes32"
        },
        {
          "internalType": "address",
          "name": "account",
          "type": "address"
        }
      ],
      "name": "hasRole",
      "outputs": [
        {
          "internalType": "bool",
          "name": "",
          "type": "bool"
        }
      ],
      "stateMutability": "view",
      "type": "function"
    },
    {
      "inputs": [],
      "name": "isPayable",
      "outputs": [
        {
          "internalType": "bool",
          "name": "",
          "type": "bool"
        }
      ],
      "stateMutability": "pure",
      "type": "function"
    },
    {
      "inputs": [
        {
          "components": [
            {
              "internalType": "bytes32",
              "name": "uid",
              "type": "bytes32"
            },
            {
              "internalType": "bytes32",
              "name": "schema",
              "type": "bytes32"
            },
            {
              "internalType": "uint64",
              "name": "time",
              "type": "uint64"
            },
            {
              "internalType": "uint64",
              "name": "expirationTime",
              "type": "uint64"
            },
            {
              "internalType": "uint64",
              "name": "revocationTime",
              "type": "uint64"
            },
            {
              "internalType": "bytes32",
              "name": "refUID",
              "type": "bytes32"
            },
            {
              "internalType": "address",
              "name": "recipient",
              "type": "address"
            },
            {
              "internalType": "address",
              "name": "attester",
              "type": "address"
            },
            {
              "internalType": "bool",
              "name": "revocable",
              "type": "bool"
            },
            {
              "internalType": "bytes",
              "name": "data",
              "type": "bytes"
            }
          ],
          "internalType": "struct Attestation[]",
          "name": "attestations",
          "type": "tuple[]"
        },
        {
          "internalType": "uint256[]",
          "name": "values",
          "type": "uint256[]"
        }
      ],
      "name": "multiAttest",
      "outputs": [
        {
          "internalType": "bool",
          "name": "",
          "type": "bool"
        }
      ],
      "stateMutability": "payable",
      "type": "function"
    },
    {
      "inputs": [
        {
          "components": [
            {
              "internalType": "bytes32",
              "name": "uid",
              "type": "bytes32"
            },
            {
              "internalType": "bytes32",
              "name": "schema",
              "type": "bytes32"
            },
            {
              "internalType": "uint64",
              "name": "time",
              "type": "uint64"
            },
            {
              "internalType": "uint64",
              "name": "expirationTime",
              "type": "uint64"
            },
            {
              "internalType": "uint64",
              "name": "revocationTime",
              "type": "uint64"
            },
            {
              "internalType": "bytes32",
              "name": "refUID",
              "type": "bytes32"
            },
            {
              "internalType": "address",
              "name": "recipient",
              "type": "address"
            },
            {
              "internalType": "address",
              "name": "attester",
              "type": "address"
            },
            {
              "internalType": "bool",
              "name": "revocable",
              "type": "bool"
            },
            {
              "internalType": "bytes",
              "name": "data",
              "type": "bytes"
            }
          ],
          "internalType": "struct Attestation[]",
          "name": "attestations",
          "type": "tuple[]"
        },
        {
          "internalType": "uint256[]",
          "name": "values",
          "type": "uint256[]"
        }
      ],
      "name": "multiRevoke",
      "outputs": [
        {
          "internalType": "bool",
          "name": "",
          "type": "bool"
        }
      ],
      "stateMutability": "payable",
      "type": "function"
    },
    {
      "inputs": [],
      "name": "publicKeyVerifier",
      "outputs": [
        {
          "internalType": "contract IFarcasterPublicKeyVerifier",
          "name": "",
          "type": "address"
        }
      ],
      "stateMutability": "view",
      "type": "function"
    },
    {
      "inputs": [
        {
          "internalType": "bytes32",
          "name": "role",
          "type": "bytes32"
        },
        {
          "internalType": "address",
          "name": "callerConfirmation",
          "type": "address"
        }
      ],
      "name": "renounceRole",
      "outputs": [],
      "stateMutability": "nonpayable",
      "type": "function"
    },
    {
      "inputs": [
        {
          "components": [
            {
              "internalType": "bytes32",
              "name": "uid",
              "type": "bytes32"
            },
            {
              "internalType": "bytes32",
              "name": "schema",
              "type": "bytes32"
            },
            {
              "internalType": "uint64",
              "name": "time",
              "type": "uint64"
            },
            {
              "internalType": "uint64",
              "name": "expirationTime",
              "type": "uint64"
            },
            {
              "internalType": "uint64",
              "name": "revocationTime",
              "type": "uint64"
            },
            {
              "internalType": "bytes32",
              "name": "refUID",
              "type": "bytes32"
            },
            {
              "internalType": "address",
              "name": "recipient",
              "type": "address"
            },
            {
              "internalType": "address",
              "name": "attester",
              "type": "address"
            },
            {
              "internalType": "bool",
              "name": "revocable",
              "type": "bool"
            },
            {
              "internalType": "bytes",
              "name": "data",
              "type": "bytes"
            }
          ],
          "internalType": "struct Attestation",
          "name": "attestation",
          "type": "tuple"
        }
      ],
      "name": "revoke",
      "outputs": [
        {
          "internalType": "bool",
          "name": "",
          "type": "bool"
        }
      ],
      "stateMutability": "payable",
      "type": "function"
    },
    {
      "inputs": [
        {
          "internalType": "bytes32",
          "name": "role",
          "type": "bytes32"
        },
        {
          "internalType": "address",
          "name": "account",
          "type": "address"
        }
      ],
      "name": "revokeRole",
      "outputs": [],
      "stateMutability": "nonpayable",
      "type": "function"
    },
    {
      "inputs": [
        {
          "internalType": "contract IFarcasterPublicKeyVerifier",
          "name": "verifier",
          "type": "address"
        }
      ],
      "name": "setPublicKeyVerifier",
      "outputs": [],
      "stateMutability": "nonpayable",
      "type": "function"
    },
    {
      "inputs": [
        {
          "internalType": "uint256",
          "name": "method",
          "type": "uint256"
        },
        {
          "internalType": "contract IFarcasterWalletVerifier",
          "name": "verifier",
          "type": "address"
        }
      ],
      "name": "setVerifier",
      "outputs": [],
      "stateMutability": "nonpayable",
      "type": "function"
    },
    {
      "inputs": [
        {
          "internalType": "bytes4",
          "name": "interfaceId",
          "type": "bytes4"
        }
      ],
      "name": "supportsInterface",
      "outputs": [
        {
          "internalType": "bool",
          "name": "",
          "type": "bool"
        }
      ],
      "stateMutability": "view",
      "type": "function"
    },
    {
      "inputs": [
        {
          "internalType": "bytes32",
          "name": "",
          "type": "bytes32"
        }
      ],
      "name": "uid",
      "outputs": [
        {
          "internalType": "bytes32",
          "name": "",
          "type": "bytes32"
        }
      ],
      "stateMutability": "view",
      "type": "function"
    },
    {
      "inputs": [
        {
          "internalType": "uint256",
          "name": "",
          "type": "uint256"
        }
      ],
      "name": "verifiers",
      "outputs": [
        {
          "internalType": "contract IFarcasterWalletVerifier",
          "name": "",
          "type": "address"
        }
      ],
      "stateMutability": "view",
      "type": "function"
    },
    {
      "inputs": [
        {
          "internalType": "uint256",
          "name": "fid",
          "type": "uint256"
        },
        {
          "internalType": "address",
          "name": "verifyAddress",
          "type": "address"
        },
        {
          "internalType": "bytes32",
          "name": "publicKey",
          "type": "bytes32"
        },
        {
          "internalType": "uint256",
          "name": "method",
          "type": "uint256"
        },
        {
          "internalType": "bytes",
          "name": "signature",
          "type": "bytes"
        }
      ],
      "name": "verifyAdd",
      "outputs": [
        {
          "internalType": "bool",
          "name": "",
          "type": "bool"
        }
      ],
      "stateMutability": "view",
      "type": "function"
    },
    {
      "inputs": [
        {
          "internalType": "uint256",
          "name": "fid",
          "type": "uint256"
        },
        {
          "internalType": "address",
          "name": "verifyAddress",
          "type": "address"
        },
        {
          "internalType": "bytes32",
          "name": "publicKey",
          "type": "bytes32"
        },
        {
          "internalType": "uint256",
          "name": "method",
          "type": "uint256"
        },
        {
          "internalType": "bytes",
          "name": "signature",
          "type": "bytes"
        }
      ],
      "name": "verifyRemove",
      "outputs": [
        {
          "internalType": "bool",
          "name": "",
          "type": "bool"
        }
      ],
      "stateMutability": "view",
      "type": "function"
    },
    {
      "inputs": [],
      "name": "version",
      "outputs": [
        {
          "internalType": "string",
          "name": "",
          "type": "string"
        }
      ],
      "stateMutability": "view",
      "type": "function"
    },
    {
      "stateMutability": "payable",
      "type": "receive"
    }
  ],
  "bytecode": "0x61010060405234801561001157600080fd5b50604051612a89380380612a898339818101604052810190610033919061034e565b808260016003600082608081815250508160a081815250508060c08181525050505050600073ffffffffffffffffffffffffffffffffffffffff168173ffffffffffffffffffffffffffffffffffffffff16036100bc576040517f83780ffe00000000000000000000000000000000000000000000000000000000815260040160405180910390fd5b8073ffffffffffffffffffffffffffffffffffffffff1660e08173ffffffffffffffffffffffffffffffffffffffff1681525050506101046000801b8261013e60201b60201c565b506101357f97667070c54ef182b0f5858b034beac1b6f3089aa2d3188bb1e8929f4fa9b9298261013e60201b60201c565b5050505061038e565b6000610150838361023b60201b60201c565b61023057600160008085815260200190815260200160002060000160008473ffffffffffffffffffffffffffffffffffffffff1673ffffffffffffffffffffffffffffffffffffffff16815260200190815260200160002060006101000a81548160ff0219169083151502179055506101cd6102a560201b60201c565b73ffffffffffffffffffffffffffffffffffffffff168273ffffffffffffffffffffffffffffffffffffffff16847f2f8788117e7eff1d82e926ec794901d17c78024a50270940304540a733656f0d60405160405180910390a460019050610235565b600090505b92915050565b600080600084815260200190815260200160002060000160008373ffffffffffffffffffffffffffffffffffffffff1673ffffffffffffffffffffffffffffffffffffffff16815260200190815260200160002060009054906101000a900460ff16905092915050565b600033905090565b600080fd5b600073ffffffffffffffffffffffffffffffffffffffff82169050919050565b60006102dd826102b2565b9050919050565b60006102ef826102d2565b9050919050565b6102ff816102e4565b811461030a57600080fd5b50565b60008151905061031c816102f6565b92915050565b61032b816102d2565b811461033657600080fd5b50565b60008151905061034881610322565b92915050565b60008060408385031215610365576103646102ad565b5b60006103738582860161030d565b925050602061038485828601610339565b9150509250929050565b60805160a05160c05160e0516126c26103c760003960006114ed015260006109850152600061095c0152600061093301526126c26000f3fe60806040526004361061014f5760003560e01c80639c465345116100b6578063def156b61161006f578063def156b61461050b578063e49617e114610548578063e60c350514610578578063f4614250146105a8578063f5af5480146105d1578063f5b541a61461060e57610194565b80639c465345146103e7578063a217fddf14610424578063ac1eff681461044f578063ce46e0461461048c578063d547741f146104b7578063dbe10655146104e057610194565b80633a25e696116101085780633a25e696146102b75780633d7f424c146102f457806354fd4d501461031f57806388e5b2d91461034a57806391d148541461037a57806391db0b7e146103b757610194565b806301ffc9a71461019957806307c5bcf9146101d65780631957ba4e146101ff578063248a9ca3146102285780632f2ff15d1461026557806336568abe1461028e57610194565b366101945761015c610639565b610192576040517f1574f9f300000000000000000000000000000000000000000000000000000000815260040160405180910390fd5b005b600080fd5b3480156101a557600080fd5b506101c060048036038101906101bb91906119d7565b61063e565b6040516101cd9190611a1f565b60405180910390f35b3480156101e257600080fd5b506101fd60048036038101906101f89190611aaa565b6106b8565b005b34801561020b57600080fd5b5061022660048036038101906102219190611b4b565b61075e565b005b34801561023457600080fd5b5061024f600480360381019061024a9190611bc1565b610817565b60405161025c9190611bfd565b60405180910390f35b34801561027157600080fd5b5061028c60048036038101906102879190611c44565b610836565b005b34801561029a57600080fd5b506102b560048036038101906102b09190611c44565b610858565b005b3480156102c357600080fd5b506102de60048036038101906102d99190611c84565b6108d3565b6040516102eb9190611bfd565b60405180910390f35b34801561030057600080fd5b50610309610906565b6040516103169190611d23565b60405180910390f35b34801561032b57600080fd5b5061033461092c565b6040516103419190611dce565b60405180910390f35b610364600480360381019061035f9190611eab565b6109cf565b6040516103719190611a1f565b60405180910390f35b34801561038657600080fd5b506103a1600480360381019061039c9190611c44565b610aea565b6040516103ae9190611a1f565b60405180910390f35b6103d160048036038101906103cc9190611eab565b610b54565b6040516103de9190611a1f565b60405180910390f35b3480156103f357600080fd5b5061040e6004803603810190610409919061205c565b610c6f565b60405161041b9190611a1f565b60405180910390f35b34801561043057600080fd5b50610439610e4a565b6040516104469190611bfd565b60405180910390f35b34801561045b57600080fd5b50610476600480360381019061047191906120f3565b610e51565b6040516104839190612141565b60405180910390f35b34801561049857600080fd5b506104a1610639565b6040516104ae9190611a1f565b60405180910390f35b3480156104c357600080fd5b506104de60048036038101906104d99190611c44565b610e84565b005b3480156104ec57600080fd5b506104f5610ea6565b6040516105029190611bfd565b60405180910390f35b34801561051757600080fd5b50610532600480360381019061052d9190611bc1565b610eca565b60405161053f9190611bfd565b60405180910390f35b610562600480360381019061055d9190612181565b610ee2565b60405161056f9190611a1f565b60405180910390f35b610592600480360381019061058d9190612181565b610efd565b60405161059f9190611a1f565b60405180910390f35b3480156105b457600080fd5b506105cf60048036038101906105ca91906120f3565b610f18565b005b3480156105dd57600080fd5b506105f860048036038101906105f3919061205c565b610fb5565b6040516106059190611a1f565b60405180910390f35b34801561061a57600080fd5b50610623611190565b6040516106309190611bfd565b60405180910390f35b600090565b60007f7965db0b000000000000000000000000000000000000000000000000000000007bffffffffffffffffffffffffffffffffffffffffffffffffffffffff1916827bffffffffffffffffffffffffffffffffffffffffffffffffffffffff191614806106b157506106b0826111b4565b5b9050919050565b7f97667070c54ef182b0f5858b034beac1b6f3089aa2d3188bb1e8929f4fa9b9296106e28161121e565b81600260006101000a81548173ffffffffffffffffffffffffffffffffffffffff021916908373ffffffffffffffffffffffffffffffffffffffff1602179055507f3cdf41a2765b660770e9997ffcad30fc67871b420dd684a719b8b5856d71b17b8260405161075291906121d9565b60405180910390a15050565b7f97667070c54ef182b0f5858b034beac1b6f3089aa2d3188bb1e8929f4fa9b9296107888161121e565b816001600085815260200190815260200160002060006101000a81548173ffffffffffffffffffffffffffffffffffffffff021916908373ffffffffffffffffffffffffffffffffffffffff160217905550827fb8fcb5b01f0242f7d98e8d447f82d41c16ccc18130a8766108db27dbfc30da4b8360405161080a91906121d9565b60405180910390a2505050565b6000806000838152602001908152602001600020600101549050919050565b61083f82610817565b6108488161121e565b6108528383611232565b50505050565b610860611323565b73ffffffffffffffffffffffffffffffffffffffff168173ffffffffffffffffffffffffffffffffffffffff16146108c4576040517f6697b23200000000000000000000000000000000000000000000000000000000815260040160405180910390fd5b6108ce828261132b565b505050565b600082826040516020016108e892919061225d565b60405160208183030381529060405280519060200120905092915050565b600260009054906101000a900473ffffffffffffffffffffffffffffffffffffffff1681565b60606109577f000000000000000000000000000000000000000000000000000000000000000061141d565b6109807f000000000000000000000000000000000000000000000000000000000000000061141d565b6109a97f000000000000000000000000000000000000000000000000000000000000000061141d565b6040516020016109bb93929190612311565b604051602081830303815290604052905090565b60006109d96114eb565b6000858590509050838390508114610a1d576040517f947d5a8400000000000000000000000000000000000000000000000000000000815260040160405180910390fd5b600034905060005b82811015610ada576000868683818110610a4257610a41612358565b5b90506020020135905082811115610a85576040517f1101129400000000000000000000000000000000000000000000000000000000815260040160405180910390fd5b610ab3898984818110610a9b57610a9a612358565b5b9050602002810190610aad9190612396565b82611572565b610ac4576000945050505050610ae2565b808303925050610ad381611694565b9050610a25565b506001925050505b949350505050565b600080600084815260200190815260200160002060000160008373ffffffffffffffffffffffffffffffffffffffff1673ffffffffffffffffffffffffffffffffffffffff16815260200190815260200160002060009054906101000a900460ff16905092915050565b6000610b5e6114eb565b6000858590509050838390508114610ba2576040517f947d5a8400000000000000000000000000000000000000000000000000000000815260040160405180910390fd5b600034905060005b82811015610c5f576000868683818110610bc757610bc6612358565b5b90506020020135905082811115610c0a576040517f1101129400000000000000000000000000000000000000000000000000000000815260040160405180910390fd5b610c38898984818110610c2057610c1f612358565b5b9050602002810190610c329190612396565b826116a1565b610c49576000945050505050610c67565b808303925050610c5881611694565b9050610baa565b506001925050505b949350505050565b60008073ffffffffffffffffffffffffffffffffffffffff166001600085815260200190815260200160002060009054906101000a900473ffffffffffffffffffffffffffffffffffffffff1673ffffffffffffffffffffffffffffffffffffffff1603610ce05760009050610e41565b600260009054906101000a900473ffffffffffffffffffffffffffffffffffffffff1673ffffffffffffffffffffffffffffffffffffffff1663ce6560df87866040518363ffffffff1660e01b8152600401610d3d9291906123ce565b602060405180830381865afa158015610d5a573d6000803e3d6000fd5b505050506040513d601f19601f82011682018060405250810190610d7e9190612423565b610d8b5760009050610e41565b6001600084815260200190815260200160002060009054906101000a900473ffffffffffffffffffffffffffffffffffffffff1673ffffffffffffffffffffffffffffffffffffffff16630e3b0ceb878787866040518563ffffffff1660e01b8152600401610dfd94939291906124a5565b602060405180830381865afa158015610e1a573d6000803e3d6000fd5b505050506040513d601f19601f82011682018060405250810190610e3e9190612423565b90505b95945050505050565b6000801b81565b60016020528060005260406000206000915054906101000a900473ffffffffffffffffffffffffffffffffffffffff1681565b610e8d82610817565b610e968161121e565b610ea0838361132b565b50505050565b7f4698baa05b306e3e5e3fa66d29891e203a1418ef5bee962e2c9b109f129e892081565b60036020528060005260406000206000915090505481565b6000610eec6114eb565b610ef68234611572565b9050919050565b6000610f076114eb565b610f1182346116a1565b9050919050565b7f4698baa05b306e3e5e3fa66d29891e203a1418ef5bee962e2c9b109f129e8920610f428161121e565b6001600083815260200190815260200160002060006101000a81549073ffffffffffffffffffffffffffffffffffffffff0219169055817fb8fcb5b01f0242f7d98e8d447f82d41c16ccc18130a8766108db27dbfc30da4b6000604051610fa991906121d9565b60405180910390a25050565b60008073ffffffffffffffffffffffffffffffffffffffff166001600085815260200190815260200160002060009054906101000a900473ffffffffffffffffffffffffffffffffffffffff1673ffffffffffffffffffffffffffffffffffffffff16036110265760009050611187565b600260009054906101000a900473ffffffffffffffffffffffffffffffffffffffff1673ffffffffffffffffffffffffffffffffffffffff1663ce6560df87866040518363ffffffff1660e01b81526004016110839291906123ce565b602060405180830381865afa1580156110a0573d6000803e3d6000fd5b505050506040513d601f19601f820116820180604052508101906110c49190612423565b6110d15760009050611187565b6001600084815260200190815260200160002060009054906101000a900473ffffffffffffffffffffffffffffffffffffffff1673ffffffffffffffffffffffffffffffffffffffff1663f4c24ea9878787866040518563ffffffff1660e01b815260040161114394939291906124a5565b602060405180830381865afa158015611160573d6000803e3d6000fd5b505050506040513d601f19601f820116820180604052508101906111849190612423565b90505b95945050505050565b7f97667070c54ef182b0f5858b034beac1b6f3089aa2d3188bb1e8929f4fa9b92981565b60007f01ffc9a7000000000000000000000000000000000000000000000000000000007bffffffffffffffffffffffffffffffffffffffffffffffffffffffff1916827bffffffffffffffffffffffffffffffffffffffffffffffffffffffff1916149050919050565b61122f8161122a611323565b6117c7565b50565b600061123e8383610aea565b61131857600160008085815260200190815260200160002060000160008473ffffffffffffffffffffffffffffffffffffffff1673ffffffffffffffffffffffffffffffffffffffff16815260200190815260200160002060006101000a81548160ff0219169083151502179055506112b5611323565b73ffffffffffffffffffffffffffffffffffffffff168273ffffffffffffffffffffffffffffffffffffffff16847f2f8788117e7eff1d82e926ec794901d17c78024a50270940304540a733656f0d60405160405180910390a46001905061131d565b600090505b92915050565b600033905090565b60006113378383610aea565b1561141257600080600085815260200190815260200160002060000160008473ffffffffffffffffffffffffffffffffffffffff1673ffffffffffffffffffffffffffffffffffffffff16815260200190815260200160002060006101000a81548160ff0219169083151502179055506113af611323565b73ffffffffffffffffffffffffffffffffffffffff168273ffffffffffffffffffffffffffffffffffffffff16847ff6391f5c32d9c69d2a47ea670b442974b53935d1edc7fd64eb21e047a839171b60405160405180910390a460019050611417565b600090505b92915050565b60606000600161142c84611818565b01905060008167ffffffffffffffff81111561144b5761144a611f31565b5b6040519080825280601f01601f19166020018201604052801561147d5781602001600182028036833780820191505090505b509050600082602001820190505b6001156114e0578080600190039150507f3031323334353637383961626364656600000000000000000000000000000000600a86061a8153600a85816114d4576114d36124f1565b5b0494506000850361148b575b819350505050919050565b7f000000000000000000000000000000000000000000000000000000000000000073ffffffffffffffffffffffffffffffffffffffff163373ffffffffffffffffffffffffffffffffffffffff1614611570576040517f4ca8886700000000000000000000000000000000000000000000000000000000815260040160405180910390fd5b565b60008060008060008680610120019061158b9190612520565b8101906115989190612583565b935093509350935060006115be858960c00160208101906115b99190612606565b6108d3565b905087600001356003600083815260200190815260200160002054146115ec5760009550505050505061168e565b6003600082815260200190815260200160002060009055828860c00160208101906116179190612606565b73ffffffffffffffffffffffffffffffffffffffff16867f33f8ee7dc5fee7659e90eca057cdb88584252dc59b95a120410077318121213d878660405161165f929190612633565b60405180910390a4611686858960c001602081019061167e9190612606565b868686610fb5565b955050505050505b92915050565b6000600182019050919050565b6000806000806000868061012001906116ba9190612520565b8101906116c79190612583565b935093509350935060006116ed858960c00160208101906116e89190612606565b6108d3565b90506000801b60036000838152602001908152602001600020541461171a576000955050505050506117c1565b87600001356003600083815260200190815260200160002081905550828860c001602081019061174a9190612606565b73ffffffffffffffffffffffffffffffffffffffff16867f6f244791d595e87020e634f8122c61378ed25a90143fb6fecfcd87aff2e6f37f8786604051611792929190612633565b60405180910390a46117b9858960c00160208101906117b19190612606565b868686610c6f565b955050505050505b92915050565b6117d18282610aea565b6118145780826040517fe2517d3f00000000000000000000000000000000000000000000000000000000815260040161180b929190612663565b60405180910390fd5b5050565b600080600090507a184f03e93ff9f4daa797ed6e38ed64bf6a1f0100000000000000008310611876577a184f03e93ff9f4daa797ed6e38ed64bf6a1f010000000000000000838161186c5761186b6124f1565b5b0492506040810190505b6d04ee2d6d415b85acef810000000083106118b3576d04ee2d6d415b85acef810000000083816118a9576118a86124f1565b5b0492506020810190505b662386f26fc1000083106118e257662386f26fc1000083816118d8576118d76124f1565b5b0492506010810190505b6305f5e100831061190b576305f5e1008381611901576119006124f1565b5b0492506008810190505b6127108310611930576127108381611926576119256124f1565b5b0492506004810190505b606483106119535760648381611949576119486124f1565b5b0492506002810190505b600a8310611962576001810190505b80915050919050565b6000604051905090565b600080fd5b600080fd5b60007fffffffff0000000000000000000000000000000000000000000000000000000082169050919050565b6119b48161197f565b81146119bf57600080fd5b50565b6000813590506119d1816119ab565b92915050565b6000602082840312156119ed576119ec611975565b5b60006119fb848285016119c2565b91505092915050565b60008115159050919050565b611a1981611a04565b82525050565b6000602082019050611a346000830184611a10565b92915050565b600073ffffffffffffffffffffffffffffffffffffffff82169050919050565b6000611a6582611a3a565b9050919050565b6000611a7782611a5a565b9050919050565b611a8781611a6c565b8114611a9257600080fd5b50565b600081359050611aa481611a7e565b92915050565b600060208284031215611ac057611abf611975565b5b6000611ace84828501611a95565b91505092915050565b6000819050919050565b611aea81611ad7565b8114611af557600080fd5b50565b600081359050611b0781611ae1565b92915050565b6000611b1882611a5a565b9050919050565b611b2881611b0d565b8114611b3357600080fd5b50565b600081359050611b4581611b1f565b92915050565b60008060408385031215611b6257611b61611975565b5b6000611b7085828601611af8565b9250506020611b8185828601611b36565b9150509250929050565b6000819050919050565b611b9e81611b8b565b8114611ba957600080fd5b50565b600081359050611bbb81611b95565b92915050565b600060208284031215611bd757611bd6611975565b5b6000611be584828501611bac565b91505092915050565b611bf781611b8b565b82525050565b6000602082019050611c126000830184611bee565b92915050565b611c2181611a5a565b8114611c2c57600080fd5b50565b600081359050611c3e81611c18565b92915050565b60008060408385031215611c5b57611c5a611975565b5b6000611c6985828601611bac565b9250506020611c7a85828601611c2f565b9150509250929050565b60008060408385031215611c9b57611c9a611975565b5b6000611ca985828601611af8565b9250506020611cba85828601611c2f565b9150509250929050565b6000819050919050565b6000611ce9611ce4611cdf84611a3a565b611cc4565b611a3a565b9050919050565b6000611cfb82611cce565b9050919050565b6000611d0d82611cf0565b9050919050565b611d1d81611d02565b82525050565b6000602082019050611d386000830184611d14565b92915050565b600081519050919050565b600082825260208201905092915050565b60005b83811015611d78578082015181840152602081019050611d5d565b60008484015250505050565b6000601f19601f8301169050919050565b6000611da082611d3e565b611daa8185611d49565b9350611dba818560208601611d5a565b611dc381611d84565b840191505092915050565b60006020820190508181036000830152611de88184611d95565b905092915050565b600080fd5b600080fd5b600080fd5b60008083601f840112611e1557611e14611df0565b5b8235905067ffffffffffffffff811115611e3257611e31611df5565b5b602083019150836020820283011115611e4e57611e4d611dfa565b5b9250929050565b60008083601f840112611e6b57611e6a611df0565b5b8235905067ffffffffffffffff811115611e8857611e87611df5565b5b602083019150836020820283011115611ea457611ea3611dfa565b5b9250929050565b60008060008060408587031215611ec557611ec4611975565b5b600085013567ffffffffffffffff811115611ee357611ee261197a565b5b611eef87828801611dff565b9450945050602085013567ffffffffffffffff811115611f1257611f1161197a565b5b611f1e87828801611e55565b925092505092959194509250565b600080fd5b7f4e487b7100000000000000000000000000000000000000000000000000000000600052604160045260246000fd5b611f6982611d84565b810181811067ffffffffffffffff82111715611f8857611f87611f31565b5b80604052505050565b6000611f9b61196b565b9050611fa78282611f60565b919050565b600067ffffffffffffffff821115611fc757611fc6611f31565b5b611fd082611d84565b9050602081019050919050565b82818337600083830152505050565b6000611fff611ffa84611fac565b611f91565b90508281526020810184848401111561201b5761201a611f2c565b5b612026848285611fdd565b509392505050565b600082601f83011261204357612042611df0565b5b8135612053848260208601611fec565b91505092915050565b600080600080600060a0868803121561207857612077611975565b5b600061208688828901611af8565b955050602061209788828901611c2f565b94505060406120a888828901611bac565b93505060606120b988828901611af8565b925050608086013567ffffffffffffffff8111156120da576120d961197a565b5b6120e68882890161202e565b9150509295509295909350565b60006020828403121561210957612108611975565b5b600061211784828501611af8565b91505092915050565b600061212b82611cf0565b9050919050565b61213b81612120565b82525050565b60006020820190506121566000830184612132565b92915050565b600080fd5b600061014082840312156121785761217761215c565b5b81905092915050565b60006020828403121561219757612196611975565b5b600082013567ffffffffffffffff8111156121b5576121b461197a565b5b6121c184828501612161565b91505092915050565b6121d381611a5a565b82525050565b60006020820190506121ee60008301846121ca565b92915050565b6000819050919050565b61220f61220a82611ad7565b6121f4565b82525050565b60008160601b9050919050565b600061222d82612215565b9050919050565b600061223f82612222565b9050919050565b61225761225282611a5a565b612234565b82525050565b600061226982856121fe565b6020820191506122798284612246565b6014820191508190509392505050565b600081905092915050565b600061229f82611d3e565b6122a98185612289565b93506122b9818560208601611d5a565b80840191505092915050565b7f2e00000000000000000000000000000000000000000000000000000000000000600082015250565b60006122fb600183612289565b9150612306826122c5565b600182019050919050565b600061231d8286612294565b9150612328826122ee565b91506123348285612294565b915061233f826122ee565b915061234b8284612294565b9150819050949350505050565b7f4e487b7100000000000000000000000000000000000000000000000000000000600052603260045260246000fd5b600080fd5b600080fd5b600080fd5b600082356001610140038336030381126123b3576123b2612387565b5b80830191505092915050565b6123c881611ad7565b82525050565b60006040820190506123e360008301856123bf565b6123f06020830184611bee565b9392505050565b61240081611a04565b811461240b57600080fd5b50565b60008151905061241d816123f7565b92915050565b60006020828403121561243957612438611975565b5b60006124478482850161240e565b91505092915050565b600081519050919050565b600082825260208201905092915050565b600061247782612450565b612481818561245b565b9350612491818560208601611d5a565b61249a81611d84565b840191505092915050565b60006080820190506124ba60008301876123bf565b6124c760208301866121ca565b6124d46040830185611bee565b81810360608301526124e6818461246c565b905095945050505050565b7f4e487b7100000000000000000000000000000000000000000000000000000000600052601260045260246000fd5b6000808335600160200384360303811261253d5761253c612387565b5b80840192508235915067ffffffffffffffff82111561255f5761255e61238c565b5b60208301925060018202360383131561257b5761257a612391565b5b509250929050565b6000806000806080858703121561259d5761259c611975565b5b60006125ab87828801611af8565b94505060206125bc87828801611bac565b93505060406125cd87828801611af8565b925050606085013567ffffffffffffffff8111156125ee576125ed61197a565b5b6125fa8782880161202e565b91505092959194509250565b60006020828403121561261c5761261b611975565b5b600061262a84828501611c2f565b91505092915050565b60006040820190506126486000830185611bee565b818103602083015261265a818461246c565b90509392505050565b600060408201905061267860008301856121ca565b6126856020830184611bee565b939250505056fea2646970667358221220dbf8f5d06835ded185468b831524841d7cfba945bc8c03731bccf6f3ead245e964736f6c634300081a0033",
  "linkReferences": {},
  "deployedLinkReferences": {}
}