{
  "_format": "hh-sol-artifact-1",
  "contractName": "FarcasterPublicKeyVerifier",
  "sourceName": "contracts/public-key-verifier/FarcasterPublicKeyVerifier.sol",
  "abi": [
    {
      "inputs": [
        {
          "internalType": "contract IKeyRegistry",
          "name": "registry",
          "type": "address"
        }
      ],
      "stateMutability": "nonpayable",
      "type": "constructor"
    },
    {
      "inputs": [],
      "name": "keyRegistry",
      "outputs": [
        {
          "internalType": "contract IKeyRegistry",
          "name": "",
          "type": "address"
        }
      ],
      "stateMutability": "view",
      "type": "function"
    },
    {
      "inputs": [
        {
          "internalType": "uint256",
          "name": "fid",
          "type": "uint256"
        },
        {
          "internalType": "bytes32",
          "name": "publicKey",
          "type": "bytes32"
        }
      ],
      "name": "verifyPublicKey",
      "outputs": [
        {
          "internalType": "bool",
          "name": "",
          "type": "bool"
        }
      ],
      "stateMutability": "view",
      "type": "function"
    }
  ],
  "bytecode": "0x60a060405234801561001057600080fd5b506040516107a33803806107a3833981810160405281019061003291906100e1565b8073ffffffffffffffffffffffffffffffffffffffff1660808173ffffffffffffffffffffffffffffffffffffffff16815250505061010e565b600080fd5b600073ffffffffffffffffffffffffffffffffffffffff82169050919050565b600061009c82610071565b9050919050565b60006100ae82610091565b9050919050565b6100be816100a3565b81146100c957600080fd5b50565b6000815190506100db816100b5565b92915050565b6000602082840312156100f7576100f661006c565b5b6000610105848285016100cc565b91505092915050565b60805161066e61013560003960008181608b0152818160c8015261010f015261066e6000f3fe608060405234801561001057600080fd5b50600436106100365760003560e01c8063086b51981461003b578063ce6560df14610059575b600080fd5b610043610089565b6040516100509190610294565b60405180910390f35b610073600480360381019061006e919061032a565b6100ad565b6040516100809190610385565b60405180910390f35b7f000000000000000000000000000000000000000000000000000000000000000081565b60008073ffffffffffffffffffffffffffffffffffffffff167f000000000000000000000000000000000000000000000000000000000000000073ffffffffffffffffffffffffffffffffffffffff160361010b576001905061020f565b60007f000000000000000000000000000000000000000000000000000000000000000073ffffffffffffffffffffffffffffffffffffffff1663ac34cc5a858560405160200161015b91906103c1565b6040516020818303038152906040526040518363ffffffff1660e01b815260040161018792919061047b565b6040805180830381865afa1580156101a3573d6000803e3d6000fd5b505050506040513d601f19601f820116820180604052508101906101c791906105dc565b9050600160028111156101dd576101dc610609565b5b816000015160028111156101f4576101f3610609565b5b14801561020b57506000816020015163ffffffff16145b9150505b92915050565b600073ffffffffffffffffffffffffffffffffffffffff82169050919050565b6000819050919050565b600061025a61025561025084610215565b610235565b610215565b9050919050565b600061026c8261023f565b9050919050565b600061027e82610261565b9050919050565b61028e81610273565b82525050565b60006020820190506102a96000830184610285565b92915050565b6000604051905090565b600080fd5b6000819050919050565b6102d1816102be565b81146102dc57600080fd5b50565b6000813590506102ee816102c8565b92915050565b6000819050919050565b610307816102f4565b811461031257600080fd5b50565b600081359050610324816102fe565b92915050565b60008060408385031215610341576103406102b9565b5b600061034f858286016102df565b925050602061036085828601610315565b9150509250929050565b60008115159050919050565b61037f8161036a565b82525050565b600060208201905061039a6000830184610376565b92915050565b6000819050919050565b6103bb6103b6826102f4565b6103a0565b82525050565b60006103cd82846103aa565b60208201915081905092915050565b6103e5816102be565b82525050565b600081519050919050565b600082825260208201905092915050565b60005b8381101561042557808201518184015260208101905061040a565b60008484015250505050565b6000601f19601f8301169050919050565b600061044d826103eb565b61045781856103f6565b9350610467818560208601610407565b61047081610431565b840191505092915050565b600060408201905061049060008301856103dc565b81810360208301526104a28184610442565b90509392505050565b600080fd5b7f4e487b7100000000000000000000000000000000000000000000000000000000600052604160045260246000fd5b6104e882610431565b810181811067ffffffffffffffff82111715610507576105066104b0565b5b80604052505050565b600061051a6102af565b905061052682826104df565b919050565b6003811061053857600080fd5b50565b60008151905061054a8161052b565b92915050565b600063ffffffff82169050919050565b61056981610550565b811461057457600080fd5b50565b60008151905061058681610560565b92915050565b6000604082840312156105a2576105a16104ab565b5b6105ac6040610510565b905060006105bc8482850161053b565b60008301525060206105d084828501610577565b60208301525092915050565b6000604082840312156105f2576105f16102b9565b5b60006106008482850161058c565b91505092915050565b7f4e487b7100000000000000000000000000000000000000000000000000000000600052602160045260246000fdfea2646970667358221220b464bf78c2f3aa6d62f2ba6f2740566f41bb50eee60e776bb5d708130046cead64736f6c634300081a0033",
  "linkReferences": {},
  "deployedLinkReferences": {}
}