{
  "_format": "hh-sol-artifact-1",
  "contractName": "FarcasterWalletOptimisticVerifier",
  "sourceName": "contracts/wallet-verifier/FarcasterWalletOptimisticVerifier.sol",
  "abi": [
    {
      "inputs": [
        {
          "internalType": "contract IFarcasterWalletVerifier",
          "name": "verifier",
          "type": "address"
        },
        {
          "internalType": "address",
          "name": "admin",
          "type": "address"
        }
      ],
      "stateMutability": "nonpayable",
      "type": "constructor"
    },
    {
      "inputs": [],
      "name": "AccessControlBadConfirmation",
      "type": "error"
    },
    {
      "inputs": [
        {
          "internalType": "address",
          "name": "account",
          "type": "address"
        },
        {
          "internalType": "bytes32",
          "name": "neededRole",
          "type": "bytes32"
        }
      ],
      "name": "AccessControlUnauthorizedAccount",
      "type": "error"
    },
    {
      "inputs": [],
      "name": "ChallengeFailed",
      "type": "error"
    },
    {
      "inputs": [
        {
          "internalType": "enum MessageType",
          "name": "messageType",
          "type": "uint8"
        }
      ],
      "name": "InvalidMessageType",
      "type": "error"
    },
    {
      "anonymous": false,
      "inputs": [
        {
          "indexed": true,
          "internalType": "enum MessageType",
          "name": "messageType",
          "type": "uint8"
        },
        {
          "indexed": true,
          "internalType": "uint256",
          "name": "fid",
          "type": "uint256"
        },
        {
          "indexed": true,
          "internalType": "address",
          "name": "verifyAddress",
          "type": "address"
        },
        {
          "indexed": false,
          "internalType": "bytes32",
          "name": "publicKey",
          "type": "bytes32"
        },
        {
          "indexed": false,
          "internalType": "bytes32",
          "name": "hash",
          "type": "bytes32"
        },
        {
          "indexed": false,
          "internalType": "bytes",
          "name": "signature",
          "type": "bytes"
        }
      ],
      "name": "Challenged",
      "type": "event"
    },
    {
      "anonymous": false,
      "inputs": [
        {
          "indexed": true,
          "internalType": "bytes32",
          "name": "role",
          "type": "bytes32"
        },
        {
          "indexed": true,
          "internalType": "bytes32",
          "name": "previousAdminRole",
          "type": "bytes32"
        },
        {
          "indexed": true,
          "internalType": "bytes32",
          "name": "newAdminRole",
          "type": "bytes32"
        }
      ],
      "name": "RoleAdminChanged",
      "type": "event"
    },
    {
      "anonymous": false,
      "inputs": [
        {
          "indexed": true,
          "internalType": "bytes32",
          "name": "role",
          "type": "bytes32"
        },
        {
          "indexed": true,
          "internalType": "address",
          "name": "account",
          "type": "address"
        },
        {
          "indexed": true,
          "internalType": "address",
          "name": "sender",
          "type": "address"
        }
      ],
      "name": "RoleGranted",
      "type": "event"
    },
    {
      "anonymous": false,
      "inputs": [
        {
          "indexed": true,
          "internalType": "bytes32",
          "name": "role",
          "type": "bytes32"
        },
        {
          "indexed": true,
          "internalType": "address",
          "name": "account",
          "type": "address"
        },
        {
          "indexed": true,
          "internalType": "address",
          "name": "sender",
          "type": "address"
        }
      ],
      "name": "RoleRevoked",
      "type": "event"
    },
    {
      "anonymous": false,
      "inputs": [
        {
          "indexed": true,
          "internalType": "enum MessageType",
          "name": "messageType",
          "type": "uint8"
        },
        {
          "indexed": true,
          "internalType": "uint256",
          "name": "fid",
          "type": "uint256"
        },
        {
          "indexed": true,
          "internalType": "address",
          "name": "verifyAddress",
          "type": "address"
        },
        {
          "indexed": false,
          "internalType": "bytes32",
          "name": "publicKey",
          "type": "bytes32"
        },
        {
          "indexed": false,
          "internalType": "bytes32",
          "name": "hash",
          "type": "bytes32"
        },
        {
          "indexed": false,
          "internalType": "bytes",
          "name": "signature",
          "type": "bytes"
        }
      ],
      "name": "SubmitVerification",
      "type": "event"
    },
    {
      "inputs": [],
      "name": "DEFAULT_ADMIN_ROLE",
      "outputs": [
        {
          "internalType": "bytes32",
          "name": "",
          "type": "bytes32"
        }
      ],
      "stateMutability": "view",
      "type": "function"
    },
    {
      "inputs": [],
      "name": "RELAYER_ROLE",
      "outputs": [
        {
          "internalType": "bytes32",
          "name": "",
          "type": "bytes32"
        }
      ],
      "stateMutability": "view",
      "type": "function"
    },
    {
      "inputs": [],
      "name": "SECURITY_ROLE",
      "outputs": [
        {
          "internalType": "bytes32",
          "name": "",
          "type": "bytes32"
        }
      ],
      "stateMutability": "view",
      "type": "function"
    },
    {
      "inputs": [
        {
          "internalType": "uint256",
          "name": "fid",
          "type": "uint256"
        },
        {
          "internalType": "address",
          "name": "verifyAddress",
          "type": "address"
        },
        {
          "internalType": "bytes32",
          "name": "publicKey",
          "type": "bytes32"
        },
        {
          "internalType": "bytes",
          "name": "signature",
          "type": "bytes"
        }
      ],
      "name": "challengeAdd",
      "outputs": [],
      "stateMutability": "nonpayable",
      "type": "function"
    },
    {
      "inputs": [
        {
          "internalType": "uint256",
          "name": "fid",
          "type": "uint256"
        },
        {
          "internalType": "address",
          "name": "verifyAddress",
          "type": "address"
        },
        {
          "internalType": "bytes32",
          "name": "publicKey",
          "type": "bytes32"
        },
        {
          "internalType": "bytes",
          "name": "signature",
          "type": "bytes"
        }
      ],
      "name": "challengeRemove",
      "outputs": [],
      "stateMutability": "nonpayable",
      "type": "function"
    },
    {
      "inputs": [],
      "name": "challengingPeriod",
      "outputs": [
        {
          "internalType": "uint256",
          "name": "",
          "type": "uint256"
        }
      ],
      "stateMutability": "view",
      "type": "function"
    },
    {
      "inputs": [
        {
          "internalType": "address",
          "name": "relayer",
          "type": "address"
        }
      ],
      "name": "disableRelayer",
      "outputs": [],
      "stateMutability": "nonpayable",
      "type": "function"
    },
    {
      "inputs": [
        {
          "internalType": "bytes32",
          "name": "role",
          "type": "bytes32"
        }
      ],
      "name": "getRoleAdmin",
      "outputs": [
        {
          "internalType": "bytes32",
          "name": "",
          "type": "bytes32"
        }
      ],
      "stateMutability": "view",
      "type": "function"
    },
    {
      "inputs": [
        {
          "internalType": "bytes32",
          "name": "role",
          "type": "bytes32"
        },
        {
          "internalType": "address",
          "name": "account",
          "type": "address"
        }
      ],
      "name": "grantRole",
      "outputs": [],
      "stateMutability": "nonpayable",
      "type": "function"
    },
    {
      "inputs": [
        {
          "internalType": "bytes32",
          "name": "role",
          "type": "bytes32"
        },
        {
          "internalType": "address",
          "name": "account",
          "type": "address"
        }
      ],
      "name": "hasRole",
      "outputs": [
        {
          "internalType": "bool",
          "name": "",
          "type": "bool"
        }
      ],
      "stateMutability": "view",
      "type": "function"
    },
    {
      "inputs": [
        {
          "internalType": "enum MessageType",
          "name": "messageType",
          "type": "uint8"
        },
        {
          "internalType": "uint256",
          "name": "fid",
          "type": "uint256"
        },
        {
          "internalType": "address",
          "name": "verifyAddress",
          "type": "address"
        },
        {
          "internalType": "bytes32",
          "name": "publicKey",
          "type": "bytes32"
        },
        {
          "internalType": "bytes",
          "name": "signature",
          "type": "bytes"
        }
      ],
      "name": "hash",
      "outputs": [
        {
          "internalType": "bytes32",
          "name": "",
          "type": "bytes32"
        }
      ],
      "stateMutability": "pure",
      "type": "function"
    },
    {
      "inputs": [],
      "name": "onchainVerifier",
      "outputs": [
        {
          "internalType": "contract IFarcasterWalletVerifier",
          "name": "",
          "type": "address"
        }
      ],
      "stateMutability": "view",
      "type": "function"
    },
    {
      "inputs": [
        {
          "internalType": "bytes32",
          "name": "role",
          "type": "bytes32"
        },
        {
          "internalType": "address",
          "name": "callerConfirmation",
          "type": "address"
        }
      ],
      "name": "renounceRole",
      "outputs": [],
      "stateMutability": "nonpayable",
      "type": "function"
    },
    {
      "inputs": [
        {
          "internalType": "bytes32",
          "name": "role",
          "type": "bytes32"
        },
        {
          "internalType": "address",
          "name": "account",
          "type": "address"
        }
      ],
      "name": "revokeRole",
      "outputs": [],
      "stateMutability": "nonpayable",
      "type": "function"
    },
    {
      "inputs": [
        {
          "internalType": "enum MessageType",
          "name": "messageType",
          "type": "uint8"
        },
        {
          "internalType": "uint256",
          "name": "fid",
          "type": "uint256"
        },
        {
          "internalType": "address",
          "name": "verifyAddress",
          "type": "address"
        },
        {
          "internalType": "bytes32",
          "name": "publicKey",
          "type": "bytes32"
        },
        {
          "internalType": "bytes",
          "name": "signature",
          "type": "bytes"
        }
      ],
      "name": "submitVerification",
      "outputs": [],
      "stateMutability": "nonpayable",
      "type": "function"
    },
    {
      "inputs": [
        {
          "internalType": "bytes4",
          "name": "interfaceId",
          "type": "bytes4"
        }
      ],
      "name": "supportsInterface",
      "outputs": [
        {
          "internalType": "bool",
          "name": "",
          "type": "bool"
        }
      ],
      "stateMutability": "view",
      "type": "function"
    },
    {
      "inputs": [
        {
          "internalType": "uint256",
          "name": "fid",
          "type": "uint256"
        },
        {
          "internalType": "address",
          "name": "verifyAddress",
          "type": "address"
        },
        {
          "internalType": "bytes32",
          "name": "publicKey",
          "type": "bytes32"
        },
        {
          "internalType": "bytes",
          "name": "signature",
          "type": "bytes"
        }
      ],
      "name": "tryChallengeAdd",
      "outputs": [
        {
          "internalType": "bool",
          "name": "",
          "type": "bool"
        }
      ],
      "stateMutability": "view",
      "type": "function"
    },
    {
      "inputs": [
        {
          "internalType": "uint256",
          "name": "fid",
          "type": "uint256"
        },
        {
          "internalType": "address",
          "name": "verifyAddress",
          "type": "address"
        },
        {
          "internalType": "bytes32",
          "name": "publicKey",
          "type": "bytes32"
        },
        {
          "internalType": "bytes",
          "name": "signature",
          "type": "bytes"
        }
      ],
      "name": "tryChallengeRemove",
      "outputs": [
        {
          "internalType": "bool",
          "name": "",
          "type": "bool"
        }
      ],
      "stateMutability": "view",
      "type": "function"
    },
    {
      "inputs": [
        {
          "internalType": "bytes32",
          "name": "",
          "type": "bytes32"
        }
      ],
      "name": "verificationTimestamp",
      "outputs": [
        {
          "internalType": "uint256",
          "name": "",
          "type": "uint256"
        }
      ],
      "stateMutability": "view",
      "type": "function"
    },
    {
      "inputs": [
        {
          "internalType": "uint256",
          "name": "fid",
          "type": "uint256"
        },
        {
          "internalType": "address",
          "name": "verifyAddress",
          "type": "address"
        },
        {
          "internalType": "bytes32",
          "name": "publicKey",
          "type": "bytes32"
        },
        {
          "internalType": "bytes",
          "name": "signature",
          "type": "bytes"
        }
      ],
      "name": "verifyAdd",
      "outputs": [
        {
          "internalType": "bool",
          "name": "",
          "type": "bool"
        }
      ],
      "stateMutability": "view",
      "type": "function"
    },
    {
      "inputs": [
        {
          "internalType": "uint256",
          "name": "fid",
          "type": "uint256"
        },
        {
          "internalType": "address",
          "name": "verifyAddress",
          "type": "address"
        },
        {
          "internalType": "bytes32",
          "name": "publicKey",
          "type": "bytes32"
        },
        {
          "internalType": "bytes",
          "name": "signature",
          "type": "bytes"
        }
      ],
      "name": "verifyRemove",
      "outputs": [
        {
          "internalType": "bool",
          "name": "",
          "type": "bool"
        }
      ],
      "stateMutability": "view",
      "type": "function"
    }
  ],
  "bytecode": "0x60a06040526201518060015534801561001757600080fd5b5060405161147b38038061147b83398101604081905261003691610145565b6001600160a01b03821660805261004e600082610081565b506100797fe2b7fb3b832174769106daebcfd6d1970523240dda11281102db9363b83b0dc482610081565b50505061017f565b6000828152602081815260408083206001600160a01b038516845290915281205460ff16610123576000838152602081815260408083206001600160a01b03861684529091529020805460ff191660011790556100db3390565b6001600160a01b0316826001600160a01b0316847f2f8788117e7eff1d82e926ec794901d17c78024a50270940304540a733656f0d60405160405180910390a4506001610127565b5060005b92915050565b6001600160a01b038116811461014257600080fd5b50565b6000806040838503121561015857600080fd5b82516101638161012d565b60208401519092506101748161012d565b809150509250929050565b6080516112c56101b6600039600081816101ea015281816104a30152818161069b015281816108190152610aae01526112c56000f3fe608060405234801561001057600080fd5b50600436106101775760003560e01c80637ead772c116100d8578063a217fddf1161008c578063dbe1065511610066578063dbe106551461037d578063f4c24ea9146103a4578063feadff14146103b757600080fd5b8063a217fddf1461034f578063c6f52a6414610357578063d547741f1461036a57600080fd5b806391d14854116100bd57806391d14854146102d1578063926d7d7f1461031557806396027c4e1461033c57600080fd5b80637ead772c146102ab57806391ae3650146102be57600080fd5b80632355cf6f1161012f5780632f2ff15d116101145780632f2ff15d1461027057806336568abe14610285578063617695ef1461029857600080fd5b80632355cf6f14610244578063248a9ca31461024d57600080fd5b8063077ae98d11610160578063077ae98d146101b75780630d655ce1146101e55780630e3b0ceb1461023157600080fd5b806301ffc9a71461017c5780630459988f146101a4575b600080fd5b61018f61018a366004610dfb565b6103ca565b60405190151581526020015b60405180910390f35b61018f6101b2366004610f68565b610463565b6101d76101c5366004610fc9565b60026020526000908152604090205481565b60405190815260200161019b565b61020c7f000000000000000000000000000000000000000000000000000000000000000081565b60405173ffffffffffffffffffffffffffffffffffffffff909116815260200161019b565b61018f61023f366004610f68565b610558565b6101d760015481565b6101d761025b366004610fc9565b60009081526020819052604090206001015490565b61028361027e366004610fe2565b6105ae565b005b610283610293366004610fe2565b6105d9565b6102836102a6366004610f68565b610637565b61018f6102b9366004610f68565b6107d9565b6102836102cc36600461100e565b610854565b61018f6102df366004610fe2565b60009182526020828152604080842073ffffffffffffffffffffffffffffffffffffffff93909316845291905290205460ff1690565b6101d77fe2b7fb3b832174769106daebcfd6d1970523240dda11281102db9363b83b0dc481565b6101d761034a366004611029565b6108a8565b6101d7600081565b610283610365366004611029565b61095a565b610283610378366004610fe2565b610a14565b6101d77f4698baa05b306e3e5e3fa66d29891e203a1418ef5bee962e2c9b109f129e892081565b61018f6103b2366004610f68565b610a39565b6102836103c5366004610f68565b610a4a565b60007fffffffff0000000000000000000000000000000000000000000000000000000082167f7965db0b00000000000000000000000000000000000000000000000000000000148061045d57507f01ffc9a7000000000000000000000000000000000000000000000000000000007fffffffff000000000000000000000000000000000000000000000000000000008316145b92915050565b6040517ff4c24ea900000000000000000000000000000000000000000000000000000000815260009073ffffffffffffffffffffffffffffffffffffffff7f0000000000000000000000000000000000000000000000000000000000000000169063f4c24ea9906104de908890889088908890600401611105565b602060405180830381865afa925050508015610535575060408051601f3d9081017fffffffffffffffffffffffffffffffffffffffffffffffffffffffffffffffe016820190925261053291810190611140565b60015b1561054c57801561054a576000915050610550565b505b5060015b949350505050565b6000806105696007878787876108a8565b600081815260026020526040902054909150158015906105a457506001546000828152600260205260409020546105a09190611162565b4210155b9695505050505050565b6000828152602081905260409020600101546105c981610bad565b6105d38383610bba565b50505050565b73ffffffffffffffffffffffffffffffffffffffff81163314610628576040517f6697b23200000000000000000000000000000000000000000000000000000000815260040160405180910390fd5b6106328282610cb6565b505050565b60006106476007868686866108a8565b600081815260026020526040902054909150156107d2576040517f0e3b0ceb00000000000000000000000000000000000000000000000000000000815273ffffffffffffffffffffffffffffffffffffffff7f00000000000000000000000000000000000000000000000000000000000000001690630e3b0ceb906106d6908890889088908890600401611105565b602060405180830381865afa92505050801561072d575060408051601f3d9081017fffffffffffffffffffffffffffffffffffffffffffffffffffffffffffffffe016820190925261072a91810190611140565b60015b1561076c57801561076a576040517f85637c1400000000000000000000000000000000000000000000000000000000815260040160405180910390fd5b505b60008181526002602052604081205573ffffffffffffffffffffffffffffffffffffffff84168560075b7f77c5dcb3bf7cd7f7cd656fe18039dd6096a97b782169f220bb4b4271ca468b278685876040516107c9939291906111cb565b60405180910390a45b5050505050565b6040517f0e3b0ceb00000000000000000000000000000000000000000000000000000000815260009073ffffffffffffffffffffffffffffffffffffffff7f00000000000000000000000000000000000000000000000000000000000000001690630e3b0ceb906104de908890889088908890600401611105565b7f4698baa05b306e3e5e3fa66d29891e203a1418ef5bee962e2c9b109f129e892061087e81610bad565b6106327fe2b7fb3b832174769106daebcfd6d1970523240dda11281102db9363b83b0dc483610cb6565b6000600786600e8111156108be576108be61119c565b141580156108de5750600886600e8111156108db576108db61119c565b14155b1561092057856040517fb7ef4b20000000000000000000000000000000000000000000000000000000008152600401610917919061122e565b60405180910390fd5b858585858560405160200161093995949392919061123c565b60405160208183030381529060405280519060200120905095945050505050565b7fe2b7fb3b832174769106daebcfd6d1970523240dda11281102db9363b83b0dc461098481610bad565b600061099387878787876108a8565b6000818152600260205260409020429055905073ffffffffffffffffffffffffffffffffffffffff85168688600e8111156109d0576109d061119c565b7f0156567f9bf6ac87e975a83c16a0f538a200e5b51e46384928a92689b7144def878588604051610a03939291906111cb565b60405180910390a450505050505050565b600082815260208190526040902060010154610a2f81610bad565b6105d38383610cb6565b6000806105696008878787876108a8565b6000610a5a6008868686866108a8565b600081815260026020526040902054909150156107d2576040517ff4c24ea900000000000000000000000000000000000000000000000000000000815273ffffffffffffffffffffffffffffffffffffffff7f0000000000000000000000000000000000000000000000000000000000000000169063f4c24ea990610ae9908890889088908890600401611105565b602060405180830381865afa925050508015610b40575060408051601f3d9081017fffffffffffffffffffffffffffffffffffffffffffffffffffffffffffffffe0168201909252610b3d91810190611140565b60015b15610b7f578015610b7d576040517f85637c1400000000000000000000000000000000000000000000000000000000815260040160405180910390fd5b505b60008181526002602052604081205573ffffffffffffffffffffffffffffffffffffffff8416856008610796565b610bb78133610d71565b50565b60008281526020818152604080832073ffffffffffffffffffffffffffffffffffffffff8516845290915281205460ff16610cae5760008381526020818152604080832073ffffffffffffffffffffffffffffffffffffffff86168452909152902080547fffffffffffffffffffffffffffffffffffffffffffffffffffffffffffffff00166001179055610c4c3390565b73ffffffffffffffffffffffffffffffffffffffff168273ffffffffffffffffffffffffffffffffffffffff16847f2f8788117e7eff1d82e926ec794901d17c78024a50270940304540a733656f0d60405160405180910390a450600161045d565b50600061045d565b60008281526020818152604080832073ffffffffffffffffffffffffffffffffffffffff8516845290915281205460ff1615610cae5760008381526020818152604080832073ffffffffffffffffffffffffffffffffffffffff8616808552925280832080547fffffffffffffffffffffffffffffffffffffffffffffffffffffffffffffff0016905551339286917ff6391f5c32d9c69d2a47ea670b442974b53935d1edc7fd64eb21e047a839171b9190a450600161045d565b60008281526020818152604080832073ffffffffffffffffffffffffffffffffffffffff8516845290915290205460ff16610df7576040517fe2517d3f00000000000000000000000000000000000000000000000000000000815273ffffffffffffffffffffffffffffffffffffffff8216600482015260248101839052604401610917565b5050565b600060208284031215610e0d57600080fd5b81357fffffffff0000000000000000000000000000000000000000000000000000000081168114610e3d57600080fd5b9392505050565b803573ffffffffffffffffffffffffffffffffffffffff81168114610e6857600080fd5b919050565b7f4e487b7100000000000000000000000000000000000000000000000000000000600052604160045260246000fd5b600082601f830112610ead57600080fd5b813567ffffffffffffffff811115610ec757610ec7610e6d565b6040517fffffffffffffffffffffffffffffffffffffffffffffffffffffffffffffffe0603f7fffffffffffffffffffffffffffffffffffffffffffffffffffffffffffffffe0601f8501160116810181811067ffffffffffffffff82111715610f3357610f33610e6d565b604052818152838201602001851015610f4b57600080fd5b816020850160208301376000918101602001919091529392505050565b60008060008060808587031215610f7e57600080fd5b84359350610f8e60208601610e44565b925060408501359150606085013567ffffffffffffffff811115610fb157600080fd5b610fbd87828801610e9c565b91505092959194509250565b600060208284031215610fdb57600080fd5b5035919050565b60008060408385031215610ff557600080fd5b8235915061100560208401610e44565b90509250929050565b60006020828403121561102057600080fd5b610e3d82610e44565b600080600080600060a0868803121561104157600080fd5b8535600f811061105057600080fd5b94506020860135935061106560408701610e44565b925060608601359150608086013567ffffffffffffffff81111561108857600080fd5b61109488828901610e9c565b9150509295509295909350565b6000815180845260005b818110156110c7576020818501810151868301820152016110ab565b5060006020828601015260207fffffffffffffffffffffffffffffffffffffffffffffffffffffffffffffffe0601f83011685010191505092915050565b84815273ffffffffffffffffffffffffffffffffffffffff841660208201528260408201526080606082015260006105a460808301846110a1565b60006020828403121561115257600080fd5b81518015158114610e3d57600080fd5b8082018082111561045d577f4e487b7100000000000000000000000000000000000000000000000000000000600052601160045260246000fd5b7f4e487b7100000000000000000000000000000000000000000000000000000000600052602160045260246000fd5b8381528260208201526060604082015260006111ea60608301846110a1565b95945050505050565b600f811061122a577f4e487b7100000000000000000000000000000000000000000000000000000000600052602160045260246000fd5b9052565b6020810161045d82846111f3565b61124681876111f3565b84602082015273ffffffffffffffffffffffffffffffffffffffff8416604082015282606082015260a06080820152600061128460a08301846110a1565b97965050505050505056fea264697066735822122053b027fe00ddbfcdb8aff7eea6708ababb23511ac8c48dbfae9d77a1b2423d1c64736f6c634300081a0033",
  "linkReferences": {},
  "deployedLinkReferences": {}
}