{
  "_format": "hh-sol-artifact-1",
  "contractName": "Ed25519",
  "sourceName": "@farcaster-attestation/farcaster-solidity/contracts/libraries/Ed25519.sol",
  "abi": [
    {
      "inputs": [
        {
          "internalType": "bytes32",
          "name": "k",
          "type": "bytes32"
        },
        {
          "internalType": "bytes32",
          "name": "r",
          "type": "bytes32"
        },
        {
          "internalType": "bytes32",
          "name": "s",
          "type": "bytes32"
        },
        {
          "internalType": "bytes",
          "name": "m",
          "type": "bytes"
        }
      ],
      "name": "verify",
      "outputs": [
        {
          "internalType": "bool",
          "name": "",
          "type": "bool"
        }
      ],
      "stateMutability": "pure",
      "type": "function"
    }
  ],
  "bytecode": "0x61375d610052600b82828239805160001a6073146045577f4e487b7100000000000000000000000000000000000000000000000000000000600052600060045260246000fd5b30600052607381538281f3fe73000000000000000000000000000000000000000030146080604052600436106100355760003560e01c80632bf6eda81461003a575b600080fd5b610054600480360381019061004f91906133ab565b61006a565b6040516100619190613449565b60405180910390f35b600080600083516020800160ff160167ffffffffffffffff81111561009257610091613280565b5b6040519080825280601f01601f1916602001820160405280156100c45781602001600182028036833780820191505090505b50905060005b602060ff1681101561013c578681602081106100e9576100e8613464565b5b1a60f81b828281518110610100576100ff613464565b5b60200101907effffffffffffffffffffffffffffffffffffffffffffffffffffffffffffff1916908160001a90535080806001019150506100ca565b5060005b602060ff168110156101b55787816020811061015f5761015e613464565b5b1a60f81b82602083018151811061017957610178613464565b5b60200101907effffffffffffffffffffffffffffffffffffffffffffffffffffffffffffff1916908160001a9053508080600101915050610140565b5060005b8451811015610232578481815181106101d5576101d4613464565b5b602001015160f81c60f81b8260408301815181106101f6576101f5613464565b5b60200101907effffffffffffffffffffffffffffffffffffffffffffffffffffffffffffff1916908160001a90535080806001019150506101b9565b50600073__$4b2769ee6b56967099403998dbe7316b5a$__63aa1e84de836040518263ffffffff1660e01b815260040161026c9190613512565b61010060405180830381865af415801561028a573d6000803e3d6000fd5b505050506040513d601f19601f820116820180604052508101906102ae919061362a565b9050600060c0826003600881106102c8576102c7613464565b5b602002015167ffffffffffffffff16901b6080836002600881106102ef576102ee613464565b5b602002015167ffffffffffffffff16901b60408460016008811061031657610315613464565b5b602002015167ffffffffffffffff16901b8460006008811061033b5761033a613464565b5b602002015167ffffffffffffffff16171717905060087fff00ff00ff00ff00ff00ff00ff00ff00ff00ff00ff00ff00ff00ff00ff00ff008216901c60087eff00ff00ff00ff00ff00ff00ff00ff00ff00ff00ff00ff00ff00ff00ff00ff8316901b17905060107fffff0000ffff0000ffff0000ffff0000ffff0000ffff0000ffff0000ffff00008216901c60107dffff0000ffff0000ffff0000ffff0000ffff0000ffff0000ffff0000ffff8316901b17905060207fffffffff00000000ffffffff00000000ffffffff00000000ffffffff000000008216901c60207bffffffff00000000ffffffff00000000ffffffff00000000ffffffff8316901b179050600060c08360076008811061045357610452613464565b5b602002015167ffffffffffffffff16901b60808460066008811061047a57610479613464565b5b602002015167ffffffffffffffff16901b6040856005600881106104a1576104a0613464565b5b602002015167ffffffffffffffff16901b856004600881106104c6576104c5613464565b5b602002015167ffffffffffffffff16171717905060087fff00ff00ff00ff00ff00ff00ff00ff00ff00ff00ff00ff00ff00ff00ff00ff008216901c60087eff00ff00ff00ff00ff00ff00ff00ff00ff00ff00ff00ff00ff00ff00ff00ff8316901b17905060107fffff0000ffff0000ffff0000ffff0000ffff0000ffff0000ffff0000ffff00008216901c60107dffff0000ffff0000ffff0000ffff0000ffff0000ffff0000ffff0000ffff8316901b17905060207fffffffff00000000ffffffff00000000ffffffff00000000ffffffff000000008216901c60207bffffffff00000000ffffffff00000000ffffffff00000000ffffffff8316901b1790507f1000000000000000000000000000000014def9dea2f79cd65812631a5cf5d3ed806105f5576105f4613658565b5b7f1000000000000000000000000000000014def9dea2f79cd65812631a5cf5d3ed8061062457610623613658565b5b7f0ffffffffffffffffffffffffffffffec6ef5bf4737dcf70d6ec31748d98951d8309830894505050505060087fff00ff00ff00ff00ff00ff00ff00ff00ff00ff00ff00ff00ff00ff00ff00ff008760001c16901c60087eff00ff00ff00ff00ff00ff00ff00ff00ff00ff00ff00ff00ff00ff00ff00ff8860001c16901b1760001b955060107fffff0000ffff0000ffff0000ffff0000ffff0000ffff0000ffff0000ffff00008760001c16901c60107dffff0000ffff0000ffff0000ffff0000ffff0000ffff0000ffff0000ffff8860001c16901b1760001b955060207fffffffff00000000ffffffff00000000ffffffff00000000ffffffff000000008760001c16901c60207bffffffff00000000ffffffff00000000ffffffff00000000ffffffff8860001c16901b1760001b955060407fffffffffffffffff0000000000000000ffffffffffffffff00000000000000008760001c16901c604077ffffffffffffffff0000000000000000ffffffffffffffff8860001c16901b1760001b955060808660001c901c60808760001c901b1760001b955060007f7fffffffffffffffffffffffffffffffffffffffffffffffffffffffffffffff8760001c1690506000807f7fffffffffffffffffffffffffffffffffffffffffffffffffffffffffffffed8061081a57610819613658565b5b838409905060007f7fffffffffffffffffffffffffffffffffffffffffffffffffffffffffffffed806108505761084f613658565b5b7f7fffffffffffffffffffffffffffffffffffffffffffffffffffffffffffffec83089050600060017f7fffffffffffffffffffffffffffffffffffffffffffffffffffffffffffffed806108a8576108a7613658565b5b7f52036cee2b6ffe738cc740797779e89800700a4d4141d8ab75eb4dca135978a3850901905060007f7fffffffffffffffffffffffffffffffffffffffffffffffffffffffffffffed806108ff576108fe613658565b5b828409905073__$805a51696480285dd81be4e32361e3cb9d$__631d9b5e6f826040518263ffffffff1660e01b815260040161093b91906136a0565b6040805180830381865af4158015610957573d6000803e3d6000fd5b505050506040513d601f19601f8201168201806040525081019061097b91906136e7565b50809550507f7fffffffffffffffffffffffffffffffffffffffffffffffffffffffffffffed806109af576109ae613658565b5b85860994507f7fffffffffffffffffffffffffffffffffffffffffffffffffffffffffffffed806109e3576109e2613658565b5b7f7fffffffffffffffffffffffffffffffffffffffffffffffffffffffffffffed80610a1257610a11613658565b5b827f7fffffffffffffffffffffffffffffffffffffffffffffffffffffffffffffed80610a4257610a41613658565b5b88890909840994507f7fffffffffffffffffffffffffffffffffffffffffffffffffffffffffffffed80610a7957610a78613658565b5b827f7fffffffffffffffffffffffffffffffffffffffffffffffffffffffffffffed80610aa957610aa8613658565b5b878809099050828114610b4457827f7fffffffffffffffffffffffffffffffffffffffffffffffffffffffffffffed038114610aef576000975050505050505050613196565b7f7fffffffffffffffffffffffffffffffffffffffffffffffffffffffffffffed80610b1e57610b1d613658565b5b7f2b8324804fc1df0b2b4d00993dfbd7a72f431806ad2fe478c4ee1b274a0ea0b0860994505b5050505060ff8860001c901c6001821614610b7f57807f7fffffffffffffffffffffffffffffffffffffffffffffffffffffffffffffed0390505b60087fff00ff00ff00ff00ff00ff00ff00ff00ff00ff00ff00ff00ff00ff00ff00ff008760001c16901c60087eff00ff00ff00ff00ff00ff00ff00ff00ff00ff00ff00ff00ff00ff00ff00ff8860001c16901b1760001b955060107fffff0000ffff0000ffff0000ffff0000ffff0000ffff0000ffff0000ffff00008760001c16901c60107dffff0000ffff0000ffff0000ffff0000ffff0000ffff0000ffff0000ffff8860001c16901b1760001b955060207fffffffff00000000ffffffff00000000ffffffff00000000ffffffff000000008760001c16901c60207bffffffff00000000ffffffff00000000ffffffff00000000ffffffff8860001c16901b1760001b955060407fffffffffffffffff0000000000000000ffffffffffffffff00000000000000008760001c16901c604077ffffffffffffffff0000000000000000ffffffffffffffff8860001c16901b1760001b955060808660001c901c60808760001c901b1760001b95507f1000000000000000000000000000000014def9dea2f79cd65812631a5cf5d3ed8660001c10610d245760009350505050613196565b600080600080610d3261319e565b600086880190506000877f7fffffffffffffffffffffffffffffffffffffffffffffffffffffffffffffed8a0103905060007f7fffffffffffffffffffffffffffffffffffffffffffffffffffffffffffffed80610d9357610d92613658565b5b7f2406d9dc56dffce7198e80f2eef3d13000e0149a8283b156ebd69b9426b2f1597f7fffffffffffffffffffffffffffffffffffffffffffffffffffffffffffffed80610de357610de2613658565b5b8c8c0909905060008a905060008a905060006001905060006001905060007f7fffffffffffffffffffffffffffffffffffffffffffffffffffffffffffffed80610e3057610e2f613658565b5b828509905060007f7fffffffffffffffffffffffffffffffffffffffffffffffffffffffffffffed80610e6657610e65613658565b5b848709905060007f7fffffffffffffffffffffffffffffffffffffffffffffffffffffffffffffed80610e9c57610e9b613658565b5b848609905060007f7fffffffffffffffffffffffffffffffffffffffffffffffffffffffffffffed80610ed257610ed1613658565b5b848509905060007f7fffffffffffffffffffffffffffffffffffffffffffffffffffffffffffffed80610f0857610f07613658565b5b848509905060007f7fffffffffffffffffffffffffffffffffffffffffffffffffffffffffffffed80610f3e57610f3d613658565b5b858709905060007f7fffffffffffffffffffffffffffffffffffffffffffffffffffffffffffffed80610f7457610f73613658565b5b858609905081820199507f7fffffffffffffffffffffffffffffffffffffffffffffffffffffffffffffed8484030198508284019a507f7fffffffffffffffffffffffffffffffffffffffffffffffffffffffffffffed80610fd957610fd8613658565b5b897fffffffffffffffffffffffffffffffffffffffffffffffffffffffffffffffda038283010897505050505050505060007f7fffffffffffffffffffffffffffffffffffffffffffffffffffffffffffffed8061103a57611039613658565b5b828509905060007f7fffffffffffffffffffffffffffffffffffffffffffffffffffffffffffffed806110705761106f613658565b5b848709905060007f7fffffffffffffffffffffffffffffffffffffffffffffffffffffffffffffed806110a6576110a5613658565b5b848609905060007f7fffffffffffffffffffffffffffffffffffffffffffffffffffffffffffffed806110dc576110db613658565b5b848509905060007f7fffffffffffffffffffffffffffffffffffffffffffffffffffffffffffffed8061111257611111613658565b5b848509905060007f7fffffffffffffffffffffffffffffffffffffffffffffffffffffffffffffed8061114857611147613658565b5b858709905060007f7fffffffffffffffffffffffffffffffffffffffffffffffffffffffffffffed8061117e5761117d613658565b5b858609905081820199507f7fffffffffffffffffffffffffffffffffffffffffffffffffffffffffffffed8484030198508284019a507f7fffffffffffffffffffffffffffffffffffffffffffffffffffffffffffffed806111e3576111e2613658565b5b897fffffffffffffffffffffffffffffffffffffffffffffffffffffffffffffffda038283010897505050505050505060007f7fffffffffffffffffffffffffffffffffffffffffffffffffffffffffffffed8061124457611243613658565b5b828509905060007f7fffffffffffffffffffffffffffffffffffffffffffffffffffffffffffffed8061127a57611279613658565b5b848709905060007f7fffffffffffffffffffffffffffffffffffffffffffffffffffffffffffffed806112b0576112af613658565b5b848609905060007f7fffffffffffffffffffffffffffffffffffffffffffffffffffffffffffffed806112e6576112e5613658565b5b848509905060007f7fffffffffffffffffffffffffffffffffffffffffffffffffffffffffffffed8061131c5761131b613658565b5b848509905060007f7fffffffffffffffffffffffffffffffffffffffffffffffffffffffffffffed8061135257611351613658565b5b858709905060007f7fffffffffffffffffffffffffffffffffffffffffffffffffffffffffffffed8061138857611387613658565b5b858609905081820199507f7fffffffffffffffffffffffffffffffffffffffffffffffffffffffffffffed8484030198508284019a507f7fffffffffffffffffffffffffffffffffffffffffffffffffffffffffffffed806113ed576113ec613658565b5b897fffffffffffffffffffffffffffffffffffffffffffffffffffffffffffffffda0382830108975050505050505050600060019050600089905060005b60008060008060007f7fffffffffffffffffffffffffffffffffffffffffffffffffffffffffffffed8061146257611461613658565b5b898c09905060007f7fffffffffffffffffffffffffffffffffffffffffffffffffffffffffffffed8061149857611497613658565b5b8b8e09905060007f7fffffffffffffffffffffffffffffffffffffffffffffffffffffffffffffed806114ce576114cd613658565b5b8b8d0990507f7fffffffffffffffffffffffffffffffffffffffffffffffffffffffffffffed8061150257611501613658565b5b8e8e09945082820196507f7fffffffffffffffffffffffffffffffffffffffffffffffffffffffffffffed838303019550808101935050505083866001600281106115505761154f613464565b5b602002015160006003811061156857611567613464565b5b6020020151866008811061157f5761157e613464565b5b602002018181525050828660016002811061159d5761159c613464565b5b60200201516001600381106115b5576115b4613464565b5b602002015186600881106115cc576115cb613464565b5b6020020181815250507f7fffffffffffffffffffffffffffffffffffffffffffffffffffffffffffffed8061160457611603613658565b5b7f2406d9dc56dffce7198e80f2eef3d13000e0149a8283b156ebd69b9426b2f15983098660016002811061163b5761163a613464565b5b602002015160026003811061165357611652613464565b5b6020020151866008811061166a57611669613464565b5b602002018181525050808660006002811061168857611687613464565b5b60200201516000600381106116a05761169f613464565b5b602002015186600881106116b7576116b6613464565b5b60200201818152505086866000600281106116d5576116d4613464565b5b60200201516001600381106116ed576116ec613464565b5b6020020151866008811061170457611703613464565b5b6020020181815250507f7fffffffffffffffffffffffffffffffffffffffffffffffffffffffffffffed8061173c5761173b613658565b5b81880996506007850361175257505050506118be565b60007f7fffffffffffffffffffffffffffffffffffffffffffffffffffffffffffffed8061178357611782613658565b5b8f8609905060007f7fffffffffffffffffffffffffffffffffffffffffffffffffffffffffffffed806117b9576117b8613658565b5b8f8609905060007f7fffffffffffffffffffffffffffffffffffffffffffffffffffffffffffffed806117ef576117ee613658565b5b8f860990507f7fffffffffffffffffffffffffffffffffffffffffffffffffffffffffffffed828403019c507f7fffffffffffffffffffffffffffffffffffffffffffffffffffffffffffffed8061184a57611849613658565b5b8185089b508183019d507f7fffffffffffffffffffffffffffffffffffffffffffffffffffffffffffffed8061188357611882613658565b5b817f7fffffffffffffffffffffffffffffffffffffffffffffffffffffffffffffed0385089a5050505050505050808060010191505061142b565b50600073__$805a51696480285dd81be4e32361e3cb9d$__631d9b5e6f846040518263ffffffff1660e01b81526004016118f891906136a0565b6040805180830381865af4158015611914573d6000803e3d6000fd5b505050506040513d601f19601f8201168201806040525081019061193891906136e7565b80925081945050507f7fffffffffffffffffffffffffffffffffffffffffffffffffffffffffffffed8061196f5761196e613658565b5b83840992507f7fffffffffffffffffffffffffffffffffffffffffffffffffffffffffffffed806119a3576119a2613658565b5b83840992507f7fffffffffffffffffffffffffffffffffffffffffffffffffffffffffffffed806119d7576119d6613658565b5b83840992507f7fffffffffffffffffffffffffffffffffffffffffffffffffffffffffffffed80611a0b57611a0a613658565b5b83840992507f7fffffffffffffffffffffffffffffffffffffffffffffffffffffffffffffed80611a3f57611a3e613658565b5b83840992507f7fffffffffffffffffffffffffffffffffffffffffffffffffffffffffffffed80611a7357611a72613658565b5b81840992506000600790505b60007f7fffffffffffffffffffffffffffffffffffffffffffffffffffffffffffffed80611ab057611aaf613658565b5b84600060028110611ac457611ac3613464565b5b6020020151600160038110611adc57611adb613464565b5b60200201518360088110611af357611af2613464565b5b6020020151860990507f7fffffffffffffffffffffffffffffffffffffffffffffffffffffffffffffed80611b2b57611b2a613658565b5b8185600160028110611b4057611b3f613464565b5b6020020151600060038110611b5857611b57613464565b5b60200201518460088110611b6f57611b6e613464565b5b60200201510984600160028110611b8957611b88613464565b5b6020020151600060038110611ba157611ba0613464565b5b60200201518360088110611bb857611bb7613464565b5b6020020181815250507f7fffffffffffffffffffffffffffffffffffffffffffffffffffffffffffffed80611bf057611bef613658565b5b8185600160028110611c0557611c04613464565b5b6020020151600160038110611c1d57611c1c613464565b5b60200201518460088110611c3457611c33613464565b5b60200201510984600160028110611c4e57611c4d613464565b5b6020020151600160038110611c6657611c65613464565b5b60200201518360088110611c7d57611c7c613464565b5b6020020181815250507f7fffffffffffffffffffffffffffffffffffffffffffffffffffffffffffffed80611cb557611cb4613658565b5b8185600160028110611cca57611cc9613464565b5b6020020151600260038110611ce257611ce1613464565b5b60200201518460088110611cf957611cf8613464565b5b60200201510984600160028110611d1357611d12613464565b5b6020020151600260038110611d2b57611d2a613464565b5b60200201518360088110611d4257611d41613464565b5b60200201818152505060008203611d595750611de3565b7f7fffffffffffffffffffffffffffffffffffffffffffffffffffffffffffffed80611d8857611d87613658565b5b84600060028110611d9c57611d9b613464565b5b6020020151600060038110611db457611db3613464565b5b60200201518360088110611dcb57611dca613464565b5b60200201518609945050808060019003915050611a7f565b5060405180606001604052806040518061010001604052807f43e7ce9d19ea5d329385a44c321ea16167c996e37dc6070c97de49e37ac61db981526020017f40cff34425d8ec30a3bb74ba58cd5854fa1e38186ad0d31ebc8ae251ceb2c97e81526020017f459bd27046e8dd45aea7008db87a5a8f7906779253d64523589518599fdfbf4b81526020017f69fdd1e28c23cc3894d0c8ff90e76f6d5b6e4c2e620136d04dd83c4a51581ab981526020017f54dceb3413ce5cfa11196dfc960b6edaf4b380c6d4d2378419cc0279ba49c5f381526020017f4e24184dd71a3d77eef3729f7f8cf7c17224cf40aa7b9548b9942f3c5084ceed81526020017f5a0e5aab20262674ae1175761cbf5e889b52a55fd7ac5027c228cebdc8d2360a81526020017f26239334073e9b38c62859556d451c3dcc8d30e84b361174f488eadde2cf17d981525081526020016040518061010001604052807f227e97c94c7c0933d2e0c21a3447c504fe9ccf82e8a05f59ce881c82eba0489f81526020017f226a3e0ecc4afec6fd0d288413014a9dbddecf06c1a2f0bb702ba77c613d820981526020017f34d7efc851d45c5e71efeb0f235b794691de6228877569b3a8d52bf058b8a4a081526020017f3c1f5fb3ca7166fce1471c9b752b6d28c56301ad7b65e8451b2c8c5526726e1281526020017f6102416cf02f02ff5be75275f55f28db89b2a9d2456b860ce22fc0e5031f7cc581526020017f40adf677f1bfdae057f0fd179c12617918ddaa2891a6530fb1a4294fa866549081526020017f61936f3c415609046187b8baa978cbc9b47893363ae5a3cc7d909f3635ae7f4881526020017f562a9662b6ec47f9e979d473c02b51e4423368238c58ddb52f0e5c6a180e641081525081526020016040518061010001604052807f3788bdb44f8632d42d0dbee5eea1acc6136cf411e655624f55e48902c3bd553481526020017f6190cf2c2a7b5ad769d594a82844f23b4167fa7c8ac30e51aa6cfbebdcd4b94581526020017f65f7787096be9204123a71f3ac88a87be1513217737d6a1e2f3a13a43d7e3a9a81526020017f023af32dbfa67975536479a7a7ce74a02142147fac0480187f1f13349cda1f2d81526020017f64fc44b7fc6841bddb0ced8b8b0fe6759137ef87ee96651215fc1dbcd25c64dc81526020017f1434aa3748b701d5b69df3d7d340c1fe3f6b9c1efc617484caadb47e382f447581526020017f457a6da8c962ef35f2b217423e5844e9d23534527e8ea4290d24e3ddf21720c681526020017f63b9540ceb60ccb51e4d989d956e053cf2511837efb79089d2ff40284202c53d815250815250826000600281106121be576121bd613464565b5b602002018190525050505050505050505050600060038c60001c901b905060007f80000000000000000000000000000000a6f7cef517bce6b2c09318d2e7ae9f608a01905060008060019050600060019050600060019050600060fc90505b6000816008901b905060008189161461252b5760008060008060007f7fffffffffffffffffffffffffffffffffffffffffffffffffffffffffffffed8061226757612266613658565b5b888c09905060007f7fffffffffffffffffffffffffffffffffffffffffffffffffffffffffffffed8061229d5761229c613658565b5b8b8b09905081810195507f7fffffffffffffffffffffffffffffffffffffffffffffffffffffffffffffed8282030194507f7fffffffffffffffffffffffffffffffffffffffffffffffffffffffffffffed806122fd576122fc613658565b5b898c0993507f7fffffffffffffffffffffffffffffffffffffffffffffffffffffffffffffed8061233157612330613658565b5b8a8d099250505060006007878e901c169050866007901b198d169c5060008e905060007f7fffffffffffffffffffffffffffffffffffffffffffffffffffffffffffffed8061238357612382613658565b5b8260006002811061239757612396613464565b5b60200201516001600381106123af576123ae613464565b5b602002015184600881106123c6576123c5613464565b5b60200201518709905060007f7fffffffffffffffffffffffffffffffffffffffffffffffffffffffffffffed80612400576123ff613658565b5b8360006002811061241457612413613464565b5b602002015160006003811061242c5761242b613464565b5b6020020151856008811061244357612442613464565b5b60200201518909905060007f7fffffffffffffffffffffffffffffffffffffffffffffffffffffffffffffed8061247d5761247c613658565b5b8460006002811061249157612490613464565b5b60200201516002600381106124a9576124a8613464565b5b602002015186600881106124c0576124bf613464565b5b6020020151870990507f7fffffffffffffffffffffffffffffffffffffffffffffffffffffffffffffed838303019e508087019d508282019c507f7fffffffffffffffffffffffffffffffffffffffffffffffffffffffffffffed818803019b505050505050505050505b6000818816146128305760008060008060007f7fffffffffffffffffffffffffffffffffffffffffffffffffffffffffffffed8061256c5761256b613658565b5b888c09905060007f7fffffffffffffffffffffffffffffffffffffffffffffffffffffffffffffed806125a2576125a1613658565b5b8b8b09905081810195507f7fffffffffffffffffffffffffffffffffffffffffffffffffffffffffffffed8282030194507f7fffffffffffffffffffffffffffffffffffffffffffffffffffffffffffffed8061260257612601613658565b5b898c0993507f7fffffffffffffffffffffffffffffffffffffffffffffffffffffffffffffed8061263657612635613658565b5b8a8d099250505060006007878d901c169050866007901b198c169b5060008e905060007f7fffffffffffffffffffffffffffffffffffffffffffffffffffffffffffffed8061268857612687613658565b5b8260016002811061269c5761269b613464565b5b60200201516000600381106126b4576126b3613464565b5b602002015184600881106126cb576126ca613464565b5b60200201518709905060007f7fffffffffffffffffffffffffffffffffffffffffffffffffffffffffffffed8061270557612704613658565b5b8360016002811061271957612718613464565b5b602002015160016003811061273157612730613464565b5b6020020151856008811061274857612747613464565b5b60200201518909905060007f7fffffffffffffffffffffffffffffffffffffffffffffffffffffffffffffed8061278257612781613658565b5b8460016002811061279657612795613464565b5b60200201516002600381106127ae576127ad613464565b5b602002015186600881106127c5576127c4613464565b5b6020020151870990507f7fffffffffffffffffffffffffffffffffffffffffffffffffffffffffffffed838303019e507f7fffffffffffffffffffffffffffffffffffffffffffffffffffffffffffffed818803019d508282019c508087019b505050505050505050505b60008203612b2b5760008060008060007f7fffffffffffffffffffffffffffffffffffffffffffffffffffffffffffffed8061286f5761286e613658565b5b888c09905060007f7fffffffffffffffffffffffffffffffffffffffffffffffffffffffffffffed806128a5576128a4613658565b5b8b8b09905081810195507f7fffffffffffffffffffffffffffffffffffffffffffffffffffffffffffffed8282030194507f7fffffffffffffffffffffffffffffffffffffffffffffffffffffffffffffed8061290557612904613658565b5b898c0993507f7fffffffffffffffffffffffffffffffffffffffffffffffffffffffffffffed8061293957612938613658565b5b8a8d0992505050600060078c16905060008e905060007f7fffffffffffffffffffffffffffffffffffffffffffffffffffffffffffffed8061297e5761297d613658565b5b8260016002811061299257612991613464565b5b60200201516000600381106129aa576129a9613464565b5b602002015184600881106129c1576129c0613464565b5b60200201518709905060007f7fffffffffffffffffffffffffffffffffffffffffffffffffffffffffffffed806129fb576129fa613658565b5b83600160028110612a0f57612a0e613464565b5b6020020151600160038110612a2757612a26613464565b5b60200201518560088110612a3e57612a3d613464565b5b60200201518909905060007f7fffffffffffffffffffffffffffffffffffffffffffffffffffffffffffffed80612a7857612a77613658565b5b84600160028110612a8c57612a8b613464565b5b6020020151600260038110612aa457612aa3613464565b5b60200201518660088110612abb57612aba613464565b5b6020020151870990507f7fffffffffffffffffffffffffffffffffffffffffffffffffffffffffffffed838303019e507f7fffffffffffffffffffffffffffffffffffffffffffffffffffffffffffffed818803019d508282019c508087019b5050505050505050505050612d44565b60007f7fffffffffffffffffffffffffffffffffffffffffffffffffffffffffffffed80612b5c57612b5b613658565b5b848809905060007f7fffffffffffffffffffffffffffffffffffffffffffffffffffffffffffffed80612b9257612b91613658565b5b878709905060007f7fffffffffffffffffffffffffffffffffffffffffffffffffffffffffffffed80612bc857612bc7613658565b5b868909905060007f7fffffffffffffffffffffffffffffffffffffffffffffffffffffffffffffed80612bfe57612bfd613658565b5b848509905060007f7fffffffffffffffffffffffffffffffffffffffffffffffffffffffffffffed80612c3457612c33613658565b5b848509905060007f7fffffffffffffffffffffffffffffffffffffffffffffffffffffffffffffed80612c6a57612c69613658565b5b858709905060007f7fffffffffffffffffffffffffffffffffffffffffffffffffffffffffffffed80612ca057612c9f613658565b5b85860990508182019c507f7fffffffffffffffffffffffffffffffffffffffffffffffffffffffffffffed848403019b508284019a507f7fffffffffffffffffffffffffffffffffffffffffffffffffffffffffffffed80612d0557612d04613658565b5b8c7fffffffffffffffffffffffffffffffffffffffffffffffffffffffffffffffda03828301089950505050505050505080806001900391505061221d565b50839a5082995081985080975050505050505060008073__$805a51696480285dd81be4e32361e3cb9d$__631d9b5e6f7f7fffffffffffffffffffffffffffffffffffffffffffffffffffffffffffffed80612da357612da2613658565b5b8689096040518263ffffffff1660e01b8152600401612dc291906136a0565b6040805180830381865af4158015612dde573d6000803e3d6000fd5b505050506040513d601f19601f82011682018060405250810190612e0291906136e7565b915091507f7fffffffffffffffffffffffffffffffffffffffffffffffffffffffffffffed80612e3557612e34613658565b5b82830991507f7fffffffffffffffffffffffffffffffffffffffffffffffffffffffffffffed80612e6957612e68613658565b5b82830991507f7fffffffffffffffffffffffffffffffffffffffffffffffffffffffffffffed80612e9d57612e9c613658565b5b82830991507f7fffffffffffffffffffffffffffffffffffffffffffffffffffffffffffffed80612ed157612ed0613658565b5b82830991507f7fffffffffffffffffffffffffffffffffffffffffffffffffffffffffffffed80612f0557612f04613658565b5b82830991507f7fffffffffffffffffffffffffffffffffffffffffffffffffffffffffffffed80612f3957612f38613658565b5b81830991507f7fffffffffffffffffffffffffffffffffffffffffffffffffffffffffffffed80612f6d57612f6c613658565b5b7f7fffffffffffffffffffffffffffffffffffffffffffffffffffffffffffffed80612f9c57612f9b613658565b5b858409880996507f7fffffffffffffffffffffffffffffffffffffffffffffffffffffffffffffed80612fd257612fd1613658565b5b7f7fffffffffffffffffffffffffffffffffffffffffffffffffffffffffffffed8061300157613000613658565b5b87840986099450600060ff88901b861760001b905060087fff00ff00ff00ff00ff00ff00ff00ff00ff00ff00ff00ff00ff00ff00ff00ff008260001c16901c60087eff00ff00ff00ff00ff00ff00ff00ff00ff00ff00ff00ff00ff00ff00ff00ff8360001c16901b1760001b905060107fffff0000ffff0000ffff0000ffff0000ffff0000ffff0000ffff0000ffff00008260001c16901c60107dffff0000ffff0000ffff0000ffff0000ffff0000ffff0000ffff0000ffff8360001c16901b1760001b905060207fffffffff00000000ffffffff00000000ffffffff00000000ffffffff000000008260001c16901c60207bffffffff00000000ffffffff00000000ffffffff00000000ffffffff8360001c16901b1760001b905060407fffffffffffffffff0000000000000000ffffffffffffffff00000000000000008260001c16901c604077ffffffffffffffff0000000000000000ffffffffffffffff8360001c16901b1760001b905060808160001c901c60808260001c901b1760001b90508e81149b5050505050505050505050505b949350505050565b60405180604001604052806002905b6131b56131cb565b8152602001906001900390816131ad5790505090565b60405180606001604052806003905b6131e26131f8565b8152602001906001900390816131da5790505090565b604051806101000160405280600890602082028036833780820191505090505090565b6000604051905090565b600080fd5b600080fd5b6000819050919050565b6132428161322f565b811461324d57600080fd5b50565b60008135905061325f81613239565b92915050565b600080fd5b600080fd5b6000601f19601f8301169050919050565b7f4e487b7100000000000000000000000000000000000000000000000000000000600052604160045260246000fd5b6132b88261326f565b810181811067ffffffffffffffff821117156132d7576132d6613280565b5b80604052505050565b60006132ea61321b565b90506132f682826132af565b919050565b600067ffffffffffffffff82111561331657613315613280565b5b61331f8261326f565b9050602081019050919050565b82818337600083830152505050565b600061334e613349846132fb565b6132e0565b90508281526020810184848401111561336a5761336961326a565b5b61337584828561332c565b509392505050565b600082601f83011261339257613391613265565b5b81356133a284826020860161333b565b91505092915050565b600080600080608085870312156133c5576133c4613225565b5b60006133d387828801613250565b94505060206133e487828801613250565b93505060406133f587828801613250565b925050606085013567ffffffffffffffff8111156134165761341561322a565b5b6134228782880161337d565b91505092959194509250565b60008115159050919050565b6134438161342e565b82525050565b600060208201905061345e600083018461343a565b92915050565b7f4e487b7100000000000000000000000000000000000000000000000000000000600052603260045260246000fd5b600081519050919050565b600082825260208201905092915050565b60005b838110156134cd5780820151818401526020810190506134b2565b60008484015250505050565b60006134e482613493565b6134ee818561349e565b93506134fe8185602086016134af565b6135078161326f565b840191505092915050565b6000602082019050818103600083015261352c81846134d9565b905092915050565b600067ffffffffffffffff82111561354f5761354e613280565b5b602082029050919050565b600080fd5b600067ffffffffffffffff82169050919050565b61357c8161355f565b811461358757600080fd5b50565b60008151905061359981613573565b92915050565b60006135b26135ad84613534565b6132e0565b905080602084028301858111156135cc576135cb61355a565b5b835b818110156135f557806135e1888261358a565b8452602084019350506020810190506135ce565b5050509392505050565b600082601f83011261361457613613613265565b5b600861362184828561359f565b91505092915050565b6000610100828403121561364157613640613225565b5b600061364f848285016135ff565b91505092915050565b7f4e487b7100000000000000000000000000000000000000000000000000000000600052601260045260246000fd5b6000819050919050565b61369a81613687565b82525050565b60006020820190506136b56000830184613691565b92915050565b6136c481613687565b81146136cf57600080fd5b50565b6000815190506136e1816136bb565b92915050565b600080604083850312156136fe576136fd613225565b5b600061370c858286016136d2565b925050602061371d858286016136d2565b915050925092905056fea26469706673582212201c923c7352d6801afa3455719317d996d729b6e648eefe4f893c3bc0e072d44f64736f6c634300081a0033",
  "linkReferences": {
    "@farcaster-attestation/farcaster-solidity/contracts/libraries/Ed25519_pow.sol": {
      "Ed25519_pow": [
        {
          "length": 20,
          "start": 2392
        },
        {
          "length": 20,
          "start": 6421
        },
        {
          "length": 20,
          "start": 11694
        }
      ]
    },
    "@farcaster-attestation/farcaster-solidity/contracts/libraries/Sha512.sol": {
      "Sha512": [
        {
          "length": 20,
          "start": 649
        }
      ]
    }
  },
  "deployedLinkReferences": {
    "@farcaster-attestation/farcaster-solidity/contracts/libraries/Ed25519_pow.sol": {
      "Ed25519_pow": [
        {
          "length": 20,
          "start": 2310
        },
        {
          "length": 20,
          "start": 6339
        },
        {
          "length": 20,
          "start": 11612
        }
      ]
    },
    "@farcaster-attestation/farcaster-solidity/contracts/libraries/Sha512.sol": {
      "Sha512": [
        {
          "length": 20,
          "start": 567
        }
      ]
    }
  }
}