{
  "_format": "hh-sol-artifact-1",
  "contractName": "FcVerificationDecoder",
  "sourceName": "@farcaster-attestation/farcaster-solidity/contracts/farcaster/FcMessageDecoder.sol",
  "abi": [
    {
      "inputs": [],
      "name": "InvalidEncoding",
      "type": "error"
    },
    {
      "inputs": [
        {
          "internalType": "enum MessageType",
          "name": "messageType",
          "type": "uint8"
        }
      ],
      "name": "InvalidMessageType",
      "type": "error"
    },
    {
      "inputs": [
        {
          "internalType": "bytes",
          "name": "message",
          "type": "bytes"
        }
      ],
      "name": "decodeVerificationAddAddress",
      "outputs": [
        {
          "components": [
            {
              "internalType": "enum MessageType",
              "name": "type_",
              "type": "MessageType"
            },
            {
              "internalType": "uint64",
              "name": "fid",
              "type": "uint64"
            },
            {
              "internalType": "uint32",
              "name": "timestamp",
              "type": "uint32"
            },
            {
              "internalType": "enum FarcasterNetwork",
              "name": "network",
              "type": "FarcasterNetwork"
            },
            {
              "internalType": "bool",
              "name": "cast_add_body",
              "type": "bool"
            },
            {
              "internalType": "bool",
              "name": "cast_remove_body",
              "type": "bool"
            },
            {
              "internalType": "bool",
              "name": "reaction_body",
              "type": "bool"
            },
            {
              "internalType": "bool",
              "name": "empty",
              "type": "bool"
            },
            {
              "components": [
                {
                  "internalType": "bytes",
                  "name": "address_",
                  "type": "bytes"
                },
                {
                  "internalType": "bytes",
                  "name": "claim_signature",
                  "type": "bytes"
                },
                {
                  "internalType": "bytes",
                  "name": "block_hash",
                  "type": "bytes"
                },
                {
                  "internalType": "uint32",
                  "name": "verification_type",
                  "type": "uint32"
                },
                {
                  "internalType": "uint32",
                  "name": "chain_id",
                  "type": "uint32"
                },
                {
                  "internalType": "bool",
                  "name": "unknown_6",
                  "type": "bool"
                },
                {
                  "internalType": "enum Protocol",
                  "name": "protocol",
                  "type": "Protocol"
                }
              ],
              "internalType": "struct VerificationAddAddressBody",
              "name": "verification_add_address_body",
              "type": "tuple"
            },
            {
              "internalType": "bool",
              "name": "verification_remove_body",
              "type": "bool"
            },
            {
              "internalType": "bool",
              "name": "deprecated_signer_add_body",
              "type": "bool"
            },
            {
              "internalType": "bool",
              "name": "user_data_body",
              "type": "bool"
            },
            {
              "internalType": "bool",
              "name": "deprecated_signer_remove_body",
              "type": "bool"
            },
            {
              "internalType": "bool",
              "name": "link_body",
              "type": "bool"
            },
            {
              "internalType": "bool",
              "name": "username_proof_body",
              "type": "bool"
            },
            {
              "internalType": "bool",
              "name": "frame_action_body",
              "type": "bool"
            }
          ],
          "internalType": "struct MessageDataVerificationAddAddress",
          "name": "messageData",
          "type": "tuple"
        }
      ],
      "stateMutability": "pure",
      "type": "function"
    },
    {
      "inputs": [
        {
          "internalType": "bytes",
          "name": "message",
          "type": "bytes"
        }
      ],
      "name": "decodeVerificationRemove",
      "outputs": [
        {
          "components": [
            {
              "internalType": "enum MessageType",
              "name": "type_",
              "type": "MessageType"
            },
            {
              "internalType": "uint64",
              "name": "fid",
              "type": "uint64"
            },
            {
              "internalType": "uint32",
              "name": "timestamp",
              "type": "uint32"
            },
            {
              "internalType": "enum FarcasterNetwork",
              "name": "network",
              "type": "FarcasterNetwork"
            },
            {
              "internalType": "bool",
              "name": "cast_add_body",
              "type": "bool"
            },
            {
              "internalType": "bool",
              "name": "cast_remove_body",
              "type": "bool"
            },
            {
              "internalType": "bool",
              "name": "reaction_body",
              "type": "bool"
            },
            {
              "internalType": "bool",
              "name": "empty",
              "type": "bool"
            },
            {
              "internalType": "bool",
              "name": "verification_add_address_body",
              "type": "bool"
            },
            {
              "components": [
                {
                  "internalType": "bytes",
                  "name": "address_",
                  "type": "bytes"
                },
                {
                  "internalType": "enum Protocol",
                  "name": "protocol",
                  "type": "Protocol"
                }
              ],
              "internalType": "struct VerificationRemoveBody",
              "name": "verification_remove_body",
              "type": "tuple"
            },
            {
              "internalType": "bool",
              "name": "deprecated_signer_add_body",
              "type": "bool"
            },
            {
              "internalType": "bool",
              "name": "user_data_body",
              "type": "bool"
            },
            {
              "internalType": "bool",
              "name": "deprecated_signer_remove_body",
              "type": "bool"
            },
            {
              "internalType": "bool",
              "name": "link_body",
              "type": "bool"
            },
            {
              "internalType": "bool",
              "name": "username_proof_body",
              "type": "bool"
            },
            {
              "internalType": "bool",
              "name": "frame_action_body",
              "type": "bool"
            }
          ],
          "internalType": "struct MessageDataVerificationRemove",
          "name": "messageData",
          "type": "tuple"
        }
      ],
      "stateMutability": "pure",
      "type": "function"
    }
  ],
  "bytecode": "0x61486f610052600b82828239805160001a6073146045577f4e487b7100000000000000000000000000000000000000000000000000000000600052600060045260246000fd5b30600052607381538281f3fe73000000000000000000000000000000000000000030146080604052600436106100405760003560e01c8063613d24dc14610045578063fee6de3a14610075575b600080fd5b61005f600480360381019061005a91906140f5565b6100a5565b60405161006c9190614523565b60405180910390f35b61008f600480360381019061008a91906140f5565b610174565b60405161009c91906146da565b60405180910390f35b6100ad613d78565b60006100bc6000848551610243565b90508093508192505050806100fd576040517fad4d102a00000000000000000000000000000000000000000000000000000000815260040160405180910390fd5b6007600e8111156101115761011061413e565b5b8260000151600e8111156101285761012761413e565b5b1461016e5781600001516040517fb7ef4b20000000000000000000000000000000000000000000000000000000008152600401610165919061470b565b60405180910390fd5b50919050565b61017c613e45565b600061018b60008485516103cd565b90508093508192505050806101cc576040517fad4d102a00000000000000000000000000000000000000000000000000000000815260040160405180910390fd5b6008600e8111156101e0576101df61413e565b5b8260000151600e8111156101f7576101f661413e565b5b1461023d5781600001516040517fb7ef4b20000000000000000000000000000000000000000000000000000000008152600401610234919061470b565b60405180910390fd5b50919050565b60008061024e613d78565b610256613d78565b6000808890508067ffffffffffffffff1687826102739190614755565b67ffffffffffffffff16101561029557600081849550955095505050506103c4565b5b8667ffffffffffffffff1689826102ad9190614791565b67ffffffffffffffff16101561037e5760008060006102cc848c610557565b80945081955082975083965050505050826102f657600084879850985098505050505050506103c4565b60108267ffffffffffffffff16111561031e57600084879850985098505050505050506103c4565b61032882826106a3565b92508261034457600084879850985098505050505050506103c4565b610351848c8c858a610ac0565b80955081945050508261037357600084879850985098505050505050506103c4565b819450505050610296565b868961038a9190614755565b67ffffffffffffffff168167ffffffffffffffff16146103b657600081849550955095505050506103c4565b600181849550955095505050505b93509350939050565b6000806103d8613e45565b6103e0613e45565b6000808890508067ffffffffffffffff1687826103fd9190614755565b67ffffffffffffffff16101561041f576000818495509550955050505061054e565b5b8667ffffffffffffffff1689826104379190614791565b67ffffffffffffffff161015610508576000806000610456848c610557565b8094508195508297508396505050505082610480576000848798509850985050505050505061054e565b60108267ffffffffffffffff1611156104a8576000848798509850985050505050505061054e565b6104b28282610f5b565b9250826104ce576000848798509850985050505050505061054e565b6104db848c8c858a611378565b8095508194505050826104fd576000848798509850985050505050505061054e565b819450505050610420565b86896105149190614755565b67ffffffffffffffff168167ffffffffffffffff1614610540576000818495509550955050505061054e565b600181849550955095505050505b93509350939050565b600080600080600080600061056c8989611813565b9250925092508261058e5760008260006006965096509650965050505061069a565b600060038267ffffffffffffffff16901c905060006007831690506006808111156105bc576105bb61413e565b5b67ffffffffffffffff168167ffffffffffffffff16106105ef57600084600060069850985098509850505050505061069a565b60008167ffffffffffffffff16600681111561060e5761060d61413e565b5b9050600360068111156106245761062361413e565b5b8160068111156106375761063661413e565b5b14806106675750600460068111156106525761065161413e565b5b8160068111156106655761066461413e565b5b145b156106865760008560006006995099509950995050505050505061069a565b600185848399509950995099505050505050505b92959194509250565b600060018367ffffffffffffffff16036106e657600060068111156106cb576106ca61413e565b5b8260068111156106de576106dd61413e565b5b149050610aba565b60028367ffffffffffffffff1603610727576000600681111561070c5761070b61413e565b5b82600681111561071f5761071e61413e565b5b149050610aba565b60038367ffffffffffffffff1603610768576000600681111561074d5761074c61413e565b5b8260068111156107605761075f61413e565b5b149050610aba565b60048367ffffffffffffffff16036107a9576000600681111561078e5761078d61413e565b5b8260068111156107a1576107a061413e565b5b149050610aba565b60058367ffffffffffffffff16036107ea57600060068111156107cf576107ce61413e565b5b8260068111156107e2576107e161413e565b5b149050610aba565b60068367ffffffffffffffff160361082b57600060068111156108105761080f61413e565b5b8260068111156108235761082261413e565b5b149050610aba565b60078367ffffffffffffffff160361086c57600060068111156108515761085061413e565b5b8260068111156108645761086361413e565b5b149050610aba565b60088367ffffffffffffffff16036108ad57600060068111156108925761089161413e565b5b8260068111156108a5576108a461413e565b5b149050610aba565b60098367ffffffffffffffff16036108ee57600260068111156108d3576108d261413e565b5b8260068111156108e6576108e561413e565b5b149050610aba565b600a8367ffffffffffffffff160361092f57600060068111156109145761091361413e565b5b8260068111156109275761092661413e565b5b149050610aba565b600b8367ffffffffffffffff160361097057600060068111156109555761095461413e565b5b8260068111156109685761096761413e565b5b149050610aba565b600c8367ffffffffffffffff16036109b157600060068111156109965761099561413e565b5b8260068111156109a9576109a861413e565b5b149050610aba565b600d8367ffffffffffffffff16036109f257600060068111156109d7576109d661413e565b5b8260068111156109ea576109e961413e565b5b149050610aba565b600e8367ffffffffffffffff1603610a335760006006811115610a1857610a1761413e565b5b826006811115610a2b57610a2a61413e565b5b149050610aba565b600f8367ffffffffffffffff1603610a745760006006811115610a5957610a5861413e565b5b826006811115610a6c57610a6b61413e565b5b149050610aba565b60108367ffffffffffffffff1603610ab55760006006811115610a9a57610a9961413e565b5b826006811115610aad57610aac61413e565b5b149050610aba565b600090505b92915050565b600080600087905060018567ffffffffffffffff1603610b10576000610ae7828987611a03565b809350819250505080610b0257600082935093505050610f51565b600182935093505050610f51565b60028567ffffffffffffffff1603610b58576000610b2f828987611aca565b809350819250505080610b4a57600082935093505050610f51565b600182935093505050610f51565b60038567ffffffffffffffff1603610ba0576000610b77828987611b4b565b809350819250505080610b9257600082935093505050610f51565b600182935093505050610f51565b60048567ffffffffffffffff1603610be8576000610bbf828987611bc0565b809350819250505080610bda57600082935093505050610f51565b600182935093505050610f51565b60058567ffffffffffffffff1603610c30576000610c07828987611c87565b809350819250505080610c2257600082935093505050610f51565b600182935093505050610f51565b60068567ffffffffffffffff1603610c78576000610c4f828987611cf2565b809350819250505080610c6a57600082935093505050610f51565b600182935093505050610f51565b60078567ffffffffffffffff1603610cc0576000610c97828987611d5d565b809350819250505080610cb257600082935093505050610f51565b600182935093505050610f51565b60088567ffffffffffffffff1603610d08576000610cdf828987611dc8565b809350819250505080610cfa57600082935093505050610f51565b600182935093505050610f51565b60098567ffffffffffffffff1603610d50576000610d27828987611e33565b809350819250505080610d4257600082935093505050610f51565b600182935093505050610f51565b600a8567ffffffffffffffff1603610d98576000610d6f828987611ed2565b809350819250505080610d8a57600082935093505050610f51565b600182935093505050610f51565b600b8567ffffffffffffffff1603610de0576000610db7828987611f3e565b809350819250505080610dd257600082935093505050610f51565b600182935093505050610f51565b600c8567ffffffffffffffff1603610e28576000610dff828987611faa565b809350819250505080610e1a57600082935093505050610f51565b600182935093505050610f51565b600d8567ffffffffffffffff1603610e70576000610e47828987612016565b809350819250505080610e6257600082935093505050610f51565b600182935093505050610f51565b600e8567ffffffffffffffff1603610eb8576000610e8f828987612082565b809350819250505080610eaa57600082935093505050610f51565b600182935093505050610f51565b600f8567ffffffffffffffff1603610f00576000610ed78289876120ee565b809350819250505080610ef257600082935093505050610f51565b600182935093505050610f51565b60108567ffffffffffffffff1603610f48576000610f1f82898761215a565b809350819250505080610f3a57600082935093505050610f51565b600182935093505050610f51565b60008192509250505b9550959350505050565b600060018367ffffffffffffffff1603610f9e5760006006811115610f8357610f8261413e565b5b826006811115610f9657610f9561413e565b5b149050611372565b60028367ffffffffffffffff1603610fdf5760006006811115610fc457610fc361413e565b5b826006811115610fd757610fd661413e565b5b149050611372565b60038367ffffffffffffffff160361102057600060068111156110055761100461413e565b5b8260068111156110185761101761413e565b5b149050611372565b60048367ffffffffffffffff160361106157600060068111156110465761104561413e565b5b8260068111156110595761105861413e565b5b149050611372565b60058367ffffffffffffffff16036110a257600060068111156110875761108661413e565b5b82600681111561109a5761109961413e565b5b149050611372565b60068367ffffffffffffffff16036110e357600060068111156110c8576110c761413e565b5b8260068111156110db576110da61413e565b5b149050611372565b60078367ffffffffffffffff160361112457600060068111156111095761110861413e565b5b82600681111561111c5761111b61413e565b5b149050611372565b60088367ffffffffffffffff1603611165576000600681111561114a5761114961413e565b5b82600681111561115d5761115c61413e565b5b149050611372565b60098367ffffffffffffffff16036111a6576000600681111561118b5761118a61413e565b5b82600681111561119e5761119d61413e565b5b149050611372565b600a8367ffffffffffffffff16036111e757600260068111156111cc576111cb61413e565b5b8260068111156111df576111de61413e565b5b149050611372565b600b8367ffffffffffffffff1603611228576000600681111561120d5761120c61413e565b5b8260068111156112205761121f61413e565b5b149050611372565b600c8367ffffffffffffffff1603611269576000600681111561124e5761124d61413e565b5b8260068111156112615761126061413e565b5b149050611372565b600d8367ffffffffffffffff16036112aa576000600681111561128f5761128e61413e565b5b8260068111156112a2576112a161413e565b5b149050611372565b600e8367ffffffffffffffff16036112eb57600060068111156112d0576112cf61413e565b5b8260068111156112e3576112e261413e565b5b149050611372565b600f8367ffffffffffffffff160361132c57600060068111156113115761131061413e565b5b8260068111156113245761132361413e565b5b149050611372565b60108367ffffffffffffffff160361136d57600060068111156113525761135161413e565b5b8260068111156113655761136461413e565b5b149050611372565b600090505b92915050565b600080600087905060018567ffffffffffffffff16036113c857600061139f8289876121c6565b8093508192505050806113ba57600082935093505050611809565b600182935093505050611809565b60028567ffffffffffffffff16036114105760006113e782898761228d565b80935081925050508061140257600082935093505050611809565b600182935093505050611809565b60038567ffffffffffffffff160361145857600061142f82898761230e565b80935081925050508061144a57600082935093505050611809565b600182935093505050611809565b60048567ffffffffffffffff16036114a0576000611477828987612383565b80935081925050508061149257600082935093505050611809565b600182935093505050611809565b60058567ffffffffffffffff16036114e85760006114bf82898761244a565b8093508192505050806114da57600082935093505050611809565b600182935093505050611809565b60068567ffffffffffffffff16036115305760006115078289876124b5565b80935081925050508061152257600082935093505050611809565b600182935093505050611809565b60078567ffffffffffffffff160361157857600061154f828987612520565b80935081925050508061156a57600082935093505050611809565b600182935093505050611809565b60088567ffffffffffffffff16036115c057600061159782898761258b565b8093508192505050806115b257600082935093505050611809565b600182935093505050611809565b60098567ffffffffffffffff16036116085760006115df8289876125f6565b8093508192505050806115fa57600082935093505050611809565b600182935093505050611809565b600a8567ffffffffffffffff1603611650576000611627828987612662565b80935081925050508061164257600082935093505050611809565b600182935093505050611809565b600b8567ffffffffffffffff160361169857600061166f828987612701565b80935081925050508061168a57600082935093505050611809565b600182935093505050611809565b600c8567ffffffffffffffff16036116e05760006116b782898761276d565b8093508192505050806116d257600082935093505050611809565b600182935093505050611809565b600d8567ffffffffffffffff16036117285760006116ff8289876127d9565b80935081925050508061171a57600082935093505050611809565b600182935093505050611809565b600e8567ffffffffffffffff1603611770576000611747828987612845565b80935081925050508061176257600082935093505050611809565b600182935093505050611809565b600f8567ffffffffffffffff16036117b857600061178f8289876128b1565b8093508192505050806117aa57600082935093505050611809565b600182935093505050611809565b60108567ffffffffffffffff16036118005760006117d782898761291d565b8093508192505050806117f257600082935093505050611809565b600182935093505050611809565b60008192509250505b9550959350505050565b60008060008060005b600a67ffffffffffffffff168167ffffffffffffffff16101561192f57855187826118479190614755565b67ffffffffffffffff161061186857600087600094509450945050506119fc565b60008682896118779190614755565b67ffffffffffffffff1681518110611892576118916147cd565b5b602001015160f81c60f81b60f81c90506000607f821690506007836118b791906147fc565b67ffffffffffffffff168160ff1667ffffffffffffffff16901b8417935060006080831660ff16036119205760008367ffffffffffffffff16118015611900575060008160ff16145b15611919576000896000965096509650505050506119fc565b505061192f565b5050808060010191505061181c565b600a67ffffffffffffffff168167ffffffffffffffff161061195d57600087600094509450945050506119fc565b6001600a61196b9190614791565b67ffffffffffffffff168167ffffffffffffffff16036119d95760018682896119949190614755565b67ffffffffffffffff16815181106119af576119ae6147cd565b5b602001015160f81c60f81b60f81c60ff1611156119d857600087600094509450945050506119fc565b5b60018082896119e89190614755565b6119f29190614755565b8394509450945050505b9250925092565b600080600080611a138787612989565b80935081995082945050505081611a3257600087935093505050611ac2565b60008160030b03611a4b57600087935093505050611ac2565b60008160030b1280611a605750600e8160030b135b15611a7357600087935093505050611ac2565b8060030b600e811115611a8957611a8861413e565b5b8560000190600e811115611aa057611a9f61413e565b5b9081600e811115611ab457611ab361413e565b5b815250506001879350935050505b935093915050565b600080600080611ada87876129a5565b80935081995082945050505081611af957600087935093505050611b43565b60008167ffffffffffffffff1603611b1957600087935093505050611b43565b80856020019067ffffffffffffffff16908167ffffffffffffffff16815250506001879350935050505b935093915050565b600080600080611b5b87876129eb565b80935081995082945050505081611b7a57600087935093505050611bb8565b60008163ffffffff1603611b9657600087935093505050611bb8565b80856040019063ffffffff16908163ffffffff16815250506001879350935050505b935093915050565b600080600080611bd08787612989565b80935081995082945050505081611bef57600087935093505050611c7f565b60008160030b03611c0857600087935093505050611c7f565b60008160030b1280611c1d575060038160030b135b15611c3057600087935093505050611c7f565b8060030b6003811115611c4657611c4561413e565b5b85606001906003811115611c5d57611c5c61413e565b5b90816003811115611c7157611c7061413e565b5b815250506001879350935050505b935093915050565b600080600080611c978787612a60565b80935081995082945050505081611cb657600087935093505050611cea565b6000151581151503611cd057600087935093505050611cea565b808560800190151590811515815250506001879350935050505b935093915050565b600080600080611d028787612a60565b80935081995082945050505081611d2157600087935093505050611d55565b6000151581151503611d3b57600087935093505050611d55565b808560a00190151590811515815250506001879350935050505b935093915050565b600080600080611d6d8787612a60565b80935081995082945050505081611d8c57600087935093505050611dc0565b6000151581151503611da657600087935093505050611dc0565b808560c00190151590811515815250506001879350935050505b935093915050565b600080600080611dd88787612a60565b80935081995082945050505081611df757600087935093505050611e2b565b6000151581151503611e1157600087935093505050611e2b565b808560e00190151590811515815250506001879350935050505b935093915050565b600080600080611e438787612af2565b80935081995082945050505081611e6257600087935093505050611eca565b60008167ffffffffffffffff1603611e8257600087935093505050611eca565b611e8a613f12565b611e95888884612b0e565b809350819a5082955050505082611eb55760008894509450505050611eca565b80866101000181905250600188945094505050505b935093915050565b600080600080611ee28787612a60565b80935081995082945050505081611f0157600087935093505050611f36565b6000151581151503611f1b57600087935093505050611f36565b80856101200190151590811515815250506001879350935050505b935093915050565b600080600080611f4e8787612a60565b80935081995082945050505081611f6d57600087935093505050611fa2565b6000151581151503611f8757600087935093505050611fa2565b80856101400190151590811515815250506001879350935050505b935093915050565b600080600080611fba8787612a60565b80935081995082945050505081611fd95760008793509350505061200e565b6000151581151503611ff35760008793509350505061200e565b80856101600190151590811515815250506001879350935050505b935093915050565b6000806000806120268787612a60565b809350819950829450505050816120455760008793509350505061207a565b600015158115150361205f5760008793509350505061207a565b80856101800190151590811515815250506001879350935050505b935093915050565b6000806000806120928787612a60565b809350819950829450505050816120b1576000879350935050506120e6565b60001515811515036120cb576000879350935050506120e6565b80856101a00190151590811515815250506001879350935050505b935093915050565b6000806000806120fe8787612a60565b8093508199508294505050508161211d57600087935093505050612152565b600015158115150361213757600087935093505050612152565b80856101c00190151590811515815250506001879350935050505b935093915050565b60008060008061216a8787612a60565b80935081995082945050505081612189576000879350935050506121be565b60001515811515036121a3576000879350935050506121be565b80856101e00190151590811515815250506001879350935050505b935093915050565b6000806000806121d68787612989565b809350819950829450505050816121f557600087935093505050612285565b60008160030b0361220e57600087935093505050612285565b60008160030b12806122235750600e8160030b135b1561223657600087935093505050612285565b8060030b600e81111561224c5761224b61413e565b5b8560000190600e8111156122635761226261413e565b5b9081600e8111156122775761227661413e565b5b815250506001879350935050505b935093915050565b60008060008061229d87876129a5565b809350819950829450505050816122bc57600087935093505050612306565b60008167ffffffffffffffff16036122dc57600087935093505050612306565b80856020019067ffffffffffffffff16908167ffffffffffffffff16815250506001879350935050505b935093915050565b60008060008061231e87876129eb565b8093508199508294505050508161233d5760008793509350505061237b565b60008163ffffffff16036123595760008793509350505061237b565b80856040019063ffffffff16908163ffffffff16815250506001879350935050505b935093915050565b6000806000806123938787612989565b809350819950829450505050816123b257600087935093505050612442565b60008160030b036123cb57600087935093505050612442565b60008160030b12806123e0575060038160030b135b156123f357600087935093505050612442565b8060030b60038111156124095761240861413e565b5b856060019060038111156124205761241f61413e565b5b908160038111156124345761243361413e565b5b815250506001879350935050505b935093915050565b60008060008061245a8787612a60565b80935081995082945050505081612479576000879350935050506124ad565b6000151581151503612493576000879350935050506124ad565b808560800190151590811515815250506001879350935050505b935093915050565b6000806000806124c58787612a60565b809350819950829450505050816124e457600087935093505050612518565b60001515811515036124fe57600087935093505050612518565b808560a00190151590811515815250506001879350935050505b935093915050565b6000806000806125308787612a60565b8093508199508294505050508161254f57600087935093505050612583565b600015158115150361256957600087935093505050612583565b808560c00190151590811515815250506001879350935050505b935093915050565b60008060008061259b8787612a60565b809350819950829450505050816125ba576000879350935050506125ee565b60001515811515036125d4576000879350935050506125ee565b808560e00190151590811515815250506001879350935050505b935093915050565b6000806000806126068787612a60565b809350819950829450505050816126255760008793509350505061265a565b600015158115150361263f5760008793509350505061265a565b80856101000190151590811515815250506001879350935050505b935093915050565b6000806000806126728787612af2565b80935081995082945050505081612691576000879350935050506126f9565b60008167ffffffffffffffff16036126b1576000879350935050506126f9565b6126b9613f6f565b6126c4888884612c98565b809350819a50829550505050826126e457600088945094505050506126f9565b80866101200181905250600188945094505050505b935093915050565b6000806000806127118787612a60565b8093508199508294505050508161273057600087935093505050612765565b600015158115150361274a57600087935093505050612765565b80856101400190151590811515815250506001879350935050505b935093915050565b60008060008061277d8787612a60565b8093508199508294505050508161279c576000879350935050506127d1565b60001515811515036127b6576000879350935050506127d1565b80856101600190151590811515815250506001879350935050505b935093915050565b6000806000806127e98787612a60565b809350819950829450505050816128085760008793509350505061283d565b60001515811515036128225760008793509350505061283d565b80856101800190151590811515815250506001879350935050505b935093915050565b6000806000806128558787612a60565b80935081995082945050505081612874576000879350935050506128a9565b600015158115150361288e576000879350935050506128a9565b80856101a00190151590811515815250506001879350935050505b935093915050565b6000806000806128c18787612a60565b809350819950829450505050816128e057600087935093505050612915565b60001515811515036128fa57600087935093505050612915565b80856101c00190151590811515815250506001879350935050505b935093915050565b60008060008061292d8787612a60565b8093508199508294505050508161294c57600087935093505050612981565b600015158115150361296657600087935093505050612981565b80856101e00190151590811515815250506001879350935050505b935093915050565b60008060006129988585612e22565b9250925092509250925092565b6000806000806000806129b88888611813565b925092509250826129d65760008260009550955095505050506129e4565b600182829550955095505050505b9250925092565b6000806000806000806129fe8888611813565b92509250925082612a1c576000826000955095509550505050612a59565b600067ffffffff00000000821667ffffffffffffffff1614612a4b576000826000955095509550505050612a59565b600182829550955095505050505b9250925092565b600080600080600080612a738888611813565b92509250925082612a91576000826000955095509550505050612aeb565b60018167ffffffffffffffff161115612ab7576000826000955095509550505050612aeb565b60008167ffffffffffffffff1603612adc576001826000955095509550505050612aeb565b60018260019550955095505050505b9250925092565b6000806000612b018585612eb8565b9250925092509250925092565b600080612b19613f12565b612b21613f12565b6000808890508067ffffffffffffffff168782612b3e9190614755565b67ffffffffffffffff161015612b605760008184955095509550505050612c8f565b5b8667ffffffffffffffff168982612b789190614791565b67ffffffffffffffff161015612c49576000806000612b97848c610557565b8094508195508297508396505050505082612bc15760008487985098509850505050505050612c8f565b60078267ffffffffffffffff161115612be95760008487985098509850505050505050612c8f565b612bf38282612f60565b925082612c0f5760008487985098509850505050505050612c8f565b612c1c848c8c858a613134565b809550819450505082612c3e5760008487985098509850505050505050612c8f565b819450505050612b61565b8689612c559190614755565b67ffffffffffffffff168167ffffffffffffffff1614612c815760008184955095509550505050612c8f565b600181849550955095505050505b93509350939050565b600080612ca3613f6f565b612cab613f6f565b6000808890508067ffffffffffffffff168782612cc89190614755565b67ffffffffffffffff161015612cea5760008184955095509550505050612e19565b5b8667ffffffffffffffff168982612d029190614791565b67ffffffffffffffff161015612dd3576000806000612d21848c610557565b8094508195508297508396505050505082612d4b5760008487985098509850505050505050612e19565b60028267ffffffffffffffff161115612d735760008487985098509850505050505050612e19565b612d7d8282613347565b925082612d995760008487985098509850505050505050612e19565b612da6848c8c858a6133d6565b809550819450505082612dc85760008487985098509850505050505050612e19565b819450505050612ceb565b8689612ddf9190614755565b67ffffffffffffffff168167ffffffffffffffff1614612e0b5760008184955095509550505050612e19565b600181849550955095505050505b93509350939050565b600080600080600080612e358888611813565b92509250925082612e53576000826000955095509550505050612eb1565b6000603f8267ffffffffffffffff16901c67ffffffffffffffff1603612ea357600067ffffffff00000000821667ffffffffffffffff1614612ea2576000826000955095509550505050612eb1565b5b600182829550955095505050505b9250925092565b600080600080600080612ecb8888611813565b92509250925082612ee9576000826000955095509550505050612f59565b8167ffffffffffffffff1681830167ffffffffffffffff161015612f1a576000826000955095509550505050612f59565b86518282612f289190614755565b67ffffffffffffffff161115612f4b576000826000955095509550505050612f59565b600182829550955095505050505b9250925092565b600060018367ffffffffffffffff1603612fa35760026006811115612f8857612f8761413e565b5b826006811115612f9b57612f9a61413e565b5b14905061312e565b60028367ffffffffffffffff1603612fe45760026006811115612fc957612fc861413e565b5b826006811115612fdc57612fdb61413e565b5b14905061312e565b60038367ffffffffffffffff1603613025576002600681111561300a5761300961413e565b5b82600681111561301d5761301c61413e565b5b14905061312e565b60048367ffffffffffffffff1603613066576000600681111561304b5761304a61413e565b5b82600681111561305e5761305d61413e565b5b14905061312e565b60058367ffffffffffffffff16036130a7576000600681111561308c5761308b61413e565b5b82600681111561309f5761309e61413e565b5b14905061312e565b60068367ffffffffffffffff16036130e857600060068111156130cd576130cc61413e565b5b8260068111156130e0576130df61413e565b5b14905061312e565b60078367ffffffffffffffff1603613129576000600681111561310e5761310d61413e565b5b8260068111156131215761312061413e565b5b14905061312e565b600090505b92915050565b600080600087905060018567ffffffffffffffff160361318457600061315b828987613481565b8093508192505050806131765760008293509350505061333d565b60018293509350505061333d565b60028567ffffffffffffffff16036131cc5760006131a38289876135ff565b8093508192505050806131be5760008293509350505061333d565b60018293509350505061333d565b60038567ffffffffffffffff16036132145760006131eb82898761377d565b8093508192505050806132065760008293509350505061333d565b60018293509350505061333d565b60048567ffffffffffffffff160361325c5760006132338289876138fb565b80935081925050508061324e5760008293509350505061333d565b60018293509350505061333d565b60058567ffffffffffffffff16036132a457600061327b828987613970565b8093508192505050806132965760008293509350505061333d565b60018293509350505061333d565b60068567ffffffffffffffff16036132ec5760006132c38289876139e5565b8093508192505050806132de5760008293509350505061333d565b60018293509350505061333d565b60078567ffffffffffffffff160361333457600061330b828987613a50565b8093508192505050806133265760008293509350505061333d565b60018293509350505061333d565b60008192509250505b9550959350505050565b600060018367ffffffffffffffff160361338a576002600681111561336f5761336e61413e565b5b8260068111156133825761338161413e565b5b1490506133d0565b60028367ffffffffffffffff16036133cb57600060068111156133b0576133af61413e565b5b8260068111156133c3576133c261413e565b5b1490506133d0565b600090505b92915050565b600080600087905060018567ffffffffffffffff16036134265760006133fd828987613b17565b80935081925050508061341857600082935093505050613477565b600182935093505050613477565b60028567ffffffffffffffff160361346e576000613445828987613c95565b80935081925050508061346057600082935093505050613477565b600182935093505050613477565b60008192509250505b9550959350505050565b6000806000806134918787613d5c565b809350819950829450505050816134b0576000879350935050506135f7565b60008167ffffffffffffffff16036134d0576000879350935050506135f7565b8067ffffffffffffffff1667ffffffffffffffff8111156134f4576134f3613fca565b5b6040519080825280601f01601f1916602001820160405280156135265781602001600182028036833780820191505090505b50856000018190525060005b8167ffffffffffffffff168167ffffffffffffffff1610156135de5786818961355b9190614755565b67ffffffffffffffff1681518110613576576135756147cd565b5b602001015160f81c60f81b86600001518267ffffffffffffffff16815181106135a2576135a16147cd565b5b60200101907effffffffffffffffffffffffffffffffffffffffffffffffffffffffffffff1916908160001a9053508080600101915050613532565b5080876135eb9190614755565b96506001879350935050505b935093915050565b60008060008061360f8787613d5c565b8093508199508294505050508161362e57600087935093505050613775565b60008167ffffffffffffffff160361364e57600087935093505050613775565b8067ffffffffffffffff1667ffffffffffffffff81111561367257613671613fca565b5b6040519080825280601f01601f1916602001820160405280156136a45781602001600182028036833780820191505090505b50856020018190525060005b8167ffffffffffffffff168167ffffffffffffffff16101561375c578681896136d99190614755565b67ffffffffffffffff16815181106136f4576136f36147cd565b5b602001015160f81c60f81b86602001518267ffffffffffffffff16815181106137205761371f6147cd565b5b60200101907effffffffffffffffffffffffffffffffffffffffffffffffffffffffffffff1916908160001a90535080806001019150506136b0565b5080876137699190614755565b96506001879350935050505b935093915050565b60008060008061378d8787613d5c565b809350819950829450505050816137ac576000879350935050506138f3565b60008167ffffffffffffffff16036137cc576000879350935050506138f3565b8067ffffffffffffffff1667ffffffffffffffff8111156137f0576137ef613fca565b5b6040519080825280601f01601f1916602001820160405280156138225781602001600182028036833780820191505090505b50856040018190525060005b8167ffffffffffffffff168167ffffffffffffffff1610156138da578681896138579190614755565b67ffffffffffffffff1681518110613872576138716147cd565b5b602001015160f81c60f81b86604001518267ffffffffffffffff168151811061389e5761389d6147cd565b5b60200101907effffffffffffffffffffffffffffffffffffffffffffffffffffffffffffff1916908160001a905350808060010191505061382e565b5080876138e79190614755565b96506001879350935050505b935093915050565b60008060008061390b87876129eb565b8093508199508294505050508161392a57600087935093505050613968565b60008163ffffffff160361394657600087935093505050613968565b80856060019063ffffffff16908163ffffffff16815250506001879350935050505b935093915050565b60008060008061398087876129eb565b8093508199508294505050508161399f576000879350935050506139dd565b60008163ffffffff16036139bb576000879350935050506139dd565b80856080019063ffffffff16908163ffffffff16815250506001879350935050505b935093915050565b6000806000806139f58787612a60565b80935081995082945050505081613a1457600087935093505050613a48565b6000151581151503613a2e57600087935093505050613a48565b808560a00190151590811515815250506001879350935050505b935093915050565b600080600080613a608787612989565b80935081995082945050505081613a7f57600087935093505050613b0f565b60008160030b03613a9857600087935093505050613b0f565b60008160030b1280613aad575060018160030b135b15613ac057600087935093505050613b0f565b8060030b6001811115613ad657613ad561413e565b5b8560c001906001811115613aed57613aec61413e565b5b90816001811115613b0157613b0061413e565b5b815250506001879350935050505b935093915050565b600080600080613b278787613d5c565b80935081995082945050505081613b4657600087935093505050613c8d565b60008167ffffffffffffffff1603613b6657600087935093505050613c8d565b8067ffffffffffffffff1667ffffffffffffffff811115613b8a57613b89613fca565b5b6040519080825280601f01601f191660200182016040528015613bbc5781602001600182028036833780820191505090505b50856000018190525060005b8167ffffffffffffffff168167ffffffffffffffff161015613c7457868189613bf19190614755565b67ffffffffffffffff1681518110613c0c57613c0b6147cd565b5b602001015160f81c60f81b86600001518267ffffffffffffffff1681518110613c3857613c376147cd565b5b60200101907effffffffffffffffffffffffffffffffffffffffffffffffffffffffffffff1916908160001a9053508080600101915050613bc8565b508087613c819190614755565b96506001879350935050505b935093915050565b600080600080613ca58787612989565b80935081995082945050505081613cc457600087935093505050613d54565b60008160030b03613cdd57600087935093505050613d54565b60008160030b1280613cf2575060018160030b135b15613d0557600087935093505050613d54565b8060030b6001811115613d1b57613d1a61413e565b5b85602001906001811115613d3257613d3161413e565b5b90816001811115613d4657613d4561413e565b5b815250506001879350935050505b935093915050565b6000806000613d6b8585612eb8565b9250925092509250925092565b6040518061020001604052806000600e811115613d9857613d9761413e565b5b8152602001600067ffffffffffffffff168152602001600063ffffffff16815260200160006003811115613dcf57613dce61413e565b5b8152602001600015158152602001600015158152602001600015158152602001600015158152602001613e00613f12565b81526020016000151581526020016000151581526020016000151581526020016000151581526020016000151581526020016000151581526020016000151581525090565b6040518061020001604052806000600e811115613e6557613e6461413e565b5b8152602001600067ffffffffffffffff168152602001600063ffffffff16815260200160006003811115613e9c57613e9b61413e565b5b8152602001600015158152602001600015158152602001600015158152602001600015158152602001600015158152602001613ed6613f6f565b81526020016000151581526020016000151581526020016000151581526020016000151581526020016000151581526020016000151581525090565b6040518060e00160405280606081526020016060815260200160608152602001600063ffffffff168152602001600063ffffffff16815260200160001515815260200160006001811115613f6957613f6861413e565b5b81525090565b60405180604001604052806060815260200160006001811115613f9557613f9461413e565b5b81525090565b6000604051905090565b600080fd5b600080fd5b600080fd5b600080fd5b6000601f19601f8301169050919050565b7f4e487b7100000000000000000000000000000000000000000000000000000000600052604160045260246000fd5b61400282613fb9565b810181811067ffffffffffffffff8211171561402157614020613fca565b5b80604052505050565b6000614034613f9b565b90506140408282613ff9565b919050565b600067ffffffffffffffff8211156140605761405f613fca565b5b61406982613fb9565b9050602081019050919050565b82818337600083830152505050565b600061409861409384614045565b61402a565b9050828152602081018484840111156140b4576140b3613fb4565b5b6140bf848285614076565b509392505050565b600082601f8301126140dc576140db613faf565b5b81356140ec848260208601614085565b91505092915050565b60006020828403121561410b5761410a613fa5565b5b600082013567ffffffffffffffff81111561412957614128613faa565b5b614135848285016140c7565b91505092915050565b7f4e487b7100000000000000000000000000000000000000000000000000000000600052602160045260246000fd5b600f811061417e5761417d61413e565b5b50565b600081905061418f8261416d565b919050565b600061419f82614181565b9050919050565b6141af81614194565b82525050565b600067ffffffffffffffff82169050919050565b6141d2816141b5565b82525050565b600063ffffffff82169050919050565b6141f1816141d8565b82525050565b600481106142085761420761413e565b5b50565b6000819050614219826141f7565b919050565b60006142298261420b565b9050919050565b6142398161421e565b82525050565b60008115159050919050565b6142548161423f565b82525050565b600081519050919050565b600082825260208201905092915050565b60005b83811015614294578082015181840152602081019050614279565b60008484015250505050565b60006142ab8261425a565b6142b58185614265565b93506142c5818560208601614276565b6142ce81613fb9565b840191505092915050565b600281106142ea576142e961413e565b5b50565b60008190506142fb826142d9565b919050565b600061430b826142ed565b9050919050565b61431b81614300565b82525050565b600060e083016000830151848203600086015261433e82826142a0565b9150506020830151848203602086015261435882826142a0565b9150506040830151848203604086015261437282826142a0565b915050606083015161438760608601826141e8565b50608083015161439a60808601826141e8565b5060a08301516143ad60a086018261424b565b5060c08301516143c060c0860182614312565b508091505092915050565b6000610200830160008301516143e460008601826141a6565b5060208301516143f760208601826141c9565b50604083015161440a60408601826141e8565b50606083015161441d6060860182614230565b506080830151614430608086018261424b565b5060a083015161444360a086018261424b565b5060c083015161445660c086018261424b565b5060e083015161446960e086018261424b565b506101008301518482036101008601526144838282614321565b91505061012083015161449a61012086018261424b565b506101408301516144af61014086018261424b565b506101608301516144c461016086018261424b565b506101808301516144d961018086018261424b565b506101a08301516144ee6101a086018261424b565b506101c08301516145036101c086018261424b565b506101e08301516145186101e086018261424b565b508091505092915050565b6000602082019050818103600083015261453d81846143cb565b905092915050565b6000604083016000830151848203600086015261456282826142a0565b91505060208301516145776020860182614312565b508091505092915050565b60006102008301600083015161459b60008601826141a6565b5060208301516145ae60208601826141c9565b5060408301516145c160408601826141e8565b5060608301516145d46060860182614230565b5060808301516145e7608086018261424b565b5060a08301516145fa60a086018261424b565b5060c083015161460d60c086018261424b565b5060e083015161462060e086018261424b565b5061010083015161463561010086018261424b565b5061012083015184820361012086015261464f8282614545565b91505061014083015161466661014086018261424b565b5061016083015161467b61016086018261424b565b5061018083015161469061018086018261424b565b506101a08301516146a56101a086018261424b565b506101c08301516146ba6101c086018261424b565b506101e08301516146cf6101e086018261424b565b508091505092915050565b600060208201905081810360008301526146f48184614582565b905092915050565b61470581614194565b82525050565b600060208201905061472060008301846146fc565b92915050565b7f4e487b7100000000000000000000000000000000000000000000000000000000600052601160045260246000fd5b6000614760826141b5565b915061476b836141b5565b9250828201905067ffffffffffffffff81111561478b5761478a614726565b5b92915050565b600061479c826141b5565b91506147a7836141b5565b9250828203905067ffffffffffffffff8111156147c7576147c6614726565b5b92915050565b7f4e487b7100000000000000000000000000000000000000000000000000000000600052603260045260246000fd5b6000614807826141b5565b9150614812836141b5565b9250828202614820816141b5565b915080821461483257614831614726565b5b509291505056fea26469706673582212209274c025f91006f7da63ef282142941e4211bbf14d8a6ab6a9e647638ea41b7464736f6c634300081a0033",
  "linkReferences": {},
  "deployedLinkReferences": {}
}