{
  "_format": "hh-sol-artifact-1",
  "contractName": "FarcasterPublicKeyVerifier",
  "sourceName": "contracts/public-key-verifier/FarcasterPublicKeyVerifier.sol",
  "abi": [
    {
      "inputs": [
        {
          "internalType": "contract IKeyRegistry",
          "name": "registry",
          "type": "address"
        }
      ],
      "stateMutability": "nonpayable",
      "type": "constructor"
    },
    {
      "inputs": [],
      "name": "keyRegistry",
      "outputs": [
        {
          "internalType": "contract IKeyRegistry",
          "name": "",
          "type": "address"
        }
      ],
      "stateMutability": "view",
      "type": "function"
    },
    {
      "inputs": [
        {
          "internalType": "uint256",
          "name": "fid",
          "type": "uint256"
        },
        {
          "internalType": "bytes32",
          "name": "publicKey",
          "type": "bytes32"
        }
      ],
      "name": "verifyPublicKey",
      "outputs": [
        {
          "internalType": "bool",
          "name": "",
          "type": "bool"
        }
      ],
      "stateMutability": "view",
      "type": "function"
    }
  ],
  "bytecode": "0x60a0604052348015600f57600080fd5b506040516103bd3803806103bd833981016040819052602c91603c565b6001600160a01b0316608052606a565b600060208284031215604d57600080fd5b81516001600160a01b0381168114606357600080fd5b9392505050565b60805161033361008a600039600081816040015260b401526103336000f3fe608060405234801561001057600080fd5b50600436106100365760003560e01c8063086b51981461003b578063ce6560df1461008c575b600080fd5b6100627f000000000000000000000000000000000000000000000000000000000000000081565b60405173ffffffffffffffffffffffffffffffffffffffff90911681526020015b60405180910390f35b61009f61009a3660046101a4565b6100af565b6040519015158152602001610083565b6000807f000000000000000000000000000000000000000000000000000000000000000073ffffffffffffffffffffffffffffffffffffffff1663ac34cc5a858560405160200161010291815260200190565b6040516020818303038152906040526040518363ffffffff1660e01b815260040161012e9291906101c6565b6040805180830381865afa15801561014a573d6000803e3d6000fd5b505050506040513d601f19601f8201168201806040525081019061016e9190610239565b9050600181516002811115610185576101856102ce565b14801561019c5750806020015163ffffffff166001145b949350505050565b600080604083850312156101b757600080fd5b50508035926020909101359150565b828152604060208201526000825180604084015260005b818110156101fa57602081860181015160608684010152016101dd565b5060006060828501015260607fffffffffffffffffffffffffffffffffffffffffffffffffffffffffffffffe0601f8301168401019150509392505050565b6000604082840312801561024c57600080fd5b600090506040516040810181811067ffffffffffffffff82111715610298577f4e487b710000000000000000000000000000000000000000000000000000000083526041600452602483fd5b6040528351600381106102a9578283fd5b8152602084015163ffffffff811681146102c1578283fd5b6020820152949350505050565b7f4e487b7100000000000000000000000000000000000000000000000000000000600052602160045260246000fdfea2646970667358221220ddb8db9d918baa3138ff4575a0e9a9378bcb09cfdb196a90eb5c5aee08b7e0f764736f6c634300081a0033",
  "linkReferences": {},
  "deployedLinkReferences": {}
}