{
  "_format": "hh-sol-artifact-1",
  "contractName": "FarcasterResolver",
  "sourceName": "contracts/FarcasterResolver.sol",
  "abi": [
    {
      "inputs": [
        {
          "internalType": "contract IEAS",
          "name": "eas",
          "type": "address"
        },
        {
          "internalType": "address",
          "name": "admin",
          "type": "address"
        }
      ],
      "stateMutability": "nonpayable",
      "type": "constructor"
    },
    {
      "inputs": [],
      "name": "AccessControlBadConfirmation",
      "type": "error"
    },
    {
      "inputs": [
        {
          "internalType": "address",
          "name": "account",
          "type": "address"
        },
        {
          "internalType": "bytes32",
          "name": "neededRole",
          "type": "bytes32"
        }
      ],
      "name": "AccessControlUnauthorizedAccount",
      "type": "error"
    },
    {
      "inputs": [],
      "name": "AccessDenied",
      "type": "error"
    },
    {
      "inputs": [],
      "name": "InsufficientValue",
      "type": "error"
    },
    {
      "inputs": [],
      "name": "InvalidEAS",
      "type": "error"
    },
    {
      "inputs": [],
      "name": "InvalidLength",
      "type": "error"
    },
    {
      "inputs": [],
      "name": "NotPayable",
      "type": "error"
    },
    {
      "anonymous": false,
      "inputs": [
        {
          "indexed": true,
          "internalType": "bytes32",
          "name": "role",
          "type": "bytes32"
        },
        {
          "indexed": true,
          "internalType": "bytes32",
          "name": "previousAdminRole",
          "type": "bytes32"
        },
        {
          "indexed": true,
          "internalType": "bytes32",
          "name": "newAdminRole",
          "type": "bytes32"
        }
      ],
      "name": "RoleAdminChanged",
      "type": "event"
    },
    {
      "anonymous": false,
      "inputs": [
        {
          "indexed": true,
          "internalType": "bytes32",
          "name": "role",
          "type": "bytes32"
        },
        {
          "indexed": true,
          "internalType": "address",
          "name": "account",
          "type": "address"
        },
        {
          "indexed": true,
          "internalType": "address",
          "name": "sender",
          "type": "address"
        }
      ],
      "name": "RoleGranted",
      "type": "event"
    },
    {
      "anonymous": false,
      "inputs": [
        {
          "indexed": true,
          "internalType": "bytes32",
          "name": "role",
          "type": "bytes32"
        },
        {
          "indexed": true,
          "internalType": "address",
          "name": "account",
          "type": "address"
        },
        {
          "indexed": true,
          "internalType": "address",
          "name": "sender",
          "type": "address"
        }
      ],
      "name": "RoleRevoked",
      "type": "event"
    },
    {
      "anonymous": false,
      "inputs": [
        {
          "indexed": false,
          "internalType": "address",
          "name": "verifier",
          "type": "address"
        }
      ],
      "name": "SetPublicKeyVerifier",
      "type": "event"
    },
    {
      "anonymous": false,
      "inputs": [
        {
          "indexed": true,
          "internalType": "uint256",
          "name": "method",
          "type": "uint256"
        },
        {
          "indexed": false,
          "internalType": "address",
          "name": "verifier",
          "type": "address"
        }
      ],
      "name": "SetVerifier",
      "type": "event"
    },
    {
      "anonymous": false,
      "inputs": [
        {
          "indexed": true,
          "internalType": "uint256",
          "name": "fid",
          "type": "uint256"
        },
        {
          "indexed": true,
          "internalType": "address",
          "name": "verifyAddress",
          "type": "address"
        },
        {
          "indexed": true,
          "internalType": "uint256",
          "name": "verificationMethod",
          "type": "uint256"
        },
        {
          "indexed": false,
          "internalType": "bytes32",
          "name": "publicKey",
          "type": "bytes32"
        },
        {
          "indexed": false,
          "internalType": "bytes",
          "name": "signature",
          "type": "bytes"
        }
      ],
      "name": "VerificationAttested",
      "type": "event"
    },
    {
      "anonymous": false,
      "inputs": [
        {
          "indexed": true,
          "internalType": "uint256",
          "name": "fid",
          "type": "uint256"
        },
        {
          "indexed": true,
          "internalType": "address",
          "name": "verifyAddress",
          "type": "address"
        },
        {
          "indexed": true,
          "internalType": "uint256",
          "name": "verificationMethod",
          "type": "uint256"
        },
        {
          "indexed": false,
          "internalType": "bytes32",
          "name": "publicKey",
          "type": "bytes32"
        },
        {
          "indexed": false,
          "internalType": "bytes",
          "name": "signature",
          "type": "bytes"
        }
      ],
      "name": "VerificationRevoked",
      "type": "event"
    },
    {
      "inputs": [],
      "name": "DEFAULT_ADMIN_ROLE",
      "outputs": [
        {
          "internalType": "bytes32",
          "name": "",
          "type": "bytes32"
        }
      ],
      "stateMutability": "view",
      "type": "function"
    },
    {
      "inputs": [],
      "name": "OPERATOR_ROLE",
      "outputs": [
        {
          "internalType": "bytes32",
          "name": "",
          "type": "bytes32"
        }
      ],
      "stateMutability": "view",
      "type": "function"
    },
    {
      "inputs": [],
      "name": "SECURITY_ROLE",
      "outputs": [
        {
          "internalType": "bytes32",
          "name": "",
          "type": "bytes32"
        }
      ],
      "stateMutability": "view",
      "type": "function"
    },
    {
      "inputs": [
        {
          "components": [
            {
              "internalType": "bytes32",
              "name": "uid",
              "type": "bytes32"
            },
            {
              "internalType": "bytes32",
              "name": "schema",
              "type": "bytes32"
            },
            {
              "internalType": "uint64",
              "name": "time",
              "type": "uint64"
            },
            {
              "internalType": "uint64",
              "name": "expirationTime",
              "type": "uint64"
            },
            {
              "internalType": "uint64",
              "name": "revocationTime",
              "type": "uint64"
            },
            {
              "internalType": "bytes32",
              "name": "refUID",
              "type": "bytes32"
            },
            {
              "internalType": "address",
              "name": "recipient",
              "type": "address"
            },
            {
              "internalType": "address",
              "name": "attester",
              "type": "address"
            },
            {
              "internalType": "bool",
              "name": "revocable",
              "type": "bool"
            },
            {
              "internalType": "bytes",
              "name": "data",
              "type": "bytes"
            }
          ],
          "internalType": "struct Attestation",
          "name": "attestation",
          "type": "tuple"
        }
      ],
      "name": "attest",
      "outputs": [
        {
          "internalType": "bool",
          "name": "",
          "type": "bool"
        }
      ],
      "stateMutability": "payable",
      "type": "function"
    },
    {
      "inputs": [
        {
          "internalType": "uint256",
          "name": "_fid",
          "type": "uint256"
        },
        {
          "internalType": "address",
          "name": "_verifyAddr",
          "type": "address"
        }
      ],
      "name": "computeKey",
      "outputs": [
        {
          "internalType": "bytes32",
          "name": "",
          "type": "bytes32"
        }
      ],
      "stateMutability": "pure",
      "type": "function"
    },
    {
      "inputs": [
        {
          "internalType": "uint256",
          "name": "method",
          "type": "uint256"
        }
      ],
      "name": "emergencyRemoveVerifier",
      "outputs": [],
      "stateMutability": "nonpayable",
      "type": "function"
    },
    {
      "inputs": [
        {
          "internalType": "uint256",
          "name": "fid",
          "type": "uint256"
        }
      ],
      "name": "fidAttestationsLength",
      "outputs": [
        {
          "internalType": "uint256",
          "name": "",
          "type": "uint256"
        }
      ],
      "stateMutability": "view",
      "type": "function"
    },
    {
      "inputs": [
        {
          "internalType": "uint256",
          "name": "fid",
          "type": "uint256"
        },
        {
          "internalType": "address",
          "name": "wallet",
          "type": "address"
        }
      ],
      "name": "getAttestationUid",
      "outputs": [
        {
          "internalType": "bytes32",
          "name": "",
          "type": "bytes32"
        }
      ],
      "stateMutability": "view",
      "type": "function"
    },
    {
      "inputs": [
        {
          "internalType": "uint256",
          "name": "fid",
          "type": "uint256"
        }
      ],
      "name": "getFidAttestations",
      "outputs": [
        {
          "internalType": "address[]",
          "name": "wallets",
          "type": "address[]"
        },
        {
          "internalType": "bytes32[]",
          "name": "uids",
          "type": "bytes32[]"
        }
      ],
      "stateMutability": "view",
      "type": "function"
    },
    {
      "inputs": [
        {
          "internalType": "uint256",
          "name": "fid",
          "type": "uint256"
        },
        {
          "internalType": "uint256",
          "name": "start",
          "type": "uint256"
        },
        {
          "internalType": "uint256",
          "name": "len",
          "type": "uint256"
        }
      ],
      "name": "getFidAttestations",
      "outputs": [
        {
          "internalType": "address[]",
          "name": "wallets",
          "type": "address[]"
        },
        {
          "internalType": "bytes32[]",
          "name": "uids",
          "type": "bytes32[]"
        }
      ],
      "stateMutability": "view",
      "type": "function"
    },
    {
      "inputs": [
        {
          "internalType": "bytes32",
          "name": "role",
          "type": "bytes32"
        }
      ],
      "name": "getRoleAdmin",
      "outputs": [
        {
          "internalType": "bytes32",
          "name": "",
          "type": "bytes32"
        }
      ],
      "stateMutability": "view",
      "type": "function"
    },
    {
      "inputs": [
        {
          "internalType": "address",
          "name": "wallet",
          "type": "address"
        }
      ],
      "name": "getWalletAttestations",
      "outputs": [
        {
          "internalType": "uint256[]",
          "name": "fids",
          "type": "uint256[]"
        },
        {
          "internalType": "bytes32[]",
          "name": "uids",
          "type": "bytes32[]"
        }
      ],
      "stateMutability": "view",
      "type": "function"
    },
    {
      "inputs": [
        {
          "internalType": "address",
          "name": "wallet",
          "type": "address"
        },
        {
          "internalType": "uint256",
          "name": "start",
          "type": "uint256"
        },
        {
          "internalType": "uint256",
          "name": "len",
          "type": "uint256"
        }
      ],
      "name": "getWalletAttestations",
      "outputs": [
        {
          "internalType": "uint256[]",
          "name": "fids",
          "type": "uint256[]"
        },
        {
          "internalType": "bytes32[]",
          "name": "uids",
          "type": "bytes32[]"
        }
      ],
      "stateMutability": "view",
      "type": "function"
    },
    {
      "inputs": [
        {
          "internalType": "bytes32",
          "name": "role",
          "type": "bytes32"
        },
        {
          "internalType": "address",
          "name": "account",
          "type": "address"
        }
      ],
      "name": "grantRole",
      "outputs": [],
      "stateMutability": "nonpayable",
      "type": "function"
    },
    {
      "inputs": [
        {
          "internalType": "bytes32",
          "name": "role",
          "type": "bytes32"
        },
        {
          "internalType": "address",
          "name": "account",
          "type": "address"
        }
      ],
      "name": "hasRole",
      "outputs": [
        {
          "internalType": "bool",
          "name": "",
          "type": "bool"
        }
      ],
      "stateMutability": "view",
      "type": "function"
    },
    {
      "inputs": [],
      "name": "isPayable",
      "outputs": [
        {
          "internalType": "bool",
          "name": "",
          "type": "bool"
        }
      ],
      "stateMutability": "pure",
      "type": "function"
    },
    {
      "inputs": [
        {
          "internalType": "uint256",
          "name": "fid",
          "type": "uint256"
        },
        {
          "internalType": "address",
          "name": "wallet",
          "type": "address"
        }
      ],
      "name": "isVerified",
      "outputs": [
        {
          "internalType": "bool",
          "name": "",
          "type": "bool"
        }
      ],
      "stateMutability": "view",
      "type": "function"
    },
    {
      "inputs": [
        {
          "components": [
            {
              "internalType": "bytes32",
              "name": "uid",
              "type": "bytes32"
            },
            {
              "internalType": "bytes32",
              "name": "schema",
              "type": "bytes32"
            },
            {
              "internalType": "uint64",
              "name": "time",
              "type": "uint64"
            },
            {
              "internalType": "uint64",
              "name": "expirationTime",
              "type": "uint64"
            },
            {
              "internalType": "uint64",
              "name": "revocationTime",
              "type": "uint64"
            },
            {
              "internalType": "bytes32",
              "name": "refUID",
              "type": "bytes32"
            },
            {
              "internalType": "address",
              "name": "recipient",
              "type": "address"
            },
            {
              "internalType": "address",
              "name": "attester",
              "type": "address"
            },
            {
              "internalType": "bool",
              "name": "revocable",
              "type": "bool"
            },
            {
              "internalType": "bytes",
              "name": "data",
              "type": "bytes"
            }
          ],
          "internalType": "struct Attestation[]",
          "name": "attestations",
          "type": "tuple[]"
        },
        {
          "internalType": "uint256[]",
          "name": "values",
          "type": "uint256[]"
        }
      ],
      "name": "multiAttest",
      "outputs": [
        {
          "internalType": "bool",
          "name": "",
          "type": "bool"
        }
      ],
      "stateMutability": "payable",
      "type": "function"
    },
    {
      "inputs": [
        {
          "components": [
            {
              "internalType": "bytes32",
              "name": "uid",
              "type": "bytes32"
            },
            {
              "internalType": "bytes32",
              "name": "schema",
              "type": "bytes32"
            },
            {
              "internalType": "uint64",
              "name": "time",
              "type": "uint64"
            },
            {
              "internalType": "uint64",
              "name": "expirationTime",
              "type": "uint64"
            },
            {
              "internalType": "uint64",
              "name": "revocationTime",
              "type": "uint64"
            },
            {
              "internalType": "bytes32",
              "name": "refUID",
              "type": "bytes32"
            },
            {
              "internalType": "address",
              "name": "recipient",
              "type": "address"
            },
            {
              "internalType": "address",
              "name": "attester",
              "type": "address"
            },
            {
              "internalType": "bool",
              "name": "revocable",
              "type": "bool"
            },
            {
              "internalType": "bytes",
              "name": "data",
              "type": "bytes"
            }
          ],
          "internalType": "struct Attestation[]",
          "name": "attestations",
          "type": "tuple[]"
        },
        {
          "internalType": "uint256[]",
          "name": "values",
          "type": "uint256[]"
        }
      ],
      "name": "multiRevoke",
      "outputs": [
        {
          "internalType": "bool",
          "name": "",
          "type": "bool"
        }
      ],
      "stateMutability": "payable",
      "type": "function"
    },
    {
      "inputs": [],
      "name": "publicKeyVerifier",
      "outputs": [
        {
          "internalType": "contract IFarcasterPublicKeyVerifier",
          "name": "",
          "type": "address"
        }
      ],
      "stateMutability": "view",
      "type": "function"
    },
    {
      "inputs": [
        {
          "internalType": "bytes32",
          "name": "role",
          "type": "bytes32"
        },
        {
          "internalType": "address",
          "name": "callerConfirmation",
          "type": "address"
        }
      ],
      "name": "renounceRole",
      "outputs": [],
      "stateMutability": "nonpayable",
      "type": "function"
    },
    {
      "inputs": [
        {
          "components": [
            {
              "internalType": "bytes32",
              "name": "uid",
              "type": "bytes32"
            },
            {
              "internalType": "bytes32",
              "name": "schema",
              "type": "bytes32"
            },
            {
              "internalType": "uint64",
              "name": "time",
              "type": "uint64"
            },
            {
              "internalType": "uint64",
              "name": "expirationTime",
              "type": "uint64"
            },
            {
              "internalType": "uint64",
              "name": "revocationTime",
              "type": "uint64"
            },
            {
              "internalType": "bytes32",
              "name": "refUID",
              "type": "bytes32"
            },
            {
              "internalType": "address",
              "name": "recipient",
              "type": "address"
            },
            {
              "internalType": "address",
              "name": "attester",
              "type": "address"
            },
            {
              "internalType": "bool",
              "name": "revocable",
              "type": "bool"
            },
            {
              "internalType": "bytes",
              "name": "data",
              "type": "bytes"
            }
          ],
          "internalType": "struct Attestation",
          "name": "attestation",
          "type": "tuple"
        }
      ],
      "name": "revoke",
      "outputs": [
        {
          "internalType": "bool",
          "name": "",
          "type": "bool"
        }
      ],
      "stateMutability": "payable",
      "type": "function"
    },
    {
      "inputs": [
        {
          "internalType": "bytes32",
          "name": "role",
          "type": "bytes32"
        },
        {
          "internalType": "address",
          "name": "account",
          "type": "address"
        }
      ],
      "name": "revokeRole",
      "outputs": [],
      "stateMutability": "nonpayable",
      "type": "function"
    },
    {
      "inputs": [
        {
          "internalType": "contract IFarcasterPublicKeyVerifier",
          "name": "verifier",
          "type": "address"
        }
      ],
      "name": "setPublicKeyVerifier",
      "outputs": [],
      "stateMutability": "nonpayable",
      "type": "function"
    },
    {
      "inputs": [
        {
          "internalType": "uint256",
          "name": "method",
          "type": "uint256"
        },
        {
          "internalType": "contract IFarcasterWalletVerifier",
          "name": "verifier",
          "type": "address"
        }
      ],
      "name": "setVerifier",
      "outputs": [],
      "stateMutability": "nonpayable",
      "type": "function"
    },
    {
      "inputs": [
        {
          "internalType": "bytes4",
          "name": "interfaceId",
          "type": "bytes4"
        }
      ],
      "name": "supportsInterface",
      "outputs": [
        {
          "internalType": "bool",
          "name": "",
          "type": "bool"
        }
      ],
      "stateMutability": "view",
      "type": "function"
    },
    {
      "inputs": [
        {
          "internalType": "uint256",
          "name": "",
          "type": "uint256"
        }
      ],
      "name": "verifiers",
      "outputs": [
        {
          "internalType": "contract IFarcasterWalletVerifier",
          "name": "",
          "type": "address"
        }
      ],
      "stateMutability": "view",
      "type": "function"
    },
    {
      "inputs": [
        {
          "internalType": "uint256",
          "name": "fid",
          "type": "uint256"
        },
        {
          "internalType": "address",
          "name": "verifyAddress",
          "type": "address"
        },
        {
          "internalType": "bytes32",
          "name": "publicKey",
          "type": "bytes32"
        },
        {
          "internalType": "uint256",
          "name": "method",
          "type": "uint256"
        },
        {
          "internalType": "bytes",
          "name": "signature",
          "type": "bytes"
        }
      ],
      "name": "verifyAdd",
      "outputs": [
        {
          "internalType": "bool",
          "name": "",
          "type": "bool"
        }
      ],
      "stateMutability": "view",
      "type": "function"
    },
    {
      "inputs": [
        {
          "internalType": "uint256",
          "name": "fid",
          "type": "uint256"
        },
        {
          "internalType": "address",
          "name": "verifyAddress",
          "type": "address"
        },
        {
          "internalType": "bytes32",
          "name": "publicKey",
          "type": "bytes32"
        },
        {
          "internalType": "uint256",
          "name": "method",
          "type": "uint256"
        },
        {
          "internalType": "bytes",
          "name": "signature",
          "type": "bytes"
        }
      ],
      "name": "verifyRemove",
      "outputs": [
        {
          "internalType": "bool",
          "name": "",
          "type": "bool"
        }
      ],
      "stateMutability": "view",
      "type": "function"
    },
    {
      "inputs": [],
      "name": "version",
      "outputs": [
        {
          "internalType": "string",
          "name": "",
          "type": "string"
        }
      ],
      "stateMutability": "view",
      "type": "function"
    },
    {
      "inputs": [
        {
          "internalType": "address",
          "name": "wallet",
          "type": "address"
        }
      ],
      "name": "walletAttestationsLength",
      "outputs": [
        {
          "internalType": "uint256",
          "name": "",
          "type": "uint256"
        }
      ],
      "stateMutability": "view",
      "type": "function"
    },
    {
      "stateMutability": "payable",
      "type": "receive"
    }
  ],
  "bytecode": "0x61010060405234801561001157600080fd5b506040516125d73803806125d783398101604081905261003091610177565b6001608052600360a052600060c05280826001600160a01b038116610068576040516341bc07ff60e11b815260040160405180910390fd5b6001600160a01b031660e05261007f6000826100b3565b506100aa7f97667070c54ef182b0f5858b034beac1b6f3089aa2d3188bb1e8929f4fa9b929826100b3565b505050506101b1565b6000828152602081815260408083206001600160a01b038516845290915281205460ff16610155576000838152602081815260408083206001600160a01b03861684529091529020805460ff1916600117905561010d3390565b6001600160a01b0316826001600160a01b0316847f2f8788117e7eff1d82e926ec794901d17c78024a50270940304540a733656f0d60405160405180910390a4506001610159565b5060005b92915050565b6001600160a01b038116811461017457600080fd5b50565b6000806040838503121561018a57600080fd5b82516101958161015f565b60208401519092506101a68161015f565b809150509250929050565b60805160a05160c05160e0516123ed6101ea600039600061159f01526000610b5001526000610b2701526000610afe01526123ed6000f3fe6080604052600436106101dc5760003560e01c806388e5b2d911610102578063dbe1065511610095578063f3013da511610064578063f3013da51461061a578063f46142501461063a578063f5af54801461065a578063f5b541a61461067a57600080fd5b8063dbe10655146105a0578063e49617e1146105d4578063e60c3505146105e7578063e6c2e9d5146105fa57600080fd5b8063a217fddf116100d1578063a217fddf14610514578063ac1eff6814610529578063ce46e0461461056c578063d547741f1461058057600080fd5b806388e5b2d91461047d57806391d148541461049057806391db0b7e146104e15780639c465345146104f457600080fd5b80633a25e6961161017a57806354fd4d501161014957806354fd4d50146103fb5780635659c8381461041d5780635cc9f3531461043d578063694d16ba1461045d57600080fd5b80633a25e6961461033b5780633a8d9d2a1461035b5780633d7f424c1461038957806353d57b32146103db57600080fd5b8063248a9ca3116101b6578063248a9ca31461028f5780632f2ff15d146102cd57806334c2766c146102ed57806336568abe1461031b57600080fd5b806301ffc9a71461021a57806307c5bcf91461024f5780631957ba4e1461026f57600080fd5b36610215576040517f1574f9f300000000000000000000000000000000000000000000000000000000815260040160405180910390fd5b005b600080fd5b34801561022657600080fd5b5061023a610235366004611c10565b6106ae565b60405190151581526020015b60405180910390f35b34801561025b57600080fd5b5061021361026a366004611c74565b610747565b34801561027b57600080fd5b5061021361028a366004611c91565b6107eb565b34801561029b57600080fd5b506102bf6102aa366004611cc1565b60009081526020819052604090206001015490565b604051908152602001610246565b3480156102d957600080fd5b506102136102e8366004611c91565b61089f565b3480156102f957600080fd5b5061030d610308366004611cc1565b6108ca565b604051610246929190611d16565b34801561032757600080fd5b50610213610336366004611c91565b6108e5565b34801561034757600080fd5b506102bf610356366004611c91565b610943565b34801561036757600080fd5b5061037b610376366004611c74565b6109a4565b604051610246929190611d84565b34801561039557600080fd5b506002546103b69073ffffffffffffffffffffffffffffffffffffffff1681565b60405173ffffffffffffffffffffffffffffffffffffffff9091168152602001610246565b3480156103e757600080fd5b5061030d6103f6366004611dbe565b6109b6565b34801561040757600080fd5b50610410610af7565b6040516102469190611e58565b34801561042957600080fd5b5061023a610438366004611c91565b610b9a565b34801561044957600080fd5b506102bf610458366004611c91565b610bb0565b34801561046957600080fd5b506102bf610478366004611c74565b610bd4565b61023a61048b366004611eb0565b610c02565b34801561049c57600080fd5b5061023a6104ab366004611c91565b60009182526020828152604080842073ffffffffffffffffffffffffffffffffffffffff93909316845291905290205460ff1690565b61023a6104ef366004611eb0565b610d03565b34801561050057600080fd5b5061023a61050f36600461201c565b610df4565b34801561052057600080fd5b506102bf600081565b34801561053557600080fd5b506103b6610544366004611cc1565b60016020526000908152604090205473ffffffffffffffffffffffffffffffffffffffff1681565b34801561057857600080fd5b50600061023a565b34801561058c57600080fd5b5061021361059b366004611c91565b610f81565b3480156105ac57600080fd5b506102bf7f4698baa05b306e3e5e3fa66d29891e203a1418ef5bee962e2c9b109f129e892081565b61023a6105e2366004612089565b610fa6565b61023a6105f5366004612089565b610fba565b34801561060657600080fd5b5061037b6106153660046120c5565b610fce565b34801561062657600080fd5b506102bf610635366004611cc1565b6110ef565b34801561064657600080fd5b50610213610655366004611cc1565b611106565b34801561066657600080fd5b5061023a61067536600461201c565b61119c565b34801561068657600080fd5b506102bf7f97667070c54ef182b0f5858b034beac1b6f3089aa2d3188bb1e8929f4fa9b92981565b60007fffffffff0000000000000000000000000000000000000000000000000000000082167f7965db0b00000000000000000000000000000000000000000000000000000000148061074157507f01ffc9a7000000000000000000000000000000000000000000000000000000007fffffffff000000000000000000000000000000000000000000000000000000008316145b92915050565b7f97667070c54ef182b0f5858b034beac1b6f3089aa2d3188bb1e8929f4fa9b929610771816112dc565b600280547fffffffffffffffffffffffff00000000000000000000000000000000000000001673ffffffffffffffffffffffffffffffffffffffff84169081179091556040519081527f3cdf41a2765b660770e9997ffcad30fc67871b420dd684a719b8b5856d71b17b9060200160405180910390a15050565b7f97667070c54ef182b0f5858b034beac1b6f3089aa2d3188bb1e8929f4fa9b929610815816112dc565b60008381526001602090815260409182902080547fffffffffffffffffffffffff00000000000000000000000000000000000000001673ffffffffffffffffffffffffffffffffffffffff8616908117909155915191825284917fb8fcb5b01f0242f7d98e8d447f82d41c16ccc18130a8766108db27dbfc30da4b910160405180910390a2505050565b6000828152602081905260409020600101546108ba816112dc565b6108c483836112e9565b50505050565b6060806108dc8360006103f6866110ef565b91509150915091565b73ffffffffffffffffffffffffffffffffffffffff81163314610934576040517f6697b23200000000000000000000000000000000000000000000000000000000815260040160405180910390fd5b61093e82826113e5565b505050565b6000828260405160200161098692919091825260601b7fffffffffffffffffffffffffffffffffffffffff00000000000000000000000016602082015260340190565b60405160208183030381529060405280519060200120905092915050565b6060806108dc83600061061586610bd4565b6060808267ffffffffffffffff8111156109d2576109d2611f21565b6040519080825280602002602001820160405280156109fb578160200160208202803683370190505b5091508267ffffffffffffffff811115610a1757610a17611f21565b604051908082528060200260200182016040528015610a40578160200160208202803683370190505b50905060005b83811015610aee57600080610a72610a5e8489612129565b60008a8152600560205260409020906114a0565b9150915080858481518110610a8957610a8961213c565b602002602001019073ffffffffffffffffffffffffffffffffffffffff16908173ffffffffffffffffffffffffffffffffffffffff16815250508160001b848481518110610ad957610ad961213c565b60209081029190910101525050600101610a46565b50935093915050565b6060610b227f00000000000000000000000000000000000000000000000000000000000000006114be565b610b4b7f00000000000000000000000000000000000000000000000000000000000000006114be565b610b747f00000000000000000000000000000000000000000000000000000000000000006114be565b604051602001610b869392919061216b565b604051602081830303815290604052905090565b600080610ba78484610bb0565b14159392505050565b600080610bbd8484610943565b600090815260036020526040902054949350505050565b73ffffffffffffffffffffffffffffffffffffffff811660009081526004602052604081206107419061157c565b6000610c0c611587565b83828114610c46576040517f947d5a8400000000000000000000000000000000000000000000000000000000815260040160405180910390fd5b3460005b82811015610cf3576000868683818110610c6657610c6661213c565b90506020020135905082811115610ca9576040517f1101129400000000000000000000000000000000000000000000000000000000815260040160405180910390fd5b610cd6898984818110610cbe57610cbe61213c565b9050602002810190610cd09190612202565b826115f8565b610ce7576000945050505050610cfb565b90910390600101610c4a565b506001925050505b949350505050565b6000610d0d611587565b83828114610d47576040517f947d5a8400000000000000000000000000000000000000000000000000000000815260040160405180910390fd5b3460005b82811015610cf3576000868683818110610d6757610d6761213c565b90506020020135905082811115610daa576040517f1101129400000000000000000000000000000000000000000000000000000000815260040160405180910390fd5b610dd7898984818110610dbf57610dbf61213c565b9050602002810190610dd19190612202565b8261172f565b610de8576000945050505050610cfb565b90910390600101610d4b565b60008281526001602052604081205473ffffffffffffffffffffffffffffffffffffffff16610e2557506000610f78565b6002546040517fce6560df000000000000000000000000000000000000000000000000000000008152600481018890526024810186905273ffffffffffffffffffffffffffffffffffffffff9091169063ce6560df90604401602060405180830381865afa158015610e9b573d6000803e3d6000fd5b505050506040513d601f19601f82011682018060405250810190610ebf9190612240565b610ecb57506000610f78565b600083815260016020526040908190205490517f0e3b0ceb00000000000000000000000000000000000000000000000000000000815273ffffffffffffffffffffffffffffffffffffffff90911690630e3b0ceb90610f34908990899089908890600401612262565b602060405180830381865afa158015610f51573d6000803e3d6000fd5b505050506040513d601f19601f82011682018060405250810190610f759190612240565b90505b95945050505050565b600082815260208190526040902060010154610f9c816112dc565b6108c483836113e5565b6000610fb0611587565b61074182346115f8565b6000610fc4611587565b610741823461172f565b6060808267ffffffffffffffff811115610fea57610fea611f21565b604051908082528060200260200182016040528015611013578160200160208202803683370190505b5091508267ffffffffffffffff81111561102f5761102f611f21565b604051908082528060200260200182016040528015611058578160200160208202803683370190505b50905060005b83811015610aee576000806110a16110768489612129565b73ffffffffffffffffffffffffffffffffffffffff8a166000908152600460205260409020906114a0565b91509150808584815181106110b8576110b861213c565b6020026020010181815250508160001b8484815181106110da576110da61213c565b6020908102919091010152505060010161105e565b60008181526005602052604081206107419061157c565b7f4698baa05b306e3e5e3fa66d29891e203a1418ef5bee962e2c9b109f129e8920611130816112dc565b600082815260016020908152604080832080547fffffffffffffffffffffffff00000000000000000000000000000000000000001690555191825283917fb8fcb5b01f0242f7d98e8d447f82d41c16ccc18130a8766108db27dbfc30da4b910160405180910390a25050565b60008281526001602052604081205473ffffffffffffffffffffffffffffffffffffffff166111cd57506000610f78565b6002546040517fce6560df000000000000000000000000000000000000000000000000000000008152600481018890526024810186905273ffffffffffffffffffffffffffffffffffffffff9091169063ce6560df90604401602060405180830381865afa158015611243573d6000803e3d6000fd5b505050506040513d601f19601f820116820180604052508101906112679190612240565b61127357506000610f78565b600083815260016020526040908190205490517ff4c24ea900000000000000000000000000000000000000000000000000000000815273ffffffffffffffffffffffffffffffffffffffff9091169063f4c24ea990610f34908990899089908890600401612262565b6112e6813361185b565b50565b60008281526020818152604080832073ffffffffffffffffffffffffffffffffffffffff8516845290915281205460ff166113dd5760008381526020818152604080832073ffffffffffffffffffffffffffffffffffffffff86168452909152902080547fffffffffffffffffffffffffffffffffffffffffffffffffffffffffffffff0016600117905561137b3390565b73ffffffffffffffffffffffffffffffffffffffff168273ffffffffffffffffffffffffffffffffffffffff16847f2f8788117e7eff1d82e926ec794901d17c78024a50270940304540a733656f0d60405160405180910390a4506001610741565b506000610741565b60008281526020818152604080832073ffffffffffffffffffffffffffffffffffffffff8516845290915281205460ff16156113dd5760008381526020818152604080832073ffffffffffffffffffffffffffffffffffffffff8616808552925280832080547fffffffffffffffffffffffffffffffffffffffffffffffffffffffffffffff0016905551339286917ff6391f5c32d9c69d2a47ea670b442974b53935d1edc7fd64eb21e047a839171b9190a4506001610741565b60008080806114af86866118e9565b909450925050505b9250929050565b606060006114cb83611914565b600101905060008167ffffffffffffffff8111156114eb576114eb611f21565b6040519080825280601f01601f191660200182016040528015611515576020820181803683370190505b5090508181016020015b7fffffffffffffffffffffffffffffffffffffffffffffffffffffffffffffffff017f3031323334353637383961626364656600000000000000000000000000000000600a86061a8153600a850494508461151f57509392505050565b6000610741826119f6565b3373ffffffffffffffffffffffffffffffffffffffff7f000000000000000000000000000000000000000000000000000000000000000016146115f6576040517f4ca8886700000000000000000000000000000000000000000000000000000000815260040160405180910390fd5b565b60008061160b60e0850160c08601611c74565b9050600080808061162061012089018961229d565b81019061162d9190612302565b935093509350935060006116418587610943565b6000818152600360205260409020549091508935146116695760009650505050505050610741565b600081815260036020908152604080832083905573ffffffffffffffffffffffffffffffffffffffff89168352600490915290206116a8908a35611a01565b5060008581526005602052604090206116c2908a35611a01565b50828673ffffffffffffffffffffffffffffffffffffffff16867f33f8ee7dc5fee7659e90eca057cdb88584252dc59b95a120410077318121213d878660405161170d92919061235c565b60405180910390a4611722858786868661119c565b9998505050505050505050565b60008061174260e0850160c08601611c74565b9050600080808061175761012089018961229d565b8101906117649190612302565b935093509350935060006117788587610943565b6000818152600360205260409020549091501561179e5760009650505050505050610741565b60008181526003602090815260408083208c359081905573ffffffffffffffffffffffffffffffffffffffff8a16845260049092529091206117e09187611a14565b5060008581526005602052604090206117fb908a3588611a21565b50828673ffffffffffffffffffffffffffffffffffffffff16867f6f244791d595e87020e634f8122c61378ed25a90143fb6fecfcd87aff2e6f37f878660405161184692919061235c565b60405180910390a46117228587868686610df4565b60008281526020818152604080832073ffffffffffffffffffffffffffffffffffffffff8516845290915290205460ff166118e5576040517fe2517d3f00000000000000000000000000000000000000000000000000000000815273ffffffffffffffffffffffffffffffffffffffff821660048201526024810183905260440160405180910390fd5b5050565b600080806118f78585611a44565b600081815260029690960160205260409095205494959350505050565b6000807a184f03e93ff9f4daa797ed6e38ed64bf6a1f010000000000000000831061195d577a184f03e93ff9f4daa797ed6e38ed64bf6a1f010000000000000000830492506040015b6d04ee2d6d415b85acef81000000008310611989576d04ee2d6d415b85acef8100000000830492506020015b662386f26fc1000083106119a757662386f26fc10000830492506010015b6305f5e10083106119bf576305f5e100830492506008015b61271083106119d357612710830492506004015b606483106119e5576064830492506002015b600a83106107415760010192915050565b600061074182611a50565b6000611a0d8383611a5a565b9392505050565b6000610cfb848484611a77565b6000610cfb848473ffffffffffffffffffffffffffffffffffffffff8516611a77565b6000611a0d8383611a94565b6000610741825490565b60008181526002830160205260408120819055611a0d8383611abe565b60008281526002840160205260408120829055610cfb8484611aca565b6000826000018281548110611aab57611aab61213c565b9060005260206000200154905092915050565b6000611a0d8383611ad6565b6000611a0d8383611bc9565b60008181526001830160205260408120548015611bbf576000611afa600183612375565b8554909150600090611b0e90600190612375565b9050808214611b73576000866000018281548110611b2e57611b2e61213c565b9060005260206000200154905080876000018481548110611b5157611b5161213c565b6000918252602080832090910192909255918252600188019052604090208390555b8554869080611b8457611b84612388565b600190038181906000526020600020016000905590558560010160008681526020019081526020016000206000905560019350505050610741565b6000915050610741565b60008181526001830160205260408120546113dd57508154600181810184556000848152602080822090930184905584548482528286019093526040902091909155610741565b600060208284031215611c2257600080fd5b81357fffffffff0000000000000000000000000000000000000000000000000000000081168114611a0d57600080fd5b73ffffffffffffffffffffffffffffffffffffffff811681146112e657600080fd5b600060208284031215611c8657600080fd5b8135611a0d81611c52565b60008060408385031215611ca457600080fd5b823591506020830135611cb681611c52565b809150509250929050565b600060208284031215611cd357600080fd5b5035919050565b600081518084526020840193506020830160005b82811015611d0c578151865260209586019590910190600101611cee565b5093949350505050565b6040808252835190820181905260009060208501906060840190835b81811015611d6657835173ffffffffffffffffffffffffffffffffffffffff16835260209384019390920191600101611d32565b50508381036020850152611d7a8186611cda565b9695505050505050565b6040808252835190820181905260009060208501906060840190835b81811015611d66578351835260209384019390920191600101611da0565b600080600060608486031215611dd357600080fd5b505081359360208301359350604090920135919050565b60005b83811015611e05578181015183820152602001611ded565b50506000910152565b60008151808452611e26816020860160208601611dea565b601f017fffffffffffffffffffffffffffffffffffffffffffffffffffffffffffffffe0169290920160200192915050565b602081526000611a0d6020830184611e0e565b60008083601f840112611e7d57600080fd5b50813567ffffffffffffffff811115611e9557600080fd5b6020830191508360208260051b85010111156114b757600080fd5b60008060008060408587031215611ec657600080fd5b843567ffffffffffffffff811115611edd57600080fd5b611ee987828801611e6b565b909550935050602085013567ffffffffffffffff811115611f0957600080fd5b611f1587828801611e6b565b95989497509550505050565b7f4e487b7100000000000000000000000000000000000000000000000000000000600052604160045260246000fd5b600082601f830112611f6157600080fd5b813567ffffffffffffffff811115611f7b57611f7b611f21565b6040517fffffffffffffffffffffffffffffffffffffffffffffffffffffffffffffffe0603f7fffffffffffffffffffffffffffffffffffffffffffffffffffffffffffffffe0601f8501160116810181811067ffffffffffffffff82111715611fe757611fe7611f21565b604052818152838201602001851015611fff57600080fd5b816020850160208301376000918101602001919091529392505050565b600080600080600060a0868803121561203457600080fd5b85359450602086013561204681611c52565b93506040860135925060608601359150608086013567ffffffffffffffff81111561207057600080fd5b61207c88828901611f50565b9150509295509295909350565b60006020828403121561209b57600080fd5b813567ffffffffffffffff8111156120b257600080fd5b82016101408185031215611a0d57600080fd5b6000806000606084860312156120da57600080fd5b83356120e581611c52565b95602085013595506040909401359392505050565b7f4e487b7100000000000000000000000000000000000000000000000000000000600052601160045260246000fd5b80820180821115610741576107416120fa565b7f4e487b7100000000000000000000000000000000000000000000000000000000600052603260045260246000fd5b6000845161217d818460208901611dea565b7f2e0000000000000000000000000000000000000000000000000000000000000090830190815284516121b7816001840160208901611dea565b7f2e000000000000000000000000000000000000000000000000000000000000006001929091019182015283516121f5816002840160208801611dea565b0160020195945050505050565b600082357ffffffffffffffffffffffffffffffffffffffffffffffffffffffffffffffec183360301811261223657600080fd5b9190910192915050565b60006020828403121561225257600080fd5b81518015158114611a0d57600080fd5b84815273ffffffffffffffffffffffffffffffffffffffff84166020820152826040820152608060608201526000610f756080830184611e0e565b60008083357fffffffffffffffffffffffffffffffffffffffffffffffffffffffffffffffe18436030181126122d257600080fd5b83018035915067ffffffffffffffff8211156122ed57600080fd5b6020019150368190038213156114b757600080fd5b6000806000806080858703121561231857600080fd5b843593506020850135925060408501359150606085013567ffffffffffffffff81111561234457600080fd5b61235087828801611f50565b91505092959194509250565b828152604060208201526000610cfb6040830184611e0e565b81810381811115610741576107416120fa565b7f4e487b7100000000000000000000000000000000000000000000000000000000600052603160045260246000fdfea2646970667358221220902ecf2c55b40c2d76ff78b4cf511f005a4b64820e9c5401fd75c3d75db362b964736f6c634300081a0033",
  "linkReferences": {},
  "deployedLinkReferences": {}
}