{
  "_format": "hh-sol-artifact-1",
  "contractName": "Blake3",
  "sourceName": "@farcaster-attestation/farcaster-solidity/contracts/libraries/Blake3.sol",
  "abi": [
    {
      "inputs": [
        {
          "internalType": "bytes",
          "name": "message",
          "type": "bytes"
        },
        {
          "internalType": "uint32",
          "name": "length",
          "type": "uint32"
        }
      ],
      "name": "hash",
      "outputs": [
        {
          "internalType": "bytes",
          "name": "",
          "type": "bytes"
        }
      ],
      "stateMutability": "pure",
      "type": "function"
    }
  ],
  "bytecode": "0x611b9b610039600b82828239805160001a607314602c57634e487b7160e01b600052600060045260246000fd5b30600052607381538281f3fe73000000000000000000000000000000000000000030146080604052600436106100355760003560e01c8063227bb04d1461003a575b600080fd5b61004d610048366004611728565b610063565b60405161005a919061182f565b60405180910390f35b6060600061006f61009e565b905061007b81856100c3565b50610094610088826101bd565b8463ffffffff166101ec565b9150505b92915050565b6100a66115b1565b60006100b061026e565b90506100bd8160006102d4565b91505090565b6100cb6115b1565b60005b82518110156101b5578351610400906100e690610329565b0361013e5760006101026100fd866000015161034b565b6103c5565b8551602001519091506000906101199060016118ca565b9050610126868383610402565b610139866020015182886080015161044c565b865250505b600061014d8560000151610329565b610159906104006118ea565b905060006101798284875161016e91906118ea565b63ffffffff166104b4565b90506000610191868561018c81866118fd565b6104cc565b90506101a18760000151826105a8565b6101ab82856118fd565b93505050506100ce565b509192915050565b604080516020808252818301909252606091600091906020820181803683370190505090506100988382610729565b606082518267ffffffffffffffff161115610268576040517f08c379a000000000000000000000000000000000000000000000000000000000815260206004820152601d60248201527f4c656e6774682065786365656473206d657373616765206c656e67746800000060448201526064015b60405180910390fd5b50815290565b6102766115f2565b506040805161010081018252636a09e667815263bb67ae856020820152633c6ef3729181019190915263a54ff53a606082015263510e527f6080820152639b05688c60a0820152631f83d9ab60c0820152635be0cd1960e082015290565b6102dc6115b1565b6102e4611611565b6040518060a001604052806102fb8660008761044c565b8152602001858152602001828152602001600060ff1681526020018463ffffffff1681525091505092915050565b60008160600151826080015160406103419190611910565b61009891906118fd565b61035361163f565b61035b61167a565b6103698360400151826107b0565b6040518060a0016040528084600001518152602001828152602001846020015167ffffffffffffffff1681526020018460600151815260200160026103ad866108af565b8660a00151171763ffffffff16815250915050919050565b6103cd6115f2565b60006103f0836000015184602001518560400151866060015187608001516108d2565b90506103fb81610bae565b9392505050565b6001811660000361043d5761042961041984610c12565b8385602001518660800151610c5e565b915060011c677fffffffffffffff16610402565b6104478383610c7e565b505050565b610454611699565b60408051818152606081018252600091602082018180368337019050506040805160c08101825296875267ffffffffffffffff90951660208701529385019390935250600060608401819052608084015263ffffffff1660a08301525090565b6000818310156104c5575081610098565b5080610098565b606060006104da84846118ea565b905060008167ffffffffffffffff8111156104f7576104f76116e5565b6040519080825280601f01601f191660200182016040528015610521576020820181803683370190505b50905060005b8281101561059e578661053a82886118fd565b8151811061054a5761054a611927565b602001015160f81c60f81b82828151811061056757610567611927565b60200101907effffffffffffffffffffffffffffffffffffffffffffffffffffffffffffff1916908160001a905350600101610527565b5095945050505050565b60005b8151811015610447576040836060015103610644576105c861167a565b6105d68460400151826107b0565b6106026105fd856000015183876020015160406105f28a6108af565b8a60a00151176108d2565b610bae565b8452608084018051600191906106199083906118fd565b9052506040805181815260608101825290602082018180368337505050604085015250600060608401525b60008360600151604061065791906118ea565b905060006106718284865161066c91906118ea565b6104b4565b905060005b81811015610700578461068982866118fd565b8151811061069957610699611927565b602001015160f81c60f81b86604001518760600151836106b991906118fd565b815181106106c9576106c9611927565b60200101907effffffffffffffffffffffffffffffffffffffffffffffffffffffffffffff1916908160001a905350600101610676565b50808560600181815161071391906118fd565b90525061072081846118fd565b925050506105ab565b6000610738836000015161034b565b606084015190915060ff165b63ffffffff8116156107a05761075b600182611956565b905061079984604001518263ffffffff166036811061077c5761077c611927565b602002015161078a846103c5565b86602001518760800151610cc0565b9150610744565b6107aa8284610dab565b50505050565b60408251111580156107cd5750600482516107cb91906119a1565b155b610859576040517f08c379a000000000000000000000000000000000000000000000000000000000815260206004820152603460248201527f4461746120627974657320697320746f6f206c6f6e6720746f20636f6e76657260448201527f7420746f20313620342d6279746520776f726473000000000000000000000000606482015260840161025f565b60005b6004835161086a91906119b5565b8110156104475761088583610880836004611910565b610e1b565b82826010811061089757610897611927565b63ffffffff909216602092909202015260010161085c565b600081608001516000036108c557506001919050565b506000919050565b919050565b6108da61167a565b60006108e461026e565b90506108ee61167a565b60005b601081101561093b5787816010811061090c5761090c611927565b602002015182826010811061092357610923611927565b63ffffffff90921660209290920201526001016108f1565b5060006040518061020001604052808a60006008811061095d5761095d611927565b6020908102919091015163ffffffff168252018a60016020908102919091015163ffffffff168252018a60026020908102919091015163ffffffff168252018a60036020908102919091015163ffffffff168252018a60046020908102919091015163ffffffff168252018a60056020908102919091015163ffffffff168252018a60066020908102919091015163ffffffff168252018a60076020908102919091015163ffffffff168252018460006020908102919091015163ffffffff168252018460016020908102919091015163ffffffff168252018460026020908102919091015163ffffffff168252018460036020908102919091015163ffffffff90811683528a811683830152908a901c81166040830152888116606083015287166080909101529050610a918183610f1b565b610a9a82611003565b610aa48183610f1b565b610aad82611003565b610ab78183610f1b565b610ac082611003565b610aca8183610f1b565b610ad382611003565b610add8183610f1b565b610ae682611003565b610af08183610f1b565b610af982611003565b610b038183610f1b565b60005b6008811015610ba15781610b1b8260086118fd565b60108110610b2b57610b2b611927565b6020020151828260108110610b4257610b42611927565b6020020180519190911863ffffffff169052898160088110610b6657610b66611927565b602002015182610b778360086118fd565b60108110610b8757610b87611927565b6020020180519190911863ffffffff169052600101610b06565b5098975050505050505050565b610bb66115f2565b610bbe6115f2565b60005b6008811015610c0b57838160108110610bdc57610bdc611927565b6020020151828260088110610bf357610bf3611927565b63ffffffff9092166020929092020152600101610bc1565b5092915050565b610c1a6115f2565b600182606001818151610c2d91906119c9565b60ff908116909152604084015160608501519092501660368110610c5357610c53611927565b602002015192915050565b610c666115f2565b610c756100fd86868686610cc0565b95945050505050565b808260400151836060015160ff1660368110610c9c57610c9c611927565b602002015260608201805160019190610cb69083906119e2565b60ff169052505050565b610cc861163f565b610cd061167a565b60005b6008811015610d1d57868160088110610cee57610cee611927565b6020020151828260108110610d0557610d05611927565b63ffffffff9092166020929092020152600101610cd3565b5060085b6010811015610d755785610d366008836118ea565b60088110610d4657610d46611927565b6020020151828260108110610d5d57610d5d611927565b63ffffffff9092166020929092020152600101610d21565b506040805160a081018252948552602085019190915260008482015260608401525060041763ffffffff16608082015292915050565b6000610dce836000015184602001516000866060015160088860800151176108d2565b905060005b60088163ffffffff1610156107aa57610e13828263ffffffff1660108110610dfd57610dfd611927565b602002015184610e0e8460046119fb565b6110cb565b600101610dd3565b6000610e288260046118fd565b83511015610e92576040517f08c379a000000000000000000000000000000000000000000000000000000000815260206004820152601f60248201527f6c655f62797465735f6765745f75696e7433325f6f75744f66426f756e647300604482015260640161025f565b6000805b6004811015610f1357610eaa816008611910565b8585610eb78460036118ea565b610ec191906118fd565b81518110610ed157610ed1611927565b0160200151610f09917fff00000000000000000000000000000000000000000000000000000000000000909116901c60e01c83611a1a565b9150600101610e96565b509392505050565b610f3c82600060046008600c868460200201518760015b6020020151611158565b610f5882600160056009600d8660026020020151876003610f32565b610f748260026006600a600e8660046020020151876005610f32565b610f908260036007600b600f8660066020020151876007610f32565b610fac8260006005600a600f8660086020020151876009610f32565b610fc88260016006600b600c86600a602002015187600b610f32565b610fe482600260076008600d86600c602002015187600d610f32565b610fff82600360046009600e8681602002015187600f610f32565b5050565b600061100d6114d6565b905061101761167a565b60005b601081101561107d578383826010811061103657611036611927565b602002015160ff166010811061104e5761104e611927565b602002015182826010811061106557611065611927565b63ffffffff909216602092909202015260010161101a565b5060005b60108110156107aa5781816010811061109c5761109c611927565b60200201518482601081106110b3576110b3611927565b63ffffffff9092166020929092020152600101611081565b60005b60048110156107aa576110e2816008611910565b6110ed906002611b59565b6110fd9063ffffffff86166119b5565b60f81b836111118363ffffffff86166118fd565b8151811061112157611121611927565b60200101907effffffffffffffffffffffffffffffffffffffffffffffffffffffffffffff1916908160001a9053506001016110ce565b81878663ffffffff166010811061117157611171611927565b6020020151888863ffffffff166010811061118e5761118e611927565b60200201510101878763ffffffff16601081106111ad576111ad611927565b602002019063ffffffff16908163ffffffff1681525050611209878763ffffffff16601081106111df576111df611927565b6020020151888563ffffffff16601081106111fc576111fc611927565b6020020151186010611564565b878463ffffffff166010811061122157611221611927565b602002019063ffffffff16908163ffffffff1681525050868363ffffffff166010811061125057611250611927565b6020020151878563ffffffff166010811061126d5761126d611927565b602002015101878563ffffffff166010811061128b5761128b611927565b602002019063ffffffff16908163ffffffff16815250506112e7878563ffffffff16601081106112bd576112bd611927565b6020020151888763ffffffff16601081106112da576112da611927565b602002015118600c611564565b878663ffffffff16601081106112ff576112ff611927565b602002019063ffffffff16908163ffffffff168152505080878663ffffffff166010811061132f5761132f611927565b6020020151888863ffffffff166010811061134c5761134c611927565b60200201510101878763ffffffff166010811061136b5761136b611927565b602002019063ffffffff16908163ffffffff16815250506113c7878763ffffffff166010811061139d5761139d611927565b6020020151888563ffffffff16601081106113ba576113ba611927565b6020020151186008611564565b878463ffffffff16601081106113df576113df611927565b602002019063ffffffff16908163ffffffff1681525050868363ffffffff166010811061140e5761140e611927565b6020020151878563ffffffff166010811061142b5761142b611927565b602002015101878563ffffffff166010811061144957611449611927565b602002019063ffffffff16908163ffffffff16815250506114a5878563ffffffff166010811061147b5761147b611927565b6020020151888763ffffffff166010811061149857611498611927565b6020020151186007611564565b878663ffffffff16601081106114bd576114bd611927565b63ffffffff909216602092909202015250505050505050565b6114de61167a565b5060408051610200810182526002815260066020820152600391810191909152600a606082015260076080820152600060a0820152600460c0820152600d60e08201526001610100820152600b610120820152600c61014082015260056101608201526009610180820152600e6101a0820152600f6101c082015260086101e082015290565b600060e083901b6115768360206119c9565b7fffffffff0000000000000000000000000000000000000000000000000000000090911660ff84811682901c92161b1760e01c905092915050565b6040518060a001604052806115c4611699565b81526020016115d16115f2565b81526020016115de611611565b815260006020820181905260409091015290565b6040518061010001604052806008906020820280368337509192915050565b604051806106c001604052806036905b6116296115f2565b8152602001906001900390816116215790505090565b6040518060a001604052806116526115f2565b815260200161165f61167a565b81526000602082018190526040820181905260609091015290565b6040518061020001604052806010906020820280368337509192915050565b6040518060c001604052806116ac6115f2565b8152602001600067ffffffffffffffff168152602001606081526020016000815260200160008152602001600063ffffffff1681525090565b7f4e487b7100000000000000000000000000000000000000000000000000000000600052604160045260246000fd5b803563ffffffff811681146108cd57600080fd5b6000806040838503121561173b57600080fd5b823567ffffffffffffffff81111561175257600080fd5b8301601f8101851361176357600080fd5b803567ffffffffffffffff81111561177d5761177d6116e5565b6040517fffffffffffffffffffffffffffffffffffffffffffffffffffffffffffffffe0603f7fffffffffffffffffffffffffffffffffffffffffffffffffffffffffffffffe0601f8501160116810181811067ffffffffffffffff821117156117e9576117e96116e5565b60405281815282820160200187101561180157600080fd5b8160208401602083013760006020838301015280945050505061182660208401611714565b90509250929050565b602081526000825180602084015260005b8181101561185d5760208186018101516040868401015201611840565b5060006040828501015260407fffffffffffffffffffffffffffffffffffffffffffffffffffffffffffffffe0601f83011684010191505092915050565b7f4e487b7100000000000000000000000000000000000000000000000000000000600052601160045260246000fd5b67ffffffffffffffff81811683821601908111156100985761009861189b565b818103818111156100985761009861189b565b808201808211156100985761009861189b565b80820281158282048414176100985761009861189b565b7f4e487b7100000000000000000000000000000000000000000000000000000000600052603260045260246000fd5b63ffffffff82811682821603908111156100985761009861189b565b7f4e487b7100000000000000000000000000000000000000000000000000000000600052601260045260246000fd5b6000826119b0576119b0611972565b500690565b6000826119c4576119c4611972565b500490565b60ff82811682821603908111156100985761009861189b565b60ff81811683821601908111156100985761009861189b565b63ffffffff8181168382160290811690818114610c0b57610c0b61189b565b63ffffffff81811683821601908111156100985761009861189b565b6001815b6001841115611a7157808504811115611a5557611a5561189b565b6001841615611a6357908102905b60019390931c928002611a3a565b935093915050565b600082611a8857506001610098565b81611a9557506000610098565b8160018114611aab5760028114611ab557611ad1565b6001915050610098565b60ff841115611ac657611ac661189b565b50506001821b610098565b5060208310610133831016604e8410600b8410161715611af4575081810a610098565b611b1f7fffffffffffffffffffffffffffffffffffffffffffffffffffffffffffffffff8484611a36565b807fffffffffffffffffffffffffffffffffffffffffffffffffffffffffffffffff04821115611b5157611b5161189b565b029392505050565b60006103fb8383611a7956fea2646970667358221220ab44cd2420b60b21bea54ce6043d37381d04dfbf03a44ce12a724f1c897478aa64736f6c634300081a0033",
  "linkReferences": {},
  "deployedLinkReferences": {}
}