{
  "_format": "hh-sol-artifact-1",
  "contractName": "FarcasterResolver",
  "sourceName": "contracts/FarcasterResolver.sol",
  "abi": [
    {
      "inputs": [
        {
          "internalType": "contract IEAS",
          "name": "eas",
          "type": "address"
        },
        {
          "internalType": "address",
          "name": "admin",
          "type": "address"
        }
      ],
      "stateMutability": "nonpayable",
      "type": "constructor"
    },
    {
      "inputs": [],
      "name": "AccessControlBadConfirmation",
      "type": "error"
    },
    {
      "inputs": [
        {
          "internalType": "address",
          "name": "account",
          "type": "address"
        },
        {
          "internalType": "bytes32",
          "name": "neededRole",
          "type": "bytes32"
        }
      ],
      "name": "AccessControlUnauthorizedAccount",
      "type": "error"
    },
    {
      "inputs": [],
      "name": "AccessDenied",
      "type": "error"
    },
    {
      "inputs": [],
      "name": "InsufficientValue",
      "type": "error"
    },
    {
      "inputs": [],
      "name": "InvalidEAS",
      "type": "error"
    },
    {
      "inputs": [],
      "name": "InvalidLength",
      "type": "error"
    },
    {
      "inputs": [],
      "name": "NotPayable",
      "type": "error"
    },
    {
      "anonymous": false,
      "inputs": [
        {
          "indexed": true,
          "internalType": "bytes32",
          "name": "role",
          "type": "bytes32"
        },
        {
          "indexed": true,
          "internalType": "bytes32",
          "name": "previousAdminRole",
          "type": "bytes32"
        },
        {
          "indexed": true,
          "internalType": "bytes32",
          "name": "newAdminRole",
          "type": "bytes32"
        }
      ],
      "name": "RoleAdminChanged",
      "type": "event"
    },
    {
      "anonymous": false,
      "inputs": [
        {
          "indexed": true,
          "internalType": "bytes32",
          "name": "role",
          "type": "bytes32"
        },
        {
          "indexed": true,
          "internalType": "address",
          "name": "account",
          "type": "address"
        },
        {
          "indexed": true,
          "internalType": "address",
          "name": "sender",
          "type": "address"
        }
      ],
      "name": "RoleGranted",
      "type": "event"
    },
    {
      "anonymous": false,
      "inputs": [
        {
          "indexed": true,
          "internalType": "bytes32",
          "name": "role",
          "type": "bytes32"
        },
        {
          "indexed": true,
          "internalType": "address",
          "name": "account",
          "type": "address"
        },
        {
          "indexed": true,
          "internalType": "address",
          "name": "sender",
          "type": "address"
        }
      ],
      "name": "RoleRevoked",
      "type": "event"
    },
    {
      "anonymous": false,
      "inputs": [
        {
          "indexed": false,
          "internalType": "address",
          "name": "verifier",
          "type": "address"
        }
      ],
      "name": "SetPublicKeyVerifier",
      "type": "event"
    },
    {
      "anonymous": false,
      "inputs": [
        {
          "indexed": true,
          "internalType": "uint256",
          "name": "method",
          "type": "uint256"
        },
        {
          "indexed": false,
          "internalType": "address",
          "name": "verifier",
          "type": "address"
        }
      ],
      "name": "SetVerifier",
      "type": "event"
    },
    {
      "inputs": [],
      "name": "DEFAULT_ADMIN_ROLE",
      "outputs": [
        {
          "internalType": "bytes32",
          "name": "",
          "type": "bytes32"
        }
      ],
      "stateMutability": "view",
      "type": "function"
    },
    {
      "inputs": [],
      "name": "OPERATOR_ROLE",
      "outputs": [
        {
          "internalType": "bytes32",
          "name": "",
          "type": "bytes32"
        }
      ],
      "stateMutability": "view",
      "type": "function"
    },
    {
      "inputs": [],
      "name": "SECURITY_ROLE",
      "outputs": [
        {
          "internalType": "bytes32",
          "name": "",
          "type": "bytes32"
        }
      ],
      "stateMutability": "view",
      "type": "function"
    },
    {
      "inputs": [
        {
          "components": [
            {
              "internalType": "bytes32",
              "name": "uid",
              "type": "bytes32"
            },
            {
              "internalType": "bytes32",
              "name": "schema",
              "type": "bytes32"
            },
            {
              "internalType": "uint64",
              "name": "time",
              "type": "uint64"
            },
            {
              "internalType": "uint64",
              "name": "expirationTime",
              "type": "uint64"
            },
            {
              "internalType": "uint64",
              "name": "revocationTime",
              "type": "uint64"
            },
            {
              "internalType": "bytes32",
              "name": "refUID",
              "type": "bytes32"
            },
            {
              "internalType": "address",
              "name": "recipient",
              "type": "address"
            },
            {
              "internalType": "address",
              "name": "attester",
              "type": "address"
            },
            {
              "internalType": "bool",
              "name": "revocable",
              "type": "bool"
            },
            {
              "internalType": "bytes",
              "name": "data",
              "type": "bytes"
            }
          ],
          "internalType": "struct Attestation",
          "name": "attestation",
          "type": "tuple"
        }
      ],
      "name": "attest",
      "outputs": [
        {
          "internalType": "bool",
          "name": "",
          "type": "bool"
        }
      ],
      "stateMutability": "payable",
      "type": "function"
    },
    {
      "inputs": [
        {
          "internalType": "uint256",
          "name": "_fid",
          "type": "uint256"
        },
        {
          "internalType": "address",
          "name": "_verifyAddr",
          "type": "address"
        }
      ],
      "name": "computeKey",
      "outputs": [
        {
          "internalType": "bytes32",
          "name": "",
          "type": "bytes32"
        }
      ],
      "stateMutability": "pure",
      "type": "function"
    },
    {
      "inputs": [
        {
          "internalType": "uint256",
          "name": "method",
          "type": "uint256"
        }
      ],
      "name": "emergencyRemoveVerifier",
      "outputs": [],
      "stateMutability": "nonpayable",
      "type": "function"
    },
    {
      "inputs": [
        {
          "internalType": "bytes32",
          "name": "role",
          "type": "bytes32"
        }
      ],
      "name": "getRoleAdmin",
      "outputs": [
        {
          "internalType": "bytes32",
          "name": "",
          "type": "bytes32"
        }
      ],
      "stateMutability": "view",
      "type": "function"
    },
    {
      "inputs": [
        {
          "internalType": "bytes32",
          "name": "role",
          "type": "bytes32"
        },
        {
          "internalType": "address",
          "name": "account",
          "type": "address"
        }
      ],
      "name": "grantRole",
      "outputs": [],
      "stateMutability": "nonpayable",
      "type": "function"
    },
    {
      "inputs": [
        {
          "internalType": "bytes32",
          "name": "role",
          "type": "bytes32"
        },
        {
          "internalType": "address",
          "name": "account",
          "type": "address"
        }
      ],
      "name": "hasRole",
      "outputs": [
        {
          "internalType": "bool",
          "name": "",
          "type": "bool"
        }
      ],
      "stateMutability": "view",
      "type": "function"
    },
    {
      "inputs": [],
      "name": "isPayable",
      "outputs": [
        {
          "internalType": "bool",
          "name": "",
          "type": "bool"
        }
      ],
      "stateMutability": "pure",
      "type": "function"
    },
    {
      "inputs": [
        {
          "components": [
            {
              "internalType": "bytes32",
              "name": "uid",
              "type": "bytes32"
            },
            {
              "internalType": "bytes32",
              "name": "schema",
              "type": "bytes32"
            },
            {
              "internalType": "uint64",
              "name": "time",
              "type": "uint64"
            },
            {
              "internalType": "uint64",
              "name": "expirationTime",
              "type": "uint64"
            },
            {
              "internalType": "uint64",
              "name": "revocationTime",
              "type": "uint64"
            },
            {
              "internalType": "bytes32",
              "name": "refUID",
              "type": "bytes32"
            },
            {
              "internalType": "address",
              "name": "recipient",
              "type": "address"
            },
            {
              "internalType": "address",
              "name": "attester",
              "type": "address"
            },
            {
              "internalType": "bool",
              "name": "revocable",
              "type": "bool"
            },
            {
              "internalType": "bytes",
              "name": "data",
              "type": "bytes"
            }
          ],
          "internalType": "struct Attestation[]",
          "name": "attestations",
          "type": "tuple[]"
        },
        {
          "internalType": "uint256[]",
          "name": "values",
          "type": "uint256[]"
        }
      ],
      "name": "multiAttest",
      "outputs": [
        {
          "internalType": "bool",
          "name": "",
          "type": "bool"
        }
      ],
      "stateMutability": "payable",
      "type": "function"
    },
    {
      "inputs": [
        {
          "components": [
            {
              "internalType": "bytes32",
              "name": "uid",
              "type": "bytes32"
            },
            {
              "internalType": "bytes32",
              "name": "schema",
              "type": "bytes32"
            },
            {
              "internalType": "uint64",
              "name": "time",
              "type": "uint64"
            },
            {
              "internalType": "uint64",
              "name": "expirationTime",
              "type": "uint64"
            },
            {
              "internalType": "uint64",
              "name": "revocationTime",
              "type": "uint64"
            },
            {
              "internalType": "bytes32",
              "name": "refUID",
              "type": "bytes32"
            },
            {
              "internalType": "address",
              "name": "recipient",
              "type": "address"
            },
            {
              "internalType": "address",
              "name": "attester",
              "type": "address"
            },
            {
              "internalType": "bool",
              "name": "revocable",
              "type": "bool"
            },
            {
              "internalType": "bytes",
              "name": "data",
              "type": "bytes"
            }
          ],
          "internalType": "struct Attestation[]",
          "name": "attestations",
          "type": "tuple[]"
        },
        {
          "internalType": "uint256[]",
          "name": "values",
          "type": "uint256[]"
        }
      ],
      "name": "multiRevoke",
      "outputs": [
        {
          "internalType": "bool",
          "name": "",
          "type": "bool"
        }
      ],
      "stateMutability": "payable",
      "type": "function"
    },
    {
      "inputs": [],
      "name": "publicKeyVerifier",
      "outputs": [
        {
          "internalType": "contract IFarcasterPublicKeyVerifier",
          "name": "",
          "type": "address"
        }
      ],
      "stateMutability": "view",
      "type": "function"
    },
    {
      "inputs": [
        {
          "internalType": "bytes32",
          "name": "role",
          "type": "bytes32"
        },
        {
          "internalType": "address",
          "name": "callerConfirmation",
          "type": "address"
        }
      ],
      "name": "renounceRole",
      "outputs": [],
      "stateMutability": "nonpayable",
      "type": "function"
    },
    {
      "inputs": [
        {
          "components": [
            {
              "internalType": "bytes32",
              "name": "uid",
              "type": "bytes32"
            },
            {
              "internalType": "bytes32",
              "name": "schema",
              "type": "bytes32"
            },
            {
              "internalType": "uint64",
              "name": "time",
              "type": "uint64"
            },
            {
              "internalType": "uint64",
              "name": "expirationTime",
              "type": "uint64"
            },
            {
              "internalType": "uint64",
              "name": "revocationTime",
              "type": "uint64"
            },
            {
              "internalType": "bytes32",
              "name": "refUID",
              "type": "bytes32"
            },
            {
              "internalType": "address",
              "name": "recipient",
              "type": "address"
            },
            {
              "internalType": "address",
              "name": "attester",
              "type": "address"
            },
            {
              "internalType": "bool",
              "name": "revocable",
              "type": "bool"
            },
            {
              "internalType": "bytes",
              "name": "data",
              "type": "bytes"
            }
          ],
          "internalType": "struct Attestation",
          "name": "attestation",
          "type": "tuple"
        }
      ],
      "name": "revoke",
      "outputs": [
        {
          "internalType": "bool",
          "name": "",
          "type": "bool"
        }
      ],
      "stateMutability": "payable",
      "type": "function"
    },
    {
      "inputs": [
        {
          "internalType": "bytes32",
          "name": "role",
          "type": "bytes32"
        },
        {
          "internalType": "address",
          "name": "account",
          "type": "address"
        }
      ],
      "name": "revokeRole",
      "outputs": [],
      "stateMutability": "nonpayable",
      "type": "function"
    },
    {
      "inputs": [
        {
          "internalType": "contract IFarcasterPublicKeyVerifier",
          "name": "verifier",
          "type": "address"
        }
      ],
      "name": "setPublicKeyVerifier",
      "outputs": [],
      "stateMutability": "nonpayable",
      "type": "function"
    },
    {
      "inputs": [
        {
          "internalType": "uint256",
          "name": "method",
          "type": "uint256"
        },
        {
          "internalType": "contract IFarcasterWalletVerifier",
          "name": "verifier",
          "type": "address"
        }
      ],
      "name": "setVerifier",
      "outputs": [],
      "stateMutability": "nonpayable",
      "type": "function"
    },
    {
      "inputs": [
        {
          "internalType": "bytes4",
          "name": "interfaceId",
          "type": "bytes4"
        }
      ],
      "name": "supportsInterface",
      "outputs": [
        {
          "internalType": "bool",
          "name": "",
          "type": "bool"
        }
      ],
      "stateMutability": "view",
      "type": "function"
    },
    {
      "inputs": [
        {
          "internalType": "bytes32",
          "name": "",
          "type": "bytes32"
        }
      ],
      "name": "uid",
      "outputs": [
        {
          "internalType": "bytes32",
          "name": "",
          "type": "bytes32"
        }
      ],
      "stateMutability": "view",
      "type": "function"
    },
    {
      "inputs": [
        {
          "internalType": "uint256",
          "name": "",
          "type": "uint256"
        }
      ],
      "name": "verifiers",
      "outputs": [
        {
          "internalType": "contract IFarcasterWalletVerifier",
          "name": "",
          "type": "address"
        }
      ],
      "stateMutability": "view",
      "type": "function"
    },
    {
      "inputs": [
        {
          "internalType": "uint256",
          "name": "fid",
          "type": "uint256"
        },
        {
          "internalType": "address",
          "name": "verifyAddress",
          "type": "address"
        },
        {
          "internalType": "bytes32",
          "name": "publicKey",
          "type": "bytes32"
        },
        {
          "internalType": "uint256",
          "name": "method",
          "type": "uint256"
        },
        {
          "internalType": "bytes",
          "name": "signature",
          "type": "bytes"
        }
      ],
      "name": "verifyAdd",
      "outputs": [
        {
          "internalType": "bool",
          "name": "",
          "type": "bool"
        }
      ],
      "stateMutability": "view",
      "type": "function"
    },
    {
      "inputs": [
        {
          "internalType": "uint256",
          "name": "fid",
          "type": "uint256"
        },
        {
          "internalType": "address",
          "name": "verifyAddress",
          "type": "address"
        },
        {
          "internalType": "bytes32",
          "name": "publicKey",
          "type": "bytes32"
        },
        {
          "internalType": "uint256",
          "name": "method",
          "type": "uint256"
        },
        {
          "internalType": "bytes",
          "name": "signature",
          "type": "bytes"
        }
      ],
      "name": "verifyRemove",
      "outputs": [
        {
          "internalType": "bool",
          "name": "",
          "type": "bool"
        }
      ],
      "stateMutability": "view",
      "type": "function"
    },
    {
      "inputs": [],
      "name": "version",
      "outputs": [
        {
          "internalType": "string",
          "name": "",
          "type": "string"
        }
      ],
      "stateMutability": "view",
      "type": "function"
    },
    {
      "stateMutability": "payable",
      "type": "receive"
    }
  ],
  "bytecode": "0x61010060405234801561001157600080fd5b506040516129783803806129788339818101604052810190610033919061034e565b808260016003600082608081815250508160a081815250508060c08181525050505050600073ffffffffffffffffffffffffffffffffffffffff168173ffffffffffffffffffffffffffffffffffffffff16036100bc576040517f83780ffe00000000000000000000000000000000000000000000000000000000815260040160405180910390fd5b8073ffffffffffffffffffffffffffffffffffffffff1660e08173ffffffffffffffffffffffffffffffffffffffff1681525050506101046000801b8261013e60201b60201c565b506101357f97667070c54ef182b0f5858b034beac1b6f3089aa2d3188bb1e8929f4fa9b9298261013e60201b60201c565b5050505061038e565b6000610150838361023b60201b60201c565b61023057600160008085815260200190815260200160002060000160008473ffffffffffffffffffffffffffffffffffffffff1673ffffffffffffffffffffffffffffffffffffffff16815260200190815260200160002060006101000a81548160ff0219169083151502179055506101cd6102a560201b60201c565b73ffffffffffffffffffffffffffffffffffffffff168273ffffffffffffffffffffffffffffffffffffffff16847f2f8788117e7eff1d82e926ec794901d17c78024a50270940304540a733656f0d60405160405180910390a460019050610235565b600090505b92915050565b600080600084815260200190815260200160002060000160008373ffffffffffffffffffffffffffffffffffffffff1673ffffffffffffffffffffffffffffffffffffffff16815260200190815260200160002060009054906101000a900460ff16905092915050565b600033905090565b600080fd5b600073ffffffffffffffffffffffffffffffffffffffff82169050919050565b60006102dd826102b2565b9050919050565b60006102ef826102d2565b9050919050565b6102ff816102e4565b811461030a57600080fd5b50565b60008151905061031c816102f6565b92915050565b61032b816102d2565b811461033657600080fd5b50565b60008151905061034881610322565b92915050565b60008060408385031215610365576103646102ad565b5b60006103738582860161030d565b925050602061038485828601610339565b9150509250929050565b60805160a05160c05160e0516125b16103c760003960006114ed015260006109850152600061095c0152600061093301526125b16000f3fe60806040526004361061014f5760003560e01c80639c465345116100b6578063def156b61161006f578063def156b61461050b578063e49617e114610548578063e60c350514610578578063f4614250146105a8578063f5af5480146105d1578063f5b541a61461060e57610194565b80639c465345146103e7578063a217fddf14610424578063ac1eff681461044f578063ce46e0461461048c578063d547741f146104b7578063dbe10655146104e057610194565b80633a25e696116101085780633a25e696146102b75780633d7f424c146102f457806354fd4d501461031f57806388e5b2d91461034a57806391d148541461037a57806391db0b7e146103b757610194565b806301ffc9a71461019957806307c5bcf9146101d65780631957ba4e146101ff578063248a9ca3146102285780632f2ff15d1461026557806336568abe1461028e57610194565b366101945761015c610639565b610192576040517f1574f9f300000000000000000000000000000000000000000000000000000000815260040160405180910390fd5b005b600080fd5b3480156101a557600080fd5b506101c060048036038101906101bb91906118d1565b61063e565b6040516101cd9190611919565b60405180910390f35b3480156101e257600080fd5b506101fd60048036038101906101f891906119a4565b6106b8565b005b34801561020b57600080fd5b5061022660048036038101906102219190611a45565b61075e565b005b34801561023457600080fd5b5061024f600480360381019061024a9190611abb565b610817565b60405161025c9190611af7565b60405180910390f35b34801561027157600080fd5b5061028c60048036038101906102879190611b3e565b610836565b005b34801561029a57600080fd5b506102b560048036038101906102b09190611b3e565b610858565b005b3480156102c357600080fd5b506102de60048036038101906102d99190611b7e565b6108d3565b6040516102eb9190611af7565b60405180910390f35b34801561030057600080fd5b50610309610906565b6040516103169190611c1d565b60405180910390f35b34801561032b57600080fd5b5061033461092c565b6040516103419190611cc8565b60405180910390f35b610364600480360381019061035f9190611da5565b6109cf565b6040516103719190611919565b60405180910390f35b34801561038657600080fd5b506103a1600480360381019061039c9190611b3e565b610aea565b6040516103ae9190611919565b60405180910390f35b6103d160048036038101906103cc9190611da5565b610b54565b6040516103de9190611919565b60405180910390f35b3480156103f357600080fd5b5061040e60048036038101906104099190611f56565b610c6f565b60405161041b9190611919565b60405180910390f35b34801561043057600080fd5b50610439610e4a565b6040516104469190611af7565b60405180910390f35b34801561045b57600080fd5b5061047660048036038101906104719190611fed565b610e51565b604051610483919061203b565b60405180910390f35b34801561049857600080fd5b506104a1610639565b6040516104ae9190611919565b60405180910390f35b3480156104c357600080fd5b506104de60048036038101906104d99190611b3e565b610e84565b005b3480156104ec57600080fd5b506104f5610ea6565b6040516105029190611af7565b60405180910390f35b34801561051757600080fd5b50610532600480360381019061052d9190611abb565b610eca565b60405161053f9190611af7565b60405180910390f35b610562600480360381019061055d919061207b565b610ee2565b60405161056f9190611919565b60405180910390f35b610592600480360381019061058d919061207b565b610efd565b60405161059f9190611919565b60405180910390f35b3480156105b457600080fd5b506105cf60048036038101906105ca9190611fed565b610f18565b005b3480156105dd57600080fd5b506105f860048036038101906105f39190611f56565b610fb5565b6040516106059190611919565b60405180910390f35b34801561061a57600080fd5b50610623611190565b6040516106309190611af7565b60405180910390f35b600090565b60007f7965db0b000000000000000000000000000000000000000000000000000000007bffffffffffffffffffffffffffffffffffffffffffffffffffffffff1916827bffffffffffffffffffffffffffffffffffffffffffffffffffffffff191614806106b157506106b0826111b4565b5b9050919050565b7f97667070c54ef182b0f5858b034beac1b6f3089aa2d3188bb1e8929f4fa9b9296106e28161121e565b81600260006101000a81548173ffffffffffffffffffffffffffffffffffffffff021916908373ffffffffffffffffffffffffffffffffffffffff1602179055507f3cdf41a2765b660770e9997ffcad30fc67871b420dd684a719b8b5856d71b17b8260405161075291906120d3565b60405180910390a15050565b7f97667070c54ef182b0f5858b034beac1b6f3089aa2d3188bb1e8929f4fa9b9296107888161121e565b816001600085815260200190815260200160002060006101000a81548173ffffffffffffffffffffffffffffffffffffffff021916908373ffffffffffffffffffffffffffffffffffffffff160217905550827fb8fcb5b01f0242f7d98e8d447f82d41c16ccc18130a8766108db27dbfc30da4b8360405161080a91906120d3565b60405180910390a2505050565b6000806000838152602001908152602001600020600101549050919050565b61083f82610817565b6108488161121e565b6108528383611232565b50505050565b610860611323565b73ffffffffffffffffffffffffffffffffffffffff168173ffffffffffffffffffffffffffffffffffffffff16146108c4576040517f6697b23200000000000000000000000000000000000000000000000000000000815260040160405180910390fd5b6108ce828261132b565b505050565b600082826040516020016108e8929190612157565b60405160208183030381529060405280519060200120905092915050565b600260009054906101000a900473ffffffffffffffffffffffffffffffffffffffff1681565b60606109577f000000000000000000000000000000000000000000000000000000000000000061141d565b6109807f000000000000000000000000000000000000000000000000000000000000000061141d565b6109a97f000000000000000000000000000000000000000000000000000000000000000061141d565b6040516020016109bb9392919061220b565b604051602081830303815290604052905090565b60006109d96114eb565b6000858590509050838390508114610a1d576040517f947d5a8400000000000000000000000000000000000000000000000000000000815260040160405180910390fd5b600034905060005b82811015610ada576000868683818110610a4257610a41612252565b5b90506020020135905082811115610a85576040517f1101129400000000000000000000000000000000000000000000000000000000815260040160405180910390fd5b610ab3898984818110610a9b57610a9a612252565b5b9050602002810190610aad9190612290565b82611572565b610ac4576000945050505050610ae2565b808303925050610ad381611611565b9050610a25565b506001925050505b949350505050565b600080600084815260200190815260200160002060000160008373ffffffffffffffffffffffffffffffffffffffff1673ffffffffffffffffffffffffffffffffffffffff16815260200190815260200160002060009054906101000a900460ff16905092915050565b6000610b5e6114eb565b6000858590509050838390508114610ba2576040517f947d5a8400000000000000000000000000000000000000000000000000000000815260040160405180910390fd5b600034905060005b82811015610c5f576000868683818110610bc757610bc6612252565b5b90506020020135905082811115610c0a576040517f1101129400000000000000000000000000000000000000000000000000000000815260040160405180910390fd5b610c38898984818110610c2057610c1f612252565b5b9050602002810190610c329190612290565b8261161e565b610c49576000945050505050610c67565b808303925050610c5881611611565b9050610baa565b506001925050505b949350505050565b60008073ffffffffffffffffffffffffffffffffffffffff166001600085815260200190815260200160002060009054906101000a900473ffffffffffffffffffffffffffffffffffffffff1673ffffffffffffffffffffffffffffffffffffffff1603610ce05760009050610e41565b600260009054906101000a900473ffffffffffffffffffffffffffffffffffffffff1673ffffffffffffffffffffffffffffffffffffffff1663ce6560df87866040518363ffffffff1660e01b8152600401610d3d9291906122c8565b602060405180830381865afa158015610d5a573d6000803e3d6000fd5b505050506040513d601f19601f82011682018060405250810190610d7e919061231d565b610d8b5760009050610e41565b6001600084815260200190815260200160002060009054906101000a900473ffffffffffffffffffffffffffffffffffffffff1673ffffffffffffffffffffffffffffffffffffffff16630e3b0ceb878787866040518563ffffffff1660e01b8152600401610dfd949392919061239f565b602060405180830381865afa158015610e1a573d6000803e3d6000fd5b505050506040513d601f19601f82011682018060405250810190610e3e919061231d565b90505b95945050505050565b6000801b81565b60016020528060005260406000206000915054906101000a900473ffffffffffffffffffffffffffffffffffffffff1681565b610e8d82610817565b610e968161121e565b610ea0838361132b565b50505050565b7f4698baa05b306e3e5e3fa66d29891e203a1418ef5bee962e2c9b109f129e892081565b60036020528060005260406000206000915090505481565b6000610eec6114eb565b610ef68234611572565b9050919050565b6000610f076114eb565b610f11823461161e565b9050919050565b7f4698baa05b306e3e5e3fa66d29891e203a1418ef5bee962e2c9b109f129e8920610f428161121e565b6001600083815260200190815260200160002060006101000a81549073ffffffffffffffffffffffffffffffffffffffff0219169055817fb8fcb5b01f0242f7d98e8d447f82d41c16ccc18130a8766108db27dbfc30da4b6000604051610fa991906120d3565b60405180910390a25050565b60008073ffffffffffffffffffffffffffffffffffffffff166001600085815260200190815260200160002060009054906101000a900473ffffffffffffffffffffffffffffffffffffffff1673ffffffffffffffffffffffffffffffffffffffff16036110265760009050611187565b600260009054906101000a900473ffffffffffffffffffffffffffffffffffffffff1673ffffffffffffffffffffffffffffffffffffffff1663ce6560df87866040518363ffffffff1660e01b81526004016110839291906122c8565b602060405180830381865afa1580156110a0573d6000803e3d6000fd5b505050506040513d601f19601f820116820180604052508101906110c4919061231d565b6110d15760009050611187565b6001600084815260200190815260200160002060009054906101000a900473ffffffffffffffffffffffffffffffffffffffff1673ffffffffffffffffffffffffffffffffffffffff1663f4c24ea9878787866040518563ffffffff1660e01b8152600401611143949392919061239f565b602060405180830381865afa158015611160573d6000803e3d6000fd5b505050506040513d601f19601f82011682018060405250810190611184919061231d565b90505b95945050505050565b7f97667070c54ef182b0f5858b034beac1b6f3089aa2d3188bb1e8929f4fa9b92981565b60007f01ffc9a7000000000000000000000000000000000000000000000000000000007bffffffffffffffffffffffffffffffffffffffffffffffffffffffff1916827bffffffffffffffffffffffffffffffffffffffffffffffffffffffff1916149050919050565b61122f8161122a611323565b6116c1565b50565b600061123e8383610aea565b61131857600160008085815260200190815260200160002060000160008473ffffffffffffffffffffffffffffffffffffffff1673ffffffffffffffffffffffffffffffffffffffff16815260200190815260200160002060006101000a81548160ff0219169083151502179055506112b5611323565b73ffffffffffffffffffffffffffffffffffffffff168273ffffffffffffffffffffffffffffffffffffffff16847f2f8788117e7eff1d82e926ec794901d17c78024a50270940304540a733656f0d60405160405180910390a46001905061131d565b600090505b92915050565b600033905090565b60006113378383610aea565b1561141257600080600085815260200190815260200160002060000160008473ffffffffffffffffffffffffffffffffffffffff1673ffffffffffffffffffffffffffffffffffffffff16815260200190815260200160002060006101000a81548160ff0219169083151502179055506113af611323565b73ffffffffffffffffffffffffffffffffffffffff168273ffffffffffffffffffffffffffffffffffffffff16847ff6391f5c32d9c69d2a47ea670b442974b53935d1edc7fd64eb21e047a839171b60405160405180910390a460019050611417565b600090505b92915050565b60606000600161142c84611712565b01905060008167ffffffffffffffff81111561144b5761144a611e2b565b5b6040519080825280601f01601f19166020018201604052801561147d5781602001600182028036833780820191505090505b509050600082602001820190505b6001156114e0578080600190039150507f3031323334353637383961626364656600000000000000000000000000000000600a86061a8153600a85816114d4576114d36123eb565b5b0494506000850361148b575b819350505050919050565b7f000000000000000000000000000000000000000000000000000000000000000073ffffffffffffffffffffffffffffffffffffffff163373ffffffffffffffffffffffffffffffffffffffff1614611570576040517f4ca8886700000000000000000000000000000000000000000000000000000000815260040160405180910390fd5b565b6000806000806000808780610120019061158c919061241a565b81019061159991906124bb565b9450945094509450945060006115af86866108d3565b905088600001356003600083815260200190815260200160002054146115de576000965050505050505061160b565b60036000828152602001908152602001600020600090556116028686868686610fb5565b96505050505050505b92915050565b6000600182019050919050565b60008060008060008087806101200190611638919061241a565b81019061164591906124bb565b94509450945094509450600061165b86866108d3565b90506000801b60036000838152602001908152602001600020541461168957600096505050505050506116bb565b886000013560036000838152602001908152602001600020819055506116b28686868686610c6f565b96505050505050505b92915050565b6116cb8282610aea565b61170e5780826040517fe2517d3f000000000000000000000000000000000000000000000000000000008152600401611705929190612552565b60405180910390fd5b5050565b600080600090507a184f03e93ff9f4daa797ed6e38ed64bf6a1f0100000000000000008310611770577a184f03e93ff9f4daa797ed6e38ed64bf6a1f0100000000000000008381611766576117656123eb565b5b0492506040810190505b6d04ee2d6d415b85acef810000000083106117ad576d04ee2d6d415b85acef810000000083816117a3576117a26123eb565b5b0492506020810190505b662386f26fc1000083106117dc57662386f26fc1000083816117d2576117d16123eb565b5b0492506010810190505b6305f5e1008310611805576305f5e10083816117fb576117fa6123eb565b5b0492506008810190505b612710831061182a5761271083816118205761181f6123eb565b5b0492506004810190505b6064831061184d5760648381611843576118426123eb565b5b0492506002810190505b600a831061185c576001810190505b80915050919050565b6000604051905090565b600080fd5b600080fd5b60007fffffffff0000000000000000000000000000000000000000000000000000000082169050919050565b6118ae81611879565b81146118b957600080fd5b50565b6000813590506118cb816118a5565b92915050565b6000602082840312156118e7576118e661186f565b5b60006118f5848285016118bc565b91505092915050565b60008115159050919050565b611913816118fe565b82525050565b600060208201905061192e600083018461190a565b92915050565b600073ffffffffffffffffffffffffffffffffffffffff82169050919050565b600061195f82611934565b9050919050565b600061197182611954565b9050919050565b61198181611966565b811461198c57600080fd5b50565b60008135905061199e81611978565b92915050565b6000602082840312156119ba576119b961186f565b5b60006119c88482850161198f565b91505092915050565b6000819050919050565b6119e4816119d1565b81146119ef57600080fd5b50565b600081359050611a01816119db565b92915050565b6000611a1282611954565b9050919050565b611a2281611a07565b8114611a2d57600080fd5b50565b600081359050611a3f81611a19565b92915050565b60008060408385031215611a5c57611a5b61186f565b5b6000611a6a858286016119f2565b9250506020611a7b85828601611a30565b9150509250929050565b6000819050919050565b611a9881611a85565b8114611aa357600080fd5b50565b600081359050611ab581611a8f565b92915050565b600060208284031215611ad157611ad061186f565b5b6000611adf84828501611aa6565b91505092915050565b611af181611a85565b82525050565b6000602082019050611b0c6000830184611ae8565b92915050565b611b1b81611954565b8114611b2657600080fd5b50565b600081359050611b3881611b12565b92915050565b60008060408385031215611b5557611b5461186f565b5b6000611b6385828601611aa6565b9250506020611b7485828601611b29565b9150509250929050565b60008060408385031215611b9557611b9461186f565b5b6000611ba3858286016119f2565b9250506020611bb485828601611b29565b9150509250929050565b6000819050919050565b6000611be3611bde611bd984611934565b611bbe565b611934565b9050919050565b6000611bf582611bc8565b9050919050565b6000611c0782611bea565b9050919050565b611c1781611bfc565b82525050565b6000602082019050611c326000830184611c0e565b92915050565b600081519050919050565b600082825260208201905092915050565b60005b83811015611c72578082015181840152602081019050611c57565b60008484015250505050565b6000601f19601f8301169050919050565b6000611c9a82611c38565b611ca48185611c43565b9350611cb4818560208601611c54565b611cbd81611c7e565b840191505092915050565b60006020820190508181036000830152611ce28184611c8f565b905092915050565b600080fd5b600080fd5b600080fd5b60008083601f840112611d0f57611d0e611cea565b5b8235905067ffffffffffffffff811115611d2c57611d2b611cef565b5b602083019150836020820283011115611d4857611d47611cf4565b5b9250929050565b60008083601f840112611d6557611d64611cea565b5b8235905067ffffffffffffffff811115611d8257611d81611cef565b5b602083019150836020820283011115611d9e57611d9d611cf4565b5b9250929050565b60008060008060408587031215611dbf57611dbe61186f565b5b600085013567ffffffffffffffff811115611ddd57611ddc611874565b5b611de987828801611cf9565b9450945050602085013567ffffffffffffffff811115611e0c57611e0b611874565b5b611e1887828801611d4f565b925092505092959194509250565b600080fd5b7f4e487b7100000000000000000000000000000000000000000000000000000000600052604160045260246000fd5b611e6382611c7e565b810181811067ffffffffffffffff82111715611e8257611e81611e2b565b5b80604052505050565b6000611e95611865565b9050611ea18282611e5a565b919050565b600067ffffffffffffffff821115611ec157611ec0611e2b565b5b611eca82611c7e565b9050602081019050919050565b82818337600083830152505050565b6000611ef9611ef484611ea6565b611e8b565b905082815260208101848484011115611f1557611f14611e26565b5b611f20848285611ed7565b509392505050565b600082601f830112611f3d57611f3c611cea565b5b8135611f4d848260208601611ee6565b91505092915050565b600080600080600060a08688031215611f7257611f7161186f565b5b6000611f80888289016119f2565b9550506020611f9188828901611b29565b9450506040611fa288828901611aa6565b9350506060611fb3888289016119f2565b925050608086013567ffffffffffffffff811115611fd457611fd3611874565b5b611fe088828901611f28565b9150509295509295909350565b6000602082840312156120035761200261186f565b5b6000612011848285016119f2565b91505092915050565b600061202582611bea565b9050919050565b6120358161201a565b82525050565b6000602082019050612050600083018461202c565b92915050565b600080fd5b6000610140828403121561207257612071612056565b5b81905092915050565b6000602082840312156120915761209061186f565b5b600082013567ffffffffffffffff8111156120af576120ae611874565b5b6120bb8482850161205b565b91505092915050565b6120cd81611954565b82525050565b60006020820190506120e860008301846120c4565b92915050565b6000819050919050565b612109612104826119d1565b6120ee565b82525050565b60008160601b9050919050565b60006121278261210f565b9050919050565b60006121398261211c565b9050919050565b61215161214c82611954565b61212e565b82525050565b600061216382856120f8565b6020820191506121738284612140565b6014820191508190509392505050565b600081905092915050565b600061219982611c38565b6121a38185612183565b93506121b3818560208601611c54565b80840191505092915050565b7f2e00000000000000000000000000000000000000000000000000000000000000600082015250565b60006121f5600183612183565b9150612200826121bf565b600182019050919050565b6000612217828661218e565b9150612222826121e8565b915061222e828561218e565b9150612239826121e8565b9150612245828461218e565b9150819050949350505050565b7f4e487b7100000000000000000000000000000000000000000000000000000000600052603260045260246000fd5b600080fd5b600080fd5b600080fd5b600082356001610140038336030381126122ad576122ac612281565b5b80830191505092915050565b6122c2816119d1565b82525050565b60006040820190506122dd60008301856122b9565b6122ea6020830184611ae8565b9392505050565b6122fa816118fe565b811461230557600080fd5b50565b600081519050612317816122f1565b92915050565b6000602082840312156123335761233261186f565b5b600061234184828501612308565b91505092915050565b600081519050919050565b600082825260208201905092915050565b60006123718261234a565b61237b8185612355565b935061238b818560208601611c54565b61239481611c7e565b840191505092915050565b60006080820190506123b460008301876122b9565b6123c160208301866120c4565b6123ce6040830185611ae8565b81810360608301526123e08184612366565b905095945050505050565b7f4e487b7100000000000000000000000000000000000000000000000000000000600052601260045260246000fd5b6000808335600160200384360303811261243757612436612281565b5b80840192508235915067ffffffffffffffff82111561245957612458612286565b5b6020830192506001820236038313156124755761247461228b565b5b509250929050565b600061248882611934565b9050919050565b6124988161247d565b81146124a357600080fd5b50565b6000813590506124b58161248f565b92915050565b600080600080600060a086880312156124d7576124d661186f565b5b60006124e5888289016119f2565b95505060206124f6888289016124a6565b945050604061250788828901611aa6565b9350506060612518888289016119f2565b925050608086013567ffffffffffffffff81111561253957612538611874565b5b61254588828901611f28565b9150509295509295909350565b600060408201905061256760008301856120c4565b6125746020830184611ae8565b939250505056fea26469706673582212205422056f637e9f0aa7f4e413ab634214ad5e90b6ba0aeaf2002f9c102d08d46164736f6c634300081a0033",
  "linkReferences": {},
  "deployedLinkReferences": {}
}