{
  "_format": "hh-sol-artifact-1",
  "contractName": "FcMessageVerification",
  "sourceName": "@farcaster-attestation/farcaster-solidity/contracts/farcaster/FcMessageVerification.sol",
  "abi": [
    {
      "inputs": [],
      "name": "InvalidSignature",
      "type": "error"
    },
    {
      "inputs": [
        {
          "internalType": "uint256",
          "name": "chainId",
          "type": "uint256"
        }
      ],
      "name": "InvalidVerificationChain",
      "type": "error"
    },
    {
      "inputs": [
        {
          "internalType": "enum Protocol",
          "name": "protocol",
          "type": "uint8"
        }
      ],
      "name": "InvalidVerificationProtocol",
      "type": "error"
    },
    {
      "inputs": [
        {
          "components": [
            {
              "internalType": "enum MessageType",
              "name": "type_",
              "type": "MessageType"
            },
            {
              "internalType": "uint64",
              "name": "fid",
              "type": "uint64"
            },
            {
              "internalType": "uint32",
              "name": "timestamp",
              "type": "uint32"
            },
            {
              "internalType": "enum FarcasterNetwork",
              "name": "network",
              "type": "FarcasterNetwork"
            },
            {
              "internalType": "bool",
              "name": "cast_add_body",
              "type": "bool"
            },
            {
              "internalType": "bool",
              "name": "cast_remove_body",
              "type": "bool"
            },
            {
              "internalType": "bool",
              "name": "reaction_body",
              "type": "bool"
            },
            {
              "internalType": "bool",
              "name": "empty",
              "type": "bool"
            },
            {
              "components": [
                {
                  "internalType": "bytes",
                  "name": "address_",
                  "type": "bytes"
                },
                {
                  "internalType": "bytes",
                  "name": "claim_signature",
                  "type": "bytes"
                },
                {
                  "internalType": "bytes",
                  "name": "block_hash",
                  "type": "bytes"
                },
                {
                  "internalType": "uint32",
                  "name": "verification_type",
                  "type": "uint32"
                },
                {
                  "internalType": "uint32",
                  "name": "chain_id",
                  "type": "uint32"
                },
                {
                  "internalType": "bool",
                  "name": "unknown_6",
                  "type": "bool"
                },
                {
                  "internalType": "enum Protocol",
                  "name": "protocol",
                  "type": "Protocol"
                }
              ],
              "internalType": "struct VerificationAddAddressBody",
              "name": "verification_add_address_body",
              "type": "tuple"
            },
            {
              "internalType": "bool",
              "name": "verification_remove_body",
              "type": "bool"
            },
            {
              "internalType": "bool",
              "name": "deprecated_signer_add_body",
              "type": "bool"
            },
            {
              "internalType": "bool",
              "name": "user_data_body",
              "type": "bool"
            },
            {
              "internalType": "bool",
              "name": "deprecated_signer_remove_body",
              "type": "bool"
            },
            {
              "internalType": "bool",
              "name": "link_body",
              "type": "bool"
            },
            {
              "internalType": "bool",
              "name": "username_proof_body",
              "type": "bool"
            },
            {
              "internalType": "bool",
              "name": "frame_action_body",
              "type": "bool"
            }
          ],
          "internalType": "struct MessageDataVerificationAddAddress",
          "name": "claim",
          "type": "tuple"
        }
      ],
      "name": "verifyEthAddressClaim",
      "outputs": [
        {
          "internalType": "bool",
          "name": "",
          "type": "bool"
        }
      ],
      "stateMutability": "view",
      "type": "function"
    },
    {
      "inputs": [
        {
          "components": [
            {
              "internalType": "enum MessageType",
              "name": "type_",
              "type": "MessageType"
            },
            {
              "internalType": "uint64",
              "name": "fid",
              "type": "uint64"
            },
            {
              "internalType": "uint32",
              "name": "timestamp",
              "type": "uint32"
            },
            {
              "internalType": "enum FarcasterNetwork",
              "name": "network",
              "type": "FarcasterNetwork"
            },
            {
              "internalType": "bool",
              "name": "cast_add_body",
              "type": "bool"
            },
            {
              "internalType": "bool",
              "name": "cast_remove_body",
              "type": "bool"
            },
            {
              "internalType": "bool",
              "name": "reaction_body",
              "type": "bool"
            },
            {
              "internalType": "bool",
              "name": "empty",
              "type": "bool"
            },
            {
              "components": [
                {
                  "internalType": "bytes",
                  "name": "address_",
                  "type": "bytes"
                },
                {
                  "internalType": "bytes",
                  "name": "claim_signature",
                  "type": "bytes"
                },
                {
                  "internalType": "bytes",
                  "name": "block_hash",
                  "type": "bytes"
                },
                {
                  "internalType": "uint32",
                  "name": "verification_type",
                  "type": "uint32"
                },
                {
                  "internalType": "uint32",
                  "name": "chain_id",
                  "type": "uint32"
                },
                {
                  "internalType": "bool",
                  "name": "unknown_6",
                  "type": "bool"
                },
                {
                  "internalType": "enum Protocol",
                  "name": "protocol",
                  "type": "Protocol"
                }
              ],
              "internalType": "struct VerificationAddAddressBody",
              "name": "verification_add_address_body",
              "type": "tuple"
            },
            {
              "internalType": "bool",
              "name": "verification_remove_body",
              "type": "bool"
            },
            {
              "internalType": "bool",
              "name": "deprecated_signer_add_body",
              "type": "bool"
            },
            {
              "internalType": "bool",
              "name": "user_data_body",
              "type": "bool"
            },
            {
              "internalType": "bool",
              "name": "deprecated_signer_remove_body",
              "type": "bool"
            },
            {
              "internalType": "bool",
              "name": "link_body",
              "type": "bool"
            },
            {
              "internalType": "bool",
              "name": "username_proof_body",
              "type": "bool"
            },
            {
              "internalType": "bool",
              "name": "frame_action_body",
              "type": "bool"
            }
          ],
          "internalType": "struct MessageDataVerificationAddAddress",
          "name": "claim",
          "type": "tuple"
        }
      ],
      "name": "verifyEthAddressClaimAndRevert",
      "outputs": [],
      "stateMutability": "view",
      "type": "function"
    },
    {
      "inputs": [
        {
          "internalType": "bytes32",
          "name": "public_key",
          "type": "bytes32"
        },
        {
          "internalType": "bytes32",
          "name": "signature_r",
          "type": "bytes32"
        },
        {
          "internalType": "bytes32",
          "name": "signature_s",
          "type": "bytes32"
        },
        {
          "internalType": "bytes",
          "name": "message",
          "type": "bytes"
        }
      ],
      "name": "verifyMessage",
      "outputs": [
        {
          "internalType": "bool",
          "name": "",
          "type": "bool"
        }
      ],
      "stateMutability": "pure",
      "type": "function"
    },
    {
      "inputs": [
        {
          "internalType": "bytes32",
          "name": "public_key",
          "type": "bytes32"
        },
        {
          "internalType": "bytes32",
          "name": "signature_r",
          "type": "bytes32"
        },
        {
          "internalType": "bytes32",
          "name": "signature_s",
          "type": "bytes32"
        },
        {
          "internalType": "bytes",
          "name": "message",
          "type": "bytes"
        }
      ],
      "name": "verifyMessageAndRevert",
      "outputs": [],
      "stateMutability": "pure",
      "type": "function"
    }
  ],
  "bytecode": "0x611760610052600b82828239805160001a6073146045577f4e487b7100000000000000000000000000000000000000000000000000000000600052600060045260246000fd5b30600052607381538281f3fe73000000000000000000000000000000000000000030146080604052600436106100565760003560e01c8063263511161461005b57806369cc64b614610077578063ac0dad61146100a7578063cde41a0d146100c3575b600080fd5b61007560048036038101906100709190610b83565b6100f3565b005b610091600480360381019061008c9190610b83565b61013b565b60405161009e9190610c21565b60405180910390f35b6100c160048036038101906100bc9190610ffb565b610249565b005b6100dd60048036038101906100d89190610ffb565b61028b565b6040516100ea9190610c21565b60405180910390f35b6100ff8484848461013b565b610135576040517f8baa579f00000000000000000000000000000000000000000000000000000000815260040160405180910390fd5b50505050565b60008073__$064a39dbf005345f8f9fb8b64ba8bbf23f$__63227bb04d8460146040518363ffffffff1660e01b8152600401610178929190611108565b600060405180830381865af4158015610195573d6000803e3d6000fd5b505050506040513d6000823e3d601f19601f820116820180604052508101906101be91906111a8565b905073__$321d55fee73437e06217f51a9e98f49e37$__632bf6eda8878787856040518563ffffffff1660e01b81526004016101fd9493929190611200565b602060405180830381865af415801561021a573d6000803e3d6000fd5b505050506040513d601f19601f8201168201806040525081019061023e9190611261565b915050949350505050565b6102528161028b565b610288576040517f8baa579f00000000000000000000000000000000000000000000000000000000815260040160405180910390fd5b50565b60008060018111156102a05761029f61128e565b5b82610100015160c0015160018111156102bc576102bb61128e565b5b146103075781610100015160c001516040517f88bac2cd0000000000000000000000000000000000000000000000000000000081526004016102fe9190611305565b60405180910390fd5b60008261010001516080015163ffffffff16141580156103365750468261010001516080015163ffffffff1614155b1561038157816101000151608001516040517ff5b59f37000000000000000000000000000000000000000000000000000000008152600401610378919061135b565b60405180910390fd5b60018261010001516060015163ffffffff161480156103af5750468261010001516080015163ffffffff1614155b156103fa57816101000151608001516040517ff5b59f370000000000000000000000000000000000000000000000000000000081526004016103f1919061135b565b60405180910390fd5b600061040e836101000151600001516104bf565b905060007f37a124457570b0237075d0c477282eaf88b1bb865fe66b41aacfa0259556af0884602001518361044b876101000151604001516104e2565b876060015160405160200161046495949392919061141d565b604051602081830303815290604052805190602001209050600061049f6104998661010001516080015163ffffffff16610534565b836106ae565b90506104b58382876101000151602001516106ef565b9350505050919050565b600060148251146104cf57600080fd5b600c6101000a6020830151049050919050565b60006020825114610528576040517f08c379a000000000000000000000000000000000000000000000000000000000815260040161051f906114f3565b60405180910390fd5b60208201519050919050565b60008082036105f4577f599a80fcaa47b95e2323ab4d34d34e0cc9feda4b843edafcc30c7bdf60ea15bf7f0bc86d716919df6b1f5f289daab8682d331d406b1eb2cbb21a55f09766c833697fb4bcb154e38601c389396fa918314da42d4626f13ef6d0ceb07e5f5d26b2fbc37ff2d857f4a3edcb9b78b4d503bfe733db1e3f6cdc2b7971ee739626c97e86a55860001b6040516020016105d79493929190611513565b6040516020818303038152906040528051906020012090506106a9565b7fa604fff5a27d5951f334ccda7abff3286a8af29caeeb196a6f2b40a1dce7612b7f0bc86d716919df6b1f5f289daab8682d331d406b1eb2cbb21a55f09766c833697fb4bcb154e38601c389396fa918314da42d4626f13ef6d0ceb07e5f5d26b2fbc3847ff2d857f4a3edcb9b78b4d503bfe733db1e3f6cdc2b7971ee739626c97e86a55860001b604051602001610690959493929190611567565b6040516020818303038152906040528051906020012090505b919050565b60006040517f190100000000000000000000000000000000000000000000000000000000000081528360028201528260228201526042812091505092915050565b60008060006106fe858561077f565b5091509150600060038111156107175761071661128e565b5b81600381111561072a5761072961128e565b5b14801561076257508573ffffffffffffffffffffffffffffffffffffffff168273ffffffffffffffffffffffffffffffffffffffff16145b8061077457506107738686866107db565b5b925050509392505050565b600080600060418451036107c45760008060006020870151925060408701519150606087015160001a90506107b6888285856108ff565b9550955095505050506107d4565b60006002855160001b9250925092505b9250925092565b60008060008573ffffffffffffffffffffffffffffffffffffffff16858560405160240161080a929190611604565b604051602081830303815290604052631626ba7e60e01b6020820180517bffffffffffffffffffffffffffffffffffffffffffffffffffffffff838183161783525050505060405161085c9190611670565b600060405180830381855afa9150503d8060008114610897576040519150601f19603f3d011682016040523d82523d6000602084013e61089c565b606091505b50915091508180156108b057506020815110155b80156108f45750631626ba7e60e01b7bffffffffffffffffffffffffffffffffffffffffffffffffffffffff1916818060200190518101906108f2919061169c565b145b925050509392505050565b60008060007f7fffffffffffffffffffffffffffffff5d576e7357a4501ddfe92f46681b20a08460001c111561093f5760006003859250925092506109e9565b60006001888888886040516000815260200160405260405161096494939291906116e5565b6020604051602081039080840390855afa158015610986573d6000803e3d6000fd5b505050602060405103519050600073ffffffffffffffffffffffffffffffffffffffff168173ffffffffffffffffffffffffffffffffffffffff16036109da57600060016000801b935093509350506109e9565b8060008060001b935093509350505b9450945094915050565b6000604051905090565b600080fd5b600080fd5b6000819050919050565b610a1a81610a07565b8114610a2557600080fd5b50565b600081359050610a3781610a11565b92915050565b600080fd5b600080fd5b6000601f19601f8301169050919050565b7f4e487b7100000000000000000000000000000000000000000000000000000000600052604160045260246000fd5b610a9082610a47565b810181811067ffffffffffffffff82111715610aaf57610aae610a58565b5b80604052505050565b6000610ac26109f3565b9050610ace8282610a87565b919050565b600067ffffffffffffffff821115610aee57610aed610a58565b5b610af782610a47565b9050602081019050919050565b82818337600083830152505050565b6000610b26610b2184610ad3565b610ab8565b905082815260208101848484011115610b4257610b41610a42565b5b610b4d848285610b04565b509392505050565b600082601f830112610b6a57610b69610a3d565b5b8135610b7a848260208601610b13565b91505092915050565b60008060008060808587031215610b9d57610b9c6109fd565b5b6000610bab87828801610a28565b9450506020610bbc87828801610a28565b9350506040610bcd87828801610a28565b925050606085013567ffffffffffffffff811115610bee57610bed610a02565b5b610bfa87828801610b55565b91505092959194509250565b60008115159050919050565b610c1b81610c06565b82525050565b6000602082019050610c366000830184610c12565b92915050565b600080fd5b600080fd5b600f8110610c5357600080fd5b50565b600081359050610c6581610c46565b92915050565b600067ffffffffffffffff82169050919050565b610c8881610c6b565b8114610c9357600080fd5b50565b600081359050610ca581610c7f565b92915050565b600063ffffffff82169050919050565b610cc481610cab565b8114610ccf57600080fd5b50565b600081359050610ce181610cbb565b92915050565b60048110610cf457600080fd5b50565b600081359050610d0681610ce7565b92915050565b610d1581610c06565b8114610d2057600080fd5b50565b600081359050610d3281610d0c565b92915050565b60028110610d4557600080fd5b50565b600081359050610d5781610d38565b92915050565b600060e08284031215610d7357610d72610c3c565b5b610d7d60e0610ab8565b9050600082013567ffffffffffffffff811115610d9d57610d9c610c41565b5b610da984828501610b55565b600083015250602082013567ffffffffffffffff811115610dcd57610dcc610c41565b5b610dd984828501610b55565b602083015250604082013567ffffffffffffffff811115610dfd57610dfc610c41565b5b610e0984828501610b55565b6040830152506060610e1d84828501610cd2565b6060830152506080610e3184828501610cd2565b60808301525060a0610e4584828501610d23565b60a08301525060c0610e5984828501610d48565b60c08301525092915050565b60006102008284031215610e7c57610e7b610c3c565b5b610e87610200610ab8565b90506000610e9784828501610c56565b6000830152506020610eab84828501610c96565b6020830152506040610ebf84828501610cd2565b6040830152506060610ed384828501610cf7565b6060830152506080610ee784828501610d23565b60808301525060a0610efb84828501610d23565b60a08301525060c0610f0f84828501610d23565b60c08301525060e0610f2384828501610d23565b60e08301525061010082013567ffffffffffffffff811115610f4857610f47610c41565b5b610f5484828501610d5d565b61010083015250610120610f6a84828501610d23565b61012083015250610140610f8084828501610d23565b61014083015250610160610f9684828501610d23565b61016083015250610180610fac84828501610d23565b610180830152506101a0610fc284828501610d23565b6101a0830152506101c0610fd884828501610d23565b6101c0830152506101e0610fee84828501610d23565b6101e08301525092915050565b600060208284031215611011576110106109fd565b5b600082013567ffffffffffffffff81111561102f5761102e610a02565b5b61103b84828501610e65565b91505092915050565b600081519050919050565b600082825260208201905092915050565b60005b8381101561107e578082015181840152602081019050611063565b60008484015250505050565b600061109582611044565b61109f818561104f565b93506110af818560208601611060565b6110b881610a47565b840191505092915050565b6000819050919050565b6000819050919050565b60006110f26110ed6110e8846110c3565b6110cd565b610cab565b9050919050565b611102816110d7565b82525050565b60006040820190508181036000830152611122818561108a565b905061113160208301846110f9565b9392505050565b600061114b61114684610ad3565b610ab8565b90508281526020810184848401111561116757611166610a42565b5b611172848285611060565b509392505050565b600082601f83011261118f5761118e610a3d565b5b815161119f848260208601611138565b91505092915050565b6000602082840312156111be576111bd6109fd565b5b600082015167ffffffffffffffff8111156111dc576111db610a02565b5b6111e88482850161117a565b91505092915050565b6111fa81610a07565b82525050565b600060808201905061121560008301876111f1565b61122260208301866111f1565b61122f60408301856111f1565b8181036060830152611241818461108a565b905095945050505050565b60008151905061125b81610d0c565b92915050565b600060208284031215611277576112766109fd565b5b60006112858482850161124c565b91505092915050565b7f4e487b7100000000000000000000000000000000000000000000000000000000600052602160045260246000fd5b600281106112ce576112cd61128e565b5b50565b60008190506112df826112bd565b919050565b60006112ef826112d1565b9050919050565b6112ff816112e4565b82525050565b600060208201905061131a60008301846112f6565b92915050565b6000819050919050565b600061134561134061133b84610cab565b6110cd565b611320565b9050919050565b6113558161132a565b82525050565b6000602082019050611370600083018461134c565b92915050565b61137f81610a07565b82525050565b61138e81610c6b565b82525050565b600073ffffffffffffffffffffffffffffffffffffffff82169050919050565b60006113bf82611394565b9050919050565b6113cf816113b4565b82525050565b600481106113e6576113e561128e565b5b50565b60008190506113f7826113d5565b919050565b6000611407826113e9565b9050919050565b611417816113fc565b82525050565b600060a0820190506114326000830188611376565b61143f6020830187611385565b61144c60408301866113c6565b6114596060830185611376565b611466608083018461140e565b9695505050505050565b600082825260208201905092915050565b7f536f75726365206279746573206d7573742062652065786163746c792033322060008201527f6279746573206c6f6e6700000000000000000000000000000000000000000000602082015250565b60006114dd602a83611470565b91506114e882611481565b604082019050919050565b6000602082019050818103600083015261150c816114d0565b9050919050565b60006080820190506115286000830187611376565b6115356020830186611376565b6115426040830185611376565b61154f6060830184611376565b95945050505050565b61156181611320565b82525050565b600060a08201905061157c6000830188611376565b6115896020830187611376565b6115966040830186611376565b6115a36060830185611558565b6115b06080830184611376565b9695505050505050565b600082825260208201905092915050565b60006115d682611044565b6115e081856115ba565b93506115f0818560208601611060565b6115f981610a47565b840191505092915050565b60006040820190506116196000830185611376565b818103602083015261162b81846115cb565b90509392505050565b600081905092915050565b600061164a82611044565b6116548185611634565b9350611664818560208601611060565b80840191505092915050565b600061167c828461163f565b915081905092915050565b60008151905061169681610a11565b92915050565b6000602082840312156116b2576116b16109fd565b5b60006116c084828501611687565b91505092915050565b600060ff82169050919050565b6116df816116c9565b82525050565b60006080820190506116fa6000830187611376565b61170760208301866116d6565b6117146040830185611376565b6117216060830184611376565b9594505050505056fea2646970667358221220dababd644126c607bf600d18d2d5fdd6782bf5fcb21de84e6731e0520f15216664736f6c634300081a0033",
  "linkReferences": {
    "@farcaster-attestation/farcaster-solidity/contracts/libraries/Blake3.sol": {
      "Blake3": [
        {
          "length": 20,
          "start": 402
        }
      ]
    },
    "@farcaster-attestation/farcaster-solidity/contracts/libraries/Ed25519.sol": {
      "Ed25519": [
        {
          "length": 20,
          "start": 532
        }
      ]
    }
  },
  "deployedLinkReferences": {
    "@farcaster-attestation/farcaster-solidity/contracts/libraries/Blake3.sol": {
      "Blake3": [
        {
          "length": 20,
          "start": 320
        }
      ]
    },
    "@farcaster-attestation/farcaster-solidity/contracts/libraries/Ed25519.sol": {
      "Ed25519": [
        {
          "length": 20,
          "start": 450
        }
      ]
    }
  }
}