{
  "_format": "hh-sol-artifact-1",
  "contractName": "EAS",
  "sourceName": "@ethereum-attestation-service/eas-contracts/contracts/EAS.sol",
  "abi": [
    {
      "inputs": [
        {
          "internalType": "contract ISchemaRegistry",
          "name": "registry",
          "type": "address"
        }
      ],
      "stateMutability": "nonpayable",
      "type": "constructor"
    },
    {
      "inputs": [],
      "name": "AccessDenied",
      "type": "error"
    },
    {
      "inputs": [
        {
          "internalType": "address",
          "name": "account",
          "type": "address"
        }
      ],
      "name": "AddressInsufficientBalance",
      "type": "error"
    },
    {
      "inputs": [],
      "name": "AlreadyRevoked",
      "type": "error"
    },
    {
      "inputs": [],
      "name": "AlreadyRevokedOffchain",
      "type": "error"
    },
    {
      "inputs": [],
      "name": "AlreadyTimestamped",
      "type": "error"
    },
    {
      "inputs": [],
      "name": "DeadlineExpired",
      "type": "error"
    },
    {
      "inputs": [],
      "name": "FailedInnerCall",
      "type": "error"
    },
    {
      "inputs": [],
      "name": "InsufficientValue",
      "type": "error"
    },
    {
      "inputs": [],
      "name": "InvalidAttestation",
      "type": "error"
    },
    {
      "inputs": [],
      "name": "InvalidAttestations",
      "type": "error"
    },
    {
      "inputs": [],
      "name": "InvalidExpirationTime",
      "type": "error"
    },
    {
      "inputs": [],
      "name": "InvalidLength",
      "type": "error"
    },
    {
      "inputs": [],
      "name": "InvalidNonce",
      "type": "error"
    },
    {
      "inputs": [],
      "name": "InvalidOffset",
      "type": "error"
    },
    {
      "inputs": [],
      "name": "InvalidRegistry",
      "type": "error"
    },
    {
      "inputs": [],
      "name": "InvalidRevocation",
      "type": "error"
    },
    {
      "inputs": [],
      "name": "InvalidRevocations",
      "type": "error"
    },
    {
      "inputs": [],
      "name": "InvalidSchema",
      "type": "error"
    },
    {
      "inputs": [],
      "name": "InvalidShortString",
      "type": "error"
    },
    {
      "inputs": [],
      "name": "InvalidSignature",
      "type": "error"
    },
    {
      "inputs": [],
      "name": "InvalidVerifier",
      "type": "error"
    },
    {
      "inputs": [],
      "name": "Irrevocable",
      "type": "error"
    },
    {
      "inputs": [],
      "name": "NotFound",
      "type": "error"
    },
    {
      "inputs": [],
      "name": "NotPayable",
      "type": "error"
    },
    {
      "inputs": [
        {
          "internalType": "string",
          "name": "str",
          "type": "string"
        }
      ],
      "name": "StringTooLong",
      "type": "error"
    },
    {
      "inputs": [],
      "name": "WrongSchema",
      "type": "error"
    },
    {
      "anonymous": false,
      "inputs": [
        {
          "indexed": true,
          "internalType": "address",
          "name": "recipient",
          "type": "address"
        },
        {
          "indexed": true,
          "internalType": "address",
          "name": "attester",
          "type": "address"
        },
        {
          "indexed": false,
          "internalType": "bytes32",
          "name": "uid",
          "type": "bytes32"
        },
        {
          "indexed": true,
          "internalType": "bytes32",
          "name": "schemaUID",
          "type": "bytes32"
        }
      ],
      "name": "Attested",
      "type": "event"
    },
    {
      "anonymous": false,
      "inputs": [],
      "name": "EIP712DomainChanged",
      "type": "event"
    },
    {
      "anonymous": false,
      "inputs": [
        {
          "indexed": false,
          "internalType": "uint256",
          "name": "oldNonce",
          "type": "uint256"
        },
        {
          "indexed": false,
          "internalType": "uint256",
          "name": "newNonce",
          "type": "uint256"
        }
      ],
      "name": "NonceIncreased",
      "type": "event"
    },
    {
      "anonymous": false,
      "inputs": [
        {
          "indexed": true,
          "internalType": "address",
          "name": "recipient",
          "type": "address"
        },
        {
          "indexed": true,
          "internalType": "address",
          "name": "attester",
          "type": "address"
        },
        {
          "indexed": false,
          "internalType": "bytes32",
          "name": "uid",
          "type": "bytes32"
        },
        {
          "indexed": true,
          "internalType": "bytes32",
          "name": "schemaUID",
          "type": "bytes32"
        }
      ],
      "name": "Revoked",
      "type": "event"
    },
    {
      "anonymous": false,
      "inputs": [
        {
          "indexed": true,
          "internalType": "address",
          "name": "revoker",
          "type": "address"
        },
        {
          "indexed": true,
          "internalType": "bytes32",
          "name": "data",
          "type": "bytes32"
        },
        {
          "indexed": true,
          "internalType": "uint64",
          "name": "timestamp",
          "type": "uint64"
        }
      ],
      "name": "RevokedOffchain",
      "type": "event"
    },
    {
      "anonymous": false,
      "inputs": [
        {
          "indexed": true,
          "internalType": "bytes32",
          "name": "data",
          "type": "bytes32"
        },
        {
          "indexed": true,
          "internalType": "uint64",
          "name": "timestamp",
          "type": "uint64"
        }
      ],
      "name": "Timestamped",
      "type": "event"
    },
    {
      "inputs": [
        {
          "components": [
            {
              "internalType": "bytes32",
              "name": "schema",
              "type": "bytes32"
            },
            {
              "components": [
                {
                  "internalType": "address",
                  "name": "recipient",
                  "type": "address"
                },
                {
                  "internalType": "uint64",
                  "name": "expirationTime",
                  "type": "uint64"
                },
                {
                  "internalType": "bool",
                  "name": "revocable",
                  "type": "bool"
                },
                {
                  "internalType": "bytes32",
                  "name": "refUID",
                  "type": "bytes32"
                },
                {
                  "internalType": "bytes",
                  "name": "data",
                  "type": "bytes"
                },
                {
                  "internalType": "uint256",
                  "name": "value",
                  "type": "uint256"
                }
              ],
              "internalType": "struct AttestationRequestData",
              "name": "data",
              "type": "tuple"
            }
          ],
          "internalType": "struct AttestationRequest",
          "name": "request",
          "type": "tuple"
        }
      ],
      "name": "attest",
      "outputs": [
        {
          "internalType": "bytes32",
          "name": "",
          "type": "bytes32"
        }
      ],
      "stateMutability": "payable",
      "type": "function"
    },
    {
      "inputs": [
        {
          "components": [
            {
              "internalType": "bytes32",
              "name": "schema",
              "type": "bytes32"
            },
            {
              "components": [
                {
                  "internalType": "address",
                  "name": "recipient",
                  "type": "address"
                },
                {
                  "internalType": "uint64",
                  "name": "expirationTime",
                  "type": "uint64"
                },
                {
                  "internalType": "bool",
                  "name": "revocable",
                  "type": "bool"
                },
                {
                  "internalType": "bytes32",
                  "name": "refUID",
                  "type": "bytes32"
                },
                {
                  "internalType": "bytes",
                  "name": "data",
                  "type": "bytes"
                },
                {
                  "internalType": "uint256",
                  "name": "value",
                  "type": "uint256"
                }
              ],
              "internalType": "struct AttestationRequestData",
              "name": "data",
              "type": "tuple"
            },
            {
              "components": [
                {
                  "internalType": "uint8",
                  "name": "v",
                  "type": "uint8"
                },
                {
                  "internalType": "bytes32",
                  "name": "r",
                  "type": "bytes32"
                },
                {
                  "internalType": "bytes32",
                  "name": "s",
                  "type": "bytes32"
                }
              ],
              "internalType": "struct Signature",
              "name": "signature",
              "type": "tuple"
            },
            {
              "internalType": "address",
              "name": "attester",
              "type": "address"
            },
            {
              "internalType": "uint64",
              "name": "deadline",
              "type": "uint64"
            }
          ],
          "internalType": "struct DelegatedAttestationRequest",
          "name": "delegatedRequest",
          "type": "tuple"
        }
      ],
      "name": "attestByDelegation",
      "outputs": [
        {
          "internalType": "bytes32",
          "name": "",
          "type": "bytes32"
        }
      ],
      "stateMutability": "payable",
      "type": "function"
    },
    {
      "inputs": [],
      "name": "eip712Domain",
      "outputs": [
        {
          "internalType": "bytes1",
          "name": "fields",
          "type": "bytes1"
        },
        {
          "internalType": "string",
          "name": "name",
          "type": "string"
        },
        {
          "internalType": "string",
          "name": "version",
          "type": "string"
        },
        {
          "internalType": "uint256",
          "name": "chainId",
          "type": "uint256"
        },
        {
          "internalType": "address",
          "name": "verifyingContract",
          "type": "address"
        },
        {
          "internalType": "bytes32",
          "name": "salt",
          "type": "bytes32"
        },
        {
          "internalType": "uint256[]",
          "name": "extensions",
          "type": "uint256[]"
        }
      ],
      "stateMutability": "view",
      "type": "function"
    },
    {
      "inputs": [],
      "name": "getAttestTypeHash",
      "outputs": [
        {
          "internalType": "bytes32",
          "name": "",
          "type": "bytes32"
        }
      ],
      "stateMutability": "pure",
      "type": "function"
    },
    {
      "inputs": [
        {
          "internalType": "bytes32",
          "name": "uid",
          "type": "bytes32"
        }
      ],
      "name": "getAttestation",
      "outputs": [
        {
          "components": [
            {
              "internalType": "bytes32",
              "name": "uid",
              "type": "bytes32"
            },
            {
              "internalType": "bytes32",
              "name": "schema",
              "type": "bytes32"
            },
            {
              "internalType": "uint64",
              "name": "time",
              "type": "uint64"
            },
            {
              "internalType": "uint64",
              "name": "expirationTime",
              "type": "uint64"
            },
            {
              "internalType": "uint64",
              "name": "revocationTime",
              "type": "uint64"
            },
            {
              "internalType": "bytes32",
              "name": "refUID",
              "type": "bytes32"
            },
            {
              "internalType": "address",
              "name": "recipient",
              "type": "address"
            },
            {
              "internalType": "address",
              "name": "attester",
              "type": "address"
            },
            {
              "internalType": "bool",
              "name": "revocable",
              "type": "bool"
            },
            {
              "internalType": "bytes",
              "name": "data",
              "type": "bytes"
            }
          ],
          "internalType": "struct Attestation",
          "name": "",
          "type": "tuple"
        }
      ],
      "stateMutability": "view",
      "type": "function"
    },
    {
      "inputs": [],
      "name": "getDomainSeparator",
      "outputs": [
        {
          "internalType": "bytes32",
          "name": "",
          "type": "bytes32"
        }
      ],
      "stateMutability": "view",
      "type": "function"
    },
    {
      "inputs": [],
      "name": "getName",
      "outputs": [
        {
          "internalType": "string",
          "name": "",
          "type": "string"
        }
      ],
      "stateMutability": "view",
      "type": "function"
    },
    {
      "inputs": [
        {
          "internalType": "address",
          "name": "account",
          "type": "address"
        }
      ],
      "name": "getNonce",
      "outputs": [
        {
          "internalType": "uint256",
          "name": "",
          "type": "uint256"
        }
      ],
      "stateMutability": "view",
      "type": "function"
    },
    {
      "inputs": [
        {
          "internalType": "address",
          "name": "revoker",
          "type": "address"
        },
        {
          "internalType": "bytes32",
          "name": "data",
          "type": "bytes32"
        }
      ],
      "name": "getRevokeOffchain",
      "outputs": [
        {
          "internalType": "uint64",
          "name": "",
          "type": "uint64"
        }
      ],
      "stateMutability": "view",
      "type": "function"
    },
    {
      "inputs": [],
      "name": "getRevokeTypeHash",
      "outputs": [
        {
          "internalType": "bytes32",
          "name": "",
          "type": "bytes32"
        }
      ],
      "stateMutability": "pure",
      "type": "function"
    },
    {
      "inputs": [],
      "name": "getSchemaRegistry",
      "outputs": [
        {
          "internalType": "contract ISchemaRegistry",
          "name": "",
          "type": "address"
        }
      ],
      "stateMutability": "view",
      "type": "function"
    },
    {
      "inputs": [
        {
          "internalType": "bytes32",
          "name": "data",
          "type": "bytes32"
        }
      ],
      "name": "getTimestamp",
      "outputs": [
        {
          "internalType": "uint64",
          "name": "",
          "type": "uint64"
        }
      ],
      "stateMutability": "view",
      "type": "function"
    },
    {
      "inputs": [
        {
          "internalType": "uint256",
          "name": "newNonce",
          "type": "uint256"
        }
      ],
      "name": "increaseNonce",
      "outputs": [],
      "stateMutability": "nonpayable",
      "type": "function"
    },
    {
      "inputs": [
        {
          "internalType": "bytes32",
          "name": "uid",
          "type": "bytes32"
        }
      ],
      "name": "isAttestationValid",
      "outputs": [
        {
          "internalType": "bool",
          "name": "",
          "type": "bool"
        }
      ],
      "stateMutability": "view",
      "type": "function"
    },
    {
      "inputs": [
        {
          "components": [
            {
              "internalType": "bytes32",
              "name": "schema",
              "type": "bytes32"
            },
            {
              "components": [
                {
                  "internalType": "address",
                  "name": "recipient",
                  "type": "address"
                },
                {
                  "internalType": "uint64",
                  "name": "expirationTime",
                  "type": "uint64"
                },
                {
                  "internalType": "bool",
                  "name": "revocable",
                  "type": "bool"
                },
                {
                  "internalType": "bytes32",
                  "name": "refUID",
                  "type": "bytes32"
                },
                {
                  "internalType": "bytes",
                  "name": "data",
                  "type": "bytes"
                },
                {
                  "internalType": "uint256",
                  "name": "value",
                  "type": "uint256"
                }
              ],
              "internalType": "struct AttestationRequestData[]",
              "name": "data",
              "type": "tuple[]"
            }
          ],
          "internalType": "struct MultiAttestationRequest[]",
          "name": "multiRequests",
          "type": "tuple[]"
        }
      ],
      "name": "multiAttest",
      "outputs": [
        {
          "internalType": "bytes32[]",
          "name": "",
          "type": "bytes32[]"
        }
      ],
      "stateMutability": "payable",
      "type": "function"
    },
    {
      "inputs": [
        {
          "components": [
            {
              "internalType": "bytes32",
              "name": "schema",
              "type": "bytes32"
            },
            {
              "components": [
                {
                  "internalType": "address",
                  "name": "recipient",
                  "type": "address"
                },
                {
                  "internalType": "uint64",
                  "name": "expirationTime",
                  "type": "uint64"
                },
                {
                  "internalType": "bool",
                  "name": "revocable",
                  "type": "bool"
                },
                {
                  "internalType": "bytes32",
                  "name": "refUID",
                  "type": "bytes32"
                },
                {
                  "internalType": "bytes",
                  "name": "data",
                  "type": "bytes"
                },
                {
                  "internalType": "uint256",
                  "name": "value",
                  "type": "uint256"
                }
              ],
              "internalType": "struct AttestationRequestData[]",
              "name": "data",
              "type": "tuple[]"
            },
            {
              "components": [
                {
                  "internalType": "uint8",
                  "name": "v",
                  "type": "uint8"
                },
                {
                  "internalType": "bytes32",
                  "name": "r",
                  "type": "bytes32"
                },
                {
                  "internalType": "bytes32",
                  "name": "s",
                  "type": "bytes32"
                }
              ],
              "internalType": "struct Signature[]",
              "name": "signatures",
              "type": "tuple[]"
            },
            {
              "internalType": "address",
              "name": "attester",
              "type": "address"
            },
            {
              "internalType": "uint64",
              "name": "deadline",
              "type": "uint64"
            }
          ],
          "internalType": "struct MultiDelegatedAttestationRequest[]",
          "name": "multiDelegatedRequests",
          "type": "tuple[]"
        }
      ],
      "name": "multiAttestByDelegation",
      "outputs": [
        {
          "internalType": "bytes32[]",
          "name": "",
          "type": "bytes32[]"
        }
      ],
      "stateMutability": "payable",
      "type": "function"
    },
    {
      "inputs": [
        {
          "components": [
            {
              "internalType": "bytes32",
              "name": "schema",
              "type": "bytes32"
            },
            {
              "components": [
                {
                  "internalType": "bytes32",
                  "name": "uid",
                  "type": "bytes32"
                },
                {
                  "internalType": "uint256",
                  "name": "value",
                  "type": "uint256"
                }
              ],
              "internalType": "struct RevocationRequestData[]",
              "name": "data",
              "type": "tuple[]"
            }
          ],
          "internalType": "struct MultiRevocationRequest[]",
          "name": "multiRequests",
          "type": "tuple[]"
        }
      ],
      "name": "multiRevoke",
      "outputs": [],
      "stateMutability": "payable",
      "type": "function"
    },
    {
      "inputs": [
        {
          "components": [
            {
              "internalType": "bytes32",
              "name": "schema",
              "type": "bytes32"
            },
            {
              "components": [
                {
                  "internalType": "bytes32",
                  "name": "uid",
                  "type": "bytes32"
                },
                {
                  "internalType": "uint256",
                  "name": "value",
                  "type": "uint256"
                }
              ],
              "internalType": "struct RevocationRequestData[]",
              "name": "data",
              "type": "tuple[]"
            },
            {
              "components": [
                {
                  "internalType": "uint8",
                  "name": "v",
                  "type": "uint8"
                },
                {
                  "internalType": "bytes32",
                  "name": "r",
                  "type": "bytes32"
                },
                {
                  "internalType": "bytes32",
                  "name": "s",
                  "type": "bytes32"
                }
              ],
              "internalType": "struct Signature[]",
              "name": "signatures",
              "type": "tuple[]"
            },
            {
              "internalType": "address",
              "name": "revoker",
              "type": "address"
            },
            {
              "internalType": "uint64",
              "name": "deadline",
              "type": "uint64"
            }
          ],
          "internalType": "struct MultiDelegatedRevocationRequest[]",
          "name": "multiDelegatedRequests",
          "type": "tuple[]"
        }
      ],
      "name": "multiRevokeByDelegation",
      "outputs": [],
      "stateMutability": "payable",
      "type": "function"
    },
    {
      "inputs": [
        {
          "internalType": "bytes32[]",
          "name": "data",
          "type": "bytes32[]"
        }
      ],
      "name": "multiRevokeOffchain",
      "outputs": [
        {
          "internalType": "uint64",
          "name": "",
          "type": "uint64"
        }
      ],
      "stateMutability": "nonpayable",
      "type": "function"
    },
    {
      "inputs": [
        {
          "internalType": "bytes32[]",
          "name": "data",
          "type": "bytes32[]"
        }
      ],
      "name": "multiTimestamp",
      "outputs": [
        {
          "internalType": "uint64",
          "name": "",
          "type": "uint64"
        }
      ],
      "stateMutability": "nonpayable",
      "type": "function"
    },
    {
      "inputs": [
        {
          "components": [
            {
              "internalType": "bytes32",
              "name": "schema",
              "type": "bytes32"
            },
            {
              "components": [
                {
                  "internalType": "bytes32",
                  "name": "uid",
                  "type": "bytes32"
                },
                {
                  "internalType": "uint256",
                  "name": "value",
                  "type": "uint256"
                }
              ],
              "internalType": "struct RevocationRequestData",
              "name": "data",
              "type": "tuple"
            }
          ],
          "internalType": "struct RevocationRequest",
          "name": "request",
          "type": "tuple"
        }
      ],
      "name": "revoke",
      "outputs": [],
      "stateMutability": "payable",
      "type": "function"
    },
    {
      "inputs": [
        {
          "components": [
            {
              "internalType": "bytes32",
              "name": "schema",
              "type": "bytes32"
            },
            {
              "components": [
                {
                  "internalType": "bytes32",
                  "name": "uid",
                  "type": "bytes32"
                },
                {
                  "internalType": "uint256",
                  "name": "value",
                  "type": "uint256"
                }
              ],
              "internalType": "struct RevocationRequestData",
              "name": "data",
              "type": "tuple"
            },
            {
              "components": [
                {
                  "internalType": "uint8",
                  "name": "v",
                  "type": "uint8"
                },
                {
                  "internalType": "bytes32",
                  "name": "r",
                  "type": "bytes32"
                },
                {
                  "internalType": "bytes32",
                  "name": "s",
                  "type": "bytes32"
                }
              ],
              "internalType": "struct Signature",
              "name": "signature",
              "type": "tuple"
            },
            {
              "internalType": "address",
              "name": "revoker",
              "type": "address"
            },
            {
              "internalType": "uint64",
              "name": "deadline",
              "type": "uint64"
            }
          ],
          "internalType": "struct DelegatedRevocationRequest",
          "name": "delegatedRequest",
          "type": "tuple"
        }
      ],
      "name": "revokeByDelegation",
      "outputs": [],
      "stateMutability": "payable",
      "type": "function"
    },
    {
      "inputs": [
        {
          "internalType": "bytes32",
          "name": "data",
          "type": "bytes32"
        }
      ],
      "name": "revokeOffchain",
      "outputs": [
        {
          "internalType": "uint64",
          "name": "",
          "type": "uint64"
        }
      ],
      "stateMutability": "nonpayable",
      "type": "function"
    },
    {
      "inputs": [
        {
          "internalType": "bytes32",
          "name": "data",
          "type": "bytes32"
        }
      ],
      "name": "timestamp",
      "outputs": [
        {
          "internalType": "uint64",
          "name": "",
          "type": "uint64"
        }
      ],
      "stateMutability": "nonpayable",
      "type": "function"
    },
    {
      "inputs": [],
      "name": "version",
      "outputs": [
        {
          "internalType": "string",
          "name": "",
          "type": "string"
        }
      ],
      "stateMutability": "view",
      "type": "function"
    }
  ],
  "bytecode": "0x6101e060405234801561001157600080fd5b50604051616d09380380616d09833981810160405281019061003391906103b5565b6040518060400160405280600381526020017f45415300000000000000000000000000000000000000000000000000000000008152506040518060400160405280600581526020017f312e332e30000000000000000000000000000000000000000000000000000000815250818160016003600082608081815250508160a081815250508060c081815250505050506100d660008361022260201b90919060201c565b61018081815250506100f260018261022260201b90919060201c565b6101a08181525050818051906020012061014081815250508080519060200120610160818152505046610100818152505061013161027260201b60201c565b60e081815250503073ffffffffffffffffffffffffffffffffffffffff166101208173ffffffffffffffffffffffffffffffffffffffff16815250505050816002908161017e9190610632565b505050600073ffffffffffffffffffffffffffffffffffffffff168173ffffffffffffffffffffffffffffffffffffffff16036101e7576040517f11a1e69700000000000000000000000000000000000000000000000000000000815260040160405180910390fd5b8073ffffffffffffffffffffffffffffffffffffffff166101c08173ffffffffffffffffffffffffffffffffffffffff1681525050506108cc565b60006020835110156102445761023d836102ce60201b60201c565b905061026c565b826102548361033660201b60201c565b60000190816102639190610632565b5060ff60001b90505b92915050565b60007f8b73c3c69bb8fe3d512ecc4cf759cc79239f7b179b0ffacaa9a75d522b39400f610140516101605146306040516020016102b395949392919061073b565b60405160208183030381529060405280519060200120905090565b600080829050601f8151111561031b57826040517f305a27a90000000000000000000000000000000000000000000000000000000081526004016103129190610813565b60405180910390fd5b80518161032790610865565b60001c1760001b915050919050565b6000819050919050565b600080fd5b600073ffffffffffffffffffffffffffffffffffffffff82169050919050565b600061037082610345565b9050919050565b600061038282610365565b9050919050565b61039281610377565b811461039d57600080fd5b50565b6000815190506103af81610389565b92915050565b6000602082840312156103cb576103ca610340565b5b60006103d9848285016103a0565b91505092915050565b600081519050919050565b7f4e487b7100000000000000000000000000000000000000000000000000000000600052604160045260246000fd5b7f4e487b7100000000000000000000000000000000000000000000000000000000600052602260045260246000fd5b6000600282049050600182168061046357607f821691505b6020821081036104765761047561041c565b5b50919050565b60008190508160005260206000209050919050565b60006020601f8301049050919050565b600082821b905092915050565b6000600883026104de7fffffffffffffffffffffffffffffffffffffffffffffffffffffffffffffffff826104a1565b6104e886836104a1565b95508019841693508086168417925050509392505050565b6000819050919050565b6000819050919050565b600061052f61052a61052584610500565b61050a565b610500565b9050919050565b6000819050919050565b61054983610514565b61055d61055582610536565b8484546104ae565b825550505050565b600090565b610572610565565b61057d818484610540565b505050565b5b818110156105a15761059660008261056a565b600181019050610583565b5050565b601f8211156105e6576105b78161047c565b6105c084610491565b810160208510156105cf578190505b6105e36105db85610491565b830182610582565b50505b505050565b600082821c905092915050565b6000610609600019846008026105eb565b1980831691505092915050565b600061062283836105f8565b9150826002028217905092915050565b61063b826103e2565b67ffffffffffffffff811115610654576106536103ed565b5b61065e825461044b565b6106698282856105a5565b600060209050601f83116001811461069c576000841561068a578287015190505b6106948582610616565b8655506106fc565b601f1984166106aa8661047c565b60005b828110156106d2578489015182556001820191506020850194506020810190506106ad565b868310156106ef57848901516106eb601f8916826105f8565b8355505b6001600288020188555050505b505050505050565b6000819050919050565b61071781610704565b82525050565b61072681610500565b82525050565b61073581610365565b82525050565b600060a082019050610750600083018861070e565b61075d602083018761070e565b61076a604083018661070e565b610777606083018561071d565b610784608083018461072c565b9695505050505050565b600082825260208201905092915050565b60005b838110156107bd5780820151818401526020810190506107a2565b60008484015250505050565b6000601f19601f8301169050919050565b60006107e5826103e2565b6107ef818561078e565b93506107ff81856020860161079f565b610808816107c9565b840191505092915050565b6000602082019050818103600083015261082d81846107da565b905092915050565b600081519050919050565b6000819050602082019050919050565b600061085c8251610704565b80915050919050565b600061087082610835565b8261087a84610840565b905061088581610850565b925060208210156108c5576108c07fffffffffffffffffffffffffffffffffffffffffffffffffffffffffffffffff836020036008026104a1565b831692505b5050919050565b60805160a05160c05160e05161010051610120516101405161016051610180516101a0516101c0516163a9610960600039600081816116b80152818161199001526123f401526000612d4e01526000612d13015260006135820152600061356101526000612d8401526000612dda01526000612e0301526000610d8f01526000610d6601526000610d3d01526163a96000f3fe6080604052600436106101665760003560e01c806384b0196e116100d1578063cf190f341161008a578063e71ff36511610064578063e71ff36514610559578063ed24911d14610596578063f10b5cc8146105c1578063f17325e7146105ec57610166565b8063cf190f34146104a2578063d45c4435146104df578063e30bb5631461051c57610166565b806384b0196e1461038057806395411525146103b1578063a3112a64146103e1578063a6d4dbc71461041e578063b469318d1461043a578063b83010d31461047757610166565b806344adc90e1161012357806344adc90e1461028757806346926267146102b75780634cb7e9e5146102d35780634d003070146102ef57806354fd4d501461032c57806379f7573a1461035757610166565b80630eabf6601461016b57806312b11a171461018757806313893f61146101b257806317d7de7c146101ef5780632d0335ab1461021a5780633c04271514610257575b600080fd5b61018560048036038101906101809190613f31565b61061c565b005b34801561019357600080fd5b5061019c6107b6565b6040516101a99190613f97565b60405180910390f35b3480156101be57600080fd5b506101d960048036038101906101d49190614008565b6107e1565b6040516101e69190614078565b60405180910390f35b3480156101fb57600080fd5b50610204610841565b6040516102119190614123565b60405180910390f35b34801561022657600080fd5b50610241600480360381019061023c91906141a3565b6108d3565b60405161024e91906141e9565b60405180910390f35b610271600480360381019061026c9190614228565b61091c565b60405161027e9190613f97565b60405180910390f35b6102a1600480360381019061029c91906142c7565b610a0c565b6040516102ae91906143d2565b60405180910390f35b6102d160048036038101906102cc9190614413565b610b8e565b005b6102ed60048036038101906102e89190614496565b610c31565b005b3480156102fb57600080fd5b506103166004803603810190610311919061450f565b610d16565b6040516103239190614078565b60405180910390f35b34801561033857600080fd5b50610341610d36565b60405161034e9190614123565b60405180910390f35b34801561036357600080fd5b5061037e60048036038101906103799190614568565b610dd9565b005b34801561038c57600080fd5b50610395610ed7565b6040516103a8979695949392919061469d565b60405180910390f35b6103cb60048036038101906103c69190614777565b610f81565b6040516103d891906143d2565b60405180910390f35b3480156103ed57600080fd5b506104086004803603810190610403919061450f565b61122b565b604051610415919061492c565b60405180910390f35b6104386004803603810190610433919061496e565b611466565b005b34801561044657600080fd5b50610461600480360381019061045c919061499c565b611534565b60405161046e9190614078565b60405180910390f35b34801561048357600080fd5b5061048c6115a3565b6040516104999190613f97565b60405180910390f35b3480156104ae57600080fd5b506104c960048036038101906104c4919061450f565b6115ce565b6040516104d69190614078565b60405180910390f35b3480156104eb57600080fd5b506105066004803603810190610501919061450f565b6115ef565b6040516105139190614078565b60405180910390f35b34801561052857600080fd5b50610543600480360381019061053e919061450f565b611620565b60405161055091906149eb565b60405180910390f35b34801561056557600080fd5b50610580600480360381019061057b9190614008565b611646565b60405161058d9190614078565b60405180910390f35b3480156105a257600080fd5b506105ab6116a5565b6040516105b89190613f97565b60405180910390f35b3480156105cd57600080fd5b506105d66116b4565b6040516105e39190614a65565b60405180910390f35b61060660048036038101906106019190614a9f565b6116dc565b6040516106139190613f97565b60405180910390f35b6000349050600083839050905060005b818110156107af5760006001830382149050600086868481811061065357610652614ae8565b5b90506020028101906106659190614b26565b61066e90614f36565b9050600081602001519050600081519050600081148061069357508260400151518114155b156106ca576040517f947d5a8400000000000000000000000000000000000000000000000000000000815260040160405180910390fd5b60005b81811015610778576107686040518060a0016040528086600001518152602001858481518110610700576106ff614ae8565b5b602002602001015181526020018660400151848151811061072457610723614ae8565b5b60200260200101518152602001866060015173ffffffffffffffffffffffffffffffffffffffff168152602001866080015167ffffffffffffffff168152506117a7565b6107718161197e565b90506106cd565b5061078e83600001518385606001518a8861198b565b876107999190614f78565b9650505050506107a88161197e565b905061062c565b5050505050565b60007ffeb2925a02bae3dae48d424a0437a2b6ac939aa9230ddc55a1a76f065d98807660001b905090565b6000806107ec612050565b9050600084849050905060005b81811015610835576108253387878481811061081857610817614ae8565b5b9050602002013585612058565b61082e8161197e565b90506107f9565b50819250505092915050565b60606002805461085090614fdb565b80601f016020809104026020016040519081016040528092919081815260200182805461087c90614fdb565b80156108c95780601f1061089e576101008083540402835291602001916108c9565b820191906000526020600020905b8154815290600101906020018083116108ac57829003601f168201915b5050505050905090565b6000600360008373ffffffffffffffffffffffffffffffffffffffff1673ffffffffffffffffffffffffffffffffffffffff168152602001908152602001600020549050919050565b60006109308261092b90615251565b612193565b6000600167ffffffffffffffff81111561094d5761094c614b53565b5b60405190808252806020026020018201604052801561098657816020015b610973613d7e565b81526020019060019003908161096b5790505b5090508280602001906109999190615264565b6109a29061528c565b816000815181106109b6576109b5614ae8565b5b60200260200101819052506109e58360000135828560a00160208101906109dd91906141a3565b346001612389565b602001516000815181106109fc576109fb614ae8565b5b6020026020010151915050919050565b6060600083839050905060008167ffffffffffffffff811115610a3257610a31614b53565b5b604051908082528060200260200182016040528015610a6557816020015b6060815260200190600190039081610a505790505b50905060008034905060005b84811015610b77576000600186038214905036898984818110610a9757610a96614ae8565b5b9050602002810190610aa9919061529f565b90506000818060200190610abd91906152c7565b905003610af6576040517f947d5a8400000000000000000000000000000000000000000000000000000000815260040160405180910390fd5b6000610b238260000135838060200190610b1091906152c7565b90610b1b91906153dd565b338887612389565b9050806000015185610b359190614f78565b94508060200151878581518110610b4f57610b4e614ae8565b5b602002602001018190525080602001515186019550505050610b708161197e565b9050610a71565b50610b828383612a5a565b94505050505092915050565b6000600167ffffffffffffffff811115610bab57610baa614b53565b5b604051908082528060200260200182016040528015610be457816020015b610bd1613dd9565b815260200190600190039081610bc95790505b50905081602001803603810190610bfb91906153f2565b81600081518110610c0f57610c0e614ae8565b5b6020026020010181905250610c2c8260000135823334600161198b565b505050565b6000349050600083839050905060005b81811015610d0f576000600183038214905036868684818110610c6757610c66614ae8565b5b9050602002810190610c79919061541f565b9050610cf08160000135828060200190610c939190615447565b808060200260200160405190810160405280939291908181526020016000905b82821015610ce357848483905060400201803603810190610cd491906153f2565b81526020019060010190610cb3565b505050505033888661198b565b85610cfb9190614f78565b94505050610d088161197e565b9050610c41565b5050505050565b600080610d21612050565b9050610d2d8382612b5b565b80915050919050565b6060610d617f0000000000000000000000000000000000000000000000000000000000000000612c3c565b610d8a7f0000000000000000000000000000000000000000000000000000000000000000612c3c565b610db37f0000000000000000000000000000000000000000000000000000000000000000612c3c565b604051602001610dc593929190615532565b604051602081830303815290604052905090565b6000600360003373ffffffffffffffffffffffffffffffffffffffff1673ffffffffffffffffffffffffffffffffffffffff168152602001908152602001600020549050808211610e56576040517f756688fe00000000000000000000000000000000000000000000000000000000815260040160405180910390fd5b81600360003373ffffffffffffffffffffffffffffffffffffffff1673ffffffffffffffffffffffffffffffffffffffff168152602001908152602001600020819055507f57b09af877df9068fd60a69d7b21f5576b8b38955812d6ae4ac52942f1e38fb78183604051610ecb929190615579565b60405180910390a15050565b600060608060008060006060610eeb612d0a565b610ef3612d45565b46306000801b600067ffffffffffffffff811115610f1457610f13614b53565b5b604051908082528060200260200182016040528015610f425781602001602082028036833780820191505090505b507f0f00000000000000000000000000000000000000000000000000000000000000959493929190965096509650965096509650965090919293949596565b6060600083839050905060008167ffffffffffffffff811115610fa757610fa6614b53565b5b604051908082528060200260200182016040528015610fda57816020015b6060815260200190600190039081610fc55790505b50905060008034905060005b8481101561121457600060018603821490503689898481811061100c5761100b614ae8565b5b905060200281019061101e91906155a2565b905036600082806020019061103391906152c7565b915091506000828290509050600081148061105f575083806040019061105991906155ca565b90508114155b15611096576040517f947d5a8400000000000000000000000000000000000000000000000000000000815260040160405180910390fd5b60005b8181101561118b5761117b6040518060a00160405280876000013581526020018686858181106110cc576110cb614ae8565b5b90506020028101906110de9190615264565b6110e79061528c565b81526020018780604001906110fc91906155ca565b8581811061110d5761110c614ae8565b5b905060600201803603810190611123919061562d565b815260200187606001602081019061113b91906141a3565b73ffffffffffffffffffffffffffffffffffffffff168152602001876080016020810190611169919061565a565b67ffffffffffffffff16815250612193565b6111848161197e565b9050611099565b5060006111bd85600001358585906111a391906153dd565b8760600160208101906111b691906141a3565b8b8a612389565b90508060000151886111cf9190614f78565b975080602001518a88815181106111e9576111e8614ae8565b5b60200260200101819052508060200151518901985050505050505061120d8161197e565b9050610fe6565b5061121f8383612a5a565b94505050505092915050565b611233613df6565b600460008381526020019081526020016000206040518061014001604052908160008201548152602001600182015481526020016002820160009054906101000a900467ffffffffffffffff1667ffffffffffffffff1667ffffffffffffffff1681526020016002820160089054906101000a900467ffffffffffffffff1667ffffffffffffffff1667ffffffffffffffff1681526020016002820160109054906101000a900467ffffffffffffffff1667ffffffffffffffff1667ffffffffffffffff168152602001600382015481526020016004820160009054906101000a900473ffffffffffffffffffffffffffffffffffffffff1673ffffffffffffffffffffffffffffffffffffffff1673ffffffffffffffffffffffffffffffffffffffff1681526020016005820160009054906101000a900473ffffffffffffffffffffffffffffffffffffffff1673ffffffffffffffffffffffffffffffffffffffff1673ffffffffffffffffffffffffffffffffffffffff1681526020016005820160149054906101000a900460ff161515151581526020016006820180546113dd90614fdb565b80601f016020809104026020016040519081016040528092919081815260200182805461140990614fdb565b80156114565780601f1061142b57610100808354040283529160200191611456565b820191906000526020600020905b81548152906001019060200180831161143957829003601f168201915b5050505050815250509050919050565b61147f8180360381019061147a9190615714565b6117a7565b6000600167ffffffffffffffff81111561149c5761149b614b53565b5b6040519080825280602002602001820160405280156114d557816020015b6114c2613dd9565b8152602001906001900390816114ba5790505b509050816020018036038101906114ec91906153f2565b81600081518110611500576114ff614ae8565b5b602002602001018190525061152f8260000135828460c001602081019061152791906141a3565b34600161198b565b505050565b6000600660008473ffffffffffffffffffffffffffffffffffffffff1673ffffffffffffffffffffffffffffffffffffffff168152602001908152602001600020600083815260200190815260200160002060009054906101000a900467ffffffffffffffff16905092915050565b60007fb5d556f07587ec0f08cf386545cc4362c702a001650c2058002615ee5c9d1e7560001b905090565b6000806115d9612050565b90506115e6338483612058565b80915050919050565b60006005600083815260200190815260200160002060009054906101000a900467ffffffffffffffff169050919050565b60008060001b600460008481526020019081526020016000206000015414159050919050565b600080611651612050565b9050600084849050905060005b818110156116995761168986868381811061167c5761167b614ae8565b5b9050602002013584612b5b565b6116928161197e565b905061165e565b50819250505092915050565b60006116af612d80565b905090565b60007f0000000000000000000000000000000000000000000000000000000000000000905090565b600080600167ffffffffffffffff8111156116fa576116f9614b53565b5b60405190808252806020026020018201604052801561173357816020015b611720613d7e565b8152602001906001900390816117185790505b5090508280602001906117469190615264565b61174f9061528c565b8160008151811061176357611762614ae8565b5b602002602001018190525061178083600001358233346001612389565b6020015160008151811061179757611796614ae8565b5b6020026020010151915050919050565b600067ffffffffffffffff16816080015167ffffffffffffffff16141580156117ee57506117d3612050565b67ffffffffffffffff16816080015167ffffffffffffffff16105b15611825576040517f1ab7da6b00000000000000000000000000000000000000000000000000000000815260040160405180910390fd5b60008160200151905060008260400151905060006119027fb5d556f07587ec0f08cf386545cc4362c702a001650c2058002615ee5c9d1e7560001b8560600151866000015186600001518760200151600360008b6060015173ffffffffffffffffffffffffffffffffffffffff1673ffffffffffffffffffffffffffffffffffffffff16815260200190815260200160002060008154809291906118c890615742565b919050558a608001516040516020016118e7979695949392919061578a565b60405160208183030381529060405280519060200120612e37565b905061194284606001518284602001518560400151866000015160405160200161192e93929190615850565b604051602081830303815290604052612e51565b611978576040517f8baa579f00000000000000000000000000000000000000000000000000000000815260040160405180910390fd5b50505050565b6000600182019050919050565b6000807f000000000000000000000000000000000000000000000000000000000000000073ffffffffffffffffffffffffffffffffffffffff1663a2ea7c6e886040518263ffffffff1660e01b81526004016119e79190613f97565b600060405180830381865afa158015611a04573d6000803e3d6000fd5b505050506040513d6000823e3d601f19601f82011682018060405250810190611a2d9190615a2a565b90506000801b816000015103611a6f576040517fbf37b20e00000000000000000000000000000000000000000000000000000000815260040160405180910390fd5b60008651905060008167ffffffffffffffff811115611a9157611a90614b53565b5b604051908082528060200260200182016040528015611aca57816020015b611ab7613df6565b815260200190600190039081611aaf5790505b50905060008267ffffffffffffffff811115611ae957611ae8614b53565b5b604051908082528060200260200182016040528015611b175781602001602082028036833780820191505090505b50905060005b838110156120315760008a8281518110611b3a57611b39614ae8565b5b602002602001015190506000600460008360000151815260200190815260200160002090506000801b816000015403611b9f576040517fc5723b5100000000000000000000000000000000000000000000000000000000815260040160405180910390fd5b8c816001015414611bdc576040517fbf37b20e00000000000000000000000000000000000000000000000000000000815260040160405180910390fd5b8a73ffffffffffffffffffffffffffffffffffffffff168160050160009054906101000a900473ffffffffffffffffffffffffffffffffffffffff1673ffffffffffffffffffffffffffffffffffffffff1614611c65576040517f4ca8886700000000000000000000000000000000000000000000000000000000815260040160405180910390fd5b8060050160149054906101000a900460ff16611cad576040517f157bd4c300000000000000000000000000000000000000000000000000000000815260040160405180910390fd5b60008160020160109054906101000a900467ffffffffffffffff1667ffffffffffffffff1614611d09576040517f905e710700000000000000000000000000000000000000000000000000000000815260040160405180910390fd5b611d11612050565b8160020160106101000a81548167ffffffffffffffff021916908367ffffffffffffffff160217905550806040518061014001604052908160008201548152602001600182015481526020016002820160009054906101000a900467ffffffffffffffff1667ffffffffffffffff1667ffffffffffffffff1681526020016002820160089054906101000a900467ffffffffffffffff1667ffffffffffffffff1667ffffffffffffffff1681526020016002820160109054906101000a900467ffffffffffffffff1667ffffffffffffffff1667ffffffffffffffff168152602001600382015481526020016004820160009054906101000a900473ffffffffffffffffffffffffffffffffffffffff1673ffffffffffffffffffffffffffffffffffffffff1673ffffffffffffffffffffffffffffffffffffffff1681526020016005820160009054906101000a900473ffffffffffffffffffffffffffffffffffffffff1673ffffffffffffffffffffffffffffffffffffffff1673ffffffffffffffffffffffffffffffffffffffff1681526020016005820160149054906101000a900460ff16151515158152602001600682018054611ed390614fdb565b80601f0160208091040260200160405190810160405280929190818152602001828054611eff90614fdb565b8015611f4c5780601f10611f2157610100808354040283529160200191611f4c565b820191906000526020600020905b815481529060010190602001808311611f2f57829003601f168201915b505050505081525050858481518110611f6857611f67614ae8565b5b60200260200101819052508160200151848481518110611f8b57611f8a614ae8565b5b6020026020010181815250508c8b73ffffffffffffffffffffffffffffffffffffffff16868581518110611fc257611fc1614ae8565b5b602002602001015160c0015173ffffffffffffffffffffffffffffffffffffffff167ff930a6e2523c9cc298691873087a740550b8fc85a0680830414c148ed927f61585600001516040516120179190613f97565b60405180910390a4505061202a8161197e565b9050611b1d565b5061204184838360018b8b612ee1565b94505050505095945050505050565b600042905090565b6000600660008573ffffffffffffffffffffffffffffffffffffffff1673ffffffffffffffffffffffffffffffffffffffff1681526020019081526020016000209050600081600085815260200190815260200160002060009054906101000a900467ffffffffffffffff1667ffffffffffffffff1614612105576040517fec9d6eeb00000000000000000000000000000000000000000000000000000000815260040160405180910390fd5b8181600085815260200190815260200160002060006101000a81548167ffffffffffffffff021916908367ffffffffffffffff1602179055508167ffffffffffffffff16838573ffffffffffffffffffffffffffffffffffffffff167f92a1f7a41a7c585a8b09e25b195e225b1d43248daca46b0faf9e0792777a222960405160405180910390a450505050565b600067ffffffffffffffff16816080015167ffffffffffffffff16141580156121da57506121bf612050565b67ffffffffffffffff16816080015167ffffffffffffffff16105b15612211576040517f1ab7da6b00000000000000000000000000000000000000000000000000000000815260040160405180910390fd5b600081602001519050600082604001519050600061230d7ffeb2925a02bae3dae48d424a0437a2b6ac939aa9230ddc55a1a76f065d98807660001b8560600151866000015186600001518760200151886040015189606001518a60800151805190602001208b60a00151600360008f6060015173ffffffffffffffffffffffffffffffffffffffff1673ffffffffffffffffffffffffffffffffffffffff16815260200190815260200160002060008154809291906122cf90615742565b919050558e608001516040516020016122f29b9a99989796959493929190615a73565b60405160208183030381529060405280519060200120612e37565b905061234d84606001518284602001518560400151866000015160405160200161233993929190615850565b604051602081830303815290604052612e51565b612383576040517f8baa579f00000000000000000000000000000000000000000000000000000000815260040160405180910390fd5b50505050565b612391613e9e565b60008551905061239f613e9e565b8167ffffffffffffffff8111156123b9576123b8614b53565b5b6040519080825280602002602001820160405280156123e75781602001602082028036833780820191505090505b50816020018190525060007f000000000000000000000000000000000000000000000000000000000000000073ffffffffffffffffffffffffffffffffffffffff1663a2ea7c6e8a6040518263ffffffff1660e01b815260040161244b9190613f97565b600060405180830381865afa158015612468573d6000803e3d6000fd5b505050506040513d6000823e3d601f19601f820116820180604052508101906124919190615a2a565b90506000801b8160000151036124d3576040517fbf37b20e00000000000000000000000000000000000000000000000000000000815260040160405180910390fd5b60008367ffffffffffffffff8111156124ef576124ee614b53565b5b60405190808252806020026020018201604052801561252857816020015b612515613df6565b81526020019060019003908161250d5790505b50905060008467ffffffffffffffff81111561254757612546614b53565b5b6040519080825280602002602001820160405280156125755781602001602082028036833780820191505090505b50905060005b85811015612a305760008b828151811061259857612597614ae8565b5b60200260200101519050600067ffffffffffffffff16816020015167ffffffffffffffff16141580156125ea57506125ce612050565b67ffffffffffffffff16816020015167ffffffffffffffff1611155b15612621576040517f08e8b93700000000000000000000000000000000000000000000000000000000815260040160405180910390fd5b8460400151158015612634575080604001515b1561266b576040517f157bd4c300000000000000000000000000000000000000000000000000000000815260040160405180910390fd5b60006040518061014001604052806000801b81526020018f8152602001612690612050565b67ffffffffffffffff168152602001836020015167ffffffffffffffff168152602001600067ffffffffffffffff16815260200183606001518152602001836000015173ffffffffffffffffffffffffffffffffffffffff1681526020018d73ffffffffffffffffffffffffffffffffffffffff16815260200183604001511515815260200183608001518152509050600080600090505b6001156127675761273983826132d6565b91506000801b6004600084815260200190815260200160002060000154031561276757806001019050612728565b818360000181815250508260046000848152602001908152602001600020600082015181600001556020820151816001015560408201518160020160006101000a81548167ffffffffffffffff021916908367ffffffffffffffff16021790555060608201518160020160086101000a81548167ffffffffffffffff021916908367ffffffffffffffff16021790555060808201518160020160106101000a81548167ffffffffffffffff021916908367ffffffffffffffff16021790555060a0820151816003015560c08201518160040160006101000a81548173ffffffffffffffffffffffffffffffffffffffff021916908373ffffffffffffffffffffffffffffffffffffffff16021790555060e08201518160050160006101000a81548173ffffffffffffffffffffffffffffffffffffffff021916908373ffffffffffffffffffffffffffffffffffffffff1602179055506101008201518160050160146101000a81548160ff0219169083151502179055506101208201518160060190816128f59190615cc0565b509050506000801b84606001511461294b576129148460600151611620565b61294a576040517fc5723b5100000000000000000000000000000000000000000000000000000000815260040160405180910390fd5b5b8287868151811061295f5761295e614ae8565b5b60200260200101819052508360a0015186868151811061298257612981614ae8565b5b60200260200101818152505081896020015186815181106129a6576129a5614ae8565b5b6020026020010181815250508f8e73ffffffffffffffffffffffffffffffffffffffff16856000015173ffffffffffffffffffffffffffffffffffffffff167f8bf46bf4cfd674fa735a3d63ec1c9ad4153f033c290341f3a588b75685141b3585604051612a149190613f97565b60405180910390a450505050612a298161197e565b905061257b565b50612a4083838360008c8c612ee1565b846000018181525050839550505050505095945050505050565b606060008267ffffffffffffffff811115612a7857612a77614b53565b5b604051908082528060200260200182016040528015612aa65781602001602082028036833780820191505090505b5090506000808551905060005b81811015612b4e576000878281518110612ad057612acf614ae8565b5b6020026020010151905060008151905060005b81811015612b3b57828181518110612afe57612afd614ae8565b5b6020026020010151878781518110612b1957612b18614ae8565b5b602002602001018181525050856001019550612b348161197e565b9050612ae3565b505050612b478161197e565b9050612ab3565b5082935050505092915050565b60006005600084815260200190815260200160002060009054906101000a900467ffffffffffffffff1667ffffffffffffffff1614612bc6576040517f2e26794600000000000000000000000000000000000000000000000000000000815260040160405180910390fd5b806005600084815260200190815260200160002060006101000a81548167ffffffffffffffff021916908367ffffffffffffffff1602179055508067ffffffffffffffff16827f5aafceeb1c7ad58e4a84898bdee37c02c0fc46e7d24e6b60e8209449f183459f60405160405180910390a35050565b606060006001612c4b84613339565b01905060008167ffffffffffffffff811115612c6a57612c69614b53565b5b6040519080825280601f01601f191660200182016040528015612c9c5781602001600182028036833780820191505090505b509050600082602001820190505b600115612cff578080600190039150507f3031323334353637383961626364656600000000000000000000000000000000600a86061a8153600a8581612cf357612cf2615d92565b5b04945060008503612caa575b819350505050919050565b6060612d4060007f000000000000000000000000000000000000000000000000000000000000000061348c90919063ffffffff16565b905090565b6060612d7b60017f000000000000000000000000000000000000000000000000000000000000000061348c90919063ffffffff16565b905090565b60007f000000000000000000000000000000000000000000000000000000000000000073ffffffffffffffffffffffffffffffffffffffff163073ffffffffffffffffffffffffffffffffffffffff16148015612dfc57507f000000000000000000000000000000000000000000000000000000000000000046145b15612e29577f00000000000000000000000000000000000000000000000000000000000000009050612e34565b612e3161353c565b90505b90565b6000612e4a612e44612d80565b836135d2565b9050919050565b6000806000612e608585613613565b509150915060006003811115612e7957612e78615dc1565b5b816003811115612e8c57612e8b615dc1565b5b148015612ec457508573ffffffffffffffffffffffffffffffffffffffff168273ffffffffffffffffffffffffffffffffffffffff16145b80612ed65750612ed586868661366f565b5b925050509392505050565b6000808651905060018103612f3c57612f348888600081518110612f0857612f07614ae8565b5b602002602001015188600081518110612f2457612f23614ae8565b5b6020026020010151888888613793565b9150506132cc565b600088602001519050600073ffffffffffffffffffffffffffffffffffffffff168173ffffffffffffffffffffffffffffffffffffffff16036130045760005b82811015612fe8576000888281518110612f9957612f98614ae8565b5b602002602001015114612fd8576040517f1574f9f300000000000000000000000000000000000000000000000000000000815260040160405180910390fd5b612fe18161197e565b9050612f7c565b508315612ff957612ff885613aa3565b5b6000925050506132cc565b6000808273ffffffffffffffffffffffffffffffffffffffff1663ce46e0466040518163ffffffff1660e01b8152600401602060405180830381865afa158015613052573d6000803e3d6000fd5b505050506040513d601f19601f820116820180604052508101906130769190615df0565b905060005b8481101561313d5760008a828151811061309857613097614ae8565b5b60200260200101519050600081036130b0575061312d565b826130e7576040517f1574f9f300000000000000000000000000000000000000000000000000000000815260040160405180910390fd5b88811115613121576040517f1101129400000000000000000000000000000000000000000000000000000000815260040160405180910390fd5b80890398508084019350505b6131368161197e565b905061307b565b5087156131fe578273ffffffffffffffffffffffffffffffffffffffff166388e5b2d9838c8c6040518463ffffffff1660e01b8152600401613180929190615fb9565b60206040518083038185885af115801561319e573d6000803e3d6000fd5b50505050506040513d601f19601f820116820180604052508101906131c39190615df0565b6131f9576040517fbf2f3a8b00000000000000000000000000000000000000000000000000000000815260040160405180910390fd5b6132b4565b8273ffffffffffffffffffffffffffffffffffffffff166391db0b7e838c8c6040518463ffffffff1660e01b815260040161323a929190615fb9565b60206040518083038185885af1158015613258573d6000803e3d6000fd5b50505050506040513d601f19601f8201168201806040525081019061327d9190615df0565b6132b3576040517fe8bee83900000000000000000000000000000000000000000000000000000000815260040160405180910390fd5b5b85156132c4576132c387613aa3565b5b819450505050505b9695505050505050565b600082602001518360c001518460e00151856040015186606001518761010001518860a001518961012001518960405160200161331b99989796959493929190616119565b60405160208183030381529060405280519060200120905092915050565b600080600090507a184f03e93ff9f4daa797ed6e38ed64bf6a1f0100000000000000008310613397577a184f03e93ff9f4daa797ed6e38ed64bf6a1f010000000000000000838161338d5761338c615d92565b5b0492506040810190505b6d04ee2d6d415b85acef810000000083106133d4576d04ee2d6d415b85acef810000000083816133ca576133c9615d92565b5b0492506020810190505b662386f26fc10000831061340357662386f26fc1000083816133f9576133f8615d92565b5b0492506010810190505b6305f5e100831061342c576305f5e100838161342257613421615d92565b5b0492506008810190505b612710831061345157612710838161344757613446615d92565b5b0492506004810190505b60648310613474576064838161346a57613469615d92565b5b0492506002810190505b600a8310613483576001810190505b80915050919050565b606060ff60001b83146134a9576134a283613ad9565b9050613536565b8180546134b590614fdb565b80601f01602080910402602001604051908101604052809291908181526020018280546134e190614fdb565b801561352e5780601f106135035761010080835404028352916020019161352e565b820191906000526020600020905b81548152906001019060200180831161351157829003601f168201915b505050505090505b92915050565b60007f8b73c3c69bb8fe3d512ecc4cf759cc79239f7b179b0ffacaa9a75d522b39400f7f00000000000000000000000000000000000000000000000000000000000000007f000000000000000000000000000000000000000000000000000000000000000046306040516020016135b79594939291906161b8565b60405160208183030381529060405280519060200120905090565b60006040517f190100000000000000000000000000000000000000000000000000000000000081528360028201528260228201526042812091505092915050565b600080600060418451036136585760008060006020870151925060408701519150606087015160001a905061364a88828585613b4d565b955095509550505050613668565b60006002855160001b9250925092505b9250925092565b60008060008573ffffffffffffffffffffffffffffffffffffffff16858560405160240161369e929190616255565b604051602081830303815290604052631626ba7e60e01b6020820180517bffffffffffffffffffffffffffffffffffffffffffffffffffffffff83818316178352505050506040516136f09190616285565b600060405180830381855afa9150503d806000811461372b576040519150601f19603f3d011682016040523d82523d6000602084013e613730565b606091505b509150915081801561374457506020815110155b80156137885750631626ba7e60e01b7bffffffffffffffffffffffffffffffffffffffffffffffffffffffff191681806020019051810190613786919061629c565b145b925050509392505050565b60008087602001519050600073ffffffffffffffffffffffffffffffffffffffff168173ffffffffffffffffffffffffffffffffffffffff1603613825576000861461380b576040517f1574f9f300000000000000000000000000000000000000000000000000000000815260040160405180910390fd5b821561381b5761381a84613aa3565b5b6000915050613a99565b60008614613912578073ffffffffffffffffffffffffffffffffffffffff1663ce46e0466040518163ffffffff1660e01b8152600401602060405180830381865afa158015613878573d6000803e3d6000fd5b505050506040513d601f19601f8201168201806040525081019061389c9190615df0565b6138d2576040517f1574f9f300000000000000000000000000000000000000000000000000000000815260040160405180910390fd5b8386111561390c576040517f1101129400000000000000000000000000000000000000000000000000000000815260040160405180910390fd5b85840393505b84156139d0578073ffffffffffffffffffffffffffffffffffffffff1663e49617e187896040518363ffffffff1660e01b8152600401613952919061492c565b60206040518083038185885af1158015613970573d6000803e3d6000fd5b50505050506040513d601f19601f820116820180604052508101906139959190615df0565b6139cb576040517fccf3bb2700000000000000000000000000000000000000000000000000000000815260040160405180910390fd5b613a84565b8073ffffffffffffffffffffffffffffffffffffffff1663e60c350587896040518363ffffffff1660e01b8152600401613a0a919061492c565b60206040518083038185885af1158015613a28573d6000803e3d6000fd5b50505050506040513d601f19601f82011682018060405250810190613a4d9190615df0565b613a83576040517fbd8ba84d00000000000000000000000000000000000000000000000000000000815260040160405180910390fd5b5b8215613a9457613a9384613aa3565b5b859150505b9695505050505050565b6000811115613ad657613ad5813373ffffffffffffffffffffffffffffffffffffffff16613c4190919063ffffffff16565b5b50565b60606000613ae683613d2e565b90506000602067ffffffffffffffff811115613b0557613b04614b53565b5b6040519080825280601f01601f191660200182016040528015613b375781602001600182028036833780820191505090505b5090508181528360208201528092505050919050565b60008060007f7fffffffffffffffffffffffffffffff5d576e7357a4501ddfe92f46681b20a08460001c1115613b8d576000600385925092509250613c37565b600060018888888860405160008152602001604052604051613bb294939291906162d8565b6020604051602081039080840390855afa158015613bd4573d6000803e3d6000fd5b505050602060405103519050600073ffffffffffffffffffffffffffffffffffffffff168173ffffffffffffffffffffffffffffffffffffffff1603613c2857600060016000801b93509350935050613c37565b8060008060001b935093509350505b9450945094915050565b80471015613c8657306040517fcd786059000000000000000000000000000000000000000000000000000000008152600401613c7d919061631d565b60405180910390fd5b60008273ffffffffffffffffffffffffffffffffffffffff1682604051613cac9061635e565b60006040518083038185875af1925050503d8060008114613ce9576040519150601f19603f3d011682016040523d82523d6000602084013e613cee565b606091505b5050905080613d29576040517f1425ea4200000000000000000000000000000000000000000000000000000000815260040160405180910390fd5b505050565b60008060ff8360001c169050601f811115613d75576040517fb3512b0c00000000000000000000000000000000000000000000000000000000815260040160405180910390fd5b80915050919050565b6040518060c00160405280600073ffffffffffffffffffffffffffffffffffffffff168152602001600067ffffffffffffffff1681526020016000151581526020016000801916815260200160608152602001600081525090565b604051806040016040528060008019168152602001600081525090565b6040518061014001604052806000801916815260200160008019168152602001600067ffffffffffffffff168152602001600067ffffffffffffffff168152602001600067ffffffffffffffff16815260200160008019168152602001600073ffffffffffffffffffffffffffffffffffffffff168152602001600073ffffffffffffffffffffffffffffffffffffffff168152602001600015158152602001606081525090565b604051806040016040528060008152602001606081525090565b6000604051905090565b600080fd5b600080fd5b600080fd5b600080fd5b600080fd5b60008083601f840112613ef157613ef0613ecc565b5b8235905067ffffffffffffffff811115613f0e57613f0d613ed1565b5b602083019150836020820283011115613f2a57613f29613ed6565b5b9250929050565b60008060208385031215613f4857613f47613ec2565b5b600083013567ffffffffffffffff811115613f6657613f65613ec7565b5b613f7285828601613edb565b92509250509250929050565b6000819050919050565b613f9181613f7e565b82525050565b6000602082019050613fac6000830184613f88565b92915050565b60008083601f840112613fc857613fc7613ecc565b5b8235905067ffffffffffffffff811115613fe557613fe4613ed1565b5b60208301915083602082028301111561400157614000613ed6565b5b9250929050565b6000806020838503121561401f5761401e613ec2565b5b600083013567ffffffffffffffff81111561403d5761403c613ec7565b5b61404985828601613fb2565b92509250509250929050565b600067ffffffffffffffff82169050919050565b61407281614055565b82525050565b600060208201905061408d6000830184614069565b92915050565b600081519050919050565b600082825260208201905092915050565b60005b838110156140cd5780820151818401526020810190506140b2565b60008484015250505050565b6000601f19601f8301169050919050565b60006140f582614093565b6140ff818561409e565b935061410f8185602086016140af565b614118816140d9565b840191505092915050565b6000602082019050818103600083015261413d81846140ea565b905092915050565b600073ffffffffffffffffffffffffffffffffffffffff82169050919050565b600061417082614145565b9050919050565b61418081614165565b811461418b57600080fd5b50565b60008135905061419d81614177565b92915050565b6000602082840312156141b9576141b8613ec2565b5b60006141c78482850161418e565b91505092915050565b6000819050919050565b6141e3816141d0565b82525050565b60006020820190506141fe60008301846141da565b92915050565b600080fd5b600060e0828403121561421f5761421e614204565b5b81905092915050565b60006020828403121561423e5761423d613ec2565b5b600082013567ffffffffffffffff81111561425c5761425b613ec7565b5b61426884828501614209565b91505092915050565b60008083601f84011261428757614286613ecc565b5b8235905067ffffffffffffffff8111156142a4576142a3613ed1565b5b6020830191508360208202830111156142c0576142bf613ed6565b5b9250929050565b600080602083850312156142de576142dd613ec2565b5b600083013567ffffffffffffffff8111156142fc576142fb613ec7565b5b61430885828601614271565b92509250509250929050565b600081519050919050565b600082825260208201905092915050565b6000819050602082019050919050565b61434981613f7e565b82525050565b600061435b8383614340565b60208301905092915050565b6000602082019050919050565b600061437f82614314565b614389818561431f565b935061439483614330565b8060005b838110156143c55781516143ac888261434f565b97506143b783614367565b925050600181019050614398565b5085935050505092915050565b600060208201905081810360008301526143ec8184614374565b905092915050565b60006060828403121561440a57614409614204565b5b81905092915050565b60006060828403121561442957614428613ec2565b5b6000614437848285016143f4565b91505092915050565b60008083601f84011261445657614455613ecc565b5b8235905067ffffffffffffffff81111561447357614472613ed1565b5b60208301915083602082028301111561448f5761448e613ed6565b5b9250929050565b600080602083850312156144ad576144ac613ec2565b5b600083013567ffffffffffffffff8111156144cb576144ca613ec7565b5b6144d785828601614440565b92509250509250929050565b6144ec81613f7e565b81146144f757600080fd5b50565b600081359050614509816144e3565b92915050565b60006020828403121561452557614524613ec2565b5b6000614533848285016144fa565b91505092915050565b614545816141d0565b811461455057600080fd5b50565b6000813590506145628161453c565b92915050565b60006020828403121561457e5761457d613ec2565b5b600061458c84828501614553565b91505092915050565b60007fff0000000000000000000000000000000000000000000000000000000000000082169050919050565b6145ca81614595565b82525050565b6145d981614165565b82525050565b600081519050919050565b600082825260208201905092915050565b6000819050602082019050919050565b614614816141d0565b82525050565b6000614626838361460b565b60208301905092915050565b6000602082019050919050565b600061464a826145df565b61465481856145ea565b935061465f836145fb565b8060005b83811015614690578151614677888261461a565b975061468283614632565b925050600181019050614663565b5085935050505092915050565b600060e0820190506146b2600083018a6145c1565b81810360208301526146c481896140ea565b905081810360408301526146d881886140ea565b90506146e760608301876141da565b6146f460808301866145d0565b61470160a0830185613f88565b81810360c0830152614713818461463f565b905098975050505050505050565b60008083601f84011261473757614736613ecc565b5b8235905067ffffffffffffffff81111561475457614753613ed1565b5b6020830191508360208202830111156147705761476f613ed6565b5b9250929050565b6000806020838503121561478e5761478d613ec2565b5b600083013567ffffffffffffffff8111156147ac576147ab613ec7565b5b6147b885828601614721565b92509250509250929050565b6147cd81614055565b82525050565b6147dc81614165565b82525050565b60008115159050919050565b6147f7816147e2565b82525050565b600081519050919050565b600082825260208201905092915050565b6000614824826147fd565b61482e8185614808565b935061483e8185602086016140af565b614847816140d9565b840191505092915050565b60006101408301600083015161486b6000860182614340565b50602083015161487e6020860182614340565b50604083015161489160408601826147c4565b5060608301516148a460608601826147c4565b5060808301516148b760808601826147c4565b5060a08301516148ca60a0860182614340565b5060c08301516148dd60c08601826147d3565b5060e08301516148f060e08601826147d3565b506101008301516149056101008601826147ee565b5061012083015184820361012086015261491f8282614819565b9150508091505092915050565b600060208201905081810360008301526149468184614852565b905092915050565b6000610100828403121561496557614964614204565b5b81905092915050565b6000610100828403121561498557614984613ec2565b5b60006149938482850161494e565b91505092915050565b600080604083850312156149b3576149b2613ec2565b5b60006149c18582860161418e565b92505060206149d2858286016144fa565b9150509250929050565b6149e5816147e2565b82525050565b6000602082019050614a0060008301846149dc565b92915050565b6000819050919050565b6000614a2b614a26614a2184614145565b614a06565b614145565b9050919050565b6000614a3d82614a10565b9050919050565b6000614a4f82614a32565b9050919050565b614a5f81614a44565b82525050565b6000602082019050614a7a6000830184614a56565b92915050565b600060408284031215614a9657614a95614204565b5b81905092915050565b600060208284031215614ab557614ab4613ec2565b5b600082013567ffffffffffffffff811115614ad357614ad2613ec7565b5b614adf84828501614a80565b91505092915050565b7f4e487b7100000000000000000000000000000000000000000000000000000000600052603260045260246000fd5b600080fd5b600080fd5b600080fd5b60008235600160a003833603038112614b4257614b41614b17565b5b80830191505092915050565b600080fd5b7f4e487b7100000000000000000000000000000000000000000000000000000000600052604160045260246000fd5b614b8b826140d9565b810181811067ffffffffffffffff82111715614baa57614ba9614b53565b5b80604052505050565b6000614bbd613eb8565b9050614bc98282614b82565b919050565b600080fd5b600067ffffffffffffffff821115614bee57614bed614b53565b5b602082029050602081019050919050565b600060408284031215614c1557614c14614b4e565b5b614c1f6040614bb3565b90506000614c2f848285016144fa565b6000830152506020614c4384828501614553565b60208301525092915050565b6000614c62614c5d84614bd3565b614bb3565b90508083825260208201905060408402830185811115614c8557614c84613ed6565b5b835b81811015614cae5780614c9a8882614bff565b845260208401935050604081019050614c87565b5050509392505050565b600082601f830112614ccd57614ccc613ecc565b5b8135614cdd848260208601614c4f565b91505092915050565b600067ffffffffffffffff821115614d0157614d00614b53565b5b602082029050602081019050919050565b600060ff82169050919050565b614d2881614d12565b8114614d3357600080fd5b50565b600081359050614d4581614d1f565b92915050565b600060608284031215614d6157614d60614b4e565b5b614d6b6060614bb3565b90506000614d7b84828501614d36565b6000830152506020614d8f848285016144fa565b6020830152506040614da3848285016144fa565b60408301525092915050565b6000614dc2614dbd84614ce6565b614bb3565b90508083825260208201905060608402830185811115614de557614de4613ed6565b5b835b81811015614e0e5780614dfa8882614d4b565b845260208401935050606081019050614de7565b5050509392505050565b600082601f830112614e2d57614e2c613ecc565b5b8135614e3d848260208601614daf565b91505092915050565b614e4f81614055565b8114614e5a57600080fd5b50565b600081359050614e6c81614e46565b92915050565b600060a08284031215614e8857614e87614b4e565b5b614e9260a0614bb3565b90506000614ea2848285016144fa565b600083015250602082013567ffffffffffffffff811115614ec657614ec5614bce565b5b614ed284828501614cb8565b602083015250604082013567ffffffffffffffff811115614ef657614ef5614bce565b5b614f0284828501614e18565b6040830152506060614f168482850161418e565b6060830152506080614f2a84828501614e5d565b60808301525092915050565b6000614f423683614e72565b9050919050565b7f4e487b7100000000000000000000000000000000000000000000000000000000600052601160045260246000fd5b6000614f83826141d0565b9150614f8e836141d0565b9250828203905081811115614fa657614fa5614f49565b5b92915050565b7f4e487b7100000000000000000000000000000000000000000000000000000000600052602260045260246000fd5b60006002820490506001821680614ff357607f821691505b60208210810361500657615005614fac565b5b50919050565b615015816147e2565b811461502057600080fd5b50565b6000813590506150328161500c565b92915050565b600080fd5b600067ffffffffffffffff82111561505857615057614b53565b5b615061826140d9565b9050602081019050919050565b82818337600083830152505050565b600061509061508b8461503d565b614bb3565b9050828152602081018484840111156150ac576150ab615038565b5b6150b784828561506e565b509392505050565b600082601f8301126150d4576150d3613ecc565b5b81356150e484826020860161507d565b91505092915050565b600060c0828403121561510357615102614b4e565b5b61510d60c0614bb3565b9050600061511d8482850161418e565b600083015250602061513184828501614e5d565b602083015250604061514584828501615023565b6040830152506060615159848285016144fa565b606083015250608082013567ffffffffffffffff81111561517d5761517c614bce565b5b615189848285016150bf565b60808301525060a061519d84828501614553565b60a08301525092915050565b600060e082840312156151bf576151be614b4e565b5b6151c960a0614bb3565b905060006151d9848285016144fa565b600083015250602082013567ffffffffffffffff8111156151fd576151fc614bce565b5b615209848285016150ed565b602083015250604061521d84828501614d4b565b60408301525060a06152318482850161418e565b60608301525060c061524584828501614e5d565b60808301525092915050565b600061525d36836151a9565b9050919050565b60008235600160c0038336030381126152805761527f614b17565b5b80830191505092915050565b600061529836836150ed565b9050919050565b6000823560016040038336030381126152bb576152ba614b17565b5b80830191505092915050565b600080833560016020038436030381126152e4576152e3614b17565b5b80840192508235915067ffffffffffffffff82111561530657615305614b1c565b5b60208301925060208202360383131561532257615321614b21565b5b509250929050565b600067ffffffffffffffff82111561534557615344614b53565b5b602082029050602081019050919050565b60006153696153648461532a565b614bb3565b9050808382526020820190506020840283018581111561538c5761538b613ed6565b5b835b818110156153d357803567ffffffffffffffff8111156153b1576153b0613ecc565b5b8086016153be89826150ed565b8552602085019450505060208101905061538e565b5050509392505050565b60006153ea368484615356565b905092915050565b60006040828403121561540857615407613ec2565b5b600061541684828501614bff565b91505092915050565b60008235600160400383360303811261543b5761543a614b17565b5b80830191505092915050565b6000808335600160200384360303811261546457615463614b17565b5b80840192508235915067ffffffffffffffff82111561548657615485614b1c565b5b6020830192506040820236038313156154a2576154a1614b21565b5b509250929050565b600081905092915050565b60006154c082614093565b6154ca81856154aa565b93506154da8185602086016140af565b80840191505092915050565b7f2e00000000000000000000000000000000000000000000000000000000000000600082015250565b600061551c6001836154aa565b9150615527826154e6565b600182019050919050565b600061553e82866154b5565b91506155498261550f565b915061555582856154b5565b91506155608261550f565b915061556c82846154b5565b9150819050949350505050565b600060408201905061558e60008301856141da565b61559b60208301846141da565b9392505050565b60008235600160a0038336030381126155be576155bd614b17565b5b80830191505092915050565b600080833560016020038436030381126155e7576155e6614b17565b5b80840192508235915067ffffffffffffffff82111561560957615608614b1c565b5b60208301925060608202360383131561562557615624614b21565b5b509250929050565b60006060828403121561564357615642613ec2565b5b600061565184828501614d4b565b91505092915050565b6000602082840312156156705761566f613ec2565b5b600061567e84828501614e5d565b91505092915050565b6000610100828403121561569e5761569d614b4e565b5b6156a860a0614bb3565b905060006156b8848285016144fa565b60008301525060206156cc84828501614bff565b60208301525060606156e084828501614d4b565b60408301525060c06156f48482850161418e565b60608301525060e061570884828501614e5d565b60808301525092915050565b6000610100828403121561572b5761572a613ec2565b5b600061573984828501615687565b91505092915050565b600061574d826141d0565b91507fffffffffffffffffffffffffffffffffffffffffffffffffffffffffffffffff820361577f5761577e614f49565b5b600182019050919050565b600060e08201905061579f600083018a613f88565b6157ac60208301896145d0565b6157b96040830188613f88565b6157c66060830187613f88565b6157d360808301866141da565b6157e060a08301856141da565b6157ed60c0830184614069565b98975050505050505050565b6000819050919050565b61581461580f82613f7e565b6157f9565b82525050565b60008160f81b9050919050565b60006158328261581a565b9050919050565b61584a61584582614d12565b615827565b82525050565b600061585c8286615803565b60208201915061586c8285615803565b60208201915061587c8284615839565b600182019150819050949350505050565b60008151905061589c816144e3565b92915050565b60006158ad82614165565b9050919050565b6158bd816158a2565b81146158c857600080fd5b50565b6000815190506158da816158b4565b92915050565b6000815190506158ef8161500c565b92915050565b600067ffffffffffffffff8211156159105761590f614b53565b5b615919826140d9565b9050602081019050919050565b6000615939615934846158f5565b614bb3565b90508281526020810184848401111561595557615954615038565b5b6159608482856140af565b509392505050565b600082601f83011261597d5761597c613ecc565b5b815161598d848260208601615926565b91505092915050565b6000608082840312156159ac576159ab614b4e565b5b6159b66080614bb3565b905060006159c68482850161588d565b60008301525060206159da848285016158cb565b60208301525060406159ee848285016158e0565b604083015250606082015167ffffffffffffffff811115615a1257615a11614bce565b5b615a1e84828501615968565b60608301525092915050565b600060208284031215615a4057615a3f613ec2565b5b600082015167ffffffffffffffff811115615a5e57615a5d613ec7565b5b615a6a84828501615996565b91505092915050565b600061016082019050615a89600083018e613f88565b615a96602083018d6145d0565b615aa3604083018c613f88565b615ab0606083018b6145d0565b615abd608083018a614069565b615aca60a08301896149dc565b615ad760c0830188613f88565b615ae460e0830187613f88565b615af26101008301866141da565b615b006101208301856141da565b615b0e610140830184614069565b9c9b505050505050505050505050565b60008190508160005260206000209050919050565b60006020601f8301049050919050565b600082821b905092915050565b600060088302615b807fffffffffffffffffffffffffffffffffffffffffffffffffffffffffffffffff82615b43565b615b8a8683615b43565b95508019841693508086168417925050509392505050565b6000615bbd615bb8615bb3846141d0565b614a06565b6141d0565b9050919050565b6000819050919050565b615bd783615ba2565b615beb615be382615bc4565b848454615b50565b825550505050565b600090565b615c00615bf3565b615c0b818484615bce565b505050565b5b81811015615c2f57615c24600082615bf8565b600181019050615c11565b5050565b601f821115615c7457615c4581615b1e565b615c4e84615b33565b81016020851015615c5d578190505b615c71615c6985615b33565b830182615c10565b50505b505050565b600082821c905092915050565b6000615c9760001984600802615c79565b1980831691505092915050565b6000615cb08383615c86565b9150826002028217905092915050565b615cc9826147fd565b67ffffffffffffffff811115615ce257615ce1614b53565b5b615cec8254614fdb565b615cf7828285615c33565b600060209050601f831160018114615d2a5760008415615d18578287015190505b615d228582615ca4565b865550615d8a565b601f198416615d3886615b1e565b60005b82811015615d6057848901518255600182019150602085019450602081019050615d3b565b86831015615d7d5784890151615d79601f891682615c86565b8355505b6001600288020188555050505b505050505050565b7f4e487b7100000000000000000000000000000000000000000000000000000000600052601260045260246000fd5b7f4e487b7100000000000000000000000000000000000000000000000000000000600052602160045260246000fd5b600060208284031215615e0657615e05613ec2565b5b6000615e14848285016158e0565b91505092915050565b600081519050919050565b600082825260208201905092915050565b6000819050602082019050919050565b600061014083016000830151615e626000860182614340565b506020830151615e756020860182614340565b506040830151615e8860408601826147c4565b506060830151615e9b60608601826147c4565b506080830151615eae60808601826147c4565b5060a0830151615ec160a0860182614340565b5060c0830151615ed460c08601826147d3565b5060e0830151615ee760e08601826147d3565b50610100830151615efc6101008601826147ee565b50610120830151848203610120860152615f168282614819565b9150508091505092915050565b6000615f2f8383615e49565b905092915050565b6000602082019050919050565b6000615f4f82615e1d565b615f598185615e28565b935083602082028501615f6b85615e39565b8060005b85811015615fa75784840389528151615f888582615f23565b9450615f9383615f37565b925060208a01995050600181019050615f6f565b50829750879550505050505092915050565b60006040820190508181036000830152615fd38185615f44565b90508181036020830152615fe7818461463f565b90509392505050565b60008160601b9050919050565b600061600882615ff0565b9050919050565b600061601a82615ffd565b9050919050565b61603261602d82614165565b61600f565b82525050565b60008160c01b9050919050565b600061605082616038565b9050919050565b61606861606382614055565b616045565b82525050565b600061607982615827565b9050919050565b61609161608c826147e2565b61606e565b82525050565b600081905092915050565b60006160ad826147fd565b6160b78185616097565b93506160c78185602086016140af565b80840191505092915050565b600063ffffffff82169050919050565b60008160e01b9050919050565b60006160fb826160e3565b9050919050565b61611361610e826160d3565b6160f0565b82525050565b6000616125828c615803565b602082019150616135828b616021565b601482019150616145828a616021565b6014820191506161558289616057565b6008820191506161658288616057565b6008820191506161758287616080565b6001820191506161858286615803565b60208201915061619582856160a2565b91506161a18284616102565b6004820191508190509a9950505050505050505050565b600060a0820190506161cd6000830188613f88565b6161da6020830187613f88565b6161e76040830186613f88565b6161f460608301856141da565b61620160808301846145d0565b9695505050505050565b600082825260208201905092915050565b6000616227826147fd565b616231818561620b565b93506162418185602086016140af565b61624a816140d9565b840191505092915050565b600060408201905061626a6000830185613f88565b818103602083015261627c818461621c565b90509392505050565b600061629182846160a2565b915081905092915050565b6000602082840312156162b2576162b1613ec2565b5b60006162c08482850161588d565b91505092915050565b6162d281614d12565b82525050565b60006080820190506162ed6000830187613f88565b6162fa60208301866162c9565b6163076040830185613f88565b6163146060830184613f88565b95945050505050565b600060208201905061633260008301846145d0565b92915050565b50565b6000616348600083616097565b915061635382616338565b600082019050919050565b60006163698261633b565b915081905091905056fea2646970667358221220526aec78b3cc23555b5482d5fc2014c86ff142f980ace8cd0fddbff6a203df3264736f6c634300081a0033",
  "linkReferences": {},
  "deployedLinkReferences": {}
}