{
  "_format": "hh-sol-artifact-1",
  "contractName": "Blake3",
  "sourceName": "@farcaster-attestation/farcaster-solidity/contracts/libraries/Blake3.sol",
  "abi": [
    {
      "inputs": [
        {
          "internalType": "bytes",
          "name": "message",
          "type": "bytes"
        },
        {
          "internalType": "uint32",
          "name": "length",
          "type": "uint32"
        }
      ],
      "name": "hash",
      "outputs": [
        {
          "internalType": "bytes",
          "name": "",
          "type": "bytes"
        }
      ],
      "stateMutability": "pure",
      "type": "function"
    }
  ],
  "bytecode": "0x612475610052600b82828239805160001a6073146045577f4e487b7100000000000000000000000000000000000000000000000000000000600052600060045260246000fd5b30600052607381538281f3fe73000000000000000000000000000000000000000030146080604052600436106100355760003560e01c8063227bb04d1461003a575b600080fd5b610054600480360381019061004f9190611d32565b61006a565b6040516100619190611e0d565b60405180910390f35b606060006100766100a4565b905061008281856100c9565b5061009b61008f826101df565b8463ffffffff16610246565b91505092915050565b6100ac611a24565b60006100b66102a2565b90506100c3816000610339565b91505090565b6100d1611a24565b60005b82518110156101d55761040063ffffffff166100f3856000015161038e565b0361015357600061010f61010a86600001516103b7565b610431565b9050600060018660000151602001516101289190611e72565b905061013586838361046f565b61014886602001518288608001516104c8565b866000018190525050505b6000610162856000015161038e565b61040063ffffffff166101759190611eb8565b905060006101958284875161018a9190611eb8565b63ffffffff1661056b565b905060006101af868586856101aa9190611eec565b610587565b90506101bf876000015182610678565b81846101cb9190611eec565b93505050506100d4565b8391505092915050565b60606000602067ffffffffffffffff8111156101fe576101fd611bcb565b5b6040519080825280601f01601f1916602001820160405280156102305781602001600182028036833780820191505090505b50905061023d838261084e565b80915050919050565b606082518267ffffffffffffffff161115610296576040517f08c379a000000000000000000000000000000000000000000000000000000000815260040161028d90611f7d565b60405180910390fd5b81835282905092915050565b6102aa611a6e565b604051806101000160405280636a09e66763ffffffff16815260200163bb67ae8563ffffffff168152602001633c6ef37263ffffffff16815260200163a54ff53a63ffffffff16815260200163510e527f63ffffffff168152602001639b05688c63ffffffff168152602001631f83d9ab63ffffffff168152602001635be0cd1963ffffffff16815250905090565b610341611a24565b610349611a91565b6040518060a00160405280610360866000876104c8565b8152602001858152602001828152602001600060ff1681526020018463ffffffff1681525091505092915050565b60008160600151826080015160406103a69190611f9d565b6103b09190611eec565b9050919050565b6103bf611abf565b6103c7611b0a565b6103d58360400151826108de565b6040518060a0016040528084600001518152602001828152602001846020015167ffffffffffffffff168152602001846060015181526020016002610419866109a4565b8660a00151171763ffffffff16815250915050919050565b610439611a6e565b600061045c836000015184602001518560400151866060015187608001516109c4565b905061046781610de1565b915050919050565b5b60006001821667ffffffffffffffff16036104b9576104a161049184610e54565b8385602001518660800151610ea8565b915060018167ffffffffffffffff16901c9050610470565b6104c38383610ece565b505050565b6104d0611b2d565b6000604067ffffffffffffffff8111156104ed576104ec611bcb565b5b6040519080825280601f01601f19166020018201604052801561051f5781602001600182028036833780820191505090505b5090506040518060c001604052808681526020018567ffffffffffffffff16815260200182815260200160008152602001600081526020018463ffffffff168152509150509392505050565b60008183101561057d57829050610581565b8190505b92915050565b6060600083836105979190611eb8565b905060008167ffffffffffffffff8111156105b5576105b4611bcb565b5b6040519080825280601f01601f1916602001820160405280156105e75781602001600182028036833780820191505090505b50905060005b8281101561066b578681876106029190611eec565b8151811061061357610612611fdf565b5b602001015160f81c60f81b82828151811061063157610630611fdf565b5b60200101907effffffffffffffffffffffffffffffffffffffffffffffffffffffffffffff1916908160001a9053508060010190506105ed565b5080925050509392505050565b60005b815181101561084957604083606001510361075757610698611b0a565b6106a68460400151826108de565b6106d26106cd856000015183876020015160406106c28a6109a4565b8a60a00151176109c4565b610de1565b84600001819052506001846080018181516106ed9190611eec565b91508181525050604067ffffffffffffffff81111561070f5761070e611bcb565b5b6040519080825280601f01601f1916602001820160405280156107415781602001600182028036833780820191505090505b5084604001819052506000846060018181525050505b60008360600151604061076a9190611eb8565b905060006107848284865161077f9190611eb8565b61056b565b905060005b8181101561081a5784818561079e9190611eec565b815181106107af576107ae611fdf565b5b602001015160f81c60f81b86604001518760600151836107cf9190611eec565b815181106107e0576107df611fdf565b5b60200101907effffffffffffffffffffffffffffffffffffffffffffffffffffffffffffff1916908160001a905350806001019050610789565b50808560600181815161082d9190611eec565b9150818152505080836108409190611eec565b9250505061067b565b505050565b600061085d83600001516103b7565b90506000836060015160ff1690505b60008163ffffffff1611156108ce57600181610888919061200e565b90506108c784604001518263ffffffff16603681106108aa576108a9611fdf565b5b60200201516108b884610431565b86602001518760800151610f1b565b915061086c565b6108d88284611036565b50505050565b60408251111580156108fd57506000600483516108fb9190612075565b145b61093c576040517f08c379a000000000000000000000000000000000000000000000000000000000815260040161093390612118565b60405180910390fd5b60005b6004835161094d9190612138565b81101561099f5761096a836004836109659190611f9d565b6110b4565b82826010811061097d5761097c611fdf565b5b602002019063ffffffff16908163ffffffff168152505080600101905061093f565b505050565b6000808260800151036109ba57600190506109bf565b600090505b919050565b6109cc611b0a565b60006109d66102a2565b90506109e0611b0a565b60005b6010811015610a39578781601081106109ff576109fe611fdf565b5b6020020151828260108110610a1757610a16611fdf565b5b602002019063ffffffff16908163ffffffff16815250508060010190506109e3565b5060006040518061020001604052808a600060088110610a5c57610a5b611fdf565b5b602002015163ffffffff1663ffffffff1681526020018a600160088110610a8657610a85611fdf565b5b602002015163ffffffff1663ffffffff1681526020018a600260088110610ab057610aaf611fdf565b5b602002015163ffffffff1663ffffffff1681526020018a600360088110610ada57610ad9611fdf565b5b602002015163ffffffff1663ffffffff1681526020018a600460088110610b0457610b03611fdf565b5b602002015163ffffffff1663ffffffff1681526020018a600560088110610b2e57610b2d611fdf565b5b602002015163ffffffff1663ffffffff1681526020018a600660088110610b5857610b57611fdf565b5b602002015163ffffffff1663ffffffff1681526020018a600760088110610b8257610b81611fdf565b5b602002015163ffffffff1663ffffffff16815260200184600060088110610bac57610bab611fdf565b5b602002015163ffffffff1663ffffffff16815260200184600160088110610bd657610bd5611fdf565b5b602002015163ffffffff1663ffffffff16815260200184600260088110610c0057610bff611fdf565b5b602002015163ffffffff1663ffffffff16815260200184600360088110610c2a57610c29611fdf565b5b602002015163ffffffff1663ffffffff1681526020018863ffffffff1663ffffffff16815260200160208967ffffffffffffffff16901c63ffffffff1663ffffffff1681526020018763ffffffff1663ffffffff1681526020018663ffffffff1663ffffffff168152509050610ca081836111c2565b610ca9826113de565b610cb381836111c2565b610cbc826113de565b610cc681836111c2565b610ccf826113de565b610cd981836111c2565b610ce2826113de565b610cec81836111c2565b610cf5826113de565b610cff81836111c2565b610d08826113de565b610d1281836111c2565b60005b6008811015610dd15781600882610d2c9190611eec565b60108110610d3d57610d3c611fdf565b5b6020020151828260108110610d5557610d54611fdf565b5b602002018181511891509063ffffffff16908163ffffffff1681525050898160088110610d8557610d84611fdf565b5b602002015182600883610d989190611eec565b60108110610da957610da8611fdf565b5b602002018181511891509063ffffffff16908163ffffffff1681525050806001019050610d15565b5080935050505095945050505050565b610de9611a6e565b610df1611a6e565b60005b6008811015610e4a57838160108110610e1057610e0f611fdf565b5b6020020151828260088110610e2857610e27611fdf565b5b602002019063ffffffff16908163ffffffff1681525050806001019050610df4565b5080915050919050565b610e5c611a6e565b600182606001818151610e6f9190612176565b91509060ff16908160ff16815250508160400151826060015160ff1660368110610e9c57610e9b611fdf565b5b60200201519050919050565b610eb0611a6e565b610ec4610ebf86868686610f1b565b610431565b9050949350505050565b808260400151836060015160ff1660368110610eed57610eec611fdf565b5b6020020181905250600182606001818151610f0891906121ab565b91509060ff16908160ff16815250505050565b610f23611abf565b610f2b611b0a565b60005b6008811015610f8457868160088110610f4a57610f49611fdf565b5b6020020151828260108110610f6257610f61611fdf565b5b602002019063ffffffff16908163ffffffff1681525050806001019050610f2e565b506000600890505b6010811015610fee5785600882610fa39190611eb8565b60088110610fb457610fb3611fdf565b5b6020020151828260108110610fcc57610fcb611fdf565b5b602002019063ffffffff16908163ffffffff1681525050806001019050610f8c565b506040518060a00160405280858152602001828152602001600067ffffffffffffffff168152602001604081526020018460041763ffffffff16815250915050949350505050565b6000611059836000015184602001516000866060015160088860800151176109c4565b905060005b60088163ffffffff1610156110ae576110a1828263ffffffff166010811061108957611088611fdf565b5b60200201518460048461109c91906121e0565b6114c5565b808060010191505061105e565b50505050565b60006004826110c39190611eec565b83511015611106576040517f08c379a00000000000000000000000000000000000000000000000000000000081526004016110fd90612269565b60405180910390fd5b600080600090505b60048110156111b7578060086111249190611f9d565b85858360036111339190611eb8565b61113d9190611eec565b8151811061114e5761114d611fdf565b5b602001015160f81c60f81b7effffffffffffffffffffffffffffffffffffffffffffffffffffffffffffff19167bffffffffffffffffffffffffffffffffffffffffffffffffffffffff1916901c60e01c826111aa9190612289565b915080600101905061110e565b508091505092915050565b61120582600060046008600c866000601081106111e2576111e1611fdf565b5b6020020151876001601081106111fb576111fa611fdf565b5b6020020151611562565b61124882600160056009600d8660026010811061122557611224611fdf565b5b60200201518760036010811061123e5761123d611fdf565b5b6020020151611562565b61128b8260026006600a600e8660046010811061126857611267611fdf565b5b60200201518760056010811061128157611280611fdf565b5b6020020151611562565b6112ce8260036007600b600f866006601081106112ab576112aa611fdf565b5b6020020151876007601081106112c4576112c3611fdf565b5b6020020151611562565b6113118260006005600a600f866008601081106112ee576112ed611fdf565b5b60200201518760096010811061130757611306611fdf565b5b6020020151611562565b6113548260016006600b600c86600a6010811061133157611330611fdf565b5b602002015187600b6010811061134a57611349611fdf565b5b6020020151611562565b61139782600260076008600d86600c6010811061137457611373611fdf565b5b602002015187600d6010811061138d5761138c611fdf565b5b6020020151611562565b6113da82600360046009600e86600e601081106113b7576113b6611fdf565b5b602002015187600f601081106113d0576113cf611fdf565b5b6020020151611562565b5050565b60006113e86118ff565b90506113f2611b0a565b60005b6010811015611465578383826010811061141257611411611fdf565b5b602002015160ff166010811061142b5761142a611fdf565b5b602002015182826010811061144357611442611fdf565b5b602002019063ffffffff16908163ffffffff16815250508060010190506113f5565b5060005b60108110156114bf5781816010811061148557611484611fdf565b5b602002015184826010811061149d5761149c611fdf565b5b602002019063ffffffff16908163ffffffff1681525050806001019050611469565b50505050565b60005b600481101561155c576008816114de9190611f9d565b60026114ea91906123f4565b8463ffffffff166114fb9190612138565b60f81b83828463ffffffff166115119190611eec565b8151811061152257611521611fdf565b5b60200101907effffffffffffffffffffffffffffffffffffffffffffffffffffffffffffff1916908160001a9053508060010190506114c8565b50505050565b81878663ffffffff166010811061157c5761157b611fdf565b5b6020020151888863ffffffff166010811061159a57611599611fdf565b5b60200201510101878763ffffffff16601081106115ba576115b9611fdf565b5b602002019063ffffffff16908163ffffffff1681525050611618878763ffffffff16601081106115ed576115ec611fdf565b5b6020020151888563ffffffff166010811061160b5761160a611fdf565b5b60200201511860106119b6565b878463ffffffff166010811061163157611630611fdf565b5b602002019063ffffffff16908163ffffffff1681525050868363ffffffff166010811061166157611660611fdf565b5b6020020151878563ffffffff166010811061167f5761167e611fdf565b5b602002015101878563ffffffff166010811061169e5761169d611fdf565b5b602002019063ffffffff16908163ffffffff16815250506116fc878563ffffffff16601081106116d1576116d0611fdf565b5b6020020151888763ffffffff16601081106116ef576116ee611fdf565b5b602002015118600c6119b6565b878663ffffffff166010811061171557611714611fdf565b5b602002019063ffffffff16908163ffffffff168152505080878663ffffffff166010811061174657611745611fdf565b5b6020020151888863ffffffff166010811061176457611763611fdf565b5b60200201510101878763ffffffff166010811061178457611783611fdf565b5b602002019063ffffffff16908163ffffffff16815250506117e2878763ffffffff16601081106117b7576117b6611fdf565b5b6020020151888563ffffffff16601081106117d5576117d4611fdf565b5b60200201511860086119b6565b878463ffffffff16601081106117fb576117fa611fdf565b5b602002019063ffffffff16908163ffffffff1681525050868363ffffffff166010811061182b5761182a611fdf565b5b6020020151878563ffffffff166010811061184957611848611fdf565b5b602002015101878563ffffffff166010811061186857611867611fdf565b5b602002019063ffffffff16908163ffffffff16815250506118c6878563ffffffff166010811061189b5761189a611fdf565b5b6020020151888763ffffffff16601081106118b9576118b8611fdf565b5b60200201511860076119b6565b878663ffffffff16601081106118df576118de611fdf565b5b602002019063ffffffff16908163ffffffff168152505050505050505050565b611907611b79565b604051806102000160405280600260ff168152602001600660ff168152602001600360ff168152602001600a60ff168152602001600760ff168152602001600060ff168152602001600460ff168152602001600d60ff168152602001600160ff168152602001600b60ff168152602001600c60ff168152602001600560ff168152602001600960ff168152602001600e60ff168152602001600f60ff168152602001600860ff16815250905090565b6000808360e01b90508260206119cc9190612176565b60ff16817bffffffffffffffffffffffffffffffffffffffffffffffffffffffff1916901b8360ff16827bffffffffffffffffffffffffffffffffffffffffffffffffffffffff1916901c1760e01c91505092915050565b6040518060a00160405280611a37611b2d565b8152602001611a44611a6e565b8152602001611a51611a91565b8152602001600060ff168152602001600063ffffffff1681525090565b604051806101000160405280600890602082028036833780820191505090505090565b604051806106c001604052806036905b611aa9611a6e565b815260200190600190039081611aa15790505090565b6040518060a00160405280611ad2611a6e565b8152602001611adf611b0a565b8152602001600067ffffffffffffffff16815260200160008152602001600063ffffffff1681525090565b604051806102000160405280601090602082028036833780820191505090505090565b6040518060c00160405280611b40611a6e565b8152602001600067ffffffffffffffff168152602001606081526020016000815260200160008152602001600063ffffffff1681525090565b604051806102000160405280601090602082028036833780820191505090505090565b6000604051905090565b600080fd5b600080fd5b600080fd5b600080fd5b6000601f19601f8301169050919050565b7f4e487b7100000000000000000000000000000000000000000000000000000000600052604160045260246000fd5b611c0382611bba565b810181811067ffffffffffffffff82111715611c2257611c21611bcb565b5b80604052505050565b6000611c35611b9c565b9050611c418282611bfa565b919050565b600067ffffffffffffffff821115611c6157611c60611bcb565b5b611c6a82611bba565b9050602081019050919050565b82818337600083830152505050565b6000611c99611c9484611c46565b611c2b565b905082815260208101848484011115611cb557611cb4611bb5565b5b611cc0848285611c77565b509392505050565b600082601f830112611cdd57611cdc611bb0565b5b8135611ced848260208601611c86565b91505092915050565b600063ffffffff82169050919050565b611d0f81611cf6565b8114611d1a57600080fd5b50565b600081359050611d2c81611d06565b92915050565b60008060408385031215611d4957611d48611ba6565b5b600083013567ffffffffffffffff811115611d6757611d66611bab565b5b611d7385828601611cc8565b9250506020611d8485828601611d1d565b9150509250929050565b600081519050919050565b600082825260208201905092915050565b60005b83811015611dc8578082015181840152602081019050611dad565b60008484015250505050565b6000611ddf82611d8e565b611de98185611d99565b9350611df9818560208601611daa565b611e0281611bba565b840191505092915050565b60006020820190508181036000830152611e278184611dd4565b905092915050565b600067ffffffffffffffff82169050919050565b7f4e487b7100000000000000000000000000000000000000000000000000000000600052601160045260246000fd5b6000611e7d82611e2f565b9150611e8883611e2f565b9250828201905067ffffffffffffffff811115611ea857611ea7611e43565b5b92915050565b6000819050919050565b6000611ec382611eae565b9150611ece83611eae565b9250828203905081811115611ee657611ee5611e43565b5b92915050565b6000611ef782611eae565b9150611f0283611eae565b9250828201905080821115611f1a57611f19611e43565b5b92915050565b600082825260208201905092915050565b7f4c656e6774682065786365656473206d657373616765206c656e677468000000600082015250565b6000611f67601d83611f20565b9150611f7282611f31565b602082019050919050565b60006020820190508181036000830152611f9681611f5a565b9050919050565b6000611fa882611eae565b9150611fb383611eae565b9250828202611fc181611eae565b91508282048414831517611fd857611fd7611e43565b5b5092915050565b7f4e487b7100000000000000000000000000000000000000000000000000000000600052603260045260246000fd5b600061201982611cf6565b915061202483611cf6565b9250828203905063ffffffff8111156120405761203f611e43565b5b92915050565b7f4e487b7100000000000000000000000000000000000000000000000000000000600052601260045260246000fd5b600061208082611eae565b915061208b83611eae565b92508261209b5761209a612046565b5b828206905092915050565b7f4461746120627974657320697320746f6f206c6f6e6720746f20636f6e76657260008201527f7420746f20313620342d6279746520776f726473000000000000000000000000602082015250565b6000612102603483611f20565b915061210d826120a6565b604082019050919050565b60006020820190508181036000830152612131816120f5565b9050919050565b600061214382611eae565b915061214e83611eae565b92508261215e5761215d612046565b5b828204905092915050565b600060ff82169050919050565b600061218182612169565b915061218c83612169565b9250828203905060ff8111156121a5576121a4611e43565b5b92915050565b60006121b682612169565b91506121c183612169565b9250828201905060ff8111156121da576121d9611e43565b5b92915050565b60006121eb82611cf6565b91506121f683611cf6565b925082820261220481611cf6565b915080821461221657612215611e43565b5b5092915050565b7f6c655f62797465735f6765745f75696e7433325f6f75744f66426f756e647300600082015250565b6000612253601f83611f20565b915061225e8261221d565b602082019050919050565b6000602082019050818103600083015261228281612246565b9050919050565b600061229482611cf6565b915061229f83611cf6565b9250828201905063ffffffff8111156122bb576122ba611e43565b5b92915050565b60008160011c9050919050565b6000808291508390505b6001851115612318578086048111156122f4576122f3611e43565b5b60018516156123035780820291505b8081029050612311856122c1565b94506122d8565b94509492505050565b60008261233157600190506123ed565b8161233f57600090506123ed565b8160018114612355576002811461235f5761238e565b60019150506123ed565b60ff84111561237157612370611e43565b5b8360020a91508482111561238857612387611e43565b5b506123ed565b5060208310610133831016604e8410600b84101617156123c35782820a9050838111156123be576123bd611e43565b5b6123ed565b6123d084848460016122ce565b925090508184048111156123e7576123e6611e43565b5b81810290505b9392505050565b60006123ff82611eae565b915061240a83611eae565b92506124377fffffffffffffffffffffffffffffffffffffffffffffffffffffffffffffffff8484612321565b90509291505056fea264697066735822122034454011b819a6cede108348d7df4a8d195b8cd8530692f29bc05cf65887eced64736f6c634300081a0033",
  "linkReferences": {},
  "deployedLinkReferences": {}
}