{
  "_format": "hh-sol-artifact-1",
  "contractName": "FarcasterWalletOnchainVerifier",
  "sourceName": "contracts/wallet-verifier/FarcasterWalletOnchainVerifier.sol",
  "abi": [
    {
      "inputs": [
        {
          "internalType": "uint256",
          "name": "fid",
          "type": "uint256"
        },
        {
          "internalType": "address",
          "name": "verifyAddress",
          "type": "address"
        },
        {
          "internalType": "bytes32",
          "name": "publicKey",
          "type": "bytes32"
        },
        {
          "internalType": "bytes",
          "name": "signature",
          "type": "bytes"
        }
      ],
      "name": "verifyAdd",
      "outputs": [
        {
          "internalType": "bool",
          "name": "",
          "type": "bool"
        }
      ],
      "stateMutability": "view",
      "type": "function"
    },
    {
      "inputs": [
        {
          "internalType": "uint256",
          "name": "fid",
          "type": "uint256"
        },
        {
          "internalType": "address",
          "name": "verifyAddress",
          "type": "address"
        },
        {
          "internalType": "bytes32",
          "name": "publicKey",
          "type": "bytes32"
        },
        {
          "internalType": "bytes",
          "name": "signature",
          "type": "bytes"
        }
      ],
      "name": "verifyRemove",
      "outputs": [
        {
          "internalType": "bool",
          "name": "",
          "type": "bool"
        }
      ],
      "stateMutability": "pure",
      "type": "function"
    }
  ],
  "bytecode": "0x6080604052348015600f57600080fd5b506113bf8061001f6000396000f3fe608060405234801561001057600080fd5b50600436106100365760003560e01c80630e3b0ceb1461003b578063f4c24ea91461006b575b600080fd5b610055600480360381019061005091906106be565b61009b565b604051610062919061075c565b60405180910390f35b610085600480360381019061008091906106be565b6102c4565b604051610092919061075c565b60405180910390f35b600080600080848060200190518101906100b59190610826565b92509250925073__$b2e1051d61e226c9686ceebd5a2669e771$__6369cc64b6878585856040518563ffffffff1660e01b81526004016100f894939291906108f9565b602060405180830381865af4158015610115573d6000803e3d6000fd5b505050506040513d601f19601f820116820180604052508101906101399190610971565b61014957600093505050506102bc565b600073__$6c0253556166e82b90fdfaf04d100c3b03$__63613d24dc836040518263ffffffff1660e01b8152600401610182919061099e565b600060405180830381865af415801561019f573d6000803e3d6000fd5b505050506040513d6000823e3d601f19601f820116820180604052508101906101c89190610d53565b905060006101de82610100015160000151610477565b90508873ffffffffffffffffffffffffffffffffffffffff168173ffffffffffffffffffffffffffffffffffffffff16141580610229575089826020015167ffffffffffffffff1614155b1561023c576000955050505050506102bc565b73__$b2e1051d61e226c9686ceebd5a2669e771$__63cde41a0d836040518263ffffffff1660e01b8152600401610273919061111c565b602060405180830381865af4158015610290573d6000803e3d6000fd5b505050506040513d601f19601f820116820180604052508101906102b49190610971565b955050505050505b949350505050565b600080600080848060200190518101906102de9190610826565b92509250925073__$b2e1051d61e226c9686ceebd5a2669e771$__6369cc64b6878585856040518563ffffffff1660e01b815260040161032194939291906108f9565b602060405180830381865af415801561033e573d6000803e3d6000fd5b505050506040513d601f19601f820116820180604052508101906103629190610971565b610372576000935050505061046f565b600073__$6c0253556166e82b90fdfaf04d100c3b03$__63fee6de3a836040518263ffffffff1660e01b81526004016103ab919061099e565b600060405180830381865af41580156103c8573d6000803e3d6000fd5b505050506040513d6000823e3d601f19601f820116820180604052508101906103f19190611340565b9050600061040782610120015160000151610477565b90508873ffffffffffffffffffffffffffffffffffffffff168173ffffffffffffffffffffffffffffffffffffffff16141580610452575089826020015167ffffffffffffffff1614155b156104655760009550505050505061046f565b6001955050505050505b949350505050565b6000601482511461048757600080fd5b600c6101000a6020830151049050919050565b6000604051905090565b600080fd5b600080fd5b6000819050919050565b6104c1816104ae565b81146104cc57600080fd5b50565b6000813590506104de816104b8565b92915050565b600073ffffffffffffffffffffffffffffffffffffffff82169050919050565b600061050f826104e4565b9050919050565b61051f81610504565b811461052a57600080fd5b50565b60008135905061053c81610516565b92915050565b6000819050919050565b61055581610542565b811461056057600080fd5b50565b6000813590506105728161054c565b92915050565b600080fd5b600080fd5b6000601f19601f8301169050919050565b7f4e487b7100000000000000000000000000000000000000000000000000000000600052604160045260246000fd5b6105cb82610582565b810181811067ffffffffffffffff821117156105ea576105e9610593565b5b80604052505050565b60006105fd61049a565b905061060982826105c2565b919050565b600067ffffffffffffffff82111561062957610628610593565b5b61063282610582565b9050602081019050919050565b82818337600083830152505050565b600061066161065c8461060e565b6105f3565b90508281526020810184848401111561067d5761067c61057d565b5b61068884828561063f565b509392505050565b600082601f8301126106a5576106a4610578565b5b81356106b584826020860161064e565b91505092915050565b600080600080608085870312156106d8576106d76104a4565b5b60006106e6878288016104cf565b94505060206106f78782880161052d565b935050604061070887828801610563565b925050606085013567ffffffffffffffff811115610729576107286104a9565b5b61073587828801610690565b91505092959194509250565b60008115159050919050565b61075681610741565b82525050565b6000602082019050610771600083018461074d565b92915050565b6000815190506107868161054c565b92915050565b60005b838110156107aa57808201518184015260208101905061078f565b60008484015250505050565b60006107c96107c48461060e565b6105f3565b9050828152602081018484840111156107e5576107e461057d565b5b6107f084828561078c565b509392505050565b600082601f83011261080d5761080c610578565b5b815161081d8482602086016107b6565b91505092915050565b60008060006060848603121561083f5761083e6104a4565b5b600061084d86828701610777565b935050602061085e86828701610777565b925050604084015167ffffffffffffffff81111561087f5761087e6104a9565b5b61088b868287016107f8565b9150509250925092565b61089e81610542565b82525050565b600081519050919050565b600082825260208201905092915050565b60006108cb826108a4565b6108d581856108af565b93506108e581856020860161078c565b6108ee81610582565b840191505092915050565b600060808201905061090e6000830187610895565b61091b6020830186610895565b6109286040830185610895565b818103606083015261093a81846108c0565b905095945050505050565b61094e81610741565b811461095957600080fd5b50565b60008151905061096b81610945565b92915050565b600060208284031215610987576109866104a4565b5b60006109958482850161095c565b91505092915050565b600060208201905081810360008301526109b881846108c0565b905092915050565b600080fd5b600080fd5b600f81106109d757600080fd5b50565b6000815190506109e9816109ca565b92915050565b600067ffffffffffffffff82169050919050565b610a0c816109ef565b8114610a1757600080fd5b50565b600081519050610a2981610a03565b92915050565b600063ffffffff82169050919050565b610a4881610a2f565b8114610a5357600080fd5b50565b600081519050610a6581610a3f565b92915050565b60048110610a7857600080fd5b50565b600081519050610a8a81610a6b565b92915050565b60028110610a9d57600080fd5b50565b600081519050610aaf81610a90565b92915050565b600060e08284031215610acb57610aca6109c0565b5b610ad560e06105f3565b9050600082015167ffffffffffffffff811115610af557610af46109c5565b5b610b01848285016107f8565b600083015250602082015167ffffffffffffffff811115610b2557610b246109c5565b5b610b31848285016107f8565b602083015250604082015167ffffffffffffffff811115610b5557610b546109c5565b5b610b61848285016107f8565b6040830152506060610b7584828501610a56565b6060830152506080610b8984828501610a56565b60808301525060a0610b9d8482850161095c565b60a08301525060c0610bb184828501610aa0565b60c08301525092915050565b60006102008284031215610bd457610bd36109c0565b5b610bdf6102006105f3565b90506000610bef848285016109da565b6000830152506020610c0384828501610a1a565b6020830152506040610c1784828501610a56565b6040830152506060610c2b84828501610a7b565b6060830152506080610c3f8482850161095c565b60808301525060a0610c538482850161095c565b60a08301525060c0610c678482850161095c565b60c08301525060e0610c7b8482850161095c565b60e08301525061010082015167ffffffffffffffff811115610ca057610c9f6109c5565b5b610cac84828501610ab5565b61010083015250610120610cc28482850161095c565b61012083015250610140610cd88482850161095c565b61014083015250610160610cee8482850161095c565b61016083015250610180610d048482850161095c565b610180830152506101a0610d1a8482850161095c565b6101a0830152506101c0610d308482850161095c565b6101c0830152506101e0610d468482850161095c565b6101e08301525092915050565b600060208284031215610d6957610d686104a4565b5b600082015167ffffffffffffffff811115610d8757610d866104a9565b5b610d9384828501610bbd565b91505092915050565b7f4e487b7100000000000000000000000000000000000000000000000000000000600052602160045260246000fd5b600f8110610ddc57610ddb610d9c565b5b50565b6000819050610ded82610dcb565b919050565b6000610dfd82610ddf565b9050919050565b610e0d81610df2565b82525050565b610e1c816109ef565b82525050565b610e2b81610a2f565b82525050565b60048110610e4257610e41610d9c565b5b50565b6000819050610e5382610e31565b919050565b6000610e6382610e45565b9050919050565b610e7381610e58565b82525050565b610e8281610741565b82525050565b600082825260208201905092915050565b6000610ea4826108a4565b610eae8185610e88565b9350610ebe81856020860161078c565b610ec781610582565b840191505092915050565b60028110610ee357610ee2610d9c565b5b50565b6000819050610ef482610ed2565b919050565b6000610f0482610ee6565b9050919050565b610f1481610ef9565b82525050565b600060e0830160008301518482036000860152610f378282610e99565b91505060208301518482036020860152610f518282610e99565b91505060408301518482036040860152610f6b8282610e99565b9150506060830151610f806060860182610e22565b506080830151610f936080860182610e22565b5060a0830151610fa660a0860182610e79565b5060c0830151610fb960c0860182610f0b565b508091505092915050565b600061020083016000830151610fdd6000860182610e04565b506020830151610ff06020860182610e13565b5060408301516110036040860182610e22565b5060608301516110166060860182610e6a565b5060808301516110296080860182610e79565b5060a083015161103c60a0860182610e79565b5060c083015161104f60c0860182610e79565b5060e083015161106260e0860182610e79565b5061010083015184820361010086015261107c8282610f1a565b915050610120830151611093610120860182610e79565b506101408301516110a8610140860182610e79565b506101608301516110bd610160860182610e79565b506101808301516110d2610180860182610e79565b506101a08301516110e76101a0860182610e79565b506101c08301516110fc6101c0860182610e79565b506101e08301516111116101e0860182610e79565b508091505092915050565b600060208201905081810360008301526111368184610fc4565b905092915050565b600060408284031215611154576111536109c0565b5b61115e60406105f3565b9050600082015167ffffffffffffffff81111561117e5761117d6109c5565b5b61118a848285016107f8565b600083015250602061119e84828501610aa0565b60208301525092915050565b600061020082840312156111c1576111c06109c0565b5b6111cc6102006105f3565b905060006111dc848285016109da565b60008301525060206111f084828501610a1a565b602083015250604061120484828501610a56565b604083015250606061121884828501610a7b565b606083015250608061122c8482850161095c565b60808301525060a06112408482850161095c565b60a08301525060c06112548482850161095c565b60c08301525060e06112688482850161095c565b60e08301525061010061127d8482850161095c565b6101008301525061012082015167ffffffffffffffff8111156112a3576112a26109c5565b5b6112af8482850161113e565b610120830152506101406112c58482850161095c565b610140830152506101606112db8482850161095c565b610160830152506101806112f18482850161095c565b610180830152506101a06113078482850161095c565b6101a0830152506101c061131d8482850161095c565b6101c0830152506101e06113338482850161095c565b6101e08301525092915050565b600060208284031215611356576113556104a4565b5b600082015167ffffffffffffffff811115611374576113736104a9565b5b611380848285016111aa565b9150509291505056fea26469706673582212207a54ba7c6c13347484e8f8a73edac313032c8bc27ac9f9b56c7f832090c0df0a64736f6c634300081a0033",
  "linkReferences": {
    "@farcaster-attestation/farcaster-solidity/contracts/farcaster/FcMessageDecoder.sol": {
      "FcVerificationDecoder": [
        {
          "length": 20,
          "start": 364
        },
        {
          "length": 20,
          "start": 917
        }
      ]
    },
    "@farcaster-attestation/farcaster-solidity/contracts/farcaster/FcMessageVerification.sol": {
      "FcMessageVerification": [
        {
          "length": 20,
          "start": 220
        },
        {
          "length": 20,
          "start": 605
        },
        {
          "length": 20,
          "start": 773
        }
      ]
    }
  },
  "deployedLinkReferences": {
    "@farcaster-attestation/farcaster-solidity/contracts/farcaster/FcMessageDecoder.sol": {
      "FcVerificationDecoder": [
        {
          "length": 20,
          "start": 333
        },
        {
          "length": 20,
          "start": 886
        }
      ]
    },
    "@farcaster-attestation/farcaster-solidity/contracts/farcaster/FcMessageVerification.sol": {
      "FcMessageVerification": [
        {
          "length": 20,
          "start": 189
        },
        {
          "length": 20,
          "start": 574
        },
        {
          "length": 20,
          "start": 742
        }
      ]
    }
  }
}