{
  "_format": "hh-sol-artifact-1",
  "contractName": "Sha512",
  "sourceName": "@farcaster-attestation/farcaster-solidity/contracts/libraries/Sha512.sol",
  "abi": [
    {
      "inputs": [
        {
          "internalType": "bytes",
          "name": "data",
          "type": "bytes"
        }
      ],
      "name": "hash",
      "outputs": [
        {
          "internalType": "uint64[8]",
          "name": "",
          "type": "uint64[8]"
        }
      ],
      "stateMutability": "pure",
      "type": "function"
    }
  ],
  "bytecode": "0x611b70610052600b82828239805160001a6073146045577f4e487b7100000000000000000000000000000000000000000000000000000000600052600060045260246000fd5b30600052607381538281f3fe73000000000000000000000000000000000000000030146080604052600436106100355760003560e01c8063aa1e84de1461003a575b600080fd5b610054600480360381019061004f9190611788565b61006a565b6040516100619190611890565b60405180910390f35b610072611530565b6000604051806101000160405280676a09e667f3bcc90867ffffffffffffffff16815260200167bb67ae8584caa73b67ffffffffffffffff168152602001673c6ef372fe94f82b67ffffffffffffffff16815260200167a54ff53a5f1d36f167ffffffffffffffff16815260200167510e527fade682d167ffffffffffffffff168152602001679b05688c2b3e6c1f67ffffffffffffffff168152602001671f83d9abfb41bd6b67ffffffffffffffff168152602001675be0cd19137e217967ffffffffffffffff16815250905060008061014b611553565b610153611576565b600060405180610a00016040528067428a2f98d728ae2267ffffffffffffffff168152602001677137449123ef65cd67ffffffffffffffff16815260200167b5c0fbcfec4d3b2f67ffffffffffffffff16815260200167e9b5dba58189dbbc67ffffffffffffffff168152602001673956c25bf348b53867ffffffffffffffff1681526020016759f111f1b605d01967ffffffffffffffff16815260200167923f82a4af194f9b67ffffffffffffffff16815260200167ab1c5ed5da6d811867ffffffffffffffff16815260200167d807aa98a303024267ffffffffffffffff1681526020016712835b0145706fbe67ffffffffffffffff16815260200167243185be4ee4b28c67ffffffffffffffff16815260200167550c7dc3d5ffb4e267ffffffffffffffff1681526020016772be5d74f27b896f67ffffffffffffffff1681526020016780deb1fe3b1696b167ffffffffffffffff168152602001679bdc06a725c7123567ffffffffffffffff16815260200167c19bf174cf69269467ffffffffffffffff16815260200167e49b69c19ef14ad267ffffffffffffffff16815260200167efbe4786384f25e367ffffffffffffffff168152602001670fc19dc68b8cd5b567ffffffffffffffff16815260200167240ca1cc77ac9c6567ffffffffffffffff168152602001672de92c6f592b027567ffffffffffffffff168152602001674a7484aa6ea6e48367ffffffffffffffff168152602001675cb0a9dcbd41fbd467ffffffffffffffff1681526020016776f988da831153b567ffffffffffffffff16815260200167983e5152ee66dfab67ffffffffffffffff16815260200167a831c66d2db4321067ffffffffffffffff16815260200167b00327c898fb213f67ffffffffffffffff16815260200167bf597fc7beef0ee467ffffffffffffffff16815260200167c6e00bf33da88fc267ffffffffffffffff16815260200167d5a79147930aa72567ffffffffffffffff1681526020016706ca6351e003826f67ffffffffffffffff16815260200167142929670a0e6e7067ffffffffffffffff1681526020016727b70a8546d22ffc67ffffffffffffffff168152602001672e1b21385c26c92667ffffffffffffffff168152602001674d2c6dfc5ac42aed67ffffffffffffffff1681526020016753380d139d95b3df67ffffffffffffffff16815260200167650a73548baf63de67ffffffffffffffff16815260200167766a0abb3c77b2a867ffffffffffffffff1681526020016781c2c92e47edaee667ffffffffffffffff1681526020016792722c851482353b67ffffffffffffffff16815260200167a2bfe8a14cf1036467ffffffffffffffff16815260200167a81a664bbc42300167ffffffffffffffff16815260200167c24b8b70d0f8979167ffffffffffffffff16815260200167c76c51a30654be3067ffffffffffffffff16815260200167d192e819d6ef521867ffffffffffffffff16815260200167d69906245565a91067ffffffffffffffff16815260200167f40e35855771202a67ffffffffffffffff16815260200167106aa07032bbd1b867ffffffffffffffff1681526020016719a4c116b8d2d0c867ffffffffffffffff168152602001671e376c085141ab5367ffffffffffffffff168152602001672748774cdf8eeb9967ffffffffffffffff1681526020016734b0bcb5e19b48a867ffffffffffffffff16815260200167391c0cb3c5c95a6367ffffffffffffffff168152602001674ed8aa4ae3418acb67ffffffffffffffff168152602001675b9cca4f7763e37367ffffffffffffffff16815260200167682e6ff3d6b2b8a367ffffffffffffffff16815260200167748f82ee5defb2fc67ffffffffffffffff1681526020016778a5636f43172f6067ffffffffffffffff1681526020016784c87814a1f0ab7267ffffffffffffffff168152602001678cc702081a6439ec67ffffffffffffffff1681526020016790befffa23631e2867ffffffffffffffff16815260200167a4506cebde82bde967ffffffffffffffff16815260200167bef9a3f7b2c6791567ffffffffffffffff16815260200167c67178f2e372532b67ffffffffffffffff16815260200167ca273eceea26619c67ffffffffffffffff16815260200167d186b8c721c0c20767ffffffffffffffff16815260200167eada7dd6cde0eb1e67ffffffffffffffff16815260200167f57d4f7fee6ed17867ffffffffffffffff1681526020016706f067aa72176fba67ffffffffffffffff168152602001670a637dc5a2c898a667ffffffffffffffff16815260200167113f9804bef90dae67ffffffffffffffff168152602001671b710b35131c471b67ffffffffffffffff1681526020016728db77f523047d8467ffffffffffffffff1681526020016732caab7b40c7249367ffffffffffffffff168152602001673c9ebe0a15c9bebc67ffffffffffffffff16815260200167431d67c49c100d4c67ffffffffffffffff168152602001674cc5d4becb3e42b667ffffffffffffffff16815260200167597f299cfc657e2a67ffffffffffffffff168152602001675fcb6fab3ad6faec67ffffffffffffffff168152602001676c44198c4a47581767ffffffffffffffff16815250905060006108ec89611051565b905060005b6080825181610903576109026118ac565b5b0481101561104157600061091783836112af565b90508860006008811061092d5761092c6118db565b5b6020020151856000019067ffffffffffffffff16908167ffffffffffffffff168152505088600160088110610965576109646118db565b5b6020020151856020019067ffffffffffffffff16908167ffffffffffffffff16815250508860026008811061099d5761099c6118db565b5b6020020151856040019067ffffffffffffffff16908167ffffffffffffffff1681525050886003600881106109d5576109d46118db565b5b6020020151856060019067ffffffffffffffff16908167ffffffffffffffff168152505088600460088110610a0d57610a0c6118db565b5b6020020151856080019067ffffffffffffffff16908167ffffffffffffffff168152505088600560088110610a4557610a446118db565b5b60200201518560a0019067ffffffffffffffff16908167ffffffffffffffff168152505088600660088110610a7d57610a7c6118db565b5b60200201518560c0019067ffffffffffffffff16908167ffffffffffffffff168152505088600760088110610ab557610ab46118db565b5b60200201518560e0019067ffffffffffffffff16908167ffffffffffffffff168152505060005b6050811015610da2576010811015610b3d57818160108110610b0157610b006118db565b5b6020020151878260508110610b1957610b186118db565b5b602002019067ffffffffffffffff16908167ffffffffffffffff1681525050610bef565b866010820360508110610b5357610b526118db565b5b6020020151610b7b88600f840360508110610b7157610b706118db565b5b6020020151611354565b886007840360508110610b9157610b906118db565b5b6020020151610bb98a6002860360508110610baf57610bae6118db565b5b6020020151611380565b010101878260508110610bcf57610bce6118db565b5b602002019067ffffffffffffffff16908167ffffffffffffffff16815250505b868160508110610c0257610c016118db565b5b6020020151858260508110610c1a57610c196118db565b5b6020020151610c3688608001518960a001518a60c001516113ac565b610c4389608001516113c8565b8960e00151010101019850610c658660000151876020015188604001516113f4565b610c72876000015161140a565b0197508560c001518660e0019067ffffffffffffffff16908167ffffffffffffffff16815250508560a001518660c0019067ffffffffffffffff16908167ffffffffffffffff168152505085608001518660a0019067ffffffffffffffff16908167ffffffffffffffff168152505088866060015101866080019067ffffffffffffffff16908167ffffffffffffffff16815250508560400151866060019067ffffffffffffffff16908167ffffffffffffffff16815250508560200151866040019067ffffffffffffffff16908167ffffffffffffffff16815250508560000151866020019067ffffffffffffffff16908167ffffffffffffffff1681525050878901866000019067ffffffffffffffff16908167ffffffffffffffff16815250508080600101915050610adc565b50846000015189600060088110610dbc57610dbb6118db565b5b60200201510189600060088110610dd657610dd56118db565b5b602002019067ffffffffffffffff16908167ffffffffffffffff1681525050846020015189600160088110610e0e57610e0d6118db565b5b60200201510189600160088110610e2857610e276118db565b5b602002019067ffffffffffffffff16908167ffffffffffffffff1681525050846040015189600260088110610e6057610e5f6118db565b5b60200201510189600260088110610e7a57610e796118db565b5b602002019067ffffffffffffffff16908167ffffffffffffffff1681525050846060015189600360088110610eb257610eb16118db565b5b60200201510189600360088110610ecc57610ecb6118db565b5b602002019067ffffffffffffffff16908167ffffffffffffffff1681525050846080015189600460088110610f0457610f036118db565b5b60200201510189600460088110610f1e57610f1d6118db565b5b602002019067ffffffffffffffff16908167ffffffffffffffff16815250508460a0015189600560088110610f5657610f556118db565b5b60200201510189600560088110610f7057610f6f6118db565b5b602002019067ffffffffffffffff16908167ffffffffffffffff16815250508460c0015189600660088110610fa857610fa76118db565b5b60200201510189600660088110610fc257610fc16118db565b5b602002019067ffffffffffffffff16908167ffffffffffffffff16815250508460e0015189600760088110610ffa57610ff96118db565b5b60200201510189600760088110611014576110136118db565b5b602002019067ffffffffffffffff16908167ffffffffffffffff16815250505080806001019150506108f1565b5050505050505080915050919050565b60606000608083516110639190611914565b608061106f9190611974565b90506070608084516110819190611914565b106110a457608083516110949190611914565b6101006110a19190611974565b90505b60008184516110b391906119a8565b67ffffffffffffffff8111156110cc576110cb61165d565b5b6040519080825280601f01601f1916602001820160405280156110fe5781602001600182028036833780820191505090505b50905060005b845181101561117a578481815181106111205761111f6118db565b5b602001015160f81c60f81b82828151811061113e5761113d6118db565b5b60200101907effffffffffffffffffffffffffffffffffffffffffffffffffffffffffffff1916908160001a9053508080600101915050611104565b50608060f81b81855181518110611194576111936118db565b5b60200101907effffffffffffffffffffffffffffffffffffffffffffffffffffffffffffff1916908160001a9053506000600885516111d391906119dc565b90506000816040516020016111e89190611a70565b604051602081830303815290604052905060005b81518110156112a2578181600184516112159190611974565b61121f9190611974565b815181106112305761122f6118db565b5b602001015160f81c60f81b84826001875161124b9190611974565b6112559190611974565b81518110611266576112656118db565b5b60200101907effffffffffffffffffffffffffffffffffffffffffffffffffffffffffffff1916908160001a90535080806001019150506111fc565b5082945050505050919050565b6112b761160b565b6112bf61160b565b60005b60108160ff161015611349576112fe856008836112df9190611a98565b60ff166080876112ef91906119dc565b6112f991906119a8565b611436565b60c01c828260ff1660108110611317576113166118db565b5b602002019067ffffffffffffffff16908167ffffffffffffffff1681525050808061134190611ad5565b9150506112c2565b508091505092915050565b60006113618260076114dc565b61136c8360086114f4565b6113778460016114f4565b18189050919050565b600061138d8260066114dc565b61139883603d6114f4565b6113a38460136114f4565b18189050919050565b60008167ffffffffffffffff8518168385161890509392505050565b60006113d58260296114f4565b6113e08360126114f4565b6113eb84600e6114f4565b18189050919050565b6000818316828516848616181890509392505050565b60006114178260276114f4565b6114228360226114f4565b61142d84601c6114f4565b18189050919050565b60008060005b60088110156114d15760088161145291906119dc565b60ff60f81b86838761146491906119a8565b81518110611475576114746118db565b5b602001015160f81c60f81b167effffffffffffffffffffffffffffffffffffffffffffffffffffffffffffff191677ffffffffffffffffffffffffffffffffffffffffffffffff1916901c82179150808060010191505061143c565b508091505092915050565b6000818367ffffffffffffffff16901c905092915050565b6000818367ffffffffffffffff16901c8260406115119190611974565b8467ffffffffffffffff16901b6115289190611afe565b905092915050565b604051806101000160405280600890602082028036833780820191505090505090565b60405180610a000160405280605090602082028036833780820191505090505090565b604051806101000160405280600067ffffffffffffffff168152602001600067ffffffffffffffff168152602001600067ffffffffffffffff168152602001600067ffffffffffffffff168152602001600067ffffffffffffffff168152602001600067ffffffffffffffff168152602001600067ffffffffffffffff168152602001600067ffffffffffffffff1681525090565b604051806102000160405280601090602082028036833780820191505090505090565b6000604051905090565b600080fd5b600080fd5b600080fd5b600080fd5b6000601f19601f8301169050919050565b7f4e487b7100000000000000000000000000000000000000000000000000000000600052604160045260246000fd5b6116958261164c565b810181811067ffffffffffffffff821117156116b4576116b361165d565b5b80604052505050565b60006116c761162e565b90506116d3828261168c565b919050565b600067ffffffffffffffff8211156116f3576116f261165d565b5b6116fc8261164c565b9050602081019050919050565b82818337600083830152505050565b600061172b611726846116d8565b6116bd565b90508281526020810184848401111561174757611746611647565b5b611752848285611709565b509392505050565b600082601f83011261176f5761176e611642565b5b813561177f848260208601611718565b91505092915050565b60006020828403121561179e5761179d611638565b5b600082013567ffffffffffffffff8111156117bc576117bb61163d565b5b6117c88482850161175a565b91505092915050565b600060089050919050565b600081905092915050565b6000819050919050565b600067ffffffffffffffff82169050919050565b61180e816117f1565b82525050565b60006118208383611805565b60208301905092915050565b6000602082019050919050565b611842816117d1565b61184c81846117dc565b9250611857826117e7565b8060005b8381101561188857815161186f8782611814565b965061187a8361182c565b92505060018101905061185b565b505050505050565b6000610100820190506118a66000830184611839565b92915050565b7f4e487b7100000000000000000000000000000000000000000000000000000000600052601260045260246000fd5b7f4e487b7100000000000000000000000000000000000000000000000000000000600052603260045260246000fd5b6000819050919050565b600061191f8261190a565b915061192a8361190a565b92508261193a576119396118ac565b5b828206905092915050565b7f4e487b7100000000000000000000000000000000000000000000000000000000600052601160045260246000fd5b600061197f8261190a565b915061198a8361190a565b92508282039050818111156119a2576119a1611945565b5b92915050565b60006119b38261190a565b91506119be8361190a565b92508282019050808211156119d6576119d5611945565b5b92915050565b60006119e78261190a565b91506119f28361190a565b9250828202611a008161190a565b91508282048414831517611a1757611a16611945565b5b5092915050565b60006fffffffffffffffffffffffffffffffff82169050919050565b60008160801b9050919050565b6000611a5282611a3a565b9050919050565b611a6a611a6582611a1e565b611a47565b82525050565b6000611a7c8284611a59565b60108201915081905092915050565b600060ff82169050919050565b6000611aa382611a8b565b9150611aae83611a8b565b9250828202611abc81611a8b565b9150808214611ace57611acd611945565b5b5092915050565b6000611ae082611a8b565b915060ff8203611af357611af2611945565b5b600182019050919050565b6000611b09826117f1565b9150611b14836117f1565b9250828201905067ffffffffffffffff811115611b3457611b33611945565b5b9291505056fea26469706673582212204f091cb2e8476f7bcbb461235dc7bfa38f65c213fd7522a30edc42112c6df7ea64736f6c634300081a0033",
  "linkReferences": {},
  "deployedLinkReferences": {}
}