{
  "_format": "hh-sol-artifact-1",
  "contractName": "FarcasterWalletOnchainVerifier",
  "sourceName": "contracts/wallet-verifier/FarcasterWalletOnchainVerifier.sol",
  "abi": [
    {
      "inputs": [
        {
          "internalType": "uint256",
          "name": "fid",
          "type": "uint256"
        },
        {
          "internalType": "address",
          "name": "verifyAddress",
          "type": "address"
        },
        {
          "internalType": "bytes32",
          "name": "publicKey",
          "type": "bytes32"
        },
        {
          "internalType": "bytes",
          "name": "signature",
          "type": "bytes"
        }
      ],
      "name": "verifyAdd",
      "outputs": [
        {
          "internalType": "bool",
          "name": "",
          "type": "bool"
        }
      ],
      "stateMutability": "view",
      "type": "function"
    },
    {
      "inputs": [
        {
          "internalType": "uint256",
          "name": "fid",
          "type": "uint256"
        },
        {
          "internalType": "address",
          "name": "verifyAddress",
          "type": "address"
        },
        {
          "internalType": "bytes32",
          "name": "publicKey",
          "type": "bytes32"
        },
        {
          "internalType": "bytes",
          "name": "signature",
          "type": "bytes"
        }
      ],
      "name": "verifyRemove",
      "outputs": [
        {
          "internalType": "bool",
          "name": "",
          "type": "bool"
        }
      ],
      "stateMutability": "pure",
      "type": "function"
    }
  ],
  "bytecode": "0x6080604052348015600f57600080fd5b50610ef18061001f6000396000f3fe608060405234801561001057600080fd5b50600436106100365760003560e01c80630e3b0ceb1461003b578063f4c24ea914610062575b600080fd5b61004e61004936600461060f565b610075565b604051901515815260200160405180910390f35b61004e61007036600461060f565b6102ee565b6000806000808480602001905181019061008f9190610737565b92509250925073__$b2e1051d61e226c9686ceebd5a2669e771$__6369cc64b6878585856040518563ffffffff1660e01b81526004016100d294939291906107d2565b602060405180830381865af41580156100ef573d6000803e3d6000fd5b505050506040513d601f19601f820116820180604052508101906101139190610816565b61012357600093505050506102e6565b6040517f613d24dc00000000000000000000000000000000000000000000000000000000815260009073__$6c0253556166e82b90fdfaf04d100c3b03$__9063613d24dc90610176908590600401610838565b600060405180830381865af4158015610193573d6000803e3d6000fd5b505050506040513d6000823e601f3d9081017fffffffffffffffffffffffffffffffffffffffffffffffffffffffffffffffe01682016040526101d99190810190610988565b905060006101ef826101000151600001516104d6565b90508873ffffffffffffffffffffffffffffffffffffffff168173ffffffffffffffffffffffffffffffffffffffff1614158061023a575089826020015167ffffffffffffffff1614155b1561024d576000955050505050506102e6565b6040517fcde41a0d00000000000000000000000000000000000000000000000000000000815273__$b2e1051d61e226c9686ceebd5a2669e771$__9063cde41a0d9061029d908590600401610c05565b602060405180830381865af41580156102ba573d6000803e3d6000fd5b505050506040513d601f19601f820116820180604052508101906102de9190610816565b955050505050505b949350505050565b600080600080848060200190518101906103089190610737565b92509250925073__$b2e1051d61e226c9686ceebd5a2669e771$__6369cc64b6878585856040518563ffffffff1660e01b815260040161034b94939291906107d2565b602060405180830381865af4158015610368573d6000803e3d6000fd5b505050506040513d601f19601f8201168201806040525081019061038c9190610816565b61039c57600093505050506102e6565b6040517ffee6de3a00000000000000000000000000000000000000000000000000000000815260009073__$6c0253556166e82b90fdfaf04d100c3b03$__9063fee6de3a906103ef908590600401610838565b600060405180830381865af415801561040c573d6000803e3d6000fd5b505050506040513d6000823e601f3d9081017fffffffffffffffffffffffffffffffffffffffffffffffffffffffffffffffe01682016040526104529190810190610da7565b90506000610468826101200151600001516104d6565b90508873ffffffffffffffffffffffffffffffffffffffff168173ffffffffffffffffffffffffffffffffffffffff161415806104b3575089826020015167ffffffffffffffff1614155b156104c6576000955050505050506102e6565b5060019998505050505050505050565b600081516014146104e657600080fd5b50602001516c01000000000000000000000000900490565b7f4e487b7100000000000000000000000000000000000000000000000000000000600052604160045260246000fd5b60405160e0810167ffffffffffffffff81118282101715610550576105506104fe565b60405290565b604051610200810167ffffffffffffffff81118282101715610550576105506104fe565b604051601f82017fffffffffffffffffffffffffffffffffffffffffffffffffffffffffffffffe016810167ffffffffffffffff811182821017156105c1576105c16104fe565b604052919050565b600067ffffffffffffffff8211156105e3576105e36104fe565b50601f017fffffffffffffffffffffffffffffffffffffffffffffffffffffffffffffffe01660200190565b6000806000806080858703121561062557600080fd5b84359350602085013573ffffffffffffffffffffffffffffffffffffffff8116811461065057600080fd5b925060408501359150606085013567ffffffffffffffff81111561067357600080fd5b8501601f8101871361068457600080fd5b8035610697610692826105c9565b61057a565b8181528860208385010111156106ac57600080fd5b8160208401602083013760006020838301015280935050505092959194509250565b60005b838110156106e95781810151838201526020016106d1565b50506000910152565b600082601f83011261070357600080fd5b8151610711610692826105c9565b81815284602083860101111561072657600080fd5b6102e68260208301602087016106ce565b60008060006060848603121561074c57600080fd5b835160208501516040860151919450925067ffffffffffffffff81111561077257600080fd5b61077e868287016106f2565b9150509250925092565b600081518084526107a08160208601602086016106ce565b601f017fffffffffffffffffffffffffffffffffffffffffffffffffffffffffffffffe0169290920160200192915050565b8481528360208201528260408201526080606082015260006107f76080830184610788565b9695505050505050565b8051801515811461081157600080fd5b919050565b60006020828403121561082857600080fd5b61083182610801565b9392505050565b6020815260006108316020830184610788565b8051600f811061081157600080fd5b805167ffffffffffffffff8116811461081157600080fd5b805163ffffffff8116811461081157600080fd5b80516004811061081157600080fd5b80516002811061081157600080fd5b600060e082840312156108b657600080fd5b6108be61052d565b9050815167ffffffffffffffff8111156108d757600080fd5b6108e3848285016106f2565b825250602082015167ffffffffffffffff81111561090057600080fd5b61090c848285016106f2565b602083015250604082015167ffffffffffffffff81111561092c57600080fd5b610938848285016106f2565b60408301525061094a60608301610872565b606082015261095b60808301610872565b608082015261096c60a08301610801565b60a082015261097d60c08301610895565b60c082015292915050565b60006020828403121561099a57600080fd5b815167ffffffffffffffff8111156109b157600080fd5b820161020081850312156109c457600080fd5b6109cc610556565b6109d58261084b565b81526109e36020830161085a565b60208201526109f460408301610872565b6040820152610a0560608301610886565b6060820152610a1660808301610801565b6080820152610a2760a08301610801565b60a0820152610a3860c08301610801565b60c0820152610a4960e08301610801565b60e082015261010082015167ffffffffffffffff811115610a6957600080fd5b610a75868285016108a4565b61010083015250610a896101208301610801565b610120820152610a9c6101408301610801565b610140820152610aaf6101608301610801565b610160820152610ac26101808301610801565b610180820152610ad56101a08301610801565b6101a0820152610ae86101c08301610801565b6101c0820152610afb6101e08301610801565b6101e0820152949350505050565b7f4e487b7100000000000000000000000000000000000000000000000000000000600052602160045260246000fd5b600f8110610b4857610b48610b09565b9052565b60048110610b4857610b48610b09565b60028110610b4857610b48610b09565b6000815160e08452610b8160e0850182610788565b905060208301518482036020860152610b9a8282610788565b91505060408301518482036040860152610bb48282610788565b91505063ffffffff606084015116606085015263ffffffff608084015116608085015260a0830151610bea60a086018215159052565b5060c0830151610bfd60c0860182610b5c565b509392505050565b60208152610c17602082018351610b38565b60006020830151610c34604084018267ffffffffffffffff169052565b50604083015163ffffffff81166060840152506060830151610c596080840182610b4c565b50608083015180151560a08401525060a083015180151560c08401525060c083015180151560e08401525060e083015180151561010084015250610100830151610200610120840152610cb0610220840182610b6c565b9050610120840151610cc761014085018215159052565b5061014084015180151561016085015250610160840151801515610180850152506101808401518015156101a0850152506101a08401518015156101c0850152506101c08401518015156101e0850152506101e0840151801515610200850152610bfd565b600060408284031215610d3e57600080fd5b6040805190810167ffffffffffffffff81118282101715610d6157610d616104fe565b8060405250809150825167ffffffffffffffff811115610d8057600080fd5b610d8c858286016106f2565b825250610d9b60208401610895565b60208201525092915050565b600060208284031215610db957600080fd5b815167ffffffffffffffff811115610dd057600080fd5b82016102008185031215610de357600080fd5b610deb610556565b610df48261084b565b8152610e026020830161085a565b6020820152610e1360408301610872565b6040820152610e2460608301610886565b6060820152610e3560808301610801565b6080820152610e4660a08301610801565b60a0820152610e5760c08301610801565b60c0820152610e6860e08301610801565b60e0820152610e7a6101008301610801565b61010082015261012082015167ffffffffffffffff811115610e9b57600080fd5b610ea786828501610d2c565b61012083015250610a9c610140830161080156fea264697066735822122013749e7af90a166133f86549edef506a94893c60f82d5cbef4753458666189fd64736f6c634300081a0033",
  "linkReferences": {
    "@farcaster-attestation/farcaster-solidity/contracts/farcaster/FcMessageDecoder.sol": {
      "FcVerificationDecoder": [
        {
          "length": 20,
          "start": 365
        },
        {
          "length": 20,
          "start": 998
        }
      ]
    },
    "@farcaster-attestation/farcaster-solidity/contracts/farcaster/FcMessageVerification.sol": {
      "FcMessageVerification": [
        {
          "length": 20,
          "start": 182
        },
        {
          "length": 20,
          "start": 660
        },
        {
          "length": 20,
          "start": 815
        }
      ]
    }
  },
  "deployedLinkReferences": {
    "@farcaster-attestation/farcaster-solidity/contracts/farcaster/FcMessageDecoder.sol": {
      "FcVerificationDecoder": [
        {
          "length": 20,
          "start": 334
        },
        {
          "length": 20,
          "start": 967
        }
      ]
    },
    "@farcaster-attestation/farcaster-solidity/contracts/farcaster/FcMessageVerification.sol": {
      "FcMessageVerification": [
        {
          "length": 20,
          "start": 151
        },
        {
          "length": 20,
          "start": 629
        },
        {
          "length": 20,
          "start": 784
        }
      ]
    }
  }
}